:020000040800F2
:10000000584400205D020008FF140008191400087D
:10001000FD140008B905000865180008000000007C
:100020000000000000000000000000009D0100082A
:10003000ED07000800000000F9010008C1150008E4
:1000400077020008770200087702000877020008AC
:10005000770200087702000877020008770200089C
:10006000770200087702000877020008770200088C
:10007000770200087702000877020008770200087C
:10008000770200087702000877020008770200086C
:10009000770200087702000877020008770200085C
:1000A000770200088516000877020008770200082A
:1000B000770200087702000877020008770200083C
:1000C000770200087702000877020008770200082C
:1000D000770200087702000877020008770200081C
:1000E000770200087702000877020008770200080C
:1000F00077020008770200087702000877020008FC
:1001000077020008770200087702000877020008EB
:1001100077020008770200087702000877020008DB
:1001200077020008770200087702000877020008CB
:1001300077020008770200087702000877020008BB
:1001400077020008770200087702000877020008AB
:10015000770200087702000877020008770200089B
:10016000770200087702000877020008770200088B
:1001700077020008770200087702000800000000FC
:100180007702000877020008DFF80CD000F002FACE
:1001900000480047651A0008584400202C4B196895
:1001A0000868B0E8F04F80F30988BFF36F8F4FF015
:1001B000000080F3118870470000000008480068C4
:1001C000006880F308884FF0000080F3148862B65E
:1001D00061B6BFF34F8FBFF36F8F00DF00BF00BF6B
:1001E00008ED00E0DFF80C00016841F470010160E7
:1001F000704700BF88ED00E0EFF30980BFF36F8F19
:10020000134B1A681EF0100F08BF20ED108A20E96A
:10021000F04F106009B44FF0500080F31188BFF325
:100220004F8FBFF36F8F01F0BDFF4FF0000080F3E1
:10023000118809BC19680868B0E8F04F1EF0100F6B
:1002400008BFB0EC108A80F30988BFF36F8F704746
:100250001C000020EFF3058070470000064880472F
:1002600006480047FEE7FEE7FEE7FEE7FEE7FEE79B
:10027000FEE7FEE7FEE7FEE77516000889010008C5
:100280002DE9F05F0546002092469B4688460646CB
:10029000814640241BE0284641464746224600F05E
:1002A0000BF953465A46C01A914110D311461846CD
:1002B000224600F0F2F82D1A67EB01084F4622465D
:1002C0000120002100F0E9F817EB00094E41201E43
:1002D000A4F10104DFDC484631462A464346BDE826
:1002E000F09F40EA01039B0703D009E008C9121FF1
:1002F00008C0042AFAD203E011F8013B00F8013BE0
:10030000521EF9D27047D2B201E000F8012B491E0B
:10031000FBD270470022F6E710B513460A460446A2
:100320001946FFF7F0FF204610BD2DE9FE4F81EA88
:10033000030404F0004421F0004100944FF0000B4E
:1003400023F0004350EA01045ED052EA03045BD07C
:10035000C3F30A54C1F30A552C44A4F2F3340194B4
:10036000A0FB0254C1F3130141F48011C3F3130342
:1003700043F4801301FB024400FB034E840A970AF6
:1003800044EA815447EA8357A4FB076802958D0A23
:1003900005FB07854FEA932C04FB0C542705029DAF
:1003A0004FEA065847EA1637B5EB08056EEB070C1F
:1003B000870E920E47EA811742EA8312A7FB0201D9
:1003C000B6EB0B0164EB00042B0D43EA0C335E1813
:1003D00044EB1C50DA465146E7FB0201C5F3130417
:1003E0004FEA0B3343EA14534FEA0432019C43EAC9
:1003F0000603A4F10C040294009CCDE900B400F0C3
:100400007AF803B0BDE8F08F00200146F9E70EB599
:10041000C10F80EAE0700844CA07002140F233436C
:100420008DE80E000A460B4600F065F803B000BDEB
:1004300070B5C1F30A5201F000450024C1F3130165
:1004400040F2FF3341F480119A4201DA002070BD7E
:1004500040F233439A42A2F2334203DC524200F0AC
:100460002BF800E090402C43F1D0404270BD30B5F5
:100470000B46014600202022012409E021FA02F562
:100480009D4205D303FA02F5491B04FA02F52844FC
:10049000151EA2F10102F1DC30BD202A04DB203A56
:1004A00000FA02F1002070479140C2F1200320FAC7
:1004B00003F3194390407047202A04DB203A21FAC5
:1004C00002F00021704721FA02F3D040C2F120026D
:1004D000914008431946704710B5141E73F100048B
:1004E00008DA401C41F1000192185B411A4301D126
:1004F00020F0010010BD2DE9F04D92469B4611B150
:10050000B1FA81F202E0B0FA80F220329046FFF7B1
:10051000C4FF04460F4640EA0A0041EA0B01534675
:100520005A46084313D0114653EA010019D0C8F1C6
:1005300040025046FFF7C0FF05460E46504659465A
:100540004246FFF7AAFF084305D0012004E02046F9
:100550003946BDE8F08D0020054346EAE0762C439D
:1005600037430A986305E40AA0EB08000022FD0A5D
:1005700044EA47540A3002D500200146E9E7010564
:1005800010196941DDE9084500196941BDE8F04DE0
:10059000A2E70000064C074D06E0E06840F00103CA
:1005A00094E8070098471034AC42F6D3FFF7F0FD0B
:1005B0007425000894250008FEE7000070B5184C6B
:1005C0000025206820F440502060206820604FF40F
:1005D000004604E06D1CEDB2012001F01FFA314627
:1005E000204600F0FBF9012803D0C82D10D20025C9
:1005F00007E0C82DEED30BE06D1CEDB2012001F039
:100600000DFA3146204600F0E9F918B1F02D04D377
:10061000012070BDF02DEFD3FAE7002070BD00007F
:100620000018024070B500F091F800F05DF8044643
:1006300000F05AF8072805D9C043E143C0B2CCB254
:10064000002500E0012504EB002000B2FFF7DFFEEB
:100650009FED061B53EC112BFFF767FEFFF7E8FE3B
:1006600000B2002D01D1404200B270BD0000000078
:100670000000E43F10B500F047F8BDE81040FFF778
:100680009DBF000070B5174C206820F440502060DA
:10069000206840F4805020604FF400450022294635
:1006A000204600F0A0F9032001F0B8F90122294604
:1006B000204600F098F9206820F44050206020681F
:1006C00020600C2001F0AAF92946204600F086F9A6
:1006D00008B1012400E00024322001F09FF92046F7
:1006E00070BD00000018024070B500254FEA0504F7
:1006F000FFF7C8FFA0402843641CE4B2C5B2082C31
:10070000F6D3284670BD000070B50F4C206820F469
:1007100040502060206840F4805020604FF4004535
:1007200000222946204600F05EF940F28A2001F0BE
:1007300075F901222946204600F055F9BDE87040C0
:10074000142001F06BB900000018024010B5FFF74B
:10075000DBFFFFF733FFCC2000F010F8442000F05F
:100760000DF8FFF7D1FFFFF729FFCC2000F006F8C6
:10077000BDE81040BE2000F001B800002DE9F041B6
:10078000194C0646206820F440502060206840F450
:10079000805020600125EF0316F0010F4FEA560646
:1007A0004FF00002394620460BD000F01CF9022021
:1007B00001F034F901223946204600F014F93C20BA
:1007C0000AE000F010F93C2001F028F90122394636
:1007D000204600F008F9022001F020F96D1CEDB26E
:1007E000082DD9D9BDE8F081001802407047704744
:1007F0002DE9F84FDFF8B8A1002201250AF1040B1A
:1008000003264FF00F090BF1040E00BF0B6805FA29
:1008100002F42340A3426FD10F7907F00307012FA1
:1008200001D0022F16D187684FEA420806FA08FC69
:1008300027EA0C07D1F80CC00CFA08FC4CEA070CAC
:10084000C0F808C04768A7430C79C4F3001494406B
:100850003C4344600C79E443A4070AD0C4684FEADF
:10086000420C06FA0CF7BC438F6807FA0CF72743D3
:10087000C7600C7904F00304022C12D1D40800EBF9
:10088000840CDCF820405707FF0E09FA07F824EA29
:100890000804D1F8108008FA07F848EA0408CCF8F0
:1008A000208004684FEA420C06FA0CF7BC430F792B
:1008B00007F0030707FA0CF7274307604C68E400CA
:1008C00070D53C4C276847F480472760246822F0A5
:1008D000030704F480440094374C07EB040CDCF865
:1008E000084897074FEA177809FA08F7BC43334FCF
:1008F000B84202D1002724E054E0314FB84201D180
:1009000001271EE02F4FB84201D1022719E02E4FD8
:10091000B84201D1032714E02C4FB84201D104277B
:100920000FE02B4FB84201D105270AE0294FB8420A
:1009300001D1062705E0284FB84201D1072700E082
:10094000082707FA08F72743CCF80878DAF80040B8
:100950005746D1F804C09C435FEACC3C00D51C4309
:100960003C60DBF800405F46D1F804C09C435FEA7E
:100970008C3C00D51C433C60DEF800407746D1F843
:1009800004C09C435FEACC2C00D51C433C60084F5C
:100990000C373C68D1F804C09C435FEA8C2C00D52E
:1009A0001C433C60521C102AFFF430AFBDE8F88FA6
:1009B000003C014044380240003001400000024049
:1009C0000004024000080240000C024000100240F7
:1009D0000014024000180240001C02400069084058
:1009E00000D0012070470AB1816170470904FBE71C
:1009F00001488068704700000C00002002488168B0
:100A000002781144816070470C0000200B4810B53B
:100A1000016841F400710160016841F48061016086
:100A2000016841F480710160032000F08DF800201E
:100A300000F006F800F03EF8002010BD003C024037
:100A400010B5014688B00022192000F05DF8192089
:100A500000F04CF813480024016841F001010160E6
:100A6000006805A900F001000690684600F018F93A
:100A700000F046F90C494000B0FBF1F10C480B4A7C
:100A8000491E026040F2E732C0E90324C0E90114C4
:100A900000F02EFB10B1012008B010BD044800F09A
:100AA00055FBF9E74438024040420F000000014086
:100AB000200300200C4882B0016841F480410160AD
:100AC000006800F4804000900748001F016841F072
:100AD000805101600068002200F0805000900F21DA
:100AE000901E02B000F010B844380240002809DB24
:100AF00000F01F02012191404009800000F1E02038
:100B0000C0F8001170470000F0B40E4B1B680C4693
:100B1000C3F30223C3F10705042D00D90425191DD1
:100B2000072901D2002300E0DB1E012606FA05F1A9
:100B3000491E214099409E40761E16403143F0BC2C
:100B400000F0A2BE0CED00E0064900F007020868C4
:100B50004FF6FF03184040EA0220034A10430860A2
:100B6000704700000CED00E00000FA052DE9F047A9
:100B70000E46050065D0DFF81481D8F80000F7B202
:100B800000F00700B04207D288F80070D8F80000E3
:100B900000F00700B04254D128683D4C810712D5BF
:100BA000400703D5206840F4E05020602878000713
:100BB00003D5206840F4604020602068A96820F0D8
:100BC000F000084320602878C0072DD030496868BD
:100BD0000839012812D0022813D0032811D009683F
:100BE000890700292DDA216821F0030101432160E2
:100BF000FFF7FEFE814641F2883A0EE0096889035C
:100C0000EFE709688901ECE7FFF7F2FEA0EB0901C5
:100C1000514502D90320BDE8F0872068696800F0DB
:100C20000C00B0EB810FEFD1D8F80010404601F076
:100C30000701B14207D90770006800F00700B04211
:100C400001D00120E7E72878400705D52068E9684A
:100C500020F4E050084320602878000706D520687B
:100C6000296920F4604040EAC100206000F058F893
:100C70002168084AC1F30311515CC8400649086065
:100C800006480068FFF7DCFE0020C4E7003C024095
:100C900008380240502500081800002010000020ED
:100CA0000F2202600C4A136803F0030343601368C9
:100CB00003F0F0038360136803F4E053C360126829
:100CC0004FF4E05303EAD20202610448006800F0E6
:100CD000070008607047000008380240003C0240EE
:100CE0000448054900680968044AC1F38221515C3F
:100CF000C8407047180000200838024060250008EE
:100D00000448054900680968044AC1F34231515C4E
:100D1000C8407047180000200838024060250008CD
:100D2000154810B5006810F00C02144813D041109B
:100D3000042A0FD0082A0ED10F4C241F22682368E2
:100D400002F03F025B0207D52068C0F38810A0FBC9
:100D5000010106E0084610BD2168C1F38811A1FB1E
:100D600000010023FFF78CFA2168C1F30141491CFF
:100D70004900B0FBF1F010BD083802400024F40037
:100D80002DE9F84F04006ED02078DFF84C93C007AF
:100D9000A9F104054AD009F104000168C1F38101F9
:100DA000012908D00068C0F3810002280AD1D9F8CF
:100DB0000000400206D52868800337D56068002807
:100DC000E1D033E06068B0F5803F10D0B0F5A02FDF
:100DD000286810D020F480302860286820F4802013
:100DE00028606068A8B1FFF703FE06460DE028689A
:100DF00040F48030F4E740F480202860F7E700BF3B
:100E0000FFF7F6FD801B642873D828688003F7D5A8
:100E10000CE0FFF7EDFD064605E000BFFFF7E8FD3B
:100E2000801B6428F0D828688003F7D42078DFF886
:100E3000AC8280074FF0000A3ED5A748001D01682C
:100E400011F00C0F08D00068C0F3810002280BD10C
:100E5000D9F80000400207D42868800716D5E0685A
:100E6000012800D112E033E1E068B8B10120C8F8F0
:100E70000000FFF7BDFD064605E000BFFFF7B8FD27
:100E8000801B0228C0D828688007F7D52868216908
:100E900020F0F80040EAC10028600DE0C8F800A08A
:100EA000FFF7A6FD064604E0FFF7A2FD801B02281F
:100EB0001FD828688007F7D42078000722D5864FEE
:100EC00087486169703771B101210160FFF790FDBA
:100ED000064604E0FFF78CFD801B022809D838681D
:100EE0008007F7D50EE0C0F800A0FFF781FD0646A9
:100EF00005E082E0FFF77CFD801B02287DD8386882
:100F00008007F7D42078400768D5DFF8CCB10027F8
:100F10000BF13C0BDBF80000C0000BD4DBF8001039
:100F200041F08051CBF80010DBF80000012700F001
:100F3000805000906B4E3068C00510D4306840F48B
:100F400080703060FFF754FD009005E0FFF750FD22
:100F50000099401A022850D83068C005F6D55E4E78
:100F6000A0686C3601280FD00528306810D020F01A
:100F700001003060306820F004003060A068B8B133
:100F8000FFF736FD00900FE0306840F00100F4E715
:100F900040F004003060F7E7FFF72AFD0099411A9E
:100FA00041F28830814266D830688007F4D50EE07F
:100FB000FFF71EFD009007E0FFF71AFD0099411AA8
:100FC00041F28830814256D830688007F4D42FB17E
:100FD000DBF8001021F08051CBF80010A069C8B3F5
:100FE0003D49091D0968C1F3810102294AD002283F
:100FF000504607D0C8F8600000E03CE0FFF7F8FC7E
:1010000004463BE04746C8F86000FFF7F1FC06469F
:1010100005E000BFFFF7ECFC801B02282BD82868F6
:101020008001F7D4D4E907010843A16A2E4A490890
:1010300002EB0141626A41EA8211084394F82C10E4
:1010400040EA0161C9F8001001203866FFF7D0FCC2
:10105000044606E03EE000BFFFF7CAFC001B022882
:1010600009D828688001F7D534E000BFFFF7C0FC3D
:10107000001B022802D90320BDE8F88F28688001F0
:10108000F4D427E00128F7D0D9F80000E26900F491
:10109000800191421CD1226A00F03F01914217D198
:1010A00047F6C071626A0140B1EB821F10D1A26A9B
:1010B0004FF0FF3300F4403103EB5202B1EB024F2B
:1010C00006D194F82C1000F07060B0EB016F01D0E5
:1010D0000120D1E70020CFE704380240000047425A
:1010E000800E4742007000400000FFFF70477047CD
:1010F00010B5040003D094F83D0010B107E00120C2
:1011000010BD002084F83C00204600F01EF80220AC
:1011100084F83D00211D206800F0BAFA012084F80F
:10112000460084F83E0084F83F0084F8400084F8CC
:10113000410084F8420084F8430084F8440084F8B5
:10114000450084F83D00002010BD704790F83D1028
:10115000012901D001207047022180F83D1001686B
:10116000CA6842F00102CA6000681149884214D07E
:10117000B0F1804F11D00F4988420ED00E498842FD
:101180000BD00E49884208D00D49884205D00D4940
:10119000884202D00C49884204D1816801F00701DD
:1011A000062903D0016841F0010101600020704769
:1011B000000001400004004000080040000C004016
:1011C000000401400040014000180040704770B525
:1011D0000446006801694FF00005C943890715D42A
:1011E000C168C943890711D4E91E01610120207734
:1011F000206880698007204602D0FFF7E7FF04E0FF
:1012000000F098F8204600F096F8257720680169EC
:10121000C943490717D4C168C943490713D46FF0BC
:1012200004010161022020772068806910F4407F6A
:10123000204602D0FFF7CAFF04E000F07BF820460A
:1012400000F079F8257720680169C943090716D4A9
:10125000C168C943090712D46FF008010161042075
:1012600020772068C0698007204602D0FFF7AEFFD4
:1012700004E000F05FF8204600F05DF82577206874
:101280000169C943C90617D4C168C943C90613D443
:101290006FF010010161082020772068C06910F408
:1012A000407F204602D0FFF791FF04E000F042F8B3
:1012B000204600F040F8257720680169C943C90736
:1012C00008D1C168C943C90704D1891E01612046FC
:1012D00000F032F820680169C943090609D4C168E1
:1012E000C943090605D46FF0800101612046FFF76C
:1012F000FDFE20680169C943490609D4C168C94394
:10130000490605D46FF040010161204600F01EF847
:1013100020680169C94389060BD4C168C94389069D
:1013200007D46FF0200101612046BDE87040FFF74F
:10133000DEBE70BD7047704700680349884201D126
:10134000FFF75CBB7047000000000140704770B5BC
:10135000040004D094F83D00002510B106E00120FF
:1013600070BD84F83C50204600F022F8242084F818
:101370003D002068C16821F40051C160204600F0A2
:10138000EBF92068016921F490410161206841690D
:1013900021F02A0141612068C16841F40051C16017
:1013A0002564202084F83D0084F83E00002070BDB4
:1013B00010B586B0044614216846FEF7ABFF13490A
:1013C0002068884220D11248016841F01001016074
:1013D000006800F0100005900D481438016841F0D5
:1013E000020101600068694600F002000590C0201B
:1013F000009002200190012002900320039007201A
:1014000004900448FFF7F4F906B010BD0010014045
:101410004438024000040240FEE7000000B587B0F7
:101420001C2206496846FEF75CFF0021684600F072
:1014300038FB0349486007B000BD000034250008B0
:101440000000002070B586B014216846FEF762FFE8
:101450001A480024016841F080010160016801F030
:1014600080010591016841F001010160016801F00E
:1014700001010591016841F040010160016801F03E
:1014800040010591016841F00201016000680C4EC5
:1014900000F002004FF40045059000222946304636
:1014A000FFF7A1FA01200095CDE901046946304615
:1014B0000394FFF79DF906B070BD0000303802407C
:1014C000001802400C4810B50A4901604FF4E131A0
:1014D0004160002181600C22C160C0E90412816179
:1014E000C161FFF734FF002803D0BDE81040FFF7CB
:1014F0007EB910BD00100140DC020020FEE77047FD
:1015000014A000F0B1F9FFF7B5F808B317A000BFB9
:1015100000F0AAF91C4C0A254FF47A76FFF782F8FE
:101520002080002805DA19A000F09EF920884042AA
:101530002080B4F9000090FBF5F105FB110290FB4F
:10154000F5F113A000F090F9304600F09EFAE5E7BF
:1015500015A0DDE77468697320697320445331383E
:1015600042323020746573740A0000002043616EBB
:10157000206E6F7420646574656374204453313841
:10158000423230210A000000000000202D0000003F
:1015900074656D7065726174757265203D20256497
:1015A0002E25640A000000002044533138423230B6
:1015B0002020697320616C72656164790A00000003
:1015C00010B5502080F31188BFF34F8FBFF36F8F9A
:1015D00000F0E8FE18B104494FF080500860002088
:1015E00080F3118810BD000004ED00E030B593B029
:1015F00030216846FEF78EFE14210CA8FEF78AFE05
:101600001A480025016841F080510160006800F02F
:10161000805011901648016841F4804101600068D3
:10162000022400F4804011900120009000040190F9
:101630008001CDE90640082008904FF4A870CDE95C
:10164000090404200B906846FFF79AFB0CA90F20B1
:1016500081E831004FF4A0500F90E0021090052176
:101660000CA8FFF783FA13B030BD000040380240E9
:10167000007000400248016841F470010160704749
:1016800088ED00E00148FFF7A2BD00002003002024
:10169000F0B50268254C264D264E274F274B4FF0BC
:1016A000804CA04209D0604507D0A84205D0B04286
:1016B00003D0B84201D0984204D122F0700E4A689B
:1016C00042EA0E02A0421BD0604519D0A84217D0B2
:1016D000B04215D0B84213D0984211D0184DA8424C
:1016E0000ED0184DA8420BD0174DA84208D0174D68
:1016F000A84205D0164DA84202D0164DA84203D1EB
:1017000022F44075CA682A434D6922F080022A43B8
:1017100002608A68C2620A688262A04201D098426E
:1017200001D10969016301214161F0BD000001405F
:101730000004004000080040000C0040000401408C
:1017400000400140004401400048014000180040B2
:10175000001C00400020004070B50446006801698C
:10176000E26821F44051114301612169A068E269F6
:1017700008436169114308432168CA6849F20C6350
:101780009A430243CA6020684169A26921F440710A
:101790001143416131492068884202D03049884272
:1017A00002D1FFF7ADFA01E0FFF79AFAE2690023F0
:1017B000192164253226B2F5004F626828D0A0FBBB
:1017C0000101930F9200FEF75BFD0146B0FBF5F0BF
:1017D0006FF01802504301EB800006EB0010B0FBE5
:1017E000F5F000F0F002B1FBF5F002EB0012B1FBF6
:1017F000F5F06FF01803584301EB800006EB001082
:10180000B0FBF5F000F00F0021681044886070BD57
:10181000A0FB010192185B41FEF732FD0146B0FBCF
:10182000F5F00201B1FBF5F06FF01803584301EB3E
:10183000800006EBC000B0FBF5F000F0F80002EB12
:101840004002B1FBF5F0584301EB800006EBC0000D
:10185000B0FBF5F000F00700D6E7000000100140F3
:1018600000140140FEE700000FB4054B10B503A9BA
:10187000044A029800F028F810BC5DF814FB000040
:10188000511A0008840000200907090E002804DB13
:1018900000F1E02080F80014704700F00F0000F124
:1018A000E02080F8141D704702E008C8121F08C12C
:1018B000002AFAD170477047002001E001C1121FD1
:1018C000002AFBD1704700002DE9FF4F89B09B46ED
:1018D0000446002506E025280BD05A460B99904770
:1018E000641C6D1C20780028F5D10DB02846BDE899
:1018F000F08F0027B8460122474900E0074314F85B
:10190000013F203B02FA03F00842F7D120782E284D
:1019100019D114F8010F47F004072A280ED06FF0F0
:101920002F022078A0F1300109290CD808EB88019A
:1019300002EB410100EB0108641CF2E70A98641C09
:1019400050F8048B0A9020780028CED0642808D064
:10195000692806D075281ED05A460B9990476D1CF1
:1019600058E00A994FF00A0901C90A91002802DAE1
:1019700040422D2102E0390504D52B218DF820109D
:10198000012103E0F90704D02021F7E78A4608AED9
:101990000DE00021FAE70A994FF00A0901C90A91FE
:1019A000F7E74946FEF763FD303106F8011D0028D0
:1019B000F7D1ADEB060000F12009780701D44FF014
:1019C0000108C84502DDA8EB090000E000208046C0
:1019D000002706E008A85A46C05D0B9990476D1C89
:1019E0007F1C5745F6DB04E030205A460B999047A0
:1019F0006D1CB8F10001A8F10108F5DC05E016F84E
:101A0000010B5A460B9990476D1CB9F10001A9F1E1
:101A10000109F4DC641C65E70928010070B54FF08A
:101A2000E024002265690949A36909784843A1694E
:101A30009942FCD002D2A3EB010302E0A5EB010620
:101A400033441A440B468242F1D370BD0800002093
:101A500003490A685206FCD5C2B24A6070470000CA
:101A600000100140FEF7D2FFFFF7C0FDFFF7EAFCD0
:101A7000FFF728FDFFF7D2FC00F00EF8FEE7014665
:101A80000020842900D0C81C704710B500B901207F
:101A900000F024FB002010BD10B500F045FB002035
:101AA00010BD7FB50D4604464169B0F9080081B10B
:101AB000A16971B1FFF7E3FFD4E905128DE80700D2
:101AC000D4E900102B46226900F041FC039004B0D9
:101AD00070BDFFF7D4FF03A9CDE90001208A2B4692
:101AE00082B2D4E9001000F005FC012801D00020EA
:101AF000EDE70398EBE700002DE9F041184C0F46A5
:101B00000546E6682068001D00F020FA38B9206814
:101B100090F82C1001208840216981432161681CC4
:101B200007D137B12168BDE8F0410E48091D00F02A
:101B300051BA20683544B5424560216805D2A06B92
:101B4000BDE8F041091D00F02DBA606B091D00F0E1
:101B500029FAA06A854200D2A562BDE8F0810000A2
:101B60001C000020440400202DE9F041054600F04F
:101B70003DFA2E4CA068401CA06020682C4F10B18C
:101B8000606940B32DE02560A068012829D10026B6
:101B900006EB860007EB800000F0F6F9761C072EB6
:101BA000F6D323488C3000F0EFF92148A03000F044
:101BB000EBF91F48B43000F0E7F91D48C83000F0D9
:101BC000E3F91B48DC3000F0DFF919488C30606322
:101BD0001430A06305E02068E96AC06A884200D832
:101BE0002560606A401C6062E96A012022698840C1
:101BF0001043206101EB810007EB8000291D00F0FC
:101C0000E9F900F013FA606900280CD02068E96A4D
:101C1000C06A884207D207494FF080500860BFF37E
:101C20004F8FBFF36F8FBDE8F08100001C000020D4
:101C30006803002004ED00E010B5044690F8510060
:101C400058B101280CD002280FD0502080F3118801
:101C5000BFF34F8FBFF36F8FFEE7206B00F0FAF9F1
:101C60002046BDE8104000F0F5B910BD10484FF413
:101C70007051420706D0C01D0D4920F00700411ADF
:101C8000C1F570510B4A00230144C2E90003083931
:101C9000183A21F0070111604B600B600B1AC0E984
:101CA000001393604FF00040536050617047000094
:101CB0005804002070000020144E154CA6F1C807EF
:101CC0004FF08058DFF84C9012E000BF00F08EF922
:101CD000F068C568281D00F039F9A068401EA060B2
:101CE0006068401E606000F0A1F92846FFF7A4FF7D
:101CF00060680028EAD138680128F9D9C9F800805D
:101D0000BFF34F8FBFF36F8FF2E700003004002066
:101D10001C00002004ED00E02DE9F0479A46DDE9C3
:101D2000098481466FF00303206B03EB82021044A9
:101D3000089E20F00707780707D0502080F311880D
:101D4000BFF34F8FBFF36F8FFEE7002561B1002017
:101D500023180A5C83F834200A5C12B1401C102856
:101D6000F6D384F8435001E084F83450072E00D3B2
:101D70000626E662C4E91165201D00F010F904F1A1
:101D8000180000F00CF92461C6F107006462A0613C
:101D9000E56484F8505052464946384600F0C0F891
:101DA0002060B8F1000F01D0C8F80040BDE8F0870E
:101DB00030B5114900E011460A688242FBD34B68F6
:101DC0005C18844203D14068184448600846436860
:101DD0001C18944209D1084C183C2468A24209D02E
:101DE00052681A4442600A6812680260814200D058
:101DF000086030BD0460F9E7700000200648416BC0
:101E0000096829B1416BC968C9684968816270472E
:101E10004FF0FF31FAE700001C000020084840683E
:101E2000401C4FF0500080F3118804D0BFF34F8F57
:101E3000BFF36F8FFEE7BFF34F8FBFF36F8FFEE7E8
:101E4000780000202DE9F0410546002700F0A2F9B6
:101E5000324E306808B9FFF709FF706905424ED16C
:101E6000C5B3083568070ED005F00700C0F10800BB
:101E70000544680707D0502080F31188BFF34F8FC7
:101E8000BFF36F8FFEE72DB37068854237D82348C4
:101E9000183001460C6801E020460C466168A942F2
:101EA00002D221680029F7D131688C4227D0076817
:101EB0002168016060680837411B10290FD960193B
:101EC000420708D0502080F31188BFF34F8FBFF333
:101ED0006F8FFEE713E041606560FFF769FF61689F
:101EE0007068401A7060B268904200D2B060706949
:101EF00001430020C4E90001F068401CF06000F0DC
:101F0000B7FA780707D0502080F31188BFF34F8FBE
:101F1000BFF36F8FFEE73846BDE8F0815800002020
:101F200010B5031F4FF080741C601B1F21F00101CE
:101F30001960191F044B0B6014390A60091F6FF0F8
:101F4000020244380A6010BD1D1E0008D0E90132AB
:101F500001699A60D0E901235A604A68824201D13E
:101F600082684A60002202610868401E08600868B2
:101F700070470000034B036003F1540008608020A9
:101F8000106070478800002000F108014FF0FF3218
:101F9000C0E90112C16001610021016070470021A8
:101FA0000161704730B50B685A1C02D000F108027D
:101FB00002E0026904E02246546825689D42FAD98D
:101FC00053684B6099608A60516008610168491CE0
:101FD000016030BD42684A6093688B6093685960C5
:101FE000916008610168491C01607047502080F3CE
:101FF0001188BFF34F8FBFF36F8F0A494868401CA9
:10200000486001280CD10848006810F0FF0F07D085
:10201000502080F31188BFF34F8FBFF36F8FFEE71F
:10202000704700007800002004ED00E0084948688F
:1020300028B1401E486001D180F3118870475020BC
:1020400080F31188BFF34F8FBFF36F8FFEE700005F
:102050007800002070B500282AD0164DA0F10804A1
:1020600060686969084207D1502080F31188BFF386
:102070004F8FBFF36F8FFEE722683AB1502080F395
:102080001188BFF34F8FBFF36F8FFEE78843606007
:1020900000F080F860686968084468602046FFF7CF
:1020A00087FE2869401C2861BDE8704000F0E0B957
:1020B00070BD0000580000204FF0E02000210161B9
:1020C000816105494FF47A720968B1FBF2F1491E4A
:1020D00041610721016170471800002010B502001E
:1020E00014D00F48006B38B1502080F31188BFF333
:1020F0004F8FBFF36F8FFEE700F04CF800211046C2
:10210000FFF7FAFC00F0B4F9002807D105494FF0B9
:1021100080500860BFF34F8FBFF36F8F10BD00007A
:102120001C00002004ED00E010B586B000240394EC
:1021300005AA04A903A80494FFF71CFFDDE9030125
:102140000094CDE9011000230EA11048059A00F07B
:10215000FEF80F490028C86211D0502080F3118882
:10216000BFF34F8FBFF36F8F4FF0FF3088620120B6
:102170004861CC6006B0BDE8104000F041B806B040
:1021800010BD000049444C4500000000B91C000887
:102190001C0000200248016B491C016370470000CD
:1021A0001C0000201448016B11B10121C16170476E
:1021B0000021C1610169B1FA81F1C1F11F0101EB97
:1021C00081020E4951F822306BB101EB820101F11D
:1021D00008034A6852684A609A4201D152684A60CC
:1021E000D16801607047502080F31188BFF34F8F92
:1021F000BFF36F8FFEE700001C0000206803002083
:102200001CB537480168374A914207D1502080F306
:102210001188BFF34F8FBFF36F8FFEE7006831491E
:10222000491E884207D1502080F31188BFF34F8F99
:10223000BFF36F8FFEE72C4908780190FF200870EC
:1022400008788DF800009DF800009DF8002000F04F
:10225000F000904207D0502080F31188BFF34F8FD9
:10226000BFF36F8FFEE79DF80000204C00F0500098
:1022700020700720A06005E09DF8002052008DF836
:102280000020401E9DF800201206F5D4A06003280F
:1022900007D0502080F31188BFF34F8FBFF36F8FAB
:1022A000FEE74FF44070A060019808700C482030A1
:1022B000016841F470010160016841F07041016002
:1022C000FFF7FAFE00206060FDF78CFF0848016808
:1022D00041F040410160FDF771FF00201CBD00008E
:1022E00000ED00E071C20F4100E400E07800002042
:1022F00034EF00E02DE9FF5F8346DDE90E87994664
:1023000016468A469000FFF79DFD05001CD054201C
:10231000FFF798FD040014D00020256384F85100D5
:10232000CDE90240CDE900874B463246514658463A
:10233000FFF7F2FC2046FFF717FC012004B0BDE8D0
:10234000F09F2846FFF786FE4FF0FF30F6E7F0B526
:1023500085B0DDE90B640A9DA6B1DCB15427009776
:102360002663022684F85160002604AFCDE90246B8
:10237000CDE90057FFF7D0FC2046FFF7F5FB0498A6
:1023800005B0F0BD502080F31188BFF34F8FBFF32D
:102390006F8FFEE7502080F31188BFF34F8FBFF39C
:1023A0006F8FFEE72DE9F0412F4C0026206B28B1FE
:1023B000A069401CA0613046BDE8F081E5686D1C55
:1023C000E56013D1606B006838B1502080F311884C
:1023D000BFF34F8FBFF36F8FFEE7606BA16B61633D
:1023E000A063206A401C2062FFF708FDA06ADFF8A6
:1023F0007C80854209D3606B0068A0B1606BC068C7
:10240000C7687868854211D2A0622068C06A00EB74
:10241000800158F82100012800D90126E069002830
:10242000C9D00126C7E74FF0FF30EDE7381DFFF7B1
:102430008DFDB86A18B107F11800FFF787FDF96A3A
:102440000120226988401043206101EB810108EBE3
:102450008100391DFFF7BEFDF86A2168C96A88420C
:10246000C9D30126C7E700001C0000206803002034
:102470002DE9F0472C4D00242746286B38B1FFF793
:10248000B5FD286B401E2863286B40B146E0502004
:1024900080F31188BFF34F8FBFF36F8FFEE7A968FA
:1024A000224E0120D1B3A6F1B40980463068E8B1CC
:1024B000F068C46804F11800FFF748FD201DFFF71D
:1024C00045FDE06A2A6908FA00F11143296100EB31
:1024D000800109EB8100211DFFF77CFDE06A29687E
:1024E000C96A8842E2D3C5F81C80DFE70CB1FFF768
:1024F00085FCAC6944B14646FFF754FF00B1EE617C
:10250000641EF9D10020A861E86938B108490127A3
:1025100038070860BFF34F8FBFF36F8FFFF786FD5B
:102520003846BDE8F08700001C0000201C04002095
:1025300004ED00E068250008011500080000000017
:10254000000000008000000000000000000000000B
:102550000000000000000000010203040607080953
:10256000000000000102030464656661756C745428
:1025700061736B00942500080000002088000000B3
:10258000A81800081C26000888000020D04300007E
:10259000B81800080000000000000000A8000000BB
:1025A0000100000010000000000000000024F40002
:1025B000000000000000000000000000000000001B
:1025C000000000000000000000000000000000000B
:1025D00000000000000000000000000000000000FB
:1025E00000000000000000000000000000000000EB
:1025F00000000000000000000000000000000000DB
:1026000000000000000000000000000000000000CA
:0C261000AAAAAAAA000000000000000016
:040000050800018965
:00000001FF
