:020000040800F2
:10000000D8B200205D020008D71B0008E1190008E3
:10001000D51B0008A90400086D1F0008000000009F
:100020000000000000000000000000009D0100082A
:10003000AB04000800000000F9010008C91C00081A
:1000400077020008770200087702000877020008AC
:10005000770200087702000877020008770200089C
:10006000770200087702000877020008770200088C
:10007000770200087702000877020008770200087C
:10008000770200087702000877020008770200086C
:10009000770200087702000877020008770200085C
:1000A000770200088D1D000877020008770200081B
:1000B000770200087702000877020008770200083C
:1000C000770200087702000877020008770200082C
:1000D000770200087702000877020008770200081C
:1000E000770200087702000877020008770200080C
:1000F00077020008770200087702000877020008FC
:1001000077020008770200087702000877020008EB
:1001100077020008770200087702000877020008DB
:1001200077020008770200087702000877020008CB
:1001300077020008FD040008770200087702000833
:1001400077020008770200087702000877020008AB
:10015000770200087702000877020008770200089B
:10016000770200087702000877020008770200088B
:1001700077020008770200087702000800000000FC
:100180007702000877020008DFF80CD000F036F99B
:1001900000480047BD5F0008D8B200202C4B19680A
:1001A0000868B0E8F04F80F30988BFF36F8F4FF015
:1001B000000080F3118870470000000008480068C4
:1001C000006880F308884FF0000080F3148862B65E
:1001D00061B6BFF34F8FBFF36F8F00DF00BF00BF6B
:1001E00008ED00E0DFF80C00016841F470010160E7
:1001F000704700BF88ED00E0EFF30980BFF36F8F19
:10020000134B1A681EF0100F08BF20ED108A20E96A
:10021000F04F106009B44FF0500080F31188BFF325
:100220004F8FBFF36F8F10F0F5FE4FF0000080F39B
:10023000118809BC19680868B0E8F04F1EF0100F6B
:1002400008BFB0EC108A80F30988BFF36F8F704746
:1002500030000020EFF3058070470000064880471B
:1002600006480047FEE7FEE7FEE7FEE7FEE7FEE79B
:10027000FEE7FEE7FEE7FEE77D1D000889010008B6
:100280002DE9F05F0546002092469B4688460646CB
:10029000814640241BE0284641464746224600F05E
:1002A0009DF853465A46C01A914110D3114618463C
:1002B000224600F084F82D1A67EB01084F462246CB
:1002C0000120002100F07BF817EB00094E41201EB1
:1002D000A4F10104DFDC484631462A464346BDE826
:1002E000F09FA0F16101192900D820387047000063
:1002F0000649074A0868504343F23902104408602F
:100300004008704701490860704700006C010020F8
:100310006D4EC64110B5431A934209D2831888180E
:1003200003E010F8011D03F8011D521EF9D210BDA3
:1003300040EA01039B0703D009E008C9121F08C067
:10034000042AFAD203E011F8013B00F8013B521EE7
:10035000F9D210BDD2B201E000F8012B491EFBD248
:1003600070470022F6E710B513460A4604461946C0
:10037000FFF7F0FF204610BD30B5044600200346CD
:1003800000E05B1C934203D2E05CCD5C401BF8D0E4
:1003900030BD30B50B46014600202022012409E083
:1003A00021FA02F59D4205D303FA02F5491B04FA2E
:1003B00002F52844151EA2F10102F1DC30BD202A0D
:1003C00004DB203A00FA02F1002070479140C2F1AC
:1003D000200320FA03F3194390407047202A04DBDE
:1003E000203A21FA02F00021704721FA02F3D040AE
:1003F000C2F120029140084319467047064C074D50
:1004000006E0E06840F0010394E8070098471034E4
:10041000AC42F6D3FFF7BCFEF4200108142101081A
:1004200070B58C1810F8015B15F0070301D110F8B6
:10043000013B2A1106D110F8012B03E010F8016BE3
:1004400001F8016B5B1EF9D12B0705D40023521E66
:100450000DD401F8013BFAE710F8013BCB1A921CCE
:1004600003E013F8015B01F8015B521EF9D5A142CC
:10047000D8D3002070BD000010B504F07FFA04004E
:1004800005D504A001F074FD002010F0B9FC204651
:1004900010BD000062696E6420736F636B65742029
:1004A0006572726F720D0A00FEE77047064908B563
:1004B00009684FF4FA52B1FBF2F14143009100BFD9
:1004C000491E0091FBD208BD2C00002038B504461F
:1004D000006800F58050816941F4801181612068D5
:1004E00000F58050806900900120FFF7DFFF206851
:1004F000009900F58050816138BD0000014800F08E
:1005000064B90000983400202DE9F041044621B17F
:100510004FF40060E060C000A060E06900250028A2
:1005200061D028462368402619683A4A1140D4E928
:1005300002273A43024342F40070084318602068DF
:100540000768012000F074F82068076020684660A2
:1005500020684668012000F06BF82068466020683B
:1005600085602068C560216888694FF64172104037
:1005700040F08000886120688669012000F058F80A
:10058000206886612068C5612068C569012000F087
:100590004FF82068C561226802F5805290691E49B3
:1005A00008401E4901439161206800F5805085692B
:1005B000012000F03DF8206800F58050856120683A
:1005C000174900F580500160206800F580500568EB
:1005D000012000F02DF8206800F580500560A0692A
:1005E000012803D009E04FF480609BE7206800F504
:1005F0008050C1690B4A1143C16160690A49828810
:100600000A640278D0F8010042EA00204864BDE89C
:10061000F08100000F8120FF233FDEF8040020025C
:100620008020C102400001000080024070470000AD
:1006300070B5044600F0BAFC0546601C02D00448C0
:100640000078044400F0B2FC401BA042FAD370BD15
:10065000200000202DE9F04390F845400025012CB2
:100660000DD04FF0010C80F845C0022480F84440C2
:1006700044F2F4574FF000495E1E816217E00220F9
:10068000BDE8F08301EB4514C4F80090C5EBC51834
:1006900008EB480802EB8808C4E90178B54204D2A7
:1006A00004F12008C4F80C8000E0E1606D1C9D425C
:1006B000E8D3026802F58052D16080F844C000217E
:1006C00080F845100846DBE72DE9F043914690F8A5
:1006D00045200024012A0AD0012680F84560022224
:1006E00080F844204FF4801C5D1EC1621BE0022094
:1006F000BDE8F08301EB4412C2F800C0C4EBC4179C
:1007000007EB470809EB88079760C7691FB91768A7
:1007100047F440071760AC4203D202F12007D760CC
:1007200000E0D160641C9C42E4D3026802F5805270
:10073000116180F84460002180F845100846D7E731
:10074000704730B590F845100023012908D00122E8
:1007500080F84520022180F844100024816A1AE0C4
:10076000022030BD0D685B1CC5F30125022D0AD0A7
:100770000D6815F4407F09D04163836B5B1C836374
:10078000012B12D012E08263016302E0856B6D1CC5
:100790008563C96881620D68002D01DB042BE1D3FC
:1007A00000F8442F4470012030BD01630B68C3F38F
:1007B0000D431B1FC363036B9B680364C96840F848
:1007C000281F02774477002030BD70B504460068CA
:1007D00000F5805041694FF0000549064FF00106D1
:1007E00008D5204600F0DCF92068402100F5805053
:1007F000416109E04069C0070AD0204600F09CFA38
:10080000206800F58050466184F8446084F84550C3
:1008100020684FF4803100F580504161206800F578
:100820008050406900040CD52046FFF789FF2068FE
:100830004FF4004100F58050416184F8446084F831
:10084000455070BD2DE9FC474FF000060400B1464D
:10085000009603D094F8440018B107E00120BDE8E9
:10086000FC8784F84560204600F0E4F8674801689A
:1008700041F480410160006800F4804001906448C8
:10088000016821F4000101600168226A11430160DE
:10089000206800F58050016841F00101016000F01E
:1008A00085FB05464FF4FA7709E000BF00F07EFBB8
:1008B000401BB84203D9032004F8440F67E02068C6
:1008C00000F580500068C007F0D12068006920F072
:1008D0001C0500F0E3FC4F494F4A0144914202D20B
:1008E00045F0080516E04D494D4A0144914202D2B7
:1008F00045F00C050EE04B494B4A0144914209D3A7
:100900004A4908444A49884202D245F0040501E0B8
:1009100045F01005206805614FF400420021204693
:1009200000F00CFA0125A8BBFF20FFF781FE6068EC
:1009300088B300F03BFB804641F288376A460121CC
:10094000204600F0EBF800F031FBA0EB0800B842C5
:1009500017D800984007F1D54FF480520021204667
:1009600000F0ECF9B0B900F021FB80466A460121A5
:10097000204600F0D3F800F019FBA0EB0800B842C5
:100980000AD901212046FFF7BFFD04F8445F032088
:10099000667064E726E01AE000988006E6D56A46AD
:1009A0001121204600F0BAF8E0B90098810403D57F
:1009B0004FF40061E16000E0E66044F21001814321
:1009C00003D04FF48040A06017E0A66015E0E06817
:1009D000A168C00840EA510082B20021204600F020
:1009E000ADF930B101212046FFF78EFD84F8445067
:1009F00034E740F6FF70FFF71BFE49462046FFF73D
:100A000083FD84F84450002029E700004438024068
:100A10000438014000D3CEFEC0E1E40040F1E9FD1E
:100A200040787D0100796CFC005A6202001F0AFACE
:100A300080F0FA02F0B587B0044614216846FFF74B
:100A400090FC3149206888425BD13048002401681D
:100A500041F000710160016801F0007105910168C9
:100A600041F080610160016801F0806105910168D9
:100A700041F000610160016801F0006105910168C9
:100A800041F004010160016801F004010591016871
:100A900041F001010160016801F001010591016867
:100AA00041F0400101600068022500F0400005901F
:100AB0003220CDE9000502AA03260B2782E8D000E8
:100AC0006946134800F076F98620CDE9000502AAB0
:100AD000694682E8D0000F4800F06CF94FF4D0402E
:100AE000CDE9000502AA694682E8D0000A4800F074
:100AF00061F9002205213D2000F0E4FA3D2000F0DC
:100B0000D3FA07B0F0BD0000008002403038024048
:100B10000008024000000240001802402DE9F047A2
:100B2000044690F84400914682281DD0822084F823
:100B30004400226810694FF6FF7500F01C03208AFC
:100B400005EAC02018434FF4F86303EA811101431A
:100B500021F0020040F00105156100F027FA064679
:100B600001274FF4803810E00220BDE8F08700BF75
:100B700000F01CFA801B404505D304F8447F002098
:100B800060700320F1E720680569E807F0D120686C
:100B9000406981B2C9F8001084F844700020E4E78D
:100BA0000148006807F06EBA1C000020F8B5044642
:100BB00090F84500012839D0012584F845500220DD
:100BC00084F8440020680026016841F008010160B3
:100BD0002068006800902846FFF768FC21680098AC
:100BE00008602068016841F0040101602068006825
:100BF00000900120FFF75AFC216800980860204609
:100C0000FFF764FC206800F58050816941F40051D1
:100C10008161206800F58050816941F002018161A5
:100C200084F8445084F845600020F8BD0220F8BDE7
:100C3000F0B590F845200023012A11D0012780F853
:100C40004570022280F84420002459B1C66A3268F7
:100C5000002A0ADA122100F8441F44700120F0BD76
:100C60000220F0BD00F8447FF7E740F2F455A942B6
:100C70000BD9B1FBF5FCB1FBF5F205FB1C1CBCF17B
:100C8000000F00D0521C012A43D1326842F040527A
:100C90003260C26AC1F30C015160C16A0A6842F055
:100CA00000420A60C16AC968C16234E0D6F800C077
:100CB0002CF0405CC6F800C033B9C66AD6F800C054
:100CC0004CF0805CC6F800C0C66A7560561EB34220
:100CD00014D1C66AD6F800C04CF0005CC6F800C05B
:100CE000C2F10106C6EBC61606EB4606D0F82CC0CC
:100CF00001EB8606C6F30C06CCF80460C66AD6F88B
:100D000000C04CF0004CC6F800C0C66A5B1CF66818
:100D1000C6629342CAD3016801F580514A695207FD
:100D200005D504224A61016801F580514C6000F844
:100D3000447F44700020F0BD704700002DE9F04171
:100D4000044690F8440042281ED0422084F8440013
:100D5000236818694FF6FF7600F01C05208A06EA22
:100D6000C02028434FF4F86505EA8111014390B291
:100D700041F0030558612068056100F017F9064647
:100D800001274FF4803810E00220BDE8F08100BF59
:100D900000F00CF9801B404505D304F8447F002087
:100DA00060700320F1E720680569E807F0D184F856
:100DB0004470EAE72DE9F84FDFF8B8A100220125D9
:100DC0000AF1040B03264FF00F090BF1040E00BFCC
:100DD0000B6805FA02F42340A3426FD10F7907F0A4
:100DE0000307012F01D0022F16D187684FEA42086E
:100DF00006FA08FC27EA0C07D1F80CC00CFA08FC2C
:100E00004CEA070CC0F808C04768A7430C79C4F344
:100E1000001494403C4344600C79E443A4070AD096
:100E2000C4684FEA420C06FA0CF7BC438F6807FA15
:100E30000CF72743C7600C7904F00304022C12D18D
:100E4000D40800EB840CDCF820405707FF0E09FAA9
:100E500007F824EA0804D1F8108008FA07F848EAED
:100E60000408CCF8208004684FEA420C06FA0CF71C
:100E7000BC430F7907F0030707FA0CF72743076015
:100E80004C68E40070D53C4C276847F480472760E5
:100E9000246822F0030704F480440094374C07EBE5
:100EA000040CDCF8084897074FEA177809FA08F7A6
:100EB000BC43334FB84202D1002724E054E0314F05
:100EC000B84201D101271EE02F4FB84201D10227BD
:100ED00019E02E4FB84201D1032714E02C4FB8423D
:100EE00001D104270FE02B4FB84201D105270AE0BA
:100EF000294FB84201D1062705E0284FB84201D159
:100F0000072700E0082707FA08F72743CCF80878F6
:100F1000DAF800405746D1F804C09C435FEACC3C65
:100F200000D51C433C60DBF800405F46D1F804C0AC
:100F30009C435FEA8C3C00D51C433C60DEF80040DB
:100F40007746D1F804C09C435FEACC2C00D51C4303
:100F50003C60084F0C373C68D1F804C09C435FEA02
:100F60008C2C00D51C433C60521C102AFFF430AF7F
:100F7000BDE8F88F003C0140443802400030014099
:100F8000000002400004024000080240000C024041
:100F9000001002400014024000180240001C0240F1
:100FA0000AB1816170470904FBE7000001488068CD
:100FB0007047000020000020024881680278114438
:100FC00081607047200000200B4810B5016841F493
:100FD00000710160016841F480610160016841F4C1
:100FE00080710160032000F08DF8002000F006F809
:100FF00000F03EF8002010BD003C024010B5014654
:1010000088B00022192000F05DF8192000F04CF89B
:1010100013480024016841F001010160006805A93E
:1010200000F001000690684600F018F900F04CF955
:101030000C494000B0FBF1F10C480B4A491E02601C
:1010400040F2E732C0E90324C0E9011400F034FBA8
:1010500010B1012008B010BD044800F05BFBF9E7B7
:101060004438024040420F00000001402435002077
:101070000C4882B0016841F480410160006800F4CE
:10108000804000900748001F016841F080510160D6
:101090000068002200F0805000900F21901E02B0E6
:1010A00000F010B844380240002809DB00F01F02AD
:1010B000012191404009800000F1E020C0F80011BA
:1010C00070470000F0B40E4B1B680C46C3F30223BC
:1010D000C3F10705042D00D90425191D072901D2E4
:1010E000002300E0DB1E012606FA05F1491E21401F
:1010F00099409E40761E16403143F0BC00F048BF38
:101100000CED00E0064900F0070208684FF6FF0307
:10111000184040EA0220034A10430860704700006C
:101120000CED00E00000FA052DE9F0470E46050041
:1011300065D0DFF81481D8F80000F7B200F007009E
:10114000B04207D288F80070D8F8000000F007001D
:10115000B04254D128683D4C810712D5400703D5D1
:10116000206840F4E05020602878000703D520680C
:1011700040F4604020602068A96820F0F000084337
:1011800020602878C0072DD03049686808390128C8
:1011900012D0022813D0032811D00968890700292A
:1011A0002DDA216821F0030101432160FFF7FEFEE3
:1011B000814641F2883A0EE009688903EFE7096841
:1011C0008901ECE7FFF7F2FEA0EB0901514502D9D6
:1011D0000320BDE8F0872068696800F00C00B0EBE0
:1011E000810FEFD1D8F80010404601F00701B1425D
:1011F00007D90770006800F00700B04201D0012055
:10120000E7E72878400705D52068E96820F4E05032
:10121000084320602878000706D52068296920F453
:10122000604040EAC100206000F05EF82168084A92
:10123000C1F30311515CC8400649086006480068C4
:10124000FFF7DCFE0020C4E7003C02400838024003
:10125000081E01082C000020240000200F2202603C
:101260000C4A136803F003034360136803F0F003B0
:101270008360136803F4E053C36012684FF4E053D3
:1012800003EAD20202610448006800F00700086027
:101290007047000008380240003C024001480068E6
:1012A000704700002C0000200448054900680968C8
:1012B000044AC1F38221515CC84070472C000020D1
:1012C00008380240181E01080448054900680968EA
:1012D000044AC1F34231515CC84070472C000020E1
:1012E00008380240181E0108154810B5006810F0B3
:1012F0000C02144813D04110042A0FD0082A0ED132
:101300000F4C241F2268236802F03F025B0207D5BE
:101310002068C0F38810A0FB010106E0084610BD5C
:101320002168C1F38811A1FB00010023FEF7A8FF8B
:101330002168C1F30141491C4900B0FBF1F010BD27
:10134000083802400024F4002DE9F84F04006ED064
:101350002078DFF84C93C007A9F104054AD009F1C1
:1013600004000168C1F38101012908D00068C0F3BD
:10137000810002280AD1D9F80000400206D5286869
:10138000800337D560680028E1D033E06068B0F5AD
:10139000803F10D0B0F5A02F286810D020F4803006
:1013A0002860286820F4802028606068A8B1FFF7D2
:1013B000FDFD06460DE0286840F48030F4E740F477
:1013C00080202860F7E700BFFFF7F0FD801B64284E
:1013D00073D828688003F7D50CE0FFF7E7FD0646D1
:1013E00005E000BFFFF7E2FD801B6428F0D8286805
:1013F0008003F7D42078DFF8AC8280074FF0000A32
:101400003ED5A748001D016811F00C0F08D00068F8
:10141000C0F3810002280BD1D9F80000400207D4A4
:101420002868800716D5E068012800D112E033E172
:10143000E068B8B10120C8F80000FFF7B7FD064624
:1014400005E000BFFFF7B2FD801B0228C0D8286866
:101450008007F7D52868216920F0F80040EAC1002C
:1014600028600DE0C8F800A0FFF7A0FD064604E0E4
:10147000FFF79CFD801B02281FD828688007F7D43F
:101480002078000722D5864F87486169703771B18F
:1014900001210160FFF78AFD064604E0FFF786FDA3
:1014A000801B022809D838688007F7D50EE0C0F8FD
:1014B00000A0FFF77BFD064605E082E0FFF776FD22
:1014C000801B02287DD838688007F7D42078400731
:1014D00068D5DFF8CCB100270BF13C0BDBF800003E
:1014E000C0000BD4DBF8001041F08051CBF80010A5
:1014F000DBF80000012700F0805000906B4E306850
:10150000C00510D4306840F480703060FFF74EFDA5
:10151000009005E0FFF74AFD0099401A022850D8D4
:101520003068C005F6D55E4EA0686C3601280FD035
:101530000528306810D020F001003060306820F0BD
:1015400004003060A068B8B1FFF730FD00900FE0F4
:10155000306840F00100F4E740F004003060F7E745
:10156000FFF724FD0099411A41F28830814266D884
:1015700030688007F4D50EE0FFF718FD009007E013
:10158000FFF714FD0099411A41F28830814256D884
:1015900030688007F4D42FB1DBF8001021F08051BF
:1015A000CBF80010A069C8B33D49091D0968C1F313
:1015B000810102294AD00228504607D0C8F86000AD
:1015C00000E03CE0FFF7F2FC04463BE04746C8F889
:1015D0006000FFF7EBFC064605E000BFFFF7E6FC06
:1015E000801B02282BD828688001F7D4D4E9070192
:1015F0000843A16A2E4A490802EB0141626A41EAA6
:101600008211084394F82C1040EA0161C9F80010D7
:1016100001203866FFF7CAFC044606E03EE000BF42
:10162000FFF7C4FC001B022809D828688001F7D501
:1016300034E000BFFFF7BAFC001B022802D90320E8
:10164000BDE8F88F28688001F4D427E00128F7D09E
:10165000D9F80000E26900F4800191421CD1226AAD
:1016600000F03F01914217D147F6C071626A014014
:10167000B1EB821F10D1A26A4FF0FF3300F440316A
:1016800003EB5202B1EB024F06D194F82C1000F09C
:101690007060B0EB016F01D00120D1E70020CFE7EF
:1016A0000438024000004742800E4742007000406C
:1016B0000000FFFF7047704710B5040003D094F896
:1016C0003D0010B107E0012010BD002084F83C006F
:1016D000204600F01EF8022084F83D00211D2068FD
:1016E00000F05AFB012084F8460084F83E0084F89C
:1016F0003F0084F8400084F8410084F8420084F8F8
:10170000430084F8440084F8450084F83D0000203C
:1017100010BD704790F83D10012901D0012070479D
:10172000022180F83D100168CA6842F00102CA60D7
:1017300000681149884214D0B0F1804F11D00F4990
:1017400088420ED00E4988420BD00E49884208D0FC
:101750000D49884205D00D49884202D00C49884283
:1017600004D1816801F00701062903D0016841F026
:1017700001010160002070470000014000040040AA
:1017800000080040000C00400004014000400140FF
:1017900000180040704770B50446006801694FF0BA
:1017A0000005C943890715D4C168C943890711D405
:1017B000E91E0161012020772068806980072046AA
:1017C00002D0FFF7E7FF04E000F098F8204600F0B1
:1017D00096F8257720680169C943490717D4C1687D
:1017E000C943490713D46FF0040101610220207737
:1017F0002068806910F4407F204602D0FFF7CAFFBE
:1018000004E000F07BF8204600F079F825772068A6
:101810000169C943090716D4C168C943090712D42D
:101820006FF008010161042020772068C0698007FB
:10183000204602D0FFF7AEFF04E000F05FF820463C
:1018400000F05DF8257720680169C943C90617D4FF
:10185000C168C943C90613D46FF0100101610820A3
:1018600020772068C06910F4407F204602D0FFF73F
:1018700091FF04E000F042F8204600F040F82577A0
:1018800020680169C943C90708D1C168C943C907AC
:1018900004D1891E0161204600F032F820680169F8
:1018A000C943090609D4C168C943090605D46FF0C4
:1018B000800101612046FFF7FDFE20680169C943F0
:1018C000490609D4C168C943490605D46FF04001EF
:1018D0000161204600F01EF820680169C9438906AD
:1018E0000BD4C168C943890607D46FF02001016198
:1018F0002046BDE87040FFF7DEBE70BD7047704700
:1019000000680349884201D1FFF756BB70470000C9
:1019100000000140704770B5040004D094F83D0009
:10192000002510B106E0012070BD84F83C5020462F
:1019300000F022F8242084F83D002068C16821F4DA
:101940000051C160204600F08BFA2068016921F443
:10195000904101612068416921F02A0141612068BC
:10196000C16841F40051C1602564202084F83D0025
:1019700084F83E00002070BD10B586B004461421E6
:101980006846FEF7EEFC13492068884220D11248D1
:10199000016841F010010160006800F0100005903E
:1019A0000D481438016841F0020101600068694681
:1019B00000F002000590C02000900220019001205C
:1019C000029003200390072004900448FFF7F2F9E7
:1019D00006B010BD0010014044380240000402402F
:1019E000FEE7000000B587B01C2206496846FEF7F6
:1019F00091FC0021684606F09FFB0349086007B090
:101A000000BD0000D01D01080000002070B586B0A8
:101A100014216846FEF7A5FC22480025016841F420
:101A200080710160016801F480710591016841F0E5
:101A300080010160016801F080010591016841F0B9
:101A400004010160016801F004010591016841F0A1
:101A500001010160016801F001010591016841F097
:101A600040010160016801F040010591016841F009
:101A7000020101600068012200F002000A4E140217
:101A8000059021463046FFF78BFA0120CDE9004052
:101A90000320CDE9025069463046FFF78BF906B0C6
:101AA00070BD00003038024000200240FEB5374CC7
:101AB0000A20012120706070A1701622E270251D9D
:101AC000FF222A706A70AA7000272E1DEF703070F6
:101AD0007070B170F170394638460EF029F8206800
:101AE000E17803BA0A0603F47F4342EA032203BA09
:101AF00000BA03F47F03084342EA1322A4F10C0165
:101B000042EA106008602868E97803BA0A0603F41C
:101B10007F4342EA032203BA00BA03F47F03084377
:101B200042EA1322A4F1080142EA1060086030681A
:101B3000F17803BA0A0603F47F4342EA032203BAA8
:101B400003F47F0300BA42EA1322084342EA10601A
:101B5000211F231F08600E480E490097CDE9011090
:101B60001A1F111F0C4805F07BFE0B4806F092F877
:101B7000094890F829004007074803D5BDE8FE4012
:101B800006F0E2B8BDE8FE4006F08AB8100000207A
:101B900001FD0008C9320008C80300200C4810B538
:101BA0000A4901604FF4E1314160002181600C225B
:101BB000C160C0E904128161C161FFF7ACFE002879
:101BC00003D0BDE81040FEF731BD10BD001001404C
:101BD000E0340020FEE770472DE9FC471E46DDE9B2
:101BE0000A54174688468146CDE9005433463A46A2
:101BF0004146484603F01AFF002803DA02A000F02D
:101C0000B7F9F1E7BDE8FC877265637666726F6DC0
:101C100020736F636B6574206572726F720D0A00BA
:101C20002DE9FC471E46DDE90A54174688468146E1
:101C3000CDE9005433463A464146484604F058F848
:101C4000002803DA02A000F093F9F1E7BDE8FC8771
:101C500073656E64746F20736F636B657420657257
:101C6000726F720D0A00000010B504F073F90400E1
:101C700005D504A000F07CF900200FF0C1F8204643
:101C800010BD000063726561746520736F636B65DE
:101C900074206572726F720D0A000000FFF706FF74
:101CA00004A000F065F900BF0FF0E2F9012006F092
:101CB0009BF8F9E74C57495020696E697420646FAE
:101CC000776E210A0000000010B5502080F31188C3
:101CD000BFF34F8FBFF36F8F0FF0E6FE18B10449CB
:101CE0004FF080500860002080F3118810BD000084
:101CF00004ED00E030B593B030216846FEF731FBCB
:101D000014210CA8FEF72DFB1A480025016841F0AC
:101D100080510160006800F0805011901648016801
:101D200041F4804101600068022400F48040119079
:101D300001200090000401908001CDE906400820B8
:101D400008904FF4A870CDE9090404200B90684670
:101D5000FFF7FAFA0CA90F2081E831004FF4A050E8
:101D60000F90E002109005210CA8FFF7DDF913B0E9
:101D700030BD000040380240007000400248016859
:101D800041F470010160704788ED00E00148FFF701
:101D900002BD000024350020F0B50268254C264D18
:101DA000264E274F274B4FF0804CA04209D060456C
:101DB00007D0A84205D0B04203D0B84201D0984223
:101DC00004D122F0700E4A6842EA0E02A0421BD0F3
:101DD000604519D0A84217D0B04215D0B84213D0F0
:101DE000984211D0184DA8420ED0184DA8420BD0E1
:101DF000174DA84208D0174DA84205D0164DA8424D
:101E000002D0164DA84203D122F44075CA682A4375
:101E10004D6922F080022A4302608A68C2620A6821
:101E20008262A04201D0984201D109690163012177
:101E30004161F0BD00000140000400400008004086
:101E4000000C0040000401400040014000440140FB
:101E50000048014000180040001C004000200040E5
:101E600070B5044600680169E26821F440511143ED
:101E700001612169A068E26908436169114308436F
:101E80002168CA6849F20C639A430243CA60206819
:101E90004169A26921F440711143416131492068CF
:101EA000884202D03049884202D1FFF70DFA01E0A2
:101EB000FFF7FAF9E2690023192164253226B2F509
:101EC000004F626828D0A0FB0101930F9200FEF73B
:101ED000D7F90146B0FBF5F06FF01802504301EB63
:101EE000800006EB0010B0FBF5F000F0F002B1FB53
:101EF000F5F002EB0012B1FBF5F06FF01803584358
:101F000001EB800006EB0010B0FBF5F000F00F00D5
:101F100021681044886070BDA0FB010192185B41EC
:101F2000FEF7AEF90146B0FBF5F00201B1FBF5F0AA
:101F30006FF01803584301EB800006EBC000B0FBC4
:101F4000F5F000F0F80002EB4002B1FBF5F0584369
:101F500001EB800006EBC000B0FBF5F000F00700DD
:101F6000D6E700000010014000140140FEE7000029
:101F70000FB4054B10B503A9044A029800F028F8E5
:101F800010BC5DF814FB0000BD3400087001002097
:101F90000907090E002804DB00F1E02080F8001496
:101FA000704700F00F0000F1E02080F8141D70472A
:101FB00002E008C8121F08C1002AFAD17047704712
:101FC000002001E001C1121F002AFBD17047000070
:101FD0002DE9FF4F8BB09A460F460546002606E0D6
:101FE00025280BD052460D9990476D1C761C2878F9
:101FF0000028F5D10FB03046BDE8F08F0024A04690
:102000000122604900E0044315F8013F203B02FA39
:1020100003F00842F7D128782E2817D115F8010FC0
:1020200044F004042A280ED06FF02F022878A0F183
:10203000300109290AD808EB880102EB410100EBC5
:1020400001086D1CF2E757F8048B6D1C287869288D
:102050003ED006DC0028CDD063280BD0642804D104
:1020600036E0732810D075284BD052460D99904712
:10207000761C85E017F8040B8DF8000000208DF821
:102080000100E946012003E057F8049B4FF0FF30C0
:1020900061074FF0000401D40AE0641C44450DDAE6
:1020A0008442FADB19F804100029F6D106E0641C1A
:1020B0008442FCDB19F804100029F8D1264404E01E
:1020C00019F8010B52460D999047641EF8D257E05B
:1020D00001CF4FF00A0B002802DA40422D2102E026
:1020E000210504D52B218DF82410012103E0E107FF
:1020F00005D02021F7E70DF1200908910CE000211F
:10210000F9E701CF4FF00A0BF9E75946FEF741F91D
:1021100001F1300209F8012D0028F6D1ADEB0900DC
:1021200000F1200B600701D44FF00108D84502DD13
:10213000A8EB0B0000E000208046002406E009A880
:102140005246005D0D999047641C761C08988442A5
:10215000F5DB04E0302052460D999047761CB8F12B
:102160000001A8F10108F5DC05E019F8010B524661
:102170000D999047761CBBF10001ABF1010BF4DC2B
:102180006D1C34E7092801002DE9F0418846074617
:102190000024174D07F0F6FD05EB0411096841B165
:1021A00007F018FE641C042CF4DB4FF0FF30BDE890
:1021B000F08105EB04152F6007F00CFE00266E6021
:1021C000A87B002806D00BA340F20E2216A11EA069
:1021D000FFF7CEFE2E8138780121B1EB101F02D11E
:1021E0005FEA080000D001206881AE812046DEE76A
:1021F0009C7600202E2E2F4D6964646C6577617289
:1022000065732F54686972645F50617274792F4CE2
:102210007749502F7372632F6170692F736F636BEF
:102220006574732E63000000736F636B6574735B7A
:10223000695D2E73656C6563745F77616974696E3F
:1022400067203D3D20300000417373657274696FF3
:102250006E2022257322206661696C65642061749A
:10226000206C696E6520256420696E2025730A0044
:1022700070B505460C46880706D009A34FF4B67220
:1022800013A11BA0FFF774FE07F07CFDA968096885
:102290002160A9680C60BDE8704007F09BBD00009C
:1022A0002E2E2F4D6964646C6577617265732F54AF
:1022B000686972645F50617274792F4C7749502F4E
:1022C0007372632F636F72652F6D656D702E63007F
:1022D0006D656D705F667265653A206D656D207025
:1022E000726F7065726C7920616C69676E656400ED
:1022F000417373657274696F6E20222573222066A4
:1023000061696C6564206174206C696E6520256468
:1023100020696E2025730A0070B5044607F032FD6F
:102320000546A0680468002C0FD021680160A00752
:1023300006D008A34FF48C7212A11BA0FFF718FE61
:10234000284607F047FD204670BD284607F042FDAD
:10235000002070BD2E2E2F4D6964646C657761720C
:1023600065732F54686972645F50617274792F4C81
:102370007749502F7372632F636F72652F6D656D90
:10238000702E63006D656D705F6D616C6C6F633A8C
:10239000206D656D702070726F7065726C79206150
:1023A0006C69676E65640000417373657274696F70
:1023B0006E2022257322206661696C656420617439
:1023C000206C696E6520256420696E2025730A00E3
:1023D0002DE9F0470F46040006D13FA34FF4DC720D
:1023E0004AA14EA0FFF7C4FD07F0CCFC00266660B2
:1023F0002772217F41F0010121776578667007F02F
:10240000E9FC636A7BB10022042120469847636A95
:102410004BB10022114620469847636A1BB1002247
:10242000022120469847384603F052F9804604F1CD
:102430001000814607F02FFD18B14146484607F0CD
:1024400020FD04F11400814607F025FD18B1414636
:10245000484607F016FD012D0FD0042D0DD0032D99
:102460000BD0206A002834D0BDE8F0471AA340F210
:10247000F71234A129A0FFF77BBD217FC1F38000B3
:1024800001F0FB012177002823D1206A30B912A383
:102490004FF4F37232A121A0FFF76AFD206A042DE8
:1024A00008D00771206A05680C35284607F030FD12
:1024B00010B108E00671F5E707A340F2EF122FA173
:1024C00016A0FFF755FD28462662BDE8F04707F045
:1024D0001CBDBDE8F08700002E2E2F4D6964646C92
:1024E0006577617265732F54686972645F506172B9
:1024F00074792F4C7749502F7372632F6170692F55
:102500006170695F6D73672E63000000636F6E6EAC
:1025100020213D204E554C4C000000004173736556
:102520007274696F6E2022257322206661696C6562
:1025300064206174206C696E6520256420696E20BA
:1025400025730A00636F6E6E2D3E63757272656E41
:10255000745F6D7367203D3D204E554C4C0000006C
:10256000636F6E6E2D3E63757272656E745F6D7310
:102570006720213D204E554C4C000000696E61766D
:102580006C6964206F705F636F6D706C65746564F7
:102590005F73656D00000000002802DC41421129D4
:1025A00001DB052070470249A1EB800000687047FD
:1025B000301E010870B5094D0646002404EB4400A6
:1025C00005EBC000017D29B18068B04202D12046F0
:1025D00000F036F9641C0A2CF0DB70BDE4AD00207D
:1025E0002DE9F74F84B04FF00A0B00240646DA4677
:1025F0005F46D94602940194CDF80040514904EB5E
:10260000440001EBC008039098F814500A2F1DD025
:10261000002D2AD0012D08D0022D06D24AA340F267
:10262000231257A166A0FFF7A3FC9EB13168D8F82A
:10263000040081420ED1069820B1D8F808100698FF
:10264000814207D1204607B0BDE8F08F002DE1D1CF
:1026500027460AE0012D16D0022D06D3B8F8120045
:102660000099884201D3A2460090641C24B20A2C2F
:10267000C4DB059881074FF0FF30E4D40A2F16D051
:1026800018DA3C463EE02F49039851F83000002804
:10269000B8F8120005D002998842E6D3A14602900C
:1026A000E3E701998842E0D3A3460190DDE705996D
:1026B000C907C8D05146BAF10A0F0EDA0C462148B4
:1026C00001EB440150F8310080B11FA340F26D12BC
:1026D00045A13BA0FFF74CFC08E05946BBF10A0FAF
:1026E00003DB4946B9F10A0FADDA0C460A2C06DBCA
:1026F00015A340F27F1242A131A0FFF739FC20461A
:1027000000F09EF80A2C06DB0FA340F283123CA1D6
:102710002BA0FFF72DFC0B4804EB440100EBC10597
:10272000287D30B108A34FF4C2723AA124A0FFF76C
:102730001FFC0EB130686860002068820698A860AF
:1027400080E70000E4AD00202E2E2F4D6964646CFC
:102750006577617265732F54686972645F50617246
:1027600074792F4C7749502F7372632F636F7265A2
:102770002F697076342F6574686172702E63000063
:102780007374617465203D3D204554484152505F4B
:1027900053544154455F50454E44494E47207C7C3C
:1027A000207374617465203E3D2045544841525069
:1027B0005F53544154455F535441424C450000001F
:1027C000417373657274696F6E20222573222066CF
:1027D00061696C6564206174206C696E6520256494
:1027E00020696E2025730A006172705F7461626CEB
:1027F000655B695D2E71203D3D204E554C4C0000BF
:1028000069203C204152505F5441424C455F53493E
:102810005A4500006172705F7461626C655B695D4E
:102820002E7374617465203D3D20455448415250DB
:102830005F53544154455F454D50545900000000CA
:1028400070B5074C00EB4005002654F8350018B170
:1028500006F016F944F8356004EBC500067570BD46
:10286000E4AD00202DE9F04385B00D00074609D006
:102870007C684FF480782088404539D1207906283B
:1028800036D109E01CA340F28A2229A12CA0FFF72F
:102890006FFB05B0BDE8F0836079042828D160881B
:1028A000082825D1D4F80E000490A169686820B1E9
:1028B000814202D10126334601E00026022304F1C1
:1028C0000802914604A9284600F0A2FBE088404592
:1028D0000ED16EB1022204ABCDE90232291DCDE941
:1028E000001905F1220319464A46284600F090FADD
:1028F000384606F0C5F8CCE72E2E2F4D6964646C7F
:102900006577617265732F54686972645F50617294
:1029100074792F4C7749502F7372632F636F7265F0
:102920002F697076342F6574686172702E630000B1
:102930006E6574696620213D204E554C4C000000A8
:10294000417373657274696F6E202225732220664D
:1029500061696C6564206174206C696E6520256412
:1029600020696E2025730A00FEB515460E46040048
:1029700006D143A340F21E324FA153A0FFF7F8FA4D
:1029800036B93FA340F21F3259A14FA0FFF7F0FA2A
:1029900035B93BA34FF4487258A14BA0FFF7E8FAB2
:1029A0002146286800F02AFF08B1584B3FE028680C
:1029B000C0F303110E2925D0A168636800EA010263
:1029C0000B409A4208D080B2A0F57E41A93903D0CD
:1029D000E068B0B304F10C054D4B4E481A7802EB99
:1029E000420100EBC1010F7D022F2ED38F68A74259
:1029F0002BD12F6849688F4227D13146204600F0FD
:102A00008BF8FEBD01208DF8040000208DF8050034
:102A10005E208DF80600687801AB00F07F008DF82D
:102A20000700A8788DF80800E8788DF809004FF4C1
:102A30000060009004F122023146204600F0C8FBFD
:102A4000FEBDFFE76FF00300FAE7002202EB420150
:102A500000EBC1010F7D022F08D38F68A74205D17B
:102A60002F6849688F4201D11A70C6E7521CD2B252
:102A70000A2AEBD332462946204600F0D5F8DFE794
:102A80002E2E2F4D6964646C6577617265732F54C7
:102A9000686972645F50617274792F4C7749502F66
:102AA0007372632F636F72652F697076342F65744C
:102AB000686172702E6300006E6574696620213D46
:102AC000204E554C4C000000417373657274696F61
:102AD0006E2022257322206661696C656420617412
:102AE000206C696E6520256420696E2025730A00BC
:102AF0007120213D204E554C4C00000069706164EE
:102B0000647220213D204E554C4C0000201E0108CF
:102B100058010020E4AD00202DE9F8430646154693
:102B200088461C4802EB450100EBC104207D0228C9
:102B300006D219A340F2EE2225A131A0FFF718FA20
:102B4000144A05EB4501207D02EBC1050C35022836
:102B500013D1608A0327B0F58E7F04D9211D30463A
:102B600000F010FA07E0B0F5877F06D32A46211D52
:102B7000304600F00DFA00B927754FF40060009060
:102B80002B4606F122024146304600F021FBBDE80B
:102B9000F8830000E4AD00202E2E2F4D6964646C94
:102BA0006577617265732F54686972645F506172F2
:102BB00074792F4C7749502F7372632F636F72654E
:102BC0002F697076342F6574686172702E6300000F
:102BD0006172705F7461626C655B6172705F696481
:102BE000785D2E7374617465203E3D2045544841E4
:102BF00052505F53544154455F535441424C450039
:102C0000417373657274696F6E202225732220668A
:102C100061696C6564206174206C696E652025644F
:102C200020696E2025730A002DE9FC5F8246223060
:102C300001900E46086814464FF0FF374FF0000B26
:102C4000514600F0DBFD80B93068C0F303110E2956
:102C50000BD056B148B1524601213046FFF7C0FCB7
:102C6000050005D540B2BDE8FC9F6FF00F00FAE704
:102C70007F2D06D337A340F2C13244A147A0FFF70E
:102C800077F905F0FF094F4909EB490801EBC80541
:102C9000287D00280ED0012808D0022806D22DA3B6
:102CA00040F2CD3248A13DA0FFF762F9BBF1000F21
:102CB00006D104E001202875C5F808A000E034B969
:102CC0003146504600F05EF90746002CCBD0287DF7
:102CD0003C4E02280ED346494FF4006005F10C0328
:102CE00081F80090009021465046019A00F070FA59
:102CF00007462DE001282BD1254640F2F13768899F
:102D00002989884207D1286828B112A33A4639A1F7
:102D100022A0FFF72DF9287B400607D522464FF465
:102D200020710E2005F0E2FC044605E02D68002D20
:102D3000E5D1204606F03CF844B156F8380008B119
:102D400005F09EFE46F83840002701E04FF0FF37BF
:102D5000384688E72E2E2F4D6964646C6577617262
:102D600065732F54686972645F50617274792F4C77
:102D70007749502F7372632F636F72652F69707676
:102D8000342F6574686172702E6300007479706509
:102D9000206F766572666C6F770000004173736513
:102DA0007274696F6E2022257322206661696C65DA
:102DB00064206174206C696E6520256420696E2032
:102DC00025730A00E4AD00206172705F7461626C6B
:102DD000655B695D2E7374617465203D3D205045CF
:102DE0004E44494E47206F7220535441424C450097
:102DF000580100206E6F207061636B6574207175DF
:102E00006575657320616C6C6F77656421000000E7
:102E10002DE9FF4F81B09846DDE90FA9DDF838B004
:102E200006004FF0000706D12CA340F2574239A10B
:102E30003CA0FFF79DF84FF420721C210E2005F0F6
:102E400009FA050046D068891C2806D223A340F25F
:102E500062423EA133A0FFF78BF86C68119801F035
:102E60001BFEE08096F82800062806D01BA340F23F
:102E7000694243492BA0FFF77BF8D8F80010A16006
:102E8000B8F80400A081DAF80010C4F81210BAF8FB
:102E90000400E082DBF80000C4F80E00D9F800005E
:102EA000A0614FF48070208008206080062020718F
:102EB0000420607140F60600DDE9022300902946F7
:102EC000304600F085F9284605F0DAFD384605B0B1
:102ED000BDE8F08F4FF0FF30F9E700002E2E2F4DA8
:102EE0006964646C6577617265732F546869726494
:102EF0005F50617274792F4C7749502F7372632F32
:102F0000636F72652F697076342F657468617270B3
:102F10002E6300006E6574696620213D204E554C7D
:102F20004C000000417373657274696F6E20222536
:102F30007322206661696C6564206174206C696E1F
:102F40006520256420696E2025730A006368656327
:102F50006B20746861742066697273742070627586
:102F6000662063616E20686F6C6420737472756391
:102F700074206574686172705F686472000000009C
:102F8000B0200108014A00F003B80000201E01082B
:102F90007FB5064D031D0124CDE90035CDE90214AE
:102FA0001E331946FFF734FF04B070BD261E01081A
:102FB00070B5164D002400BF04EB440005EBC002C1
:102FC000117DF1B1508A401C80B25082B0F5967FDD
:102FD0000AD2012906D003290AD004290AD00129DE
:102FE0000BD00EE0052808D32046FFF729FC08E0A7
:102FF000042000E00220107503E0111D9068FFF727
:10300000C1FF641C0A2CD7DB70BD0000E4AD0020BA
:10301000F8B5044690F828001F4616460D460628C7
:1030200006D020A340F2A9122CA135A0FEF7A0FFE4
:103030009DB1286888B1214600F0E0FB68B9287886
:10304000C0F303100E2808D0224639462846FFF761
:10305000C7FA002804DA40B2F8BD6FF00F00F8BDDF
:1030600000EB40013048022300EBC102137594606D
:103070003368D360B38813820023538250F83150F1
:1030800075B140F831304FF400600090334604F1E0
:1030900022022946204600F09BF8284605F0F0FC65
:1030A0000020F8BD2E2E2F4D6964646C6577617227
:1030B00065732F54686972645F50617274792F4C24
:1030C0007749502F7372632F636F72652F69707623
:1030D000342F6574686172702E6300006E657469C8
:1030E000662D3E6877616464725F6C656E203D3D5D
:1030F000204554485F4857414444525F4C454E0078
:10310000417373657274696F6E2022257322206685
:1031100061696C6564206174206C696E652025644A
:1031200020696E2025730A00E4AD00202DE9F041EE
:10313000044640890E270D460E283CD9E07B18B97D
:1031400095F82C00401CE073606801788689CA07F6
:1031500014D0012905D006221C49FDF70DF948B10C
:103160000CE0417851B980785E2807D1607B40F04F
:10317000100002E0607B40F008006073082E03D06E
:10318000B6F5C16F17D10DE095F82900000712D5EB
:103190003946204605F05AFE68B92946204600F017
:1031A00075FC10E095F82900000704D53946204643
:1031B00005F04CFE18B1204605F062FC03E02946FC
:1031C0002046FFF74FFB0020BDE8F081201E0108DC
:1031D0002DE9F04104461F4690460E46069801F040
:1031E0005BFC05460E21304604F0D0FF18B16FF0AD
:1031F0000100BDE8F0817068858139680160B98897
:103200008180D8F80020C0F80620B8F80410418169
:1032100094F82800062806D006A34FF4997213A14B
:103220001FA0FEF7A5FE31462046A269BDE8F04189
:10323000104700002E2E2F4D6964646C6577617213
:1032400065732F54686972645F50617274792F4C92
:103250007749502F7372632F6E657469662F65749A
:103260006865726E65742E63000000006E65746997
:10327000662D3E6877616464725F6C656E206D7563
:103280007374206265203620666F722065746865ED
:10329000726E65745F6F7574707574210000000044
:1032A000417373657274696F6E20222573222066E4
:1032B00061696C6564206174206C696E65202564A9
:1032C00020696E2025730A0010B5040006D10BA3F7
:1032D0004FF406720EA112A0FEF74AFE732084F886
:1032E0002A00742084F82B00174860611748A061F9
:1032F000204601F013FA002010BD00002E2E2F539F
:1033000072632F65746865726E657469662E6300FA
:103310006E6574696620213D204E554C4C000000BE
:10332000417373657274696F6E2022257322206663
:1033300061696C6564206174206C696E6520256428
:1033400020696E2025730A0069290008D548000805
:103350000B4E04464FF0FF373946306804F0BAFE92
:103360000028F9D1204601F055FA0500F4D0226971
:10337000214690470028F5D0284605F081FBF1E76B
:103380001C0000202DE9F0410E4604005ED0A56926
:10339000002D0DDA06F0F6FCA569002D06DA0EB94F
:1033A0006D1EA561BDE8F04106F014BD06F012FDEA
:1033B000284600F08DF8040048D0012706F0E2FC12
:1033C00080460120052E19D2DFE806F0030A0E130D
:1033D00016002089401C00B22081012834DC14E052
:1033E0002089401E20812FE0618901B10027608182
:1033F0000BE00020608127E0A08106E014A34FF4D9
:103400001F6220A123A0FEF7B3FDA07BE0B1DFB1D6
:10341000B4F90800002801DD012700E000276089D9
:1034200008B1012600E00026A08908B1012400E0CF
:103430000024404606F0CEFC234632463946284654
:10344000BDE8F04106F078BB4046ABE7BDE8F0814F
:103450002E2E2F4D6964646C6577617265732F54ED
:10346000686972645F50617274792F4C7749502F8C
:103470007372632F6170692F736F636B6574732E42
:1034800063000000756E6B6E6F776E206576656EFB
:1034900074000000417373657274696F6E20222599
:1034A0007322206661696C6564206174206C696EAA
:1034B0006520256420696E2025730A0003490A6887
:1034C0005206FCD5C2B24A607047000000100140AD
:1034D00010B50CF08FFD002803D1024909200860C7
:1034E000002010BD640100200A46032100F0F4B85A
:1034F0002DE9FE4F8A4644490446D1F8088098F8E1
:1035000000000007850E142D79D36089042876D336
:1035100060680078002872D0082870D1486901F1ED
:103520001407C0F303120E2A69D08946096800F017
:1035300065F9002863D12089082860D305F10E01C0
:103540000E46204604F022FE002830D02089411982
:1035500089B2884253D84FF420720E2004F07AFECC
:1035600006004CD0718905F10800814216D32A4625
:1035700041467068FCF7CEFE2946304605F066FCF1
:10358000002806D021A3B6222EA13CA0FEF7F0FC15
:1035900004E02146304605F0F7F818B1304605F052
:1035A0006FFA2CE0204605F06BFA34460CE0314609
:1035B000204605F04BFC002806D014A3C72239A1F1
:1035C0002EA0FEF7D5FC1AE029462046666804F0D6
:1035D000DDFDA0B960683968FF22C160D9F810101C
:1035E00001610021317071800272418101228DE8F8
:1035F00006040A46FF233946204600F017FB204602
:10360000BDE8FE4F05F03CBADC7600202E2E2F4D93
:103610006964646C6577617265732F54686972645C
:103620005F50617274792F4C7749502F7372632FFA
:10363000636F72652F697076342F69636D702E63C6
:103640000000000069636D705F696E7075743A20E8
:103650006D6F76696E6720722D3E7061796C6F6157
:103660006420746F2069636D7020686561646572A1
:10367000206661696C65640A00000000417373652F
:103680007274696F6E2022257322206661696C65F1
:1036900064206174206C696E6520256420696E2049
:1036A00025730A0069636D705F696E7075743A20E6
:1036B000726573746F72696E67206F726967696E85
:1036C000616C20702D3E7061796C6F616420666161
:1036D000696C65640A0000002DE9FF479146884641
:1036E00006464FF420722421222004F0B3FD050089
:1036F00031D06889242806D218A34FF4B47225A1CA
:103700002FA0FEF735FC6C6877681C2284F80080D7
:1037100084F801904FF00008A4F80480A4F8068013
:10372000686871680830FCF7F5FDF868039003A835
:1037300000F08CFC60B1A4F802800122CDF800807A
:10374000CDE90120FF2303AA0021284600F06EFAEC
:10375000284605F095F9BDE8FF8700002E2E2F4D75
:103760006964646C6577617265732F54686972640B
:103770005F50617274792F4C7749502F7372632FA9
:10378000636F72652F697076342F69636D702E6375
:1037900000000000636865636B20746861742066D4
:1037A0006972737420706275662063616E20686F41
:1037B0006C642069636D70206D657373616765006B
:1037C000417373657274696F6E20222573222066BF
:1037D00061696C6564206174206C696E6520256484
:1037E00020696E2025730A000A460B21FFF774BF7B
:1037F000EFF30580002800D001207047421C12D052
:1038000088B191F8292092070BD54B68834208D0E4
:10381000896800EA01020B409A4202D10143491C27
:1038200001D0002070470120704700002DE9F74FBC
:1038300088B00446099800251426008CAF1F143860
:10384000C11700EB5170C0F3CF0003906068069081
:10385000017801F00F01052903D038460BB0BDE80F
:10386000F08F6189142907D25BA34FF43F7269A1DD
:103870006FA0FEF77DFBF0E7C08801F00DF9C0F303
:103880000C0100F4005002910790208914381FFAAF
:1038900080F88EE003984FF6FF7101EAC0004146C0
:1038A000404500D9084604904FF4207214210E20A0
:1038B00004F0D0FC5FEA000A7ED0BAF80A001428AF
:1038C00006D245A34FF4497263A159A0FEF750FBFD
:1038D0001422DAF804000699FCF71CFDDAF804005B
:1038E0000590049F35E06089811B8DB2B04206D2FD
:1038F00039A340F22D3260A14DA0FEF739FBAF4253
:1039000000D23D461DB3052002F048FF5FEA0009E2
:1039100057D060684B463044CDE900054122294626
:10392000002004F01DFE5FEA000B50D0204605F099
:103930003FFA5549C9E904145946504604F02CFE93
:10394000781B07043F0C06D000262468CBE72468C8
:103950000026002FC7D1701986B20998008C143840
:1039600040450298C0F30C0001DB079909B140F40F
:10397000005001F091F80599C8800498143080B285
:1039800001F08AF80599488005980021418109983D
:1039900051460A9A43699847504605F071F80499D0
:1039A000A8EB01001FFA80F8DDE90201084480B2AB
:1039B0000290B8F1000F00E006E07FF46BAF00204A
:1039C0004CE7504605F05CF84FF0FF3046E74846BC
:1039D00000F06CFBF5E700002E2E2F4D6964646C3F
:1039E0006577617265732F54686972645F506172A4
:1039F00074792F4C7749502F7372632F636F726500
:103A00002F697076342F6970345F667261672E6338
:103A1000000000006970345F6672616728293A20EF
:103A20007062756620746F6F2073686F7274000027
:103A3000417373657274696F6E202225732220664C
:103A400061696C6564206174206C696E6520256411
:103A500020696E2025730A0074686973206E65659D
:103A600064732061207062756620696E206F6E65D8
:103A70002070696563652100702D3E6C656E203E87
:103A80003D20706F66660000854600082DE9F0470E
:103A9000456807460E4628780421B1EB101F03D075
:103AA000384604F0EDFF77E000074FEA9068688839
:103AB00000F0F2FF04463889A04203D92146384677
:103AC00005F0DCF879894145EAD33889A042E7D38B
:103AD000B8F1140FE4D32969DFF81C91C1F3031086
:103AE0000E28C9F81410EA68C9F8102005D030462D
:103AF00000F086F850B1344619E096F82900C00766
:103B000002D070680028F6D1002410E099F8140063
:103B100000247F280BD03948046806E0B44203D063
:103B2000204600F06DF810B92468002CF6D131461B
:103B3000D9F81000FFF762FE0028B1D199F8100003
:103B4000C0F303100E28ABD0002CA9D0E88830F0C9
:103B5000C00005D0384600F035F907001CD07D685C
:103B6000C9F80850C9E90046297838460907890E7E
:103B7000A9F80C10414605F069F9687A012818D0B7
:103B8000062811D011280AD04D462146D9F8140034
:103B9000FFF734FE90B11EE00020BDE8F08731460B
:103BA00038460CF0E1FA19E03146384607F05EFA83
:103BB00014E031463846FFF79BFC0FE0287DC0F348
:103BC00003100E2807D04146384605F03FF8022181
:103BD0003846FFF789FC384604F052FF0021C9F847
:103BE0000010C9F80410C9F80810A9F80C10C9F899
:103BF0001010C9F81410CFE7DC760020F400002084
:103C000010B590F82910C9070CD0416851B1064A87
:103C100052698A4204D001461046FFF7EFFD08B111
:103C2000012010BD002010BDDC760020FEB5DDE9CE
:103C30000954089E1AB109B10F6807B9211D0096F1
:103C4000CDE9015400F002F8FEBD00002DE9F84F67
:103C50000546DDE90BA8807BDDF828B01F46164637
:103C60008946012806D02FA34FF455723AA13DA0F2
:103C7000FEF77EF96FF00104002E35D0142128469E
:103C800004F084FA002832D168896C68142806D2BE
:103C900024A34FF462723DA132A0FEF769F92772A6
:103CA00084F809A0306820614520207084F801B0B4
:103CB000288900F0F1FE414F60804FF0000AA4F81F
:103CC00006A0388800F0E8FEA0803888401C3880C4
:103CD000B9F1000F05D0D9F80000E060A4F80AA0FF
:103CE0000CE037480068F8E76889142802D22046BB
:103CF000BDE8F88F68686E4600690090B8F820004B
:103D000040B12989814205D9324641462846FFF70C
:103D10008DFDEDE7D8F814304046324629469847E5
:103D2000E6E700002E2E2F4D6964646C65776172A2
:103D300065732F54686972645F50617274792F4C97
:103D40007749502F7372632F636F72652F69707696
:103D5000342F6970342E6300702D3E726566203DED
:103D60003D203100417373657274696F6E202225A6
:103D70007322206661696C6564206174206C696ED1
:103D80006520256420696E2025730A0063686563D9
:103D90006B20746861742066697273742070627538
:103DA000662063616E20686F6C6420737472756343
:103DB000742069705F686472000000005A0100207E
:103DC000B01F01082DE9F05F45688346287800F0B0
:103DD0000F0005287DD1E88800F05EFEC004070CC6
:103DE000688800F059FE29780907890E814270D849
:103DF000401A1FFA80F8584604F06FFC6A4C0646D9
:103E0000208830440A2809D93146284600F0E4FBCE
:103E100000285ED0208830440A28E8D8A14664688B
:103E20004FF0000A0CE06069E968884207D1A06998
:103E30002969884203D1A089A988884203D02468CF
:103E4000002CF0D106E02CB1E88800F025FEC0047B
:103E50001BD025E0042002F0A1FC04000AD1314669
:103E6000284600F0B9FBB04233DB042002F096FC98
:103E70000400CED02021FCF774FA0F20E077D9F8A7
:103E800004102160C9F8044004E0E08900F004FE59
:103E9000C00405D01422294604F10800FCF73AFAC0
:103EA000A87940F340156D1C08D007EB080080B2DC
:103EB000B84263D34FF6EB7188425FD82A46594621
:103EC000204600F03BF9411C58D0B9F8002032449C
:103ED00000E064E0A9F8002035B107EB0801A183F8
:103EE000A17F41F00101A177012845D1A08B1422C7
:103EF000143087B2606804F10801456828462E68CE
:103F0000FCF708FA384600F0C7FD6880A5F806A05F
:103F1000A5F80AA0656809E014213046776804F026
:103F200095FF3146284604F037FB3E68002EF3D15A
:103F3000D9F804104E468C4205D1002105E00868EE
:103F4000A04202D001460029F9D1204600F01AFA19
:103F5000284604F0C2FB04463088A04206D213A3D0
:103F600040F29B2220A127A0FEF702F83088001B18
:103F700030802846BDE8F09F0020FBE7606870B9FC
:103F8000D9F80400844206D008A340F2AB2227A14E
:103F90001CA0FDF7EDFF0021204600F0F3F9584684
:103FA00004F06EFDE8E700005C0100202E2E2F4D8E
:103FB0006964646C6577617265732F5468697264B3
:103FC0005F50617274792F4C7749502F7372632F51
:103FD000636F72652F697076342F6970345F667213
:103FE00061672E630000000069705F726561737322
:103FF0005F70627566636F756E74203E3D20636C02
:10400000656E0000417373657274696F6E202225BE
:104010007322206661696C6564206174206C696E2E
:104020006520256420696E2025730A006E6F742058
:104030006669727374616C74686F756768206A75FD
:10404000737420656E7175657565640070B50146A1
:10405000144813E090F82920D3070FD053070DD54B
:1040600043685BB184680D68234005EA04069E42FC
:1040700016D0920702D4C268954211D00068002879
:10408000E8D10948006850B190F82920D30706D03C
:10409000520704D5426812B109787F2900D1002067
:1040A00070BD0000F4000020F800002010B50400EE
:1040B00006D106A34FF4317213A116A0FDF758FFE5
:1040C0002146BDE81040052002F0F4BA2E2E2F4DF7
:1040D0006964646C6577617265732F546869726492
:1040E0005F50617274792F4C7749502F7372632F30
:1040F000636F72652F697076342F6970345F6672F2
:1041000061672E63000000007020213D204E554C59
:104110004C000000417373657274696F6E20222534
:104120007322206661696C6564206174206C696E1D
:104130006520256420696E2025730A002DE9F05F53
:104140004C68064693460F4600254FF001086088EC
:1041500000F0A2FC21784FF0FF3A0907890E814256
:1041600031D8A0EB0109E08800F096FCC0047C681F
:10417000010C0020206001EB090083B2A180E380E4
:104180008B4220D3726829E05068B0F804C06145C2
:1041900015D222606DB1B5F806C0614513D3808891
:1041A000834210D82F60A088844506D04FF00008C5
:1041B00003E08088834206D877608AB12EE002D07F
:1041C000C288914202D25046BDE8F09F25B1EA88EC
:1041D000624501D04FF0000802680546002AD3D19D
:1041E00095B1E888A188884206D92AA34FF4DB72EA
:1041F00037A13FA0FDF7BCFE2F60E888A188884268
:104200000CD04FF0000809E0706830B121A34FF4E2
:10421000DF7241A136A0FDF7ABFE7760BBF1000F66
:1042200002D1B07FC007CFD0B8F1000F30D0726894
:10423000002A2DD050688088002829D12168204686
:1042400029B14C68C088A1888842F7D020E0B8F135
:10425000000F1DD032B90FA340F2DF123CA124A001
:10426000FDF786FE70684068A04206D109A34FF4AE
:10427000F07237A11EA0FDF77BFE206830B105A3C8
:104280004FF4F17236A11AA0FDF772FE01209BE7F0
:10429000002099E72E2E2F4D6964646C657761725A
:1042A00065732F54686972645F50617274792F4C22
:1042B0007749502F7372632F636F72652F69707621
:1042C000342F6970345F667261672E6300000000EE
:1042D000636865636B20667261676D656E747320D9
:1042E000646F6E2774206F7665726C6170000000D9
:1042F000417373657274696F6E2022257322206684
:1043000061696C6564206174206C696E6520256448
:1043100020696E2025730A006E6F207072657669C1
:104320006F757320667261676D656E742C2074689A
:104330006973206D757374206265207468652066EA
:104340006972737420667261676D656E7421000016
:1043500073616E69747920636865636B00000000A7
:1043600076616C69646174655F64617461677261D0
:104370006D3A6E6578745F70627566213D4E554C7E
:104380004C00000070B504460C480D464168A1423F
:1043900002D1216841600AE0002D06D108A340F255
:1043A000451216A11CA0FDF7E3FD206828602146F8
:1043B000BDE87040042002F07DB900005C010020DF
:1043C0002E2E2F4D6964646C6577617265732F546E
:1043D000686972645F50617274792F4C7749502F0D
:1043E0007372632F636F72652F697076342F6970F3
:1043F000345F667261672E630000000073616E694E
:10440000747920636865636B206C696E6B656420EA
:104410006C69737400000000417373657274696F96
:104420006E2022257322206661696C6564206174A8
:10443000206C696E6520256420696E2025730A0052
:104440002DE9F047054600240F46A94205D12FA3C8
:10445000AB223DA13FA0FDF78BFD002F08D03868AF
:10446000A84205D029A3AD2244A13AA0FDF780FDC2
:104470006E684FF480387068818800291AD100680E
:104480006860142205F108017068FBF743FF012101
:104490003046FFF7A9F9304604F01FF904464045BD
:1044A00005D31AA3BC223AA12AA0FDF761FD30462C
:1044B00004F0E6FA6E6812E07068B1460668484695
:1044C00004F00BF90444444505D310A3CC2230A1D9
:1044D00020A0FDF74DFDA4B2484604F0D1FA002E0D
:1044E000EAD139462846FFF74DFF314D2888A042D2
:1044F00005D206A3D2222FA116A0FDF739FD2888E8
:10450000001B28802046BDE8F08700002E2E2F4D8E
:104510006964646C6577617265732F54686972644D
:104520005F50617274792F4C7749502F7372632FEB
:10453000636F72652F697076342F6970345F6672AD
:1045400061672E63000000007072657620213D20B7
:1045500069707200417373657274696F6E202225F1
:104560007322206661696C6564206174206C696ED9
:104570006520256420696E2025730A0070726576B7
:104580002D3E6E657874203D3D20697072000000FC
:1045900070627566735F6672656564202B20636C5C
:1045A000656E203C3D20307866666666000000003F
:1045B0005C01002069705F72656173735F70627582
:1045C00066636F756E74203E3D2070627566735F22
:1045D00066726565640000002DE9F0471D4F89464D
:1045E000064600240022134611461546786822E04C
:1045F000D0F814C0D6F80C80C4450BD1D0F818C040
:10460000D6F81080C44505D1B0F80CC0B6F80480C7
:10461000C44509D06D1C2AB190F81FC092F81F80C4
:10462000C44501D802461946D0F800C0BCF1000FBD
:1046300000D0034660460028DAD11AB11046FFF7D1
:10464000FFFE04444C4501DA012DCBDC2046BDE8D9
:10465000F08700005C01002070B50948002544681F
:104660000BE0E07F20B1401EE0772546246804E09F
:10467000204624682946FFF7E3FE002CF1D170BDE7
:104680005C01002010B5040006D108A340F2CE2240
:1046900015A118A0FDF76CFC606908B104F0F0F9F1
:1046A0002046BDE81040FFF701BD00002E2E2F4D23
:1046B0006964646C6577617265732F5468697264AC
:1046C0005F50617274792F4C7749502F7372632F4A
:1046D000636F72652F697076342F6970345F66720C
:1046E00061672E630000000070637220213D204E40
:1046F000554C4C00417373657274696F6E202225AE
:104700007322206661696C6564206174206C696E37
:104710006520256420696E2025730A0070B5384D28
:1047200004468CB0354828600120002668602E823F
:104730008DF81C6080218DF81D10E1218DF81E1070
:104740008DF820608DF81F608DF8216007A9C5E9FC
:104750000510C005C5E907602846FCF773F828B9BD
:1047600094F8290040F0040084F829000423254A25
:1047700025492348FBF7A8FF234A04238032A2F5EA
:1047800080711F48FBF766FF062084F828006869DF
:104790000121007884F822006869407884F82300B9
:1047A0006869807884F824006869C07884F82500F6
:1047B0006869007984F826006869407984F82700E0
:1047C00040F2DC50208494F8290040F00A0084F87C
:1047D0002900099609A80A9603F028FC0B491C2217
:1047E00008600B496846FBF795FD2146684603F0D3
:1047F000A3FC0348FCF7DAF90CB070BD008002405E
:1048000098340020C81C0020780400201C000020E0
:10481000EC1D01082DE9F84F0020044600902C48BB
:10482000FBF78FFF10B10020BDE8F88F2848818F7B
:10483000D0F840900904090C2FD04FF4C172002029
:1048400003F008FD009040B32148009D40F2F45B66
:10485000D0F830806E89002710E000BFA4F2F45237
:104860005242FBF757FDD8F80C008046D0F808906C
:104870003F1BAAF2F456002407F2F457686806EBCF
:10488000040ADA4509EB04013844E7D83246FBF75D
:1048900041FD2D683444002DDCD10D480022016B10
:1048A00005E00B6843F000430B60C968521C836B42
:1048B0009342F6D800218163006800F58050426978
:1048C000120602D58022426181600098ACE70000A8
:1048D000983400202DE9F05F27480D46C66A002075
:1048E00083460446D6F808A031E0306800280CDB87
:1048F0006F894FF0000818E0A4F2F4525242FBF71F
:1049000009FDF6683068002802DA6FF0070025E03C
:10491000D6F808A0A8EB040000F2F458ABEB0400B2
:10492000A9F2F45700F2F45B002407EB040940F20B
:10493000F451894569680AEB04004144DCD83A46E1
:10494000FBF7E8FC0BEB07002D683C448346002D89
:10495000CBD101460848FCF76BF9002006490968ED
:1049600001F580514A69920603D520224A6100224E
:104970004A60BDE8F09F000098340020F8B5164664
:104980000C46FEF7A5FD05004FF0FF3724D030465A
:10499000124E102804D16078022801D1A0070BD054
:1049A0000FA340F2E2221BA121A0FDF7E1FA6FF074
:1049B0000F000DE030600FE060680090608800F04C
:1049C0006BF802466946286802F08CF8002804D08B
:1049D000FDF7E2FD0028EDD13846F8BD6401002066
:1049E0002E2E2F4D6964646C6577617265732F5448
:1049F000686972645F50617274792F4C7749502FE7
:104A00007372632F6170692F736F636B6574732E9C
:104A1000630000006C7769705F62696E643A2069B8
:104A20006E76616C69642061646472657373000002
:104A3000417373657274696F6E202225732220663C
:104A400061696C6564206174206C696E6520256401
:104A500020696E2025730A0010B50446406880471F
:104A600005F035FA094A216852688B181A1AB2F112
:104A7000004F03D308442246054902E00449224678
:104A80001846BDE8104005F0C3BA000044010020FC
:104A9000594A000800BA704740BA704710B505F08F
:104AA000C1F901F083FB01F053FE03F05DF80BF058
:104AB0004FFB06F0CFFABDE8104005F025BB10B55E
:104AC000026804466FF00501506830B1127802F0B8
:104AD000F002102A09D0202A02D00846207110BD09
:104AE000A289A1680BF09AFAF8E7A289A16805F0FB
:104AF000A9FCF3E770B5016804466FF00A024B6841
:104B00004878002B4DD00B780125B5EB131F48D109
:104B1000237A032B01D0022843D0032841D0012857
:104B20003CD0D80702D0084602F09FF82068006AFF
:104B300030B11DA340F2BD7228A12FA0FDF718FAD5
:104B4000216804204870206800210462206800F079
:104B50006DF8002824D020684078042806D012A3DD
:104B600040F2C2722EA124A0FDF702FA2E4805F0F1
:104B7000ABF9206800210C3005F010F92A4805F047
:104B80008FF92068407800280AD0BDE8704006A35D
:104B900040F2C67222A118A0FDF7EAB9FB202071ED
:104BA00070BD227170BD00002E2E2F4D6964646CA3
:104BB0006577617265732F54686972645F506172C2
:104BC00074792F4C7749502F7372632F6170692F5E
:104BD0006170695F6D73672E63000000616C7265C0
:104BE0006164792077726974696E67206F722063DF
:104BF0006C6F73696E670000417373657274696FDF
:104C00006E2022257322206661696C6564206174C0
:104C1000206C696E6520256420696E2025730A006A
:104C20007374617465210000A80000202DE9F0472D
:104C30008A46040006D169A340F2A23274A178A08A
:104C4000FDF796F920780121B1EB101F06D063A380
:104C500040F2A3327CA172A0FDF78AF960780428A3
:104C600006D05EA34FF469727FA16DA0FDF780F9B5
:104C7000606830B959A340F2A53284A168A0FDF75D
:104C800077F9206A30B955A340F2A63284A164A016
:104C9000FDF76EF9206AD4F80480007A00F001096B
:104CA00000F0020703280FD0B9F1000F07D098F8E1
:104CB0001400052808D0062806D0082804D04FB1D3
:104CC00098F81A00C00605D501260021404605F0D7
:104CD000B5FB00E0002698F8140001281DD0B9F1BA
:104CE000000F07D00021404608F042FF0021404657
:104CF00005F00BFB1FB10021404609F079FC96B18D
:104D000000221146404607F067FF0021404606F0AA
:104D100015F8404605F03CFC0AE00021404605F04D
:104D2000F4FA002EF5D13A464946404609F0B2FC65
:104D300005000ED0681C0CD1206A407A20B198F88A
:104D4000140001282FD035E01EB1404605F0DAFAF4
:104D50000025206A016805710020206201F10C081D
:104D60006070BDB936B16060636A1BB10022042176
:104D700020469847B9F1000F05D0636A1BB10022A5
:104D80001146204698472FB1636A1BB100220221C9
:104D900020469847BAF1000F02D0404605F0B5F81A
:104DA0000020BDE8F0870DA340F2414243A11CA0C2
:104DB000FDF7DEF81FB14A49404609F019FC01220F
:104DC0004849404607F008FF4749404605F0B6FF0E
:104DD0002146404605F032FB2846E2E72E2E2F4DB5
:104DE0006964646C6577617265732F546869726475
:104DF0005F50617274792F4C7749502F7372632F13
:104E00006170692F6170695F6D73672E63000000C8
:104E1000696E76616C696420636F6E6E00000000DD
:104E2000417373657274696F6E2022257322206648
:104E300061696C6564206174206C696E652025640D
:104E400020696E2025730A007468697320697320D5
:104E5000666F7220746370206E6574636F6E6E731C
:104E6000206F6E6C79000000636F6E6E206D75733D
:104E70007420626520696E207374617465204E45EC
:104E800054434F4E4E5F434C4F5345007063622076
:104E9000616C726561647920636C6F736564000096
:104EA000636F6E6E2D3E63757272656E745F6D73A7
:104EB0006720213D204E554C4C000000436C6F7321
:104EC000696E672061206C697374656E207063621F
:104ED000206D6179206E6F74206661696C2100001D
:104EE000099C0008B5910008D123000870B504465C
:104EF00000684578002D16D000780121B1EB101F15
:104F000006D03AA340F25E4245A14AA0FDF730F830
:104F1000022D08D0032D03D12068007F400702D462
:104F2000FB20207121E000252571206801F09DFE05
:104F30002068416869B1027802F0F002102A1AD0A4
:104F4000202A04D1CD61206840680BF0F5FA206872
:104F500045602068436A43B10022114698472068A3
:104F6000436A13B10022022198472068BDE87040CF
:104F70000C3004F0CDBF006A30B11CA340F2944263
:104F800036A12CA0FCF7F4FF216804204870032010
:104F900020722068002104622068FFF747FE002885
:104FA00022D020684078042806D010A340F29A420C
:104FB00031A120A0FCF7DCFF314804F085FF206818
:104FC00000210C3004F0EAFE2D4804F069FF20684F
:104FD0004078002808D0BDE8704004A340F29E420B
:104FE00025A114A0FCF7C4BF70BD00002E2E2F4DCC
:104FF0006964646C6577617265732F546869726463
:105000005F50617274792F4C7749502F7372632F00
:105010006170692F6170695F6D73672E63000000B6
:105020006E6574636F6E6E20737461746520657253
:10503000726F7200417373657274696F6E202225FE
:105040007322206661696C6564206174206C696EEE
:105050006520256420696E2025730A00616C7265E5
:105060006164792077726974696E67206F7220635A
:105070006C6F73696E670000737461746521000062
:10508000A8000020016849686FF00A0200292FD0AB
:10509000037C0BB1096800E049688368196000214E
:1050A000017101680B7803F0F003102B12D0202B54
:1050B00006D010A340F27D721BA121A0FCF758BFBF
:1050C000037C49680BB1498A0FE00B7C5B070FD565
:1050D000898A0AE0037C13B14968C98A05E04B68F4
:1050E000197D29B1012903D0198BC068018070474F
:1050F000027170472E2E2F4D6964646C6577617262
:1051000065732F54686972645F50617274792F4CB3
:105110007749502F7372632F6170692F6170695FD7
:105120006D73672E63000000696E76616C696420A0
:105130006E6574636F6E6E5F747970650000000059
:10514000417373657274696F6E2022257322206625
:1051500061696C6564206174206C696E65202564EA
:1051600020696E2025730A000021017101684968D9
:10517000002901D103F0D2BE70472DE9F041044669
:105180000020207120684168002915D00078012195
:10519000B1EB101F10D1A5680F044FF6FF78BD4288
:1051A00001D3404600E0284686B220683146406878
:1051B00008F088FDAD1BF2D1BDE8F08170B5054661
:1051C000006801F0A0FD50B92A686FF00A0150682C
:1051D00020B1127802F0F002202A02D0084628718D
:1051E00070BDAC68A16831B1A38904F108022168DF
:1051F0000BF058FAF3E721680BF0F6F9EFE700003F
:1052000010B50446006801F07EFD002850D12068EA
:1052100001210278B1EB121F48D142780AB1881FF0
:1052200046E04268002A3ED041702068006A30B1F2
:1052300020A340F223722CA132A0FCF799FE6069F2
:1052400030B91CA340F2247238A12EA0FCF790FEC6
:10525000206800210462206800F078F8002828D037
:1052600020684078012806D012A34FF4E56234A1EB
:1052700024A0FCF77DFE344804F026FE20680021BF
:105280000C3004F08BFD304804F00AFE20684078B2
:1052900001280ED1BDE8104006A340F22C7228A1CF
:1052A00018A0FCF765BE6FF00A0001E06FF0050082
:1052B000207110BD2E2E2F4D6964646C657761726C
:1052C00065732F54686972645F50617274792F4CF2
:1052D0007749502F7372632F6170692F6170695F16
:1052E0006D73672E63000000616C726561647920E4
:1052F00077726974696E67206F7220636C6F73696F
:105300006E670000417373657274696F6E202225A9
:105310007322206661696C6564206174206C696E1B
:105320006520256420696E2025730A006D73672D42
:105330003E6D73672E772E6C656E20213D20300008
:105340007374617465210000A80000202DE9F34FFB
:1053500081B004004FF0000A06D188A340F27362C6
:1053600093A197A0FCF704FE6078012806D083A3E0
:1053700040F274629CA192A0FCF7FAFD206A00281A
:1053800006D17EA340F275629FA18DA0FCF7F0FDCF
:10539000606830B979A340F27662A2A188A0FCF7D8
:1053A000E7FD206A81694069814206D373A340F218
:1053B0007762A2A182A0FCF7DBFD206A8089002829
:1053C00006D16EA340F27962ACA17DA0FCF7D0FDBE
:1053D000206A077F207F800701D4780701D501204C
:1053E00000E0002080464FF6FF7B216A4FF48039B1
:1053F0008868096902680A4400924268551A4D4556
:1054000003D35E4647F0020700E0AEB26068B0F832
:105410006400B0420ED20646B8F1000F08D04EB973
:10542000206A806908B100254EE06FF006054BE068
:1054300047F002078819904206D950A340F2A362B0
:1054400098A15FA0FCF794FD5E4501D14D4506D2C1
:10545000A8B2B04208D1206A8089012804D94FF04F
:10546000010947F0020701E04FF000093B463246D0
:105470006068009909F0A6FE050019D1206A8169CB
:1054800031448161206A016931440161206A826886
:10549000526891420CD18189491E0904090C81810D
:1054A000206A05D0816808318160216A0020086186
:1054B000B9F1000F02D0002D97D000E00DB1681CAB
:1054C00045D1B8F1000F0FD0206A8169406981424F
:1054D0000AD2636A1BB10022032120469847207F2D
:1054E00040F0100020770FE06068B0F86410B1F56C
:1054F000866F03D3B0F86600052805D3636A1BB135
:10550000002203212046984715B1681C13D01EE0E5
:10551000206A81694069814202D0B8F1000F01D050
:105520004FF0010A606806F087FC011D1DD0BAF13A
:10553000000F0CD11EE0606806F07EFC011D14D047
:10554000B8F1000F16D0206A806980B10025216A69
:1055500008680D7100212162617002990C3009B157
:1055600004F0D3FC0020BDE8FE8F0546EFE76FF0A6
:105570000605ECE74FF0FF30F5E700002E2E2F4D2B
:105580006964646C6577617265732F5468697264CD
:105590005F50617274792F4C7749502F7372632F6B
:1055A0006170692F6170695F6D73672E6300000021
:1055B000636F6E6E20213D204E554C4C0000000064
:1055C000417373657274696F6E20222573222066A1
:1055D00061696C6564206174206C696E6520256466
:1055E00020696E2025730A00636F6E6E2D3E737402
:1055F000617465203D3D204E4554434F4E4E5F57EC
:105600005249544500000000636F6E6E2D3E637575
:105610007272656E745F6D736720213D204E554C2C
:105620004C000000636F6E6E2D3E7063622E7463DB
:105630007020213D204E554C4C000000636F6E6E73
:105640002D3E63757272656E745F6D73672D3E6D6E
:1056500073672E772E6F6666736574203C20636FC8
:105660006E6E2D3E63757272656E745F6D73672D1D
:105670003E6D73672E772E6C656E0000636F6E6EE5
:105680002D3E63757272656E745F6D73672D3E6D2E
:1056900073672E772E766563746F725F636E742006
:1056A0003E2030006C7769705F6E6574636F6E6E5C
:1056B0005F646F5F77726974656D6F72653A2069B8
:1056C0006E76616C6964206C656E67746821000099
:1056D00010B510F10F0F13D010F10E0F0DD010F107
:1056E0000D0F08D028B108A37D2214A117A0FCF744
:1056F0003FFC002010BD1F4810BD1E48401C10BDBF
:105700001C48801C10BD00002E2E2F4D6964646C57
:105710006577617265732F54686972645F50617256
:1057200074792F4C7749502F7372632F6170692FF2
:105730006170695F6D73672E63000000756E68614C
:105740006E646C6564206572726F7200417373657C
:105750007274696F6E2022257322206661696C6500
:1057600064206174206C696E6520256420696E2058
:1057700025730A002C1E010870B50C00054605D1E2
:105780000DA3852219A11CA0FCF7F2FB2448854239
:1057900001D1F3200AE02248401C854201D1F220C9
:1057A00004E01F48801C854203D1F12020700120B5
:1057B00070BD002070BD00002E2E2F4D6964646CFA
:1057C0006577617265732F54686972645F506172A6
:1057D00074792F4C7749502F7372632F6170692F42
:1057E0006170695F6D73672E6300000065727220DF
:1057F000213D204E554C4C00417373657274696FA6
:105800006E2022257322206661696C6564206174B4
:10581000206C696E6520256420696E2025730A005E
:105820002C1E01082DE9F84F002599468B460746A6
:105830004FF008086FF0004AB2F1004F00D3524613
:10584000164637B943A340F29E324FA152A0FCF74F
:105850008FFB386801210078B1EB101F06D03DA303
:1058600040F29F3256A14CA0FCF782FB5FEA097020
:1058700001D54FF00C08786808B1009021E042464D
:105880006946386801F064FD04000ED0002D58DC34
:10589000FCF782FE08B1534908600F3403D04FF083
:1058A000FF30BDE8F88F0020FBE7009830B929A34E
:1058B00040F2C5324CA138A0FCF75AFB0098786042
:1058C00000980489B44200DBB4B22919A94202DA73
:1058D000AAEB05018CB20BEB05010023224603F075
:1058E00043F82544A64206DA1AA340F2DD3241A16C
:1058F00029A0FCF73DFB361B5FEAC97018D1009860
:105900000089A04206D213A340F2E33243A122A0B1
:10591000FCF72EFB00980189091B002904DD2146B4
:1059200003F060F9786003E00021796003F0A8F8E3
:1059300048F01408002E02DD5FEAC9709BD0002DEC
:1059400006DD5FEAC97003D12946386801F004FE1C
:105950002846A6E72E2E2F4D6964646C6577617228
:1059600065732F54686972645F50617274792F4C4B
:105970007749502F7372632F6170692F736F636B58
:105980006574732E630000006E6F20736F636B6528
:105990007420676976656E00417373657274696F10
:1059A0006E2022257322206661696C656420617413
:1059B000206C696E6520256420696E2025730A00BD
:1059C000746869732073686F756C64206265206306
:1059D0006865636B656420696E7465726E616C6C7A
:1059E00079000000640100207020213D204E554CBC
:1059F0004C000000696E76616C696420636F707999
:105A00006C656E2C206C656E20776F756C642075EC
:105A10006E646572666C6F7700000000696E766177
:105A20006C696420636F70796C656E002DE9F04FCE
:105A30008DB09B46DDE91664174689468246FDF720
:105A400047FD05004FF0FF383FD02868012100785E
:105A5000B1EB101F1AD15B463A4649462846FFF77C
:105A6000E1FE074676B16CB1002302AA04A92868BA
:105A700001F00EFA00943346BDF8082004A9286806
:105A800000F0DCF938460DB0BDE8F08F0020ADF82D
:105A900008000890079009900BA80396CDE905012E
:105AA000CDE90B970CB1206800E00020049002AB18
:105AB00003AA5946CDF800A0284600F01FF830B1DF
:105AC000FCF76AFD08B10C4908604046DBE7BDF809
:105AD0000800874201D23A4600E002466FF00041DA
