:020000040800F2
:10000000B04600205D020008C3100008A10F0008E0
:10001000C11000088D0300088913000800000000CB
:100020000000000000000000000000009D0100082A
:100030008F03000800000000F9010008C510000847
:1000400077020008770200087702000877020008AC
:10005000770200087702000877020008770200089C
:10006000770200087702000877020008770200088C
:10007000770200087702000877020008770200087C
:10008000770200087702000877020008770200086C
:10009000770200087702000877020008770200085C
:1000A000770200089911000877020008770200081B
:1000B000770200087702000877020008770200083C
:1000C000770200087702000877020008770200082C
:1000D000770200087702000877020008770200081C
:1000E000770200087702000877020008770200080C
:1000F00077020008770200087702000877020008FC
:1001000077020008770200087702000877020008EB
:1001100077020008770200087702000877020008DB
:1001200077020008770200087702000877020008CB
:1001300077020008770200087702000877020008BB
:1001400077020008770200087702000877020008AB
:10015000770200087702000877020008770200089B
:10016000770200087702000877020008770200088B
:1001700077020008770200087702000800000000FC
:100180007702000877020008DFF80CD000F0ECF8E6
:100190000048004741140008B04600202C4B196865
:1001A0000868B0E8F04F80F30988BFF36F8F4FF015
:1001B000000080F3118870470000000008480068C4
:1001C000006880F308884FF0000080F3148862B65E
:1001D00061B6BFF34F8FBFF36F8F00DF00BF00BF6B
:1001E00008ED00E0DFF80C00016841F470010160E7
:1001F000704700BF88ED00E0EFF30980BFF36F8F19
:10020000134B1A681EF0100F08BF20ED108A20E96A
:10021000F04F106009B44FF0500080F31188BFF325
:100220004F8FBFF36F8F01F0ABFC4FF0000080F3F6
:10023000118809BC19680868B0E8F04F1EF0100F6B
:1002400008BFB0EC108A80F30988BFF36F8F704746
:1002500018000020EFF30580704700000648804733
:1002600006480047FEE7FEE7FEE7FEE7FEE7FEE79B
:10027000FEE7FEE7FEE7FEE78911000889010008B6
:100280002DE9F05F0546002092469B4688460646CB
:10029000814640241BE0284641464746224600F05E
:1002A00053F853465A46C01A914110D31146184686
:1002B000224600F03AF82D1A67EB01084F46224615
:1002C0000120002100F031F817EB00094E41201EFB
:1002D000A4F10104DFDC484631462A464346BDE826
:1002E000F09F40EA01039B0703D009E008C9121FF1
:1002F00008C0042AFAD203E011F8013B00F8013BE0
:10030000521EF9D27047D2B201E000F8012B491E0B
:10031000FBD270470022F6E710B513460A460446A2
:100320001946FFF7F0FF204610BD202A04DB203AD3
:1003300000FA02F1002070479140C2F1200320FA38
:1003400003F3194390407047202A04DB203A21FA36
:1003500002F00021704721FA02F3D040C2F12002DE
:100360009140084319467047064C074D06E0E06887
:1003700040F0010394E8070098471034AC42F6D3EC
:10038000FFF706FF781F0008981F0008FEE7704778
:1003900072B6FEE72DE9F84FDFF8BCA10022012577
:1003A00003264FF00F090AF1040BAAF1040E00BF57
:1003B0000B6805FA02F42340A34270D10F7907F0CD
:1003C0000307012F01D0022F16D187684FEA420898
:1003D00006FA08FC27EA0C07D1F80CC00CFA08FC56
:1003E0004CEA070CC0F808C04768A7430C79C4F36F
:1003F000001494403C4344600C79E443A4070AD0C1
:10040000C4684FEA420C06FA0CF7BC438F6807FA3F
:100410000CF72743C7600C7904F00304022C12D1B7
:10042000D40800EB840CDCF820405707FF0E09FAD3
:1004300007F824EA0804D1F8108008FA07F848EA17
:100440000408CCF8208004684FEA420C06FA0CF746
:10045000BC430F7907F0030707FA0CF7274307603F
:100460004C6814F4403F70D03C4C276847F48047F8
:100470002760246822F0030704F480440094384C79
:1004800007EB040CDCF8084897074FEA177809FADD
:1004900008F7BC43334FB84202D1002724E054E0B0
:1004A000314FB84201D101271EE0304FB84201D18F
:1004B000022719E02E4FB84201D1032714E02D4F37
:1004C000B84201D104270FE02B4FB84201D10527D4
:1004D0000AE02A4FB84201D1062705E0284FB8426A
:1004E00001D1072700E0082707FA08F72743CCF8CF
:1004F0000878DAF800405746D1F804C09C435FEA18
:10050000CC2C00D51C433C60DBF800405F46D1F8A2
:1005100004C09C435FEA8C2C00D51C433C60DEF891
:1005200000407746D1F804C09C435FEA8C3C00D57C
:100530001C433C60084F083F3C68D1F804C09C4312
:100540005FEACC3C00D51C433C60521C102AFFF4EF
:100550002FAFBDE8F88F0000083C0140443802404E
:100560000030014000000240000402400008024048
:10057000000C02400010024000140240001802402B
:10058000001C02400AB1816170470904FBE70000CA
:100590000148806870470000080000200248816818
:1005A0000278114481607047080000200B4810B5A4
:1005B000016841F400710160016841F480610160EB
:1005C000016841F480710160032000F099F8002077
:1005D00000F006F800F04AF8002010BD003C024090
:1005E00030B505461C4887B00024016841F0010180
:1005F0000160006806A900F00100009001A800F069
:100600002BF900F059F915494000B0FBF1F11548FC
:10061000134A491E026040F2E732C0E90324C0E9F0
:100620000114846100F040FB040012D10D4800F079
:1006300069FB04000DD1192000F034F8102D07D209
:1006400000222946192000F03BF80748056000E029
:10065000012407B0204630BD4438024040420F001C
:1006600000000140740500200C0000200C4882B0FE
:10067000016841F480410160006800F4804000900E
:100680000748001F016841F08051016000680022A6
:1006900000F0805000900F21901E02B000F010B8C2
:1006A00044380240002809DB00F01F02012191407C
:1006B0004009800000F1E020C0F800117047000000
:1006C000F0B40E4B1B680C46C3F30223C3F10705BD
:1006D000042D00D90425191D072901D2002300E0AB
:1006E000DB1E012606FA05F1491E214099409E4075
:1006F000761E16403143F0BC00F068BE0CED00E001
:10070000064900F0070208684FF6FF03184040EA68
:100710000220034A10430860704700000CED00E01F
:100720000000FA052DE9F0470E46050065D0DFF818
:100730001481D8F80000F7B200F00700B04207D2E9
:1007400088F80070D8F8000000F00700B04254D1DB
:1007500028683D4C810712D5400703D5206840F436
:10076000E05020602878000703D5206840F46040FE
:1007700020602068A96820F0F000084320602878F5
:10078000C0072DD0304968680839012812D00228E6
:1007900013D0032811D00968890700292DDA2168B0
:1007A00021F0030101432160FFF7F2FE814641F28F
:1007B000883A0EE009688903EFE709688901ECE7E8
:1007C000FFF7E6FEA0EB0901514502D90320BDE881
:1007D000F0872068696800F00C00B0EB810FEFD162
:1007E000D8F80010404601F00701B14207D9077060
:1007F000006800F00700B04201D00120E7E7287848
:10080000400705D52068E96820F4E05008432060DF
:100810002878000706D52068296920F4604040EA5E
:10082000C100206000F058F82168084AC1F30311A4
:10083000515CC8400649086006480068FFF7D0FED2
:100840000020C4E7003C024008380240481F00086E
:10085000140000200C0000200F2202600C4A1368D4
:1008600003F003034360136803F0F003836013682D
:1008700003F4E053C36012684FF4E05303EAD2027A
:1008800002610448006800F007000860704700003B
:1008900008380240003C02400448054900680968E5
:1008A000044AC1F38221515CC84070471400002003
:1008B00008380240581F00080448054900680968C4
:1008C000044AC1F34231515CC84070471400002013
:1008D00008380240581F0008154810B5006810F08D
:1008E0000C02144813D04110042A0FD0082A0ED14C
:1008F0000F4C241F2268236802F03F025B0207D5D9
:100900002068C0F38810A0FB010106E0084610BD76
:100910002168C1F38811A1FB00010023FFF7B0FC9F
:100920002168C1F30141491C4900B0FBF1F010BD41
:10093000083802400024F4002DE9F84F04006ED07E
:100940002078DFF84C93C007A9F104054AD009F1DB
:1009500004000168C1F38101012908D00068C0F3D7
:10096000810002280AD1D9F80000400206D5286883
:10097000800337D560680028E1D033E06068B0F5C7
:10098000803F10D0B0F5A02F286810D020F4803020
:100990002860286820F4802028606068A8B1FFF7EC
:1009A000F7FD06460DE0286840F48030F4E740F497
:1009B00080202860F7E700BFFFF7EAFD801B64286E
:1009C00073D828688003F7D50CE0FFF7E1FD0646F1
:1009D00005E000BFFFF7DCFD801B6428F0D8286825
:1009E0008003F7D42078DFF8AC8280074FF0000A4C
:1009F0003ED5A748001D016811F00C0F08D0006813
:100A0000C0F3810002280BD1D9F80000400207D4BE
:100A10002868800716D5E068012800D112E033E18C
:100A2000E068B8B10120C8F80000FFF7B1FD064644
:100A300005E000BFFFF7ACFD801B0228C0D8286886
:100A40008007F7D52868216920F0F80040EAC10046
:100A500028600DE0C8F800A0FFF79AFD064604E004
:100A6000FFF796FD801B02281FD828688007F7D45F
:100A70002078000722D5864F87486169703771B1A9
:100A800001210160FFF784FD064604E0FFF780FDC9
:100A9000801B022809D838688007F7D50EE0C0F817
:100AA00000A0FFF775FD064605E082E0FFF770FD48
:100AB000801B02287DD838688007F7D4207840074B
:100AC00068D5DFF8CCB100270BF13C0BDBF8000058
:100AD000C0000BD4DBF8001041F08051CBF80010BF
:100AE000DBF80000012700F0805000906B4E30686A
:100AF000C00510D4306840F480703060FFF748FDC6
:100B0000009005E0FFF744FD0099401A022850D8F4
:100B10003068C005F6D55E4EA0686C3601280FD04F
:100B20000528306810D020F001003060306820F0D7
:100B300004003060A068B8B1FFF72AFD00900FE014
:100B4000306840F00100F4E740F004003060F7E75F
:100B5000FFF71EFD0099411A41F28830814266D8A4
:100B600030688007F4D50EE0FFF712FD009007E033
:100B7000FFF70EFD0099411A41F28830814256D8A4
:100B800030688007F4D42FB1DBF8001021F08051D9
:100B9000CBF80010A069C8B33D49091D0968C1F32D
:100BA000810102294AD00228504607D0C8F86000C7
:100BB00000E03CE0FFF7ECFC04463BE04746C8F8A9
:100BC0006000FFF7E5FC064605E000BFFFF7E0FC2C
:100BD000801B02282BD828688001F7D4D4E90701AC
:100BE0000843A16A2E4A490802EB0141626A41EAC0
:100BF0008211084394F82C1040EA0161C9F80010F2
:100C000001203866FFF7C4FC044606E03EE000BF62
:100C1000FFF7BEFC001B022809D828688001F7D521
:100C200034E000BFFFF7B4FC001B022802D9032008
:100C3000BDE8F88F28688001F4D427E00128F7D0B8
:100C4000D9F80000E26900F4800191421CD1226AC7
:100C500000F03F01914217D147F6C071626A01402E
:100C6000B1EB821F10D1A26A4FF0FF3300F4403184
:100C700003EB5202B1EB024F06D194F82C1000F0B6
:100C80007060B0EB016F01D00120D1E70020CFE709
:100C90000438024000004742800E47420070004086
:100CA0000000FFFF7047704710B5040003D094F8B0
:100CB0003D0010B107E0012010BD002084F83C0089
:100CC000204600F01EF8022084F83D00211D206817
:100CD00000F068FA012084F8460084F83E0084F8A9
:100CE0003F0084F8400084F8410084F8420084F812
:100CF000430084F8440084F8450084F83D00002057
:100D000010BD704790F83D10012901D001207047B7
:100D1000022180F83D100168CA6842F00102CA60F1
:100D200000681149884214D0B0F1804F11D00F49AA
:100D300088420ED00E4988420BD00E49884208D016
:100D40000D49884205D00D49884202D00C4988429D
:100D500004D1816801F00701062903D0016841F040
:100D600001010160002070470000014000040040C4
:100D700000080040000C0040000401400040014019
:100D80000018004070472DE9F04104460068C6682D
:100D900005694FF00007A90713D5B10711D5F91E52
:100DA000016101202077206880698007204602D0F9
:100DB000FFF7E8FF04E000F07EF8204600F07CF842
:100DC0002777680716D5700714D521686FF00400DF
:100DD0000861022020772068806910F4407F204657
:100DE00002D0FFF7CFFF04E000F065F8204600F0E6
:100DF00063F82777280715D5300713D521686FF0DA
:100E000008000861042020772068C0698007204618
:100E100002D0FFF7B7FF04E000F04DF8204600F0E5
:100E20004BF82777E80616D5F00614D521686FF041
:100E300010000861082020772068C06910F4407F06
:100E4000204602D0FFF79EFF04E000F034F8204671
:100E500000F032F82777E80708D0F00706D02168BD
:100E60006FF001000861204600F028F8280608D538
:100E7000300606D521686FF0800008612046FFF734
:100E800011FF680608D5700606D521686FF040008E
:100E90000861204600F01CF8A8060AD5B00608D55F
:100EA00021686FF0200008612046BDE8F041FFF79F
:100EB000FABEBDE8F0817047704700000068034942
:100EC000884201D1FFF76ABB704700000000014073
:100ED000704770B5040004D094F84100002510B1AB
:100EE00006E0012070BD84F84050204600F024F850
:100EF000242084F841002068C16821F40051C160B9
:100F0000204600F0BBF92068016921F4904101619D
:100F10002068416921F02A0141612068C16841F4DB
:100F20000051C1606564202084F8410084F84200CB
:100F30006563002070BD000010B586B00446142122
:100F40006846FFF7E7F913492068884220D1124824
:100F50000021026842F010020260006800F01000F8
:100F600005900D481438026842F0020202600068E1
:100F700000F002000590C02000900220CDE90101A0
:100F8000032003900720049069460448FFF702FA03
:100F900006B010BD00100140443802400004024079
:100FA000FEE70000094D4FF4FA74002201212846A3
:100FB000FFF7E8FA204600F056FA012211462846CB
:100FC000FFF7E0FA204600F04EFAEEE7001002408C
:100FD00010B58EB01C220B496846FFF782F900213C
:100FE000684600F04CFA084C06491C2220601C316F
:100FF00007A8FFF776F9002107A800F040FA606023
:101000000EB010BD101F00080000002030B587B0E2
:1010100014216846FFF77EF919480024016841F061
:1010200080010160016801F080010591016841F0D3
:1010300001010160016801F001010591016841F0C1
:1010400002010160016801F002010591016841F0AF
:101050001001016000680B4D00F0100001220590A6
:1010600011462846FFF78EFA0220012103900091D5
:10107000CDE9011469462846FFF78CF907B030BD69
:1010800030380240001002400C4810B50A49016097
:101090004FF4E1314160002181600C22C160C0E960
:1010A00004128161C161FFF714FF002803D0BDE87D
:1010B0001040FFF76DB910BD001001402C05002055
:1010C000FEE7FEE710B5502080F31188BFF34F8F85
:1010D000BFF36F8F00F054FE18B104494FF08050F9
:1010E0000860002080F3118810BD000004ED00E0CE
:1010F00030B593B030216846FFF70CF914210CA8E5
:10110000FFF708F91E480025016841F08051016091
:10111000006800F0805011901A48016841F4804145
:1011200001600068022400F48040119001200090CA
:10113000000401908001CDE90640082008904FF49A
:10114000A870CDE9090404200B906846FFF7F4FB72
:1011500008B172B6FEE70CA90F2081E831004FF408
:10116000A0500F904FF48050109005210CA8FFF76D
:10117000D9FA002801D072B6FEE713B030BD0000E6
:1011800040380240007000400248016841F470019C
:101190000160704788ED00E00148FFF7F4BD0000F2
:1011A00074050020F0B50268294C2A4D2A4E2B4FB9
:1011B0002B4B4FF0804CA04209D0604507D0A8428D
:1011C00005D0B04203D0B84201D0984204D122F0F9
:1011D000700E4A6842EA0E02A0421BD0604519D048
:1011E000A84217D0B04215D0B84213D0984211D0BF
:1011F0001C4DA8420ED01C4DA8420BD01B4DA8423E
:1012000008D01B4DA84205D01A4DA84202D01A4D55
:10121000A84203D122F44075CA682A434D6922F0DE
:1012200080022A4302608A68C2620A688262A0421F
:1012300001D0984201D1096901630121416101692D
:10124000C90703D0016921F001010161F0BD00006F
:10125000000001400004004000080040000C004075
:1012600000040140004001400044014000480140AA
:1012700000180040001C00400020004070B50446EB
:1012800000680169E26821F440511143016121695C
:10129000A068E26908436169114308432168CA688C
:1012A00049F20C639A430243CA6020684169A2690B
:1012B00021F440711143416131492068884202D0D4
:1012C0003049884202D1FFF7F7FA01E0FFF7E4FA6C
:1012D000E2690023192164253226B2F5004F6268C5
:1012E00028D0A0FB0101930F9200FEF7C9FF014631
:1012F000B0FBF5F06FF01802504301EB800006EBF5
:101300000010B0FBF5F000F0F002B1FBF5F002EBDD
:101310000012B1FBF5F06FF01803584301EB8000A9
:1013200006EB0010B0FBF5F000F00F002168104450
:10133000886070BDA0FB010192185B41FEF7A0FF21
:101340000146B0FBF5F00201B1FBF5F06FF01803B8
:10135000584301EB800006EBC000B0FBF5F000F055
:10136000F80002EB4002B1FBF5F0584301EB8000BE
:1013700006EBC000B0FBF5F000F00700D6E7000078
:101380000010014000140140FEE700004FF47A74A1
:1013900003A000F013F8204600F065F8F8E700001D
:1013A000557361727420746573742069732072754B
:1013B0006E6E696E67210D0A00000000014A024945
:1013C00000F023B82D140008800000200907090E42
:1013D000002804DB00F1E02080F80014704700F0E2
:1013E0000F0000F1E02080F8141D704702E008C8EB
:1013F000121F08C1002AFAD170477047002001E08F
:1014000001C1121F002AFBD170472DE9F041164699
:101410000F460446002503E03946B047641C6D1CA6
:1014200020780028F8D12846BDE8F08103490A68F1
:101430005206FCD5C2B24A6070470000001001405D
:10144000FFF7B4F8FFF754FEFFF7E0FDFFF71CFECF
:10145000FFF7BEFD00F00EF8FEE7014600208429EC
:1014600000D0C81C704710B500B9012000F024FB63
:10147000002010BD10B500F045FB002010BD7FB569
:101480000D4604464169B0F9080081B1A16971B106
:10149000FFF7E3FFD4E905128DE80700D4E9001057
:1014A0002B46226900F041FC039004B070BDFFF7A9
:1014B000D4FF03A9CDE90001208A2B4682B2D4E9EA
:1014C000001000F005FC012801D00020EDE7039892
:1014D000EBE700002DE9F041184C0F460546E668A1
:1014E0002068001D00F020FA38B9206890F82C1010
:1014F00001208840216981432161681C07D137B1EF
:101500002168BDE8F0410E48091D00F051BA20687D
:101510003544B5424560216805D2A06BBDE8F04175
:10152000091D00F02DBA606B091D00F029FAA06AB0
:10153000854200D2A562BDE8F081000018000020BD
:10154000980600202DE9F041054600F03DFA2E4CAA
:10155000A068401CA06020682C4F10B1606940B3A7
:101560002DE02560A068012829D1002606EB860021
:1015700007EB800000F0F6F9761C072EF6D323481F
:101580008C3000F0EFF92148A03000F0EBF91F4853
:10159000B43000F0E7F91D48C83000F0E3F91B480B
:1015A000DC3000F0DFF919488C3060631430A06340
:1015B00005E02068E96AC06A884200D82560606A50
:1015C000401C6062E96A0120226988401043206162
:1015D00001EB810007EB8000291D00F0E9F900F024
:1015E00013FA606900280CD02068E96AC06A884252
:1015F00007D207494FF080500860BFF34F8FBFF309
:101600006F8FBDE8F081000018000020BC050020AD
:1016100004ED00E010B5044690F8510058B10128DF
:101620000CD002280FD0502080F31188BFF34F8FC9
:10163000BFF36F8FFEE7206B00F0FAF92046BDE89C
:10164000104000F0F5B910BD10484FF4705142073A
:1016500006D0C01D0D4920F00700411AC1F5705198
:101660000B4A00230144C2E900030839183A21F06B
:10167000070111604B600B600B1AC0E90013936007
:101680004FF000405360506170470000AC060020EE
:101690006C000020144E154CA6F1C8074FF080587E
:1016A000DFF84C9012E000BF00F08EF9F068C568DA
:1016B000281D00F039F9A068401EA0606068401E37
:1016C000606000F0A1F92846FFF7A4FF60680028D9
:1016D000EAD138680128F9D9C9F80080BFF34F8FE3
:1016E000BFF36F8FF2E7000084060020180000208F
:1016F00004ED00E02DE9F0479A46DDE909848146D2
:101700006FF00303206B03EB82021044089E20F06D
:101710000707780707D0502080F31188BFF34F8F59
:10172000BFF36F8FFEE7002561B1002023180A5C2C
:1017300083F834200A5C12B1401C1028F6D384F8D8
:10174000435001E084F83450072E00D30626E662A9
:10175000C4E91165201D00F010F904F1180000F033
:101760000CF92461C6F107006462A061E56484F8A5
:10177000505052464946384600F0C0F82060B8F153
:10178000000F01D0C8F80040BDE8F08730B511491E
:1017900000E011460A688242FBD34B685C18844221
:1017A00003D1406818444860084643681C189442B6
:1017B00009D1084C183C2468A24209D052681A4446
:1017C00042600A6812680260814200D0086030BD41
:1017D0000460F9E76C0000200648416B096829B1F4
:1017E000416BC968C9684968816270474FF0FF3131
:1017F000FAE700001800002008484068401C4FF03D
:10180000500080F3118804D0BFF34F8FBFF36F8F68
:10181000FEE7BFF34F8FBFF36F8FFEE7740000202A
:101820002DE9F0410546002700F0A2F9324E30685C
:1018300008B9FFF709FF706905424ED1C5B30835F5
:1018400068070ED005F00700C0F1080005446807DE
:1018500007D0502080F31188BFF34F8FBFF36F8FF5
:10186000FEE72DB37068854237D82348183001460B
:101870000C6801E020460C466168A94202D221684A
:101880000029F7D131688C4227D0076821680160B0
:1018900060680837411B10290FD96019420708D02A
:1018A000502080F31188BFF34F8FBFF36F8FFEE797
:1018B00013E041606560FFF769FF61687068401A76
:1018C0007060B268904200D2B0607069014300203D
:1018D000C4E90001F068401CF06000F0B7FA780736
:1018E00007D0502080F31188BFF34F8FBFF36F8F65
:1018F000FEE73846BDE8F0815400002010B5031F14
:101900004FF080741C601B1F21F001011960191F2A
:10191000044B0B6014390A60091F6FF0020244384F
:101920000A6010BDF9170008D0E9013201699A6018
:10193000D0E901235A604A68824201D182684A6034
:10194000002202610868401E0860086870470000B5
:10195000034B036003F1540008608020106070475F
:10196000D802002000F108014FF0FF32C0E9011257
:10197000C160016100210160704700210161704771
:1019800030B50B685A1C02D000F1080202E002696F
:1019900004E02246546825689D42FAD953684B609A
:1019A00099608A60516008610168491C016030BD1E
:1019B00042684A6093688B609368596091600861DF
:1019C0000168491C01607047502080F31188BFF303
:1019D0004F8FBFF36F8F0A494868401C4860012849
:1019E0000CD10848006810F0FF0F07D0502080F39A
:1019F0001188BFF34F8FBFF36F8FFEE77047000072
:101A00007400002004ED00E00849486828B1401E39
:101A1000486001D180F311887047502080F311880D
:101A2000BFF34F8FBFF36F8FFEE7000074000020FD
:101A300070B500282AD0164DA0F1080460686969C5
:101A4000084207D1502080F31188BFF34F8FBFF3B6
:101A50006F8FFEE722683AB1502080F31188BFF300
:101A60004F8FBFF36F8FFEE78843606000F080F810
:101A700060686968084468602046FFF787FE286947
:101A8000401C2861BDE8704000F0E0B970BD000066
:101A9000540000204FF0E0200021016181610549E0
:101AA0004FF47A720968B1FBF2F1491E41610721D6
:101AB000016170471400002010B5020014D00F48D7
:101AC000006B38B1502080F31188BFF34F8FBFF304
:101AD0006F8FFEE700F04CF800211046FFF7FAFC8C
:101AE00000F0B4F9002807D105494FF08050086094
:101AF000BFF34F8FBFF36F8F10BD000018000020A1
:101B000004ED00E010B586B00024039405AA04A9F2
:101B100003A80494FFF71CFFDDE903010094CDE95D
:101B2000011000230EA11048059A00F0FEF80F499D
:101B30000028C86211D0502080F31188BFF34F8F66
:101B4000BFF36F8F4FF0FF30886201204861CC6097
:101B500006B0BDE8104000F041B806B010BD00006E
:101B600049444C450000000095160008180000206C
:101B70000248016B491C01637047000018000020F7
:101B80001448016B11B10121C16170470021C1618D
:101B90000169B1FA81F1C1F11F0101EB81020E4926
:101BA00051F822306BB101EB820101F108034A6860
:101BB00052684A609A4201D152684A60D168016015
:101BC0007047502080F31188BFF34F8FBFF36F8FA2
:101BD000FEE7000018000020BC0500201CB53748B7
:101BE0000168374A914207D1502080F31188BFF332
:101BF0004F8FBFF36F8FFEE700683149491E88425F
:101C000007D1502080F31188BFF34F8FBFF36F8F40
:101C1000FEE72C4908780190FF20087008788DF8BD
:101C200000009DF800009DF8002000F0F0009042B8
:101C300007D0502080F31188BFF34F8FBFF36F8F11
:101C4000FEE79DF80000204C00F0500020700720B7
:101C5000A06005E09DF8002052008DF80020401E95
:101C60009DF800201206F5D4A060032807D050206C
:101C700080F31188BFF34F8FBFF36F8FFEE74FF4F0
:101C80004070A060019808700C482030016841F451
:101C900070010160016841F070410160FFF7FAFED8
:101CA00000206060FEF79EFA0848016841F040415C
:101CB0000160FEF783FA00201CBD000000ED00E08B
:101CC00071C20F4100E400E07400002034EF00E036
:101CD0002DE9FF5F8346DDE90E87994616468A4661
:101CE0009000FFF79DFD05001CD05420FFF798FDE4
:101CF000040014D00020256384F85100CDE902408F
:101D0000CDE900874B46324651465846FFF7F2FC74
:101D10002046FFF717FC012004B0BDE8F09F2846DD
:101D2000FFF786FE4FF0FF30F6E7F0B585B0DDE94E
:101D30000B640A9DA6B1DCB15427009726630226E6
:101D400084F85160002604AFCDE90246CDE9005782
:101D5000FFF7D0FC2046FFF7F5FB049805B0F0BD77
:101D6000502080F31188BFF34F8FBFF36F8FFEE7D2
:101D7000502080F31188BFF34F8FBFF36F8FFEE7C2
:101D80002DE9F0412F4C0026206B28B1A069401CA2
:101D9000A0613046BDE8F081E5686D1CE56013D1B7
:101DA000606B006838B1502080F31188BFF34F8F0B
:101DB000BFF36F8FFEE7606BA16B6163A063206A66
:101DC000401C2062FFF708FDA06ADFF87C80854296
:101DD00009D3606B0068A0B1606BC068C7687868A1
:101DE000854211D2A0622068C06A00EB800158F8D9
:101DF0002100012800D90126E0690028C9D0012668
:101E0000C7E74FF0FF30EDE7381DFFF78DFDB86AEB
:101E100018B107F11800FFF787FDF96A0120226960
:101E200088401043206101EB810108EB8100391DDE
:101E3000FFF7BEFDF86A2168C96A8842C9D3012646
:101E4000C7E7000018000020BC0500202DE9F0477E
:101E50002C4D00242746286B38B1FFF7B5FD286BC1
:101E6000401E2863286B40B146E0502080F3118863
:101E7000BFF34F8FBFF36F8FFEE7A968224E01209B
:101E8000D1B3A6F1B40980463068E8B1F068C468FF
:101E900004F11800FFF748FD201DFFF745FDE06A3B
:101EA0002A6908FA00F11143296100EB800109EB6E
:101EB0008100211DFFF77CFDE06A2968C96A88421C
:101EC000E2D3C5F81C80DFE70CB1FFF785FCAC69F5
:101ED00044B14646FFF754FF00B1EE61641EF9D1EC
:101EE0000020A861E86938B108490127380708606F
:101EF000BFF34F8FBFF36F8FFFF786FD3846BDE806
:101F0000F0870000180000207006002004ED00E0BB
:101F10006C1F00088D130008000000000000000086
:101F2000800000008400002084020020601F000860
:101F3000A50F0008FEFF0000000000008000000068
:101F40000000000000000000000000000000000091
:101F5000010203040607080900000000010203044F
:101F60004C6564305461736B0000000055736172FE
:101F7000745461736B000000981F0008000000207B
:101F800084000000EC1300081C20000884000020DE
:101F90002C460000FC1300080000000000000000B8
:101FA0000100000010000000000000000024F40008
:101FB0000000000000000000000000000000000021
:101FC0000000000000000000000000000000000011
:101FD0000000000000000000000000000000000001
:101FE00000000000000000000000000000000000F1
:101FF00000000000000000000000000000000000E1
:1020000000000000000000000000000000000000D0
:0C201000AAAAAAAA00000000000000001C
:040000050800018965
:00000001FF
