:020000040800F2
:10000000D04800205D020008D317000879150008C9
:10001000D1170008F9030008F91B000800000000D0
:100020000000000000000000000000009D0100082A
:10003000FB03000800000000F9010008D5170008C4
:1000400077020008770200087702000877020008AC
:10005000770200087702000877020008770200089C
:100060003D040008770200087702000877020008C4
:10007000770200087702000877020008770200087C
:10008000770200087702000877020008770200086C
:10009000770200087702000877020008770200085C
:1000A00077020008A9180008770200087702000804
:1000B000770200087702000877020008770200083C
:1000C000770200087702000877020008770200082C
:1000D00077020008C51B00087702000877020008B5
:1000E000770200087702000877020008770200080C
:1000F00077020008770200087702000877020008FC
:1001000077020008770200087702000877020008EB
:100110007702000877020008B51800087702000887
:1001200077020008770200087702000877020008CB
:1001300077020008770200087702000877020008BB
:1001400077020008770200087702000877020008AB
:10015000770200087702000877020008770200089B
:10016000770200087702000877020008770200088B
:1001700077020008770200087702000800000000FC
:100180007702000877020008DFF80CD000F022F9AF
:100190000048004715200008D04800202C4B196863
:1001A0000868B0E8F04F80F30988BFF36F8F4FF015
:1001B000000080F3118870470000000008480068C4
:1001C000006880F308884FF0000080F3148862B65E
:1001D00061B6BFF34F8FBFF36F8F00DF00BF00BF6B
:1001E00008ED00E0DFF80C00016841F470010160E7
:1001F000704700BF88ED00E0EFF30980BFF36F8F19
:10020000134B1A681EF0100F08BF20ED108A20E96A
:10021000F04F106009B44FF0500080F31188BFF325
:100220004F8FBFF36F8F02F025FD4FF0000080F37A
:10023000118809BC19680868B0E8F04F1EF0100F6B
:1002400008BFB0EC108A80F30988BFF36F8F704746
:100250002C000020EFF3058070470000064880471F
:1002600006480047FEE7FEE7FEE7FEE7FEE7FEE79B
:10027000FEE7FEE7FEE7FEE799180008890100089F
:100280002DE9F05F0546002092469B4688460646CB
:10029000814640241BE0284641464746224600F05E
:1002A00088F853465A46C01A914110D31146184651
:1002B000224600F06FF82D1A67EB01084F462246E0
:1002C0000120002100F066F817EB00094E41201EC6
:1002D000A4F10104DFDC484631462A464346BDE826
:1002E000F09F40EA01039B0703D009E008C9121FF1
:1002F00008C0042AFAD203E011F8013B00F8013BE0
:10030000521EF9D27047D2B201E000F8012B491E0B
:10031000FBD270470022F6E710B513460A460446A2
:100320001946FFF7F0FF204610BD421C10F8011BD4
:100330000029FBD1801A7047034611F8012B00F801
:10034000012B002AF9D11846704730B50546002028
:10035000034600E05B1C934205D2EC5CC85C201AAB
:1003600001D1002CF6D130BD30B50B46014600203E
:100370002022012409E021FA02F59D4205D303FA67
:1003800002F5491B04FA02F52844151EA2F10102E8
:10039000F1DC30BD202A04DB203A00FA02F1002013
:1003A00070479140C2F1200320FA03F319439040B3
:1003B0007047202A04DB203A21FA02F0002170471E
:1003C00021FA02F3D040C2F12002914008431946BD
:1003D00070470000064C074D06E0E06840F001035E
:1003E00094E8070098471034AC42F6D3FFF7D0FEEC
:1003F000C8350008E8350008FEE7704708B502F088
:100400002DFF41F28834009002F02CFA04A001F094
:1004100085FC02F047FA2146684602F0EBFAF3E762
:1004200044656C6179207461736B20697320727507
:100430006E6E696E67210D0A00000000042000F056
:10044000ABB872B6FEE72DE9F0410446876D00F0C7
:10045000B1F9064694F835000025022806D0802020
:10046000606584F834500120BDE8F081206801689F
:1004700021F0160101602068416921F0800141618D
:10048000206C08B9A06C20B12068016821F0080137
:1004900001602068016821F0010101600CE000F0BA
:1004A00089F9801B052807D920206065032084F87E
:1004B000350084F83450D7E720680068C007EED1D3
:1004C00094F85C103F208840B860012084F8350023
:1004D00084F834500020C7E790F83510022903D083
:1004E0008021416501207047052180F835100068A2
:1004F000016821F0010101600020704770B50446D9
:1005000000F058F90546601C02D004480078044405
:1005100000F050F9401BA042FAD370BD1C0000202F
:1005200070B5042816D1124D0421284600F038F980
:10053000104C00284FF014000DD0FFF7DFFF04210E
:10054000284600F02DF9012804D10BA001F0E6FBAC
:100550000120207070BDFFF7D1FF0421284600F074
:100560001FF90028F6D108A001F0D8FB0020F0E721
:1005700000100240000000204B45593020697320D4
:100580005570210A000000004B4559302069732046
:10059000446F776E210A0000044910B50A680242D0
:1005A00002D00860FFF7BCFF10BD0000143C014002
:1005B0002DE9F84FDFF8BCA10022012503264FF0FA
:1005C0000F090AF1040BAAF1040E00BF0B6805FA2B
:1005D00002F42340A34270D10F7907F00307012FE3
:1005E00001D0022F16D187684FEA420806FA08FCAC
:1005F00027EA0C07D1F80CC00CFA08FC4CEA070CEF
:10060000C0F808C04768A7430C79C4F300149440AD
:100610003C4344600C79E443A4070AD0C4684FEA21
:10062000420C06FA0CF7BC438F6807FA0CF7274315
:10063000C7600C7904F00304022C12D1D40800EB3B
:10064000840CDCF820405707FF0E09FA07F824EA6B
:100650000804D1F8108008FA07F848EA0408CCF832
:10066000208004684FEA420C06FA0CF7BC430F796D
:1006700007F0030707FA0CF7274307604C6814F4E8
:10068000403F70D03C4C276847F48047276024687F
:1006900022F0030704F480440094384C07EB040C68
:1006A000DCF8084897074FEA177809FA08F7BC43BF
:1006B000334FB84202D1002724E054E0314FB84212
:1006C00001D101271EE0304FB84201D1022719E0C5
:1006D0002E4FB84201D1032714E02D4FB84201D16B
:1006E00004270FE02B4FB84201D105270AE02A4F1B
:1006F000B84201D1062705E0284FB84201D10727AB
:1007000000E0082707FA08F72743CCF80878DAF85A
:1007100000405746D1F804C09C435FEACC2C00D57A
:100720001C433C60DBF800405F46D1F804C09C43AA
:100730005FEA8C2C00D51C433C60DEF80040774615
:10074000D1F804C09C435FEA8C3C00D51C433C605C
:10075000084F083F3C68D1F804C09C435FEACC3C9A
:1007600000D51C433C60521C102AFFF42FAFBDE89B
:10077000F88F0000083C014044380240003001403E
:10078000000002400004024000080240000C024049
:10079000001002400014024000180240001C0240F9
:1007A0000069084000D0012070470AB1816170479C
:1007B0000904FBE701488068704700001C00002026
:1007C0000248816802781144816070471C00002053
:1007D0000B4810B5016841F400710160016841F4F3
:1007E00080610160016841F480710160032000F0C4
:1007F00099F8002000F006F800F04AF8002010BD3B
:10080000003C024030B505461C4887B00024016812
:1008100041F001010160006806A900F001000090AC
:1008200001A800F02BF900F059F915494000B0FB80
:10083000F1F11548134A491E026040F2E732C0E95F
:100840000324C0E90114846100F088FB040012D184
:100850000D4800F0CFFB04000DD1192000F034F852
:10086000102D07D200222946192000F03BF8074836
:10087000056000E0012407B0204630BD4438024046
:1008800040420F000000014094070020200000209B
:100890000C4882B0016841F480410160006800F4B6
:1008A000804000900748001F016841F080510160BE
:1008B0000068002200F0805000900F21901E02B0CE
:1008C00000F010B844380240002809DB00F01F0295
:1008D000012191404009800000F1E020C0F80011A2
:1008E00070470000F0B40E4B1B680C46C3F30223A4
:1008F000C3F10705042D00D90425191D072901D2CC
:10090000002300E0DB1E012606FA05F1491E214006
:1009100099409E40761E16403143F0BC01F022BA49
:100920000CED00E0064900F0070208684FF6FF03EF
:10093000184040EA0220034A104308607047000054
:100940000CED00E00000FA052DE9F0470E46050029
:1009500065D0DFF81481D8F80000F7B200F0070086
:10096000B04207D288F80070D8F8000000F0070005
:10097000B04254D128683D4C810712D5400703D5B9
:10098000206840F4E05020602878000703D52068F4
:1009900040F4604020602068A96820F0F00008431F
:1009A00020602878C0072DD03049686808390128B0
:1009B00012D0022813D0032811D009688907002912
:1009C0002DDA216821F0030101432160FFF7F2FED7
:1009D000814641F2883A0EE009688903EFE7096829
:1009E0008901ECE7FFF7E6FEA0EB0901514502D9CA
:1009F0000320BDE8F0872068696800F00C00B0EBC8
:100A0000810FEFD1D8F80010404601F00701B14244
:100A100007D90770006800F00700B04201D001203C
:100A2000E7E72878400705D52068E96820F4E0501A
:100A3000084320602878000706D52068296920F43B
:100A4000604040EAC100206000F058F82168084A80
:100A5000C1F30311515CC8400649086006480068AC
:100A6000FFF7D0FE0020C4E7003C024008380240F7
:100A70008435000828000020200000200F2202609A
:100A80000C4A136803F003034360136803F0F00398
:100A90008360136803F4E053C36012684FF4E053BB
:100AA00003EAD20202610448006800F0070008600F
:100AB0007047000008380240003C024004480549E5
:100AC00000680968044AC1F38221515CC84070473C
:100AD00028000020083802409435000804480549E1
:100AE00000680968044AC1F34231515CC84070474C
:100AF000280000200838024094350008154810B539
:100B0000006810F00C02144813D04110042A0FD0D2
:100B1000082A0ED10F4C241F2268236802F03F02DE
:100B20005B0207D52068C0F38810A0FB010106E036
:100B3000084610BD2168C1F38811A1FB0001002304
:100B4000FFF79EFB2168C1F30141491C4900B0FB3E
:100B5000F1F010BD083802400024F4002DE9F84FF0
:100B600004006ED02078DFF84C93C007A9F104058B
:100B70004AD009F104000168C1F38101012908D0BC
:100B80000068C0F3810002280AD1D9F800004002B1
:100B900006D52868800337D560680028E1D033E0A7
:100BA0006068B0F5803F10D0B0F5A02F286810D055
:100BB00020F480302860286820F480202860606855
:100BC000A8B1FFF7F7FD06460DE0286840F4803035
:100BD000F4E740F480202860F7E700BFFFF7EAFD64
:100BE000801B642873D828688003F7D50CE0FFF7D2
:100BF000E1FD064605E000BFFFF7DCFD801B642831
:100C0000F0D828688003F7D42078DFF8AC8280071A
:100C10004FF0000A3ED5A748001D016811F00C0FE7
:100C200008D00068C0F3810002280BD1D9F8000079
:100C3000400207D42868800716D5E068012800D153
:100C400012E033E1E068B8B10120C8F80000FFF716
:100C5000B1FD064605E000BFFFF7ACFD801B022892
:100C6000C0D828688007F7D52868216920F0F800E7
:100C700040EAC10028600DE0C8F800A0FFF79AFD27
:100C8000064604E0FFF796FD801B02281FD828685F
:100C90008007F7D42078000722D5864F87486169FE
:100CA000703771B101210160FFF784FD064604E051
:100CB000FFF780FD801B022809D838688007F7D528
:100CC0000EE0C0F800A0FFF775FD064605E082E0E3
:100CD000FFF770FD801B02287DD838688007F7D4A5
:100CE0002078400768D5DFF8CCB100270BF13C0B2A
:100CF000DBF80000C0000BD4DBF8001041F080519D
:100D0000CBF80010DBF80000012700F080500090C5
:100D10006B4E3068C00510D4306840F4807030608D
:100D2000FFF748FD009005E0FFF744FD0099401AE9
:100D3000022850D83068C005F6D55E4EA0686C36E3
:100D400001280FD00528306810D020F00100306055
:100D5000306820F004003060A068B8B1FFF72AFDC9
:100D600000900FE0306840F00100F4E740F004002C
:100D70003060F7E7FFF71EFD0099411A41F2883015
:100D8000814266D830688007F4D50EE0FFF712FD87
:100D9000009007E0FFF70EFD0099411A41F28830FC
:100DA000814256D830688007F4D42FB1DBF80010A8
:100DB00021F08051CBF80010A069C8B33D49091D4E
:100DC0000968C1F3810102294AD00228504607D0A0
:100DD000C8F8600000E03CE0FFF7ECFC04463BE0B4
:100DE0004746C8F86000FFF7E5FC064605E000BF8F
:100DF000FFF7E0FC801B02282BD828688001F7D47D
:100E0000D4E907010843A16A2E4A490802EB0141CF
:100E1000626A41EA8211084394F82C1040EA0161A9
:100E2000C9F8001001203866FFF7C4FC044606E04C
:100E30003EE000BFFFF7BEFC001B022809D828686F
:100E40008001F7D534E000BFFFF7B4FC001B022897
:100E500002D90320BDE8F88F28688001F4D427E088
:100E60000128F7D0D9F80000E26900F4800191422E
:100E70001CD1226A00F03F01914217D147F6C071A0
:100E8000626A0140B1EB821F10D1A26A4FF0FF33BA
:100E900000F4403103EB5202B1EB024F06D194F85B
:100EA0002C1000F07060B0EB016F01D00120D1E791
:100EB0000020CFE70438024000004742800E47423E
:100EC000007000400000FFFF7047704770B590F859
:100ED0003C20012A32D0012480F83C40022280F8D4
:100EE0003D2003685A689D6822F070060A68324304
:100EF0005A60134B02689A4214D0B2F1804F11D05D
:100F0000104B9A420ED0104B9A420BD00F4B9A4284
:100F100008D00F4B9A4205D00E4B9A4202D00E4B8E
:100F20009A4204D1496825F080031943916080F802
:100F30003D40002180F83C10084670BD022070BD85
:100F4000000001400004004000080040000C004088
:100F500000040140004001400018004010B50400AA
:100F600003D094F83D0010B107E0012010BD00202F
:100F700084F83C00204600F01FF8022084F83D0071
:100F8000211D206800F09CFC012084F8460084F8B4
:100F90003E0084F83F0084F8400084F8410084F863
:100FA000420084F8430084F8440084F8450084F843
:100FB0003D00002010BD000008B500680B498842C4
:100FC00012D10B48016841F0100101600068002255
:100FD00000F01000009005213620FFF783FCBDE8EB
:100FE00008403620FFF770BC08BD0000001000402C
:100FF0004038024090F83D10012901D0012070478F
:10100000022180F83D100168CA6842F00102CA60FE
:1010100000681149884214D0B0F1804F11D00F49B7
:1010200088420ED00E4988420BD00E49884208D023
:101030000D49884205D00D49884202D00C498842AA
:1010400004D1816801F00701062903D0016841F04D
:1010500001010160002070470000014000040040D1
:1010600000080040000C0040000401400040014026
:10107000001800400168CA6822F00102CA600168D5
:101080000A6A41F211131A4207D10A6A9B101A42E6
:1010900003D10A6822F001020A60012180F83D10A4
:1010A0000020704770472DE9F04104460068C6688B
:1010B00005694FF00007A90713D5B10711D5F91E2F
:1010C000016101202077206880698007204602D0D6
:1010D000FFF7E8FF04E000F07EF8204600F07CF81F
:1010E0002777680716D5700714D521686FF00400BC
:1010F0000861022020772068806910F4407F204634
:1011000002D0FFF7CFFF04E000F065F8204600F0C2
:1011100063F82777280715D5300713D521686FF0B6
:1011200008000861042020772068C06980072046F5
:1011300002D0FFF7B7FF04E000F04DF8204600F0C2
:101140004BF82777E80616D5F00614D521686FF01E
:1011500010000861082020772068C06910F4407FE3
:10116000204602D0FFF79EFF04E000F034F820464E
:1011700000F032F82777E80708D0F00706D021689A
:101180006FF001000861204600F028F8280608D515
:10119000300606D521686FF0800008612046FFF711
:1011A00093FE680608D5700606D521686FF04000EA
:1011B0000861204600F02EF8A8060AD5B00608D52A
:1011C00021686FF0200008612046BDE8F041FFF77C
:1011D0007CBEBDE8F08170477047000070B50446E2
:1011E0000068094DA84201D1FFF7EAFA2068A84239
:1011F00001D1FFF7E5FA05492068884203D1044888
:101200000168491C016070BD0000014000100040F1
:10121000180000207047704770470000F8B501685B
:1012200004460868CA684B6910F00F0F4FF00005BC
:1012300059D003F0010602F49077374365D0C10717
:1012400005D0D10503D5616C41F00101616441070E
:1012500005D5D90703D0616C41F0020161648107B3
:1012600005D5D90703D0616C41F004016164010721
:1012700007D502F02001314303D0616C41F0080131
:101280006164616C00293AD0800604D5900602D5CD
:10129000204600F0B0FB20684069616CC0F380100C
:1012A000090700D460B3204600F07EFB2068406947
:1012B000400621D52068143050E8001F21F040017D
:1012C00040E80012002AF5D1E06BA8B16E49016533
:1012D000E06BFFF701F9002811D0E06B016D01B060
:1012E000BDE8F040084783060FD593060DD520468C
:1012F000BDE8F84000F07FBB2046FFF78DFFF8BD4A
:101300002046FFF789FF6564F8BD266B2023012E78
:101310007DD1C6067BD5D60679D508684868009089
:1013200048694FF00206400641D5E16B0868406805
:101330000004000CE8D0A28D8242E5D9E085C8699E
:10134000B0F5807F2DD020680C3050E8001F21F4CC
:10135000807140E80012002AF5D12068143050E86E
:10136000001F21F0010140E80012002AF5D1206899
:10137000143050E8001F21F0400140E80012002A1C
:10138000F5D184F84230256320680C3050E8001F06
:1013900021F0100140E80012002AF5D1E06BFFF7C0
:1013A00052F86663A08DE18D401A81B22AE0A08DCB
:1013B000E18D401A81B2E08D0028A5D00029A3D08C
:1013C00022680C3252E8000F20F4907042E80007C7
:1013D000002FF5D12068143050E8002F22F00102D0
:1013E00040E80027002FF5D184F8423025632068BB
:1013F0000C3050E8002F22F0100240E80023002BB0
:10140000F5D166632046FFF706FFF8BDFFE7050646
:101410002BD5150629D594F841002128F5D1A068CF
:10142000B0F5805F01D12069B0B1206A411C216212
:10143000216800784860E08C401E0004000CE084C5
:10144000E3D12068C16821F08001C1602068C168D3
:1014500041F04001C160D8E7206A0088C0F308006D
:101460004860206A801C2062E5E74006CDD5500622
:10147000CBD5CA68204622F04002CA6084F84130C9
:1014800000F079F8C1E700009919000870B5040070
:1014900004D094F84100002510B106E0012070BD91
:1014A00084F84050204600F023F8242084F84100BE
:1014B0002068C16821F40051C160204600F0FCFAA8
:1014C0002068016921F4904101612068416921F09F
:1014D0002A0141612068C16841F40051C16065641E
:1014E000202084F8410084F842006563002070BD2C
:1014F00010B586B0044614216846FEF70BFF1A4962
:10150000206888422DD119480021026842F010025B
:101510000260006800F0100005901448143802685A
:1015200042F002020260006800F002000590C02054
:1015300000900220CDE901010320039007200490D0
:1015400069460B48FFF734F8002205212520FFF7F4
:10155000C9F92520FFF7B8F92068C16841F02001DA
:10156000C16006B010BD00000010014044380240C8
:101570000004024070477047FEE700000225124C4D
:101580004FF4C876257018E031461048FEF7C2FEC9
:1015900001F068F90D4801F0B5FA0DA000F0BEFBAE
:1015A00015A000F0BBFB09491EA000F0B7FB01F03D
:1015B00079F901E0012800D125700A2000F03FFDF3
:1015C00020780028F6D1DFE700000020A0000020EE
:1015D0005461736B202020202020202020202020F8
:1015E0004162732054696D652020202020205469B9
:1015F0006D65200D0A0000002A2A2A2A2A2A2A2A92
:101600002A2A2A2A2A2A2A2A2A2A2A2A2A2A2A2A3A
:101610002A2A2A2A2A2A2A2A2A2A2A2A2A2A2A2A2A
:101620000D0A0000257300004CF25034204600F0F3
:1016300006FDFBE710B51D4BA0B01CAC0FCB84E83A
:101640000F0000211CA800F006FD194C17491C22B0
:10165000206110316846FEF744FE0021684600F024
:101660000DFD124920601C222C3107A8FEF739FE1F
:10167000002107A800F002FD0C4960601C224831DF
:101680000EA8FEF72EFE00210EA800F0F7FC074979
:10169000A0601C22643115A8FEF723FE002115A8C6
:1016A00000F0ECFCE06020B010BD00000435000844
:1016B0000400002070B586B014216846FEF72AFEAB
:1016C00022480025016841F010010160016801F025
:1016D00010010591016841F080010160016801F08D
:1016E00080010591016841F001010160016801F08C
:1016F00001010591016841F0020101600068144E8A
:1017000000F002000590012203213046FFF74DF85A
:10171000042000904FF444100124CDE901046946EF
:101720003046FEF745FF03208DE83100022003908C
:1017300069463046FEF73CFF002205210820FFF7EE
:10174000D1F80820FFF7C0F806B070BD303802406D
:10175000001002401CB500240E4800940C4901946E
:1017600001605321C0E9011431218461C160FFF798
:10177000F5FB08B1FEF765FE009469460548019443
:10178000FFF7A4FB002801D0FEF75BFE1CBD0000A4
:1017900000100040040700200C4810B50A49016001
:1017A0004FF4E1314160002181600C22C160C0E949
:1017B00004128161C161FFF769FE002803D0BDE812
:1017C0001040FEF73EBE10BD001001404C07002047
:1017D000FEE7FEE710B5502080F31188BFF34F8F6E
:1017E000BFF36F8F01F040FD18B104494FF08050F6
:1017F0000860002080F3118810BD000004ED00E0B7
:1018000030B593B030216846FEF784FD14210CA852
:10181000FEF780FD1E480025016841F080510160FF
:10182000006800F0805011901A48016841F480412E
:1018300001600068022400F48040119001200090B3
:10184000000401908001CDE90640082008904FF483
:10185000A870CDE9090404200B906846FFF77EF9D3
:1018600008B172B6FEE70CA90F2081E831004FF4F1
:10187000A0500F904FF48050109005210CA8FFF756
:1018800063F8002801D072B6FEE713B030BD000047
:1018900040380240007000400248016841F4700185
:1018A0000160704788ED00E00148FFF7FCBB0000D5
:1018B000940700200148FFF7F6BB00000407002052
:1018C000F0B50268294C2A4D2A4E2B4F2B4B4FF076
:1018D000804CA04209D0604507D0A84205D0B04254
:1018E00003D0B84201D0984204D122F0700E4A6869
:1018F00042EA0E02A0421BD0604519D0A84217D080
:10190000B04215D0B84213D0984211D01C4DA84215
:101910000ED01C4DA8420BD01B4DA84208D01B4D29
:10192000A84205D01A4DA84202D01A4DA84203D1B0
:1019300022F44075CA682A434D6922F080022A4386
:1019400002608A68C2620A688262A04201D098423C
:1019500001D109690163012141610169C90703D00E
:10196000016921F001010161F0BD000000000140AA
:101970000004004000080040000C0040000401404A
:101980000040014000440140004801400018004070
:10199000001C00400020004010B5806B0021C18574
:1019A000C184FFF739FC10BD01680C3151E8002FEC
:1019B00022F4907241E80023002BF5D10168143124
:1019C00051E8002F22F0010241E80023002BF5D15D
:1019D000016B012909D101680C3151E8002F22F077
:1019E000100241E80023002BF5D1202180F842109D
:1019F00000210163704708B590F84210222901D0F8
:101A0000022008BD82684FF480539A4201D10169D7
:101A100021B1816A9A421BD04AB10AE00268816A08
:101A20005268C2F308020A80816A891C08E00269D0
:101A300072B10268526802F07F020A70816A491C22
:101A40008162C18D491E0904090CC18503D01BE0C8
:101A500002685268F1E70168CA6822F02002CA6091
:101A60000168CA6822F48072CA6001684A6922F07B
:101A700001024A61202180F8421000214163026B7B
:101A8000012A03D0FFF776FD002008BD016301683D
:101A90000C3151E8002F22F0100241E80023002B06
:101AA000F5D101680A68D20602D50A684968009132
:101AB000818DFFF7B0FBE7E770B504460068016968
:101AC000E26821F44051114301612169A068E26993
:101AD00008436169114308432168CA6849F20C63ED
:101AE0009A430243CA6020684169A26921F44071A7
:101AF0001143416131492068884202D0304988420F
:101B000002D1FEF7EBFF01E0FEF7D8FFE269002308
:101B1000192164253226B2F5004F626828D0A0FB57
:101B20000101930F9200FEF7ABFB0146B0FBF5F00D
:101B30006FF01802504301EB800006EB0010B0FB81
:101B4000F5F000F0F002B1FBF5F002EB0012B1FB92
:101B5000F5F06FF01803584301EB800006EB00101E
:101B6000B0FBF5F000F00F0021681044886070BDF4
:101B7000A0FB010192185B41FEF782FB0146B0FB1E
:101B8000F5F00201B1FBF5F06FF01803584301EBDB
:101B9000800006EBC000B0FBF5F000F0F80002EBAF
:101BA0004002B1FBF5F0584301EB800006EBC000AA
:101BB000B0FBF5F000F00700D6E700000010014090
:101BC000001401400A4808B500680168C943890645
:101BD00009D440688DF80000064800231A4669467B
:101BE000006801F09FF90248FFF718FB08BD0000EC
:101BF0004C07002014000020FEE700004FF0FF38E3
:101C0000314E324CDFF8C8900125214642463069FA
:101C100001F0E8F9012849D161196D1CEDB23222B9
:101C2000306901F0DFF90028F6D16055274929A075
:101C300000F074F82548FEF778FBC5B2294626A0C7
:101C400000F06CF8072227A12048FEF77EFB70B950
:101C5000601910F8010C3038C7B2394623A000F0E3
:101C60005DF85FB1012F0CD024A000F057F80822D6
:101C700027A11648FEF769FB48B117E000220121B1
:101C800001E0002202214846FEF78FFDEFE76019D0
:101C900010F8010C3038C5B2294614A000F03EF807
:101CA0004DB1012D0AD015A000F038F841F288306E
:101CB00000F0C5F9A8E70122114601E00122022146
:101CC0004846FEF772FDF1E70400002030020020D4
:101CD0000010024025730A007374725F6C656E20F9
:101CE00025640A006F70656E6C65640070696E5FD4
:101CF000706F72742025640A00000000636D642018
:101D0000697320696C6C6567616C210A00000000D2
:101D1000636C6F73656C6564000000000FB4054B65
:101D200010B503A9044A029800F03CF810BC5DF815
:101D300014FB0000F51F00089C0000200FB4084BA6
:101D400010B504A902AA039800F02CF8044602A9D1
:101D5000002000F003F9204610BC5DF814FB0000E1
:101D60005D1F00080907090E002804DB00F1E020D0
:101D700080F80014704700F00F0000F1E02080F8B8
:101D8000141D704702E008C8121F08C1002AFAD1CA
:101D900070477047002001E001C1121F002AFBD1EB
:101DA000704700002DE9FF4F8BB09A460F4605465D
:101DB000002606E025280BD052460D9990476D1C51
:101DC000761C28780028F5D10FB03046BDE8F08F9A
:101DD0000024A0460122604900E0044315F8013FB9
:101DE000203B02FA03F00842F7D128782E2817D1B9
:101DF00015F8010F44F004042A280ED06FF02F02CA
:101E00002878A0F1300109290AD808EB880102EBF3
:101E1000410100EB01086D1CF2E757F8048B6D1CC3
:101E2000287869283ED006DC0028CDD063280BD066
:101E3000642804D136E0732810D075284BD0524660
:101E40000D999047761C85E017F8040B8DF800007B
:101E500000208DF80100E946012003E057F8049BBB
:101E60004FF0FF3061074FF0000401D40AE0641C1A
:101E700044450DDA8442FADB19F804100029F6D142
:101E800006E0641C8442FCDB19F804100029F8D138
:101E9000264404E019F8010B52460D999047641E40
:101EA000F8D257E001CF4FF00A0B002802DA404287
:101EB0002D2102E0210504D52B218DF824100121CC
:101EC00003E0E10705D02021F7E70DF12009089193
:101ED0000CE00021F9E701CF4FF00A0BF9E7594672
:101EE000FEF742FA01F1300209F8012D0028F6D17F
:101EF000ADEB090000F1200B600701D44FF00108A1
:101F0000D84502DDA8EB0B0000E00020804600244D
:101F100006E009A85246005D0D999047641C761CA6
:101F200008988442F5DB04E0302052460D99904732
:101F3000761CB8F10001A8F10108F5DC05E019F8FC
:101F4000010B52460D999047761CBBF10001ABF195
:101F5000010BF4DC6D1C34E7092801000A68531CEE
:101F60000B6010707047000010B50348FFF782F84F
:101F700002490020086010BD04070020180000205E
:101F80002DE9F041040006D0184E306884420AD191
:101F90000020BDE8F081502080F31188BFF34F8FFF
:101FA000BFF36F8FFEE700F05DFC6569F76B366C81
:101FB00000F078FCBD4201D0B54201D10220E8E733
:101FC0000B48854208D1A06A0028F7D194F85C003C
:101FD0000128F3D00320DCE705481438854202D0FD
:101FE0000DB10120D5E70420D3E700002C0000202C
:101FF000B808002003490A685206FCD5C2B24A60FC
:102000007047000000100140014800687047000060
:1020100018000020FEF7DCFBFFF7F2FBFFF74AFB9E
:10202000FFF7BAFBFFF796FBFFF704FB00F00EF893
:10203000FEE701460020842900D0C81C704710B577
:1020400000B9012000F0B0FC002010BD10B500F078
:10205000D1FD002010BD38B5D0E9011204683AB1B5
:10206000C3682BB100200090204600F0E4FE38BD8C
:102070002046BDE83840002200F0BCBE7FB50D46CA
:1020800004464169B0F9080081B1A16971B1FFF757
:10209000D0FFD4E905128DE80700D4E900102B46E3
:1020A000226901F0A2F8039004B070BDFFF7C1FFF0
:1020B00003A9CDE90001208A2B4682B2D4E90010A1
:1020C00001F066F8012801D00020EDE70398EBE766
:1020D0002DE9F041184C0F460546E6682068001DC2
:1020E00000F00AFB38B9206890F82C1001208840D5
:1020F000216981432161681C07D137B12168BDE89E
:10210000F0410E48091D00F0A1BB20683544B542DE
:102110004560216805D2206CBDE8F041091D00F042
:102120007DBBE06B091D00F079FBA06A854200D2FF
:10213000A562BDE8F08100002C000020B808002056
:102140002DE9F041054600F08DFB2E4CA068401CA7
:10215000A06020682C4F10B1606940B32DE025606D
:10216000A068012829D1002606EB860007EB800035
:1021700000F046FB761C072EF6D323488C3000F087
:102180003FFB2148A03000F03BFB1F48B43000F07B
:1021900037FB1D48C83000F033FB1B48DC3000F033
:1021A0002FFB19488C30E0631430206405E0206870
:1021B000E96AC06A884200D82560606A401C606293
:1021C0006864E96A0120226988401043206101EBBC
:1021D000810007EB8000291D00F038FB00F062FB56
:1021E000606900280CD02068E96AC06A884207D27A
:1021F00006494FF080500860BFF34F8FBFF36F8FD9
:10220000BDE8F0812C000020DC07002004ED00E098
:1022100030B4026C0B46002A0BD0C1681144C16077
:102220008468A14201D30168C16030BC1846FEF742
:1022300058B830BC70472DE9F041856B174604460D
:102240000026026C82B1C7B1E068FEF74AF8E16887
:10225000206C091AE1602268914202D2A168081A32
:10226000E060022F16D017E02068A8B9A06801F03E
:1022700061F806460020A0600EE06068FEF731F8C5
:10228000216C606808446060A168884204D32068BB
:10229000606001E005B16D1E6D1CA5633046BDE8B0
:1022A000F08110B5044690F85D0058B101280CD0BB
:1022B00002280FD0502080F31188BFF34F8FBFF357
:1022C0006F8FFEE7206B00F001FB2046BDE8104059
:1022D00000F0FCBA10BD000010484FF470514207E6
:1022E00006D0C01D0D4920F00700411AC1F57051FC
:1022F0000B4A00230144C2E900030839183A21F0CF
:10230000070111604B600B600B1AC0E9001393606A
:102310004FF000405360506170470000CC0800202F
:1023200088000020144E154CA6F1C8074FF08058C5
:10233000DFF84C9012E000BF00F094FAF068C56836
:10234000281D00F0D9F9A068401EA0606068401EFA
:10235000606000F0A7FA2846FFF7A3FF6068002836
:10236000EAD138680128F9D9C9F80080BFF34F8F46
:10237000BFF36F8FF2E70000A40800202C000020BC
:1023800004ED00E070B51D46049C51B1C4F8002076
:10239000C4E90F010121204600F080FD84F84C5073
:1023A00070BD2460F4E700002DE9F05F8846DDE9A8
:1023B0000B941546834691009A460A9EA522206BEF
:1023C000FDF7A1FF6FF00301206B01EB85010844CD
:1023D00020F00707780707D0502080F31188BFF35B
:1023E0004F8FBFF36F8FFEE70025B8F1000F0FD0BE
:1023F0005FF00000221818F8001082F8341018F866
:10240000001011B1401C1028F4D384F8435001E0AF
:1024100084F83450072E00D30626E662C4E913651B
:10242000201D00F0F8F904F1180000F0F4F924611F
:10243000C6F107006462A0616565A56584F85C501B
:1024400052465946384600F041F92060B9F1000F74
:1024500001D0C9F80040BDE8F09F000030B5114937
:1024600000E011460A688242FBD34B685C18844244
:1024700003D1406818444860084643681C189442D9
:1024800009D1084C183C2468A24209D052681A4469
:1024900042600A6812680260814200D0086030BD64
:1024A0000460F9E78800002010B5044600F0DAF96E
:1024B000A06B28B15FF0000400F0F4F9204610BDD5
:1024C0000124F9E72DE9F0478146086892460C4659
:1024D000002600B3606804F1080540686060A84207
:1024E00001D1416861606068D0F80C806068406824
:1024F0006060A84201D141686160606806EBC60176
:1025000009EB8101C76853460122384600F0B8FA4A
:10251000761C4745EAD13046BDE8F0870648C16BD6
:10252000096829B1C16BC968C96849688162704787
:102530004FF0FF31FAE700002C0000200848406807
:10254000401C4FF0500080F3118804D0BFF34F8F30
:10255000BFF36F8FFEE7BFF34F8FBFF36F8FFEE7C1
:10256000900000202DE9F041044600F07BF994F939
:10257000455004F1240609E0606A48B1304600F095
:1025800025FF08B100F018FB6D1E6DB2002DF3DCC5
:102590004FF0FF3684F8456000F084F900F062F9EE
:1025A00094F9445004F1100709E0206948B1384615
:1025B00000F00CFF08B100F0FFFA6D1E6DB2002DA7
:1025C000F3DC84F84460BDE8F04100F06BB910B56D
:1025D0000446FDF7B1FE2046FDF7A7FE202101E0ED
:1025E0002154401C0F28FBD300212154204410BD4E
:1025F0002DE9F0410546002700F034FB324E3068EB
:1026000008B9FFF769FE706905424ED1C5B30835B8
:1026100068070ED005F00700C0F108000544680700
:1026200007D0502080F31188BFF34F8FBFF36F8F17
:10263000FEE72DB37068854237D82348183001462D
:102640000C6801E020460C466168A94202D221686C
:102650000029F7D131688C4227D0076821680160D2
:1026600060680837411B10290FD96019420708D04C
:10267000502080F31188BFF34F8FBFF36F8FFEE7B9
:1026800013E041606560FFF7E9FE61687068401A19
:102690007060B268904200D2B0607069014300205F
:1026A000C4E90001F068401CF06000F0C9FE780742
:1026B00007D0502080F31188BFF34F8FBFF36F8F87
:1026C000FEE73846BDE8F0817000002010B5031F1A
:1026D0004FF080741C601B1F21F001011960191F4D
:1026E000044B0B6014390A60091F6FF00202443872
:1026F0000A6010BD3D250008D0E9013201699A60E9
:10270000D0E901235A604A68824201D182684A6056
:10271000002202610868401E0860086870470000D7
:102720002DE9F04717460A4605460024072600F023
:1027300099FADFF89080D8F8080082423CD3DFF89D
:102740008890761E06EB860104EBC40009EB81013C
:1027500005EB80000122FFF7B5FE0444002EF0D106
:1027600004EBC40005EB800002224646D8F83C107A
:10277000FFF7A8FE044404EBC40005EB800002222E
:10278000316CFFF79FFE04440F4904EBC40005EBD6
:1027900080000422C831FFF795FE04440A4904EB87
:1027A000C40005EB80000322DC31FFF78BFE0444FC
:1027B00017B1FFF729FC386000F042FE2046BDE863
:1027C000F08700002C000020DC070020034B036092
:1027D00003F1600008608020106070474402002010
:1027E00001A0FFF79BBA0000257320697320537482
:1027F00061636B204F766572466C6F77210D0A001E
:1028000000F108014FF0FF32C0E90112C16001611F
:1028100000210160704700210161704730B50B68ED
:102820005A1C02D000F1080202E0026904E02246CC
:10283000546825689D42FAD953684B6099608A6054
:10284000516008610168491C016030BD42684A60FE
:1028500093688B6093685960916008610168491CB6
:1028600001607047502080F31188BFF34F8FBFF392
:102870006F8F0A494868401C486001280CD10848FD
:10288000006810F0FF0F07D0502080F31188BFF3CD
:102890004F8FBFF36F8FFEE770470000900000205E
:1028A00004ED00E00849486828B1401E486001D1A5
:1028B00080F311887047502080F31188BFF34F8F49
:1028C000BFF36F8FFEE700009000002070B5002876
:1028D0002AD0164DA0F1080460686969084207D142
:1028E000502080F31188BFF34F8FBFF36F8FFEE747
:1028F00022683AB1502080F31188BFF34F8FBFF3A5
:102900006F8FFEE78843606000F0ACF9606869682B
:10291000084468602046FFF7A1FD2869401C286133
:10292000BDE8704000F08CBD70BD0000700000205C
:102930004FF0E02000210161816105494FF47A7276
:102940000968B1FBF2F1491E41610721016170473D
:102950002800002010B5FDF77DFC114910280ED38A
:1029600000F1E02090F8F0030A78904207D250205E
:1029700080F31188BFF34F8FBFF36F8FFEE70948D5
:102980000068896800F4E060884207D9502080F32D
:102990001188BFF34F8FBFF36F8FFEE710BD0000AC
:1029A000900000200CED00E010B5020014D00F489C
:1029B000006B38B1502080F31188BFF34F8FBFF305
:1029C0006F8FFEE700F04EF900211046FFF780FB05
:1029D00000F036FD002807D105494FF0805008600F
:1029E000BFF34F8FBFF36F8F10BD00002C0000208E
:1029F00004ED00E070B50D4604000BD095B11E4A01
:102A0000106BB8B1502080F31188BFF34F8FBFF324
:102A10006F8FFEE7502080F31188BFF34F8FBFF315
:102A20006F8FFEE7502080F31188BFF34F8FBFF305
:102A30006F8FFEE700F016F9D268236859199342A8
:102A400004D98B420AD9914202D807E08B42FAD9C5
:102A5000881A21600021FFF73BFB00E0216000F0B5
:102A6000EFFC002807D105494FF080500860BFF304
:102A70004F8FBFF36F8F70BD2C00002004ED00E07E
:102A80002DE9F0410C461E491646B8B14FEA000543
:102A900005F13400C4E90050E86A2061286BE06168
:102AA000686CA060E86C6061686D0027A061052B10
:102AB00012D00868854203D1277311E00D68E7E75B
:102AC0002373032B0CD100F0CDF8A86A08B10220C3
:102AD000207300F0B5FC03E02846FFF751FA20739D
:102AE0005EB10021286B01E0401C491C0278A52A38
:102AF000FAD088082084BDE8F0812784FBE7000035
:102B00002C0000202DE9F8430021804601701F4869
:102B10008468806800EBC0008000FFF769FD060054
:102B200031D06A462146FFF7FBFD07460098642135
:102B3000B0FBF1F0009018B300241FE004EBC400D8
:102B400006EB80050099A869B0FBF1F94046696879
:102B5000FFF73DFD8046AA69B9F1000005D00346A4
:102B60000BA14046FFF7EAF803E00CA14046FFF74F
:102B7000E5F84046FDF7D9FB8044641CBC42DDD338
:102B80003046FFF7A3FEBDE8F88300002C000020CC
:102B90000925750909257525250D0A0009257509D9
:102BA000093C3125250D0A0002490A6A0260C968FC
:102BB000416070472C00002001490120C861704726
:102BC0002C00002010B50C4650B109490968183195
:102BD000FFF724FE2046BDE810400121FFF778BA38
:102BE000502080F31188BFF34F8FBFF36F8FFEE744
:102BF0002C00002010B586B00024039405AA04A977
:102C000003A80494FFF7E2FDDDE903010094CDE998
:102C1000011000230FA11148059A00F0E6FA1049AF
:102C20000028C86213D0502080F31188BFF34F8F63
:102C3000BFF36F8F4FF0FF30886201204861CC6096
:102C4000FFF792F906B0BDE8104000F059B806B0A1
:102C500010BD000049444C45000000002523000839
:102C60002C0000200248016B491C016370470000E2
:102C70002C00002010B5204C206B10B10120E06129
:102C800010BD0020E061FFF7BFF9A063626B9042C6
:102C900004D92168821A4B6D1A444A656063206822
:102CA00021680068096B884204D8216820683431A3
:102CB000FFF796FD20691149B0FA80F0C0F11F00BE
:102CC00000EB800051F820206AB101EB800000F198
:102CD0000802416849684160914201D149684160F8
:102CE000C868206010BD502080F31188BFF34F8F5B
:102CF000BFF36F8FFEE700002C000020DC070020F0
:102D00001CB537480168374A914207D1502080F3FB
:102D10001188BFF34F8FBFF36F8FFEE70068314913
:102D2000491E884207D1502080F31188BFF34F8F8E
:102D3000BFF36F8FFEE72C4908780190FF200870E1
:102D400008788DF800009DF800009DF8002000F044
:102D5000F000904207D0502080F31188BFF34F8FCE
:102D6000BFF36F8FFEE79DF80000204C00F050008D
:102D700020700720A06005E09DF8002052008DF82B
:102D80000020401E9DF800201206F5D4A060032804
:102D900007D0502080F31188BFF34F8FBFF36F8FA0
:102DA000FEE74FF44070A060019808700C48203096
:102DB000016841F470010160016841F070410160F7
:102DC000FFF7B6FD00206060FDF70CFA08480168C7
:102DD00041F040410160FDF7F1F900201CBD000009
:102DE00000ED00E071C20F4100E400E0900000201F
:102DF00034EF00E0F8B517460E46050013D005FB8A
:102E000006F05030FFF7F4FB04000AD0002084F8ED
:102E1000460004F150023B46314628460094FFF735
:102E2000B1FA2046F8BD502080F31188BFF34F8FD0
:102E3000BFF36F8FFEE738B5049D18B153B1CAB127
:102E400081B120E0502080F31188BFF34F8FBFF392
:102E50006F8FFEE7502080F31188BFF34F8FBFF3D1
:102E60006F8FFEE7502080F31188BFF34F8FBFF3C1
:102E70006F8FFEE739B1502080F31188BFF34F8F79
:102E8000BFF36F8FFEE750241C46012384F84630C1
:102E90002B460094FFF776FA204638BD70B50D46F4
:102EA000040025D0FFF7DEFCD4E90F20216802FBE7
:102EB0000011A1600021A163216861600A46D4E984
:102EC0000F01401E00FB0121E16021464FF0FF3061
:102ED00001F8440F487004F110008DB1FFF790FC29
:102EE00004F12400FFF78CFCFFF7DCFC012070BD2F
:102EF000502080F31188BFF34F8FBFF36F8FFEE731
:102F000021690029F0D000F061FA0028ECD00449D2
:102F10004FF080500860BFF34F8FBFF36F8FE3E730
:102F200004ED00E02DE9F0471F4690468946040075
:102F300003D0B9F1000F08D011E0502080F31188C0
:102F4000BFF34F8FBFF36F8FFEE7206C38B1502077
:102F500080F31188BFF34F8FBFF36F8FFEE7022F0F
:102F60000AD1E06B012807D0502080F31188BFF30D
:102F70004F8FBFF36F8FFEE7FFF7ECFC5020EFF3AE
:102F8000118680F31188BFF34F8FBFF36F8FA06B53
:102F9000E16B884206D3022F04D0002086F311880B
:102FA000BDE8F08794F94550A06B3A464946204663
:102FB000FFF741F9681C04D06D1C84F845500120CE
:102FC000ECE7606A0028FAD004F1240000F0FEF972
:102FD0000028F4D0B8F1000FF1D00121C8F800109A
:102FE000EDE700002DE9F747002683B08A4604008C
:102FF00003D0BAF1000F08D011E0502080F31188FF
:10300000BFF34F8FBFF36F8FFEE7206C38B15020B6
:1030100080F31188BFF34F8FBFF36F8FFEE700F08F
:103020000FF9DFF8F4804FF000094FF0805748B9EE
:10303000059838B1502080F31188BFF34F8FBFF34C
:103040006F8FFEE7FFF70EFCA56BC5B1514620461A
:10305000FFF7DEF86D1EA563206950B104F1100082
:1030600000F0B4F928B1C8F80070BFF34F8FBFF378
:103070006F8FFFF717FC012006B0BDE8F0870598B9
:1030800008B11EB106E0FFF70DFC27E06846FFF728
:103090008BFD0126FFF706FCFFF7E4FDFFF7E2FBDF
:1030A00094F94400401C01D184F8449094F94500FF
:1030B000401C01D184F84590FFF7F4FB05A9684650
:1030C00000F02CF8002820460AD0FFF74BFA00F059
:1030D000B7F92046FFF7E8F90028B3D00020CBE786
:1030E000FFF7E2F990B104F124000599FFF76AFDBA
:1030F0002046FFF737FA00F0A3F90028A2D1C8F85C
:103100000070BFF34F8FBFF36F8F9BE72046FFF731
:1031100029FA00F095F995E704ED00E02DE9F0417A
:103120000C46050011D0C4B1FFF79CFB174BDA68C1
:103130006E682068911B471C17D02F681B6A9F423E
:1031400019D0964217D8012410E0502080F311883E
:10315000BFF34F8FBFF36F8FFEE7502080F31188CE
:10316000BFF34F8FBFF36F8FFEE70024FFF79AFB8B
:103170002046BDE8F081884205D9401A20602846E3
:10318000FFF712FDF1E700202060DCE72C000020B3
:103190002DE9FF5F8346DDE90E87994616468A468C
:1031A0009000FFF725FA05001CD06020FFF720FAF9
:1031B000040014D00020256384F85D00CDE90240AE
:1031C000CDE900874B46324651465846FFF7ECF8AA
:1031D0002046FEF7B5FF012004B0BDE8F09F284669
:1031E000FFF774FB4FF0FF30F6E7F0B585B0DDE98F
:1031F0000B640A9DA6B1DCB1602700972663022606
:1032000084F85D60002604AFCDE90246CDE90057A1
:10321000FFF7CAF82046FEF793FF049805B0F0BD0B
:10322000502080F31188BFF34F8FBFF36F8FFEE7FD
:10323000502080F31188BFF34F8FBFF36F8FFEE7ED
:103240000548416919B1006B18B100207047012091
:1032500070470220704700002C0000200148C06821
:10326000704700002C0000202DE9F0412F4C002673
:10327000206B28B1A069401CA0613046BDE8F081F8
:10328000E5686D1CE56013D1E06B006838B1502033
:1032900080F31188BFF34F8FBFF36F8FFEE7E06BB2
:1032A000216CE1632064206A401C2062FFF736F93C
:1032B000A06ADFF87C80854209D3E06B0068A0B18A
:1032C000E06BC068C7687868854211D2A062206848
:1032D000C06A00EB800158F82100012800D90126BE
:1032E000E0690028C9D00126C7E74FF0FF30EDE7BD
:1032F000381DFFF701FAB86A18B107F11800FFF797
:10330000FBF9F96A0120226988401043206101EB32
:10331000810108EB8100391DFFF798FAF86A2168EE
:10332000C96A8842C9D30126C7E700002C000020E3
:10333000DC07002070B504004FF0000140D0214DA3
:103340002868844207D0502080F31188BFF34F8F44
:10335000BFF36F8FFEE7206D38B1401E2065E36C30
:10336000E26A9A422CD040B12AE0502080F31188C2
:10337000BFF34F8FBFF36F8FFEE7201DFFF7BCF940
:10338000114A012150B9E06A00EB800352F8233062
:1033900023B92B6901FA00F083432B61E06CE062F2
:1033A000C0F10700A061E06A2B69814019432961DF
:1033B00000EB800002EB8000211DFFF747FA01219E
:1033C000084670BD2C000020DC0700202DE9F041EC
:1033D000C068C468ACB104F118000746FFF78CF967
:1033E000154D286B0126A0B139461448FFF72EFA77
:1033F000E06A2968C96A88421CD90120EE61BDE8EB
:10340000F081502080F31188BFF34F8FBFF36F8F8F
:10341000FEE7201DFFF770F9E16A2A6906FA01F05C
:103420001043286101EB81000449B43901EB8000AD
:10343000211DDBE70020E2E72C000020900800209F
:103440002DE9F0472C4D00242746286B38B1FFF7B3
:1034500009FA286B401E2863286B40B146E05020D3
:1034600080F31188BFF34F8FBFF36F8FFEE7A9681A
:10347000224E0120D1B3A6F1B40980463068E8B1EC
:10348000F068C46804F11800FFF736F9201DFFF753
:1034900033F9E06A2A6908FA00F11143296100EB67
:1034A000800109EB8100211DFFF7D0F9E06A29684E
:1034B000C96A8842E2D3C5F81C80DFE70CB1FFF788
:1034C0002DF8AC6944B14646FFF7CEFE00B1EE617F
:1034D000641EF9D10020A861E86938B108490127C4
:1034E00038070860BFF34F8FBFF36F8FFFF7DAF92C
:1034F0003846BDE8F08700002C000020900800202E
:1035000004ED00E0140000000100000000000000D5
:1035100000000000A8350008FD1B0008FEFF0000A9
:103520000000000080000000A4040020A406002089
:103530009C3500082916000800000000000000006B
:10354000800000000000000000000000C0350008FE
:103550007D15000800000000000000008000000051
:103560000000000000000000B4350008FD03000862
:10357000FEFF0000000000008000000000000000CE
:103580000000000000000000000000000102030431
:103590000607080900000000010203044C656430BE
:1035A0005461736B00000000557361727454617351
:1035B0006B00000044656C61795461736B0000001E
:1035C0004B65795461736B00E835000800000020FA
:1035D000A0000000841D000888360008A00000201C
:1035E00030480000941D00080000000000000000AA
:1035F00000000000000000000000000000000000CB
:1036000000000000010000001000000000000000A9
:103610000024F40000000000000000000000000092
:10362000000000000000000000000000000000009A
:10363000000000000000000000000000000000008A
:10364000000000000000000000000000000000007A
:10365000000000000000000000000000000000006A
:10366000000000000000000000000000000000005A
:10367000000000000000000000000000AAAAAAAAA2
:08368000000000000000000042
:040000050800018965
:00000001FF
