:020000040800F2
:10000000284D00205D020008CB18000849150008A3
:10001000BD180008B9030008F11C0008000000002A
:100020000000000000000000000000009D0100082A
:10003000BB03000800000000F9010008CD1800080B
:1000400077020008770200087702000877020008AC
:10005000770200087702000877020008770200089C
:10006000D3030008D9030008DF0300087702000863
:10007000770200087702000877020008770200087C
:10008000770200087702000877020008770200086C
:10009000770200087702000877020008770200085C
:1000A00077020008A119000877020008770200080B
:1000B000770200087702000877020008770200083C
:1000C000770200087702000877020008770200082C
:1000D00077020008BD1C00087702000877020008BC
:1000E000770200087702000877020008770200080C
:1000F00077020008770200087702000877020008FC
:1001000077020008770200087702000877020008EB
:100110007702000877020008AD190008770200088E
:1001200077020008770200087702000877020008CB
:1001300077020008770200087702000877020008BB
:1001400077020008770200087702000877020008AB
:10015000770200087702000877020008770200089B
:10016000770200087702000877020008770200088B
:1001700077020008770200087702000800000000FC
:100180007702000877020008DFF80CD000F002F9CF
:100190000048004759210008284D00202C4B1968C1
:1001A0000868B0E8F04F80F30988BFF36F8F4FF015
:1001B000000080F3118870470000000008480068C4
:1001C000006880F308884FF0000080F3148862B65E
:1001D00061B6BFF34F8FBFF36F8F00DF00BF00BF6B
:1001E00008ED00E0DFF80C00016841F470010160E7
:1001F000704700BF88ED00E0EFF30980BFF36F8F19
:10020000134B1A681EF0100F08BF20ED108A20E96A
:10021000F04F106009B44FF0500080F31188BFF325
:100220004F8FBFF36F8F02F04BFF4FF0000080F352
:10023000118809BC19680868B0E8F04F1EF0100F6B
:1002400008BFB0EC108A80F30988BFF36F8F704746
:100250004C000020EFF305807047000006488047FF
:1002600006480047FEE7FEE7FEE7FEE7FEE7FEE79B
:10027000FEE7FEE7FEE7FEE79119000889010008A6
:100280002DE9F05F0546002092469B4688460646CB
:10029000814640241BE0284641464746224600F05E
:1002A00069F853465A46C01A914110D31146184670
:1002B000224600F050F82D1A67EB01084F462246FF
:1002C0000120002100F047F817EB00094E41201EE5
:1002D000A4F10104DFDC484631462A464346BDE826
:1002E000F09F40EA01039B0703D009E008C9121FF1
:1002F00008C0042AFAD203E011F8013B00F8013BE0
:10030000521EF9D27047D2B201E000F8012B491E0B
:10031000FBD270470022F6E710B513460A460446A2
:100320001946FFF7F0FF204610BD421C10F8011BD4
:100330000029FBD1801A704730B5054600200346DE
:1003400000E05B1C934205D2EC5CC85C201A01D132
:10035000002CF6D130BD202A04DB203A00FA02F14D
:10036000002070479140C2F1200320FA03F31943A3
:1003700090407047202A04DB203A21FA02F0002145
:10038000704721FA02F3D040C2F1200291400843A5
:1003900019467047064C074D06E0E06840F001033F
:1003A00094E8070098471034AC42F6D3FFF7F0FE0C
:1003B000443F0008643F0008FEE7704708B503F0BB
:1003C00059FB41F2883400902146684602F042FD14
:1003D000FAE7042000F0D2B8082000F0CFB81020CF
:1003E00000F0CCB872B6FEE72DE9F0410446876D07
:1003F00000F0DAF9064694F835000025022806D008
:100400008020606584F834500120BDE8F0812068C8
:10041000016821F0160101602068416921F0800126
:100420004161206C08B9A06C20B12068016821F0FE
:10043000080101602068016821F0010101600CE001
:1004400000F0B2F9801B052807D920206065032041
:1004500084F8350084F83450D7E720680068C00776
:10046000EED194F85C103F208840B860012084F8F9
:10047000350084F834500020C7E790F83510022981
:1004800003D08021416501207047052180F8351097
:100490000068016821F00101016000207047000040
:1004A00070B5044600F080F90546601C02D004488F
:1004B0000078044400F078F9401BA042FAD370BDE4
:1004C0003C00002070B5264D264C042819D0082881
:1004D00033D0102843D11021204600F053F90028D2
:1004E0003DD11420FFF7DCFF1021204600F04AF92F
:1004F000002834D1002204212868BDE8704002F0B1
:1005000079BE0421204600F03DF9002827D11420AF
:10051000FFF7C6FF0421204600F034F900281ED161
:1005200011A001F06DFC00220121286802F062FE9A
:10053000BDE870400EA001F063BC0821204600F029
:1005400021F900280BD11420FFF7AAFF082120462B
:1005500000F018F9002802D100220221CCE770BD7A
:1005600000000020001002406B6579302000000080
:10057000697320646F776E210A000000044910B58A
:100580000A68024202D00860FFF79CFF10BD00001D
:10059000143C01402DE9F84FDFF8BCA100220125F1
:1005A00003264FF00F090AF1040BAAF1040E00BF55
:1005B0000B6805FA02F42340A34270D10F7907F0CB
:1005C0000307012F01D0022F16D187684FEA420896
:1005D00006FA08FC27EA0C07D1F80CC00CFA08FC54
:1005E0004CEA070CC0F808C04768A7430C79C4F36D
:1005F000001494403C4344600C79E443A4070AD0BF
:10060000C4684FEA420C06FA0CF7BC438F6807FA3D
:100610000CF72743C7600C7904F00304022C12D1B5
:10062000D40800EB840CDCF820405707FF0E09FAD1
:1006300007F824EA0804D1F8108008FA07F848EA15
:100640000408CCF8208004684FEA420C06FA0CF744
:10065000BC430F7907F0030707FA0CF7274307603D
:100660004C6814F4403F70D03C4C276847F48047F6
:100670002760246822F0030704F480440094384C77
:1006800007EB040CDCF8084897074FEA177809FADB
:1006900008F7BC43334FB84202D1002724E054E0AE
:1006A000314FB84201D101271EE0304FB84201D18D
:1006B000022719E02E4FB84201D1032714E02D4F35
:1006C000B84201D104270FE02B4FB84201D10527D2
:1006D0000AE02A4FB84201D1062705E0284FB84268
:1006E00001D1072700E0082707FA08F72743CCF8CD
:1006F0000878DAF800405746D1F804C09C435FEA16
:10070000CC2C00D51C433C60DBF800405F46D1F8A0
:1007100004C09C435FEA8C2C00D51C433C60DEF88F
:1007200000407746D1F804C09C435FEA8C3C00D57A
:100730001C433C60084F083F3C68D1F804C09C4310
:100740005FEACC3C00D51C433C60521C102AFFF4ED
:100750002FAFBDE8F88F0000083C0140443802404C
:100760000030014000000240000402400008024046
:10077000000C024000100240001402400018024029
:10078000001C02400069084000D001207047426907
:1007900021EA02030A4043EA0241816170470AB13B
:1007A000816170470904FBE70148806870470000D9
:1007B0003C00002002488168027811448160704743
:1007C0003C0000200B4810B5016841F40071016045
:1007D000016841F480610160016841F48071016049
:1007E000032000F099F8002000F006F800F04AF825
:1007F000002010BD003C024030B505461C4887B0C3
:100800000024016841F001010160006806A900F0C0
:100810000100009001A800F02BF900F059F91549EA
:100820004000B0FBF1F11548134A491E026040F246
:10083000E732C0E90324C0E90114846100F088FBB9
:10084000040012D10D4800F0CFFB04000DD1192097
:1008500000F034F8102D07D200222946192000F0AC
:100860003BF80748056000E0012407B0204630BD92
:100870004438024040420F0000000140980A002026
:10088000400000200C4882B0016841F480410160C2
:10089000006800F4804000900748001F016841F0A4
:1008A000805101600068002200F0805000900F210C
:1008B000901E02B000F010B844380240002809DB56
:1008C00000F01F02012191404009800000F1E0206A
:1008D000C0F8001170470000F0B40E4B1B680C46C6
:1008E000C3F30223C3F10705042D00D90425191D04
:1008F000072901D2002300E0DB1E012606FA05F1DC
:10090000491E214099409E40761E16403143F0BC5E
:1009100001F086BA0CED00E0064900F00702086815
:100920004FF6FF03184040EA0220034A10430860D4
:10093000704700000CED00E00000FA052DE9F047DB
:100940000E46050065D0DFF81481D8F80000F7B234
:1009500000F00700B04207D288F80070D8F8000015
:1009600000F00700B04254D128683D4C810712D5F1
:10097000400703D5206840F4E05020602878000745
:1009800003D5206840F4604020602068A96820F00A
:10099000F000084320602878C0072DD030496868EF
:1009A0000839012812D0022813D0032811D0096871
:1009B000890700292DDA216821F003010143216014
:1009C000FFF7F2FE814641F2883A0EE0096889039A
:1009D000EFE709688901ECE7FFF7E6FEA0EB090104
:1009E000514502D90320BDE8F0872068696800F00E
:1009F0000C00B0EB810FEFD1D8F80010404601F0A9
:100A00000701B14207D90770006800F00700B04243
:100A100001D00120E7E72878400705D52068E9687C
:100A200020F4E050084320602878000706D52068AD
:100A3000296920F4604040EAC100206000F058F8C5
:100A40002168084AC1F30311515CC8400649086097
:100A500006480068FFF7D0FE0020C4E7003C0240D3
:100A600008380240E03E0008480000204000002016
:100A70000F2202600C4A136803F0030343601368FB
:100A800003F0F0038360136803F4E053C36012685B
:100A90004FF4E05303EAD20202610448006800F018
:100AA000070008607047000008380240003C024020
:100AB0000448054900680968044AC1F38221515C71
:100AC000C84070474800002008380240F03E000847
:100AD0000448054900680968044AC1F34231515C81
:100AE000C84070474800002008380240F03E000827
:100AF000154810B5006810F00C02144813D04110CE
:100B0000042A0FD0082A0ED10F4C241F2268236814
:100B100002F03F025B0207D52068C0F38810A0FBFB
:100B2000010106E0084610BD2168C1F38811A1FB50
:100B300000010023FFF7A4FB2168C1F30141491C18
:100B40004900B0FBF1F010BD083802400024F40069
:100B50002DE9F84F04006ED02078DFF84C93C007E1
:100B6000A9F104054AD009F104000168C1F381012B
:100B7000012908D00068C0F3810002280AD1D9F801
:100B80000000400206D52868800337D56068002839
:100B9000E1D033E06068B0F5803F10D0B0F5A02F11
:100BA000286810D020F480302860286820F4802045
:100BB00028606068A8B1FFF7F7FD06460DE02868D9
:100BC00040F48030F4E740F480202860F7E700BF6D
:100BD000FFF7EAFD801B642873D828688003F7D5E7
:100BE0000CE0FFF7E1FD064605E000BFFFF7DCFD86
:100BF000801B6428F0D828688003F7D42078DFF8B9
:100C0000AC8280074FF0000A3ED5A748001D01685E
:100C100011F00C0F08D00068C0F3810002280BD13E
:100C2000D9F80000400207D42868800716D5E0688C
:100C3000012800D112E033E1E068B8B10120C8F822
:100C40000000FFF7B1FD064605E000BFFFF7ACFD71
:100C5000801B0228C0D828688007F7D5286821693A
:100C600020F0F80040EAC10028600DE0C8F800A0BC
:100C7000FFF79AFD064604E0FFF796FD801B022869
:100C80001FD828688007F7D42078000722D5864F20
:100C900087486169703771B101210160FFF784FDF8
:100CA000064604E0FFF780FD801B022809D838685B
:100CB0008007F7D50EE0C0F800A0FFF775FD0646E7
:100CC00005E082E0FFF770FD801B02287DD83868C0
:100CD0008007F7D42078400768D5DFF8CCB100272B
:100CE0000BF13C0BDBF80000C0000BD4DBF800106C
:100CF00041F08051CBF80010DBF80000012700F034
:100D0000805000906B4E3068C00510D4306840F4BD
:100D100080703060FFF748FD009005E0FFF744FD6C
:100D20000099401A022850D83068C005F6D55E4EAA
:100D3000A0686C3601280FD00528306810D020F04C
:100D400001003060306820F004003060A068B8B165
:100D5000FFF72AFD00900FE0306840F00100F4E753
:100D600040F004003060F7E7FFF71EFD0099411ADC
:100D700041F28830814266D830688007F4D50EE0B1
:100D8000FFF712FD009007E0FFF70EFD0099411AF2
:100D900041F28830814256D830688007F4D42FB1B0
:100DA000DBF8001021F08051CBF80010A069C8B327
:100DB0003D49091D0968C1F3810102294AD0022871
:100DC000504607D0C8F8600000E03CE0FFF7ECFCBC
:100DD00004463BE04746C8F86000FFF7E5FC0646DE
:100DE00005E000BFFFF7E0FC801B02282BD8286835
:100DF0008001F7D4D4E907010843A16A2E4A4908C3
:100E000002EB0141626A41EA8211084394F82C1016
:100E100040EA0161C9F8001001203866FFF7C4FC00
:100E2000044606E03EE000BFFFF7BEFC001B0228C0
:100E300009D828688001F7D534E000BFFFF7B4FC7B
:100E4000001B022802D90320BDE8F88F2868800122
:100E5000F4D427E00128F7D0D9F80000E26900F4C3
:100E6000800191421CD1226A00F03F01914217D1CA
:100E700047F6C071626A0140B1EB821F10D1A26ACD
:100E80004FF0FF3300F4403103EB5202B1EB024F5D
:100E900006D194F82C1000F07060B0EB016F01D017
:100EA0000120D1E70020CFE704380240000047428C
:100EB000800E4742007000400000FFFF70477047FF
:100EC00070B590F83C20012A32D0012480F83C40D3
:100ED000022280F83D2003685A689D6822F070065F
:100EE0000A6832435A60134B02689A4214D0B2F136
:100EF000804F11D0104B9A420ED0104B9A420BD01B
:100F00000F4B9A4208D00F4B9A4205D00E4B9A4293
:100F100002D00E4B9A4204D1496825F08003194350
:100F2000916080F83D40002180F83C10084670BD7B
:100F3000022070BD00000140000400400008004095
:100F4000000C004000040140004001400018004037
:100F500010B5040003D094F83D0010B107E0012063
:100F600010BD002084F83C00204600F01FF802204D
:100F700084F83D00211D206800F01EFD012084F84A
:100F8000460084F83E0084F83F0084F8400084F86E
:100F9000410084F8420084F8430084F8440084F857
:100FA000450084F83D00002010BD000008B5006831
:100FB0000B49884212D10B48016841F010010160D1
:100FC0000068002200F01000009005213620FFF795
:100FD00083FCBDE808403620FFF770BC08BD000068
:100FE000001000404038024090F83D10012901D027
:100FF00001207047022180F83D100168CA6842F064
:101000000102CA6000681149884214D0B0F1804FD3
:1010100011D00F4988420ED00E4988420BD00E499C
:10102000884208D00D49884205D00D49884202D037
:101030000C49884204D1816801F00701062903D0D8
:10104000016841F00101016000207047000001408B
:101050000004004000080040000C00400004014073
:1010600000400140001800400168CA6822F00102F7
:10107000CA6001680A6A41F211131A4207D10A6A6A
:101080009B101A4203D10A6822F001020A60012172
:1010900080F83D100020704770472DE9F04104466C
:1010A0000068C66805694FF00007A90713D5B107A6
:1010B00011D5F91E01610120207720688069800721
:1010C000204602D0FFF7E8FF04E000F07EF820465B
:1010D00000F07CF82777680716D5700714D52168CB
:1010E0006FF004000861022020772068806910F406
:1010F000407F204602D0FFF7CFFF04E000F065F804
:10110000204600F063F82777280715D5300713D558
:1011100021686FF008000861042020772068C0690A
:101120008007204602D0FFF7B7FF04E000F04DF83B
:10113000204600F04BF82777E80616D5F00614D5C0
:1011400021686FF010000861082020772068C069CE
:1011500010F4407F204602D0FFF79EFF04E000F02D
:1011600034F8204600F032F82777E80708D0F00777
:1011700006D021686FF001000861204600F028F8D1
:10118000280608D5300606D521686FF08000086172
:101190002046FFF793FE680608D5700606D521683D
:1011A0006FF040000861204600F01CF8A8060AD540
:1011B000B00608D521686FF0200008612046BDE820
:1011C000F041FFF77CBEBDE8F0817047704700003A
:1011D00000680349884201D1FFF7ECBA704700006C
:1011E000000001407047704770470000F8B5016883
:1011F00004460868CA684B6910F00F0F4FF00005ED
:1012000059D003F0010602F49077374365D0C10747
:1012100005D0D10503D5616C41F00101616441073E
:1012200005D5D90703D0616C41F0020161648107E3
:1012300005D5D90703D0616C41F004016164010751
:1012400007D502F02001314303D0616C41F0080161
:101250006164616C00293AD0800604D5900602D5FD
:10126000204600F044FC20684069616CC0F38010A7
:10127000090700D460B3204600F012FC20684069E2
:10128000400621D52068143050E8001F21F04001AD
:1012900040E80012002AF5D1E06BA8B16E49016563
:1012A000E06BFFF7EAF8002811D0E06B016D01B0A8
:1012B000BDE8F040084783060FD593060DD52046BC
:1012C000BDE8F84000F013BC2046FFF78DFFF8BDE5
:1012D0002046FFF789FF6564F8BD266B2023012EA9
:1012E0007DD1C6067BD5D60679D5086848680090BA
:1012F00048694FF00206400641D5E16B0868406836
:101300000004000CE8D0A28D8242E5D9E085C869CE
:10131000B0F5807F2DD020680C3050E8001F21F4FC
:10132000807140E80012002AF5D12068143050E89E
:10133000001F21F0010140E80012002AF5D12068C9
:10134000143050E8001F21F0400140E80012002A4C
:10135000F5D184F84230256320680C3050E8001F36
:1013600021F0100140E80012002AF5D1E06BFFF7F0
:101370003BF86663A08DE18D401A81B22AE0A08D12
:10138000E18D401A81B2E08D0028A5D00029A3D0BC
:1013900022680C3252E8000F20F4907042E80007F7
:1013A000002FF5D12068143050E8002F22F0010200
:1013B00040E80027002FF5D184F8423025632068EB
:1013C0000C3050E8002F22F0100240E80023002BE0
:1013D000F5D166632046FFF706FFF8BDFFE7050677
:1013E0002BD5150629D594F841002128F5D1A06800
:1013F000B0F5805F01D12069B0B1206A411C216243
:10140000216800784860E08C401E0004000CE084F5
:10141000E3D12068C16821F08001C1602068C16803
:1014200041F04001C160D8E7206A0088C0F308009D
:101430004860206A801C2062E5E74006CDD5500652
:10144000CBD5CA68204622F04002CA6084F84130F9
:1014500000F079F8C1E70000911A000870B50400A7
:1014600004D094F84100002510B106E0012070BDC1
:1014700084F84050204600F023F8242084F84100EE
:101480002068C16821F40051C160204600F090FB43
:101490002068016921F4904101612068416921F0CF
:1014A0002A0141612068C16841F40051C16065644E
:1014B000202084F8410084F842006563002070BD5C
:1014C00010B586B0044614216846FEF723FF1A497A
:1014D000206888422DD119480021026842F010028C
:1014E0000260006800F0100005901448143802688B
:1014F00042F002020260006800F002000590C02085
:1015000000900220CDE90101032003900720049000
:1015100069460B48FFF73EF8002205212520FFF71A
:10152000DBF92520FFF7CAF92068C16841F02001E6
:10153000C16006B010BD00000010014044380240F8
:101540000004024070477047FEE7000008B50C4DEC
:101550000C4E4FF0FF34012300941A4607212868EF
:1015600001F050FE0146072806D107A000F048FC14
:1015700001213046FFF70BF9642000F002FEEAE794
:1015800000000020001402404B4559782069732068
:10159000616C6C20646F776E214B65794576656E62
:1015A0007447726F7570426974733A25780A000047
:1015B0004FF4FA74204600F0E4FDFBE74CF250349F
:1015C000204600F0DEFDFBE708B5094D4FF0FF3483
:1015D000002300941A460721286801F013FE0146F3
:1015E00004A000F00DFC642000F0CBFDF0E700004B
:1015F000000000204B45597820697320646F776E96
:10160000214B65794576656E7447726F75704269D6
:1016100074733A25780A000030B5BFB001F096FD2A
:10162000404C206010B940A000F0EAFB0025359541
:1016300035A8369500F0C4FD6062379537A8389517
:1016400000F0C6FDA0623995012139A83A9500F055
:10165000C7FDE0623B9501213BA83C9500F0C0FD31
:1016600020633D9504213DA83E9500F0B9FD354B22
:10167000606331AD0FCB85E80F00002131A800F089
:101680008CFD304920621C2210316846FEF729FE8D
:101690000021684600F0CCFD2A4960601C222C31F4
:1016A00007A8FEF71EFE002107A800F0C1FD25498E
:1016B000A0601C2248310EA8FEF713FE00210EA8E0
:1016C00000F0B6FD1F49E0601C22643115A8FEF74A
:1016D00008FE002115A800F0ABFD1A4920611C226C
:1016E00080311CA8FEF7FDFD00211CA800F0A0FD24
:1016F000144960611C229C3123A8FEF7F2FD0021F1
:1017000023A800F095FD0F49A0611C22B8312AA83A
:10171000FEF7E7FD00212AA800F08AFDE0613FB056
:1017200030BD000000000020784576656E74477279
:101730006F7570437265617465204661696C65649C
:1017400020210A000C3E00082DE9F04186B014214A
:101750006846FEF7DFFD37484FF00008016841F0AA
:1017600010010160016801F010010591016841F06C
:1017700020010160016801F020010591016841F03C
:1017800080010160016801F080010591016841F06C
:1017900001010160016801F001010591016841F05A
:1017A000020101600068244E00F002000590002252
:1017B00001213046FEF7F3FF204F01220321384676
:1017C000FEF7EDFF1C2000904FF444100124CDE9FA
:1017D000010469463846FEF7DDFE0225009469469D
:1017E00030460194CDE90245FEF7D4FE032003956F
:1017F0008DE8110169463846FEF7CCFE002205212E
:101800000820FFF769F80820FFF758F800220521A3
:101810000920FFF761F80920FFF750F800220521A1
:101820000A20FFF759F80A20FFF748F806B0BDE88C
:10183000F0810000303802400014024000100240E5
:101840001CB500240E4800940C490194016042F23A
:10185000CF01C0E9011409218461C160FFF778FB61
:1018600008B1FEF7BFFD0094694605480194FFF7F3
:1018700027FB002801D0FEF7B5FD1CBD001000407D
:10188000080A00200C4810B50A4901604FF4E13104
:101890004160002181600C22C160C0E904128161B5
:1018A000C161FFF7DBFD002803D0BDE81040FEF763
:1018B00099BD10BD00100140500A0020FEE74FF412
:1018C000FA74204600F05DFCFBE7FEE710B55020FF
:1018D00080F31188BFF34F8FBFF36F8F02F0D0F802
:1018E00018B104494FF080500860002080F311883F
:1018F00010BD000004ED00E030B593B03021684623
:10190000FEF708FD14210CA8FEF704FD1E48002573
:10191000016841F080510160006800F08050119032
:101920001A48016841F4804101600068022400F413
:101930008040119001200090000401908001CDE9C9
:101940000640082008904FF4A870CDE9090404204F
:101950000B906846FFF7FCF808B172B6FEE70CA9D9
:101960000F2081E831004FF4A0500F904FF48050C9
:10197000109005210CA8FEF7E1FF002801D072B6F7
:10198000FEE713B030BD0000403802400070004058
:101990000248016841F470010160704788ED00E081
:1019A0000148FFF77ABB0000980A00200148FFF7C2
:1019B00074BB0000080A0020F0B50268294C2A4DCB
:1019C0002A4E2B4F2B4B4FF0804CA04209D0604544
:1019D00007D0A84205D0B04203D0B84201D0984207
:1019E00004D122F0700E4A6842EA0E02A0421BD0D7
:1019F000604519D0A84217D0B04215D0B84213D0D4
:101A0000984211D01C4DA8420ED01C4DA8420BD0BC
:101A10001B4DA84208D01B4DA84205D01A4DA84224
:101A200002D01A4DA84203D122F44075CA682A4355
:101A30004D6922F080022A4302608A68C2620A6805
:101A40008262A04201D0984201D10969016301215B
:101A500041610169C90703D0016921F001010161F8
:101A6000F0BD0000000001400004004000080040FC
:101A7000000C0040000401400040014000440140CF
:101A80000048014000180040001C004000200040B9
:101A900010B5806B0021C185C184FFF7A5FB10BD87
:101AA00001680C3151E8002F22F4907241E80023C4
:101AB000002BF5D10168143151E8002F22F001020A
:101AC00041E80023002BF5D1016B012909D1016800
:101AD0000C3151E8002F22F0100241E80023002BC6
:101AE000F5D1202180F8421000210163704708B52C
:101AF00090F84210222901D0022008BD82684FF4DC
:101B000080539A4201D1016921B1816A9A421BD066
:101B10004AB10AE00268816A5268C2F308020A8088
:101B2000816A891C08E0026972B10268526802F099
:101B30007F020A70816A491C8162C18D491E0904B5
:101B4000090CC18503D01BE002685268F1E7016807
:101B5000CA6822F02002CA600168CA6822F4807252
:101B6000CA6001684A6922F001024A61202180F8B6
:101B7000421000214163026B012A03D0FFF7E2FC0F
:101B8000002008BD016301680C3151E8002F22F0EC
:101B9000100241E80023002BF5D101680A68D20643
:101BA00002D50A6849680091818DFFF71CFBE7E7C1
:101BB00070B5044600680169E26821F440511143A0
:101BC00001612169A068E269084361691143084322
:101BD0002168CA6849F20C639A430243CA602068CC
:101BE0004169A26921F44071114341613149206882
:101BF000884202D03049884202D1FEF769FF01E0F5
:101C0000FEF756FFE2690023192164253226B2F55A
:101C1000004F626828D0A0FB0101930F9200FEF7ED
:101C20002FFB0146B0FBF5F06FF01802504301EBBB
:101C3000800006EB0010B0FBF5F000F0F002B1FB05
:101C4000F5F002EB0012B1FBF5F06FF0180358430A
:101C500001EB800006EB0010B0FBF5F000F00F0088
:101C600021681044886070BDA0FB010192185B419F
:101C7000FEF706FB0146B0FBF5F00201B1FBF5F003
:101C80006FF01803584301EB800006EBC000B0FB77
:101C9000F5F000F0F80002EB4002B1FBF5F058431C
:101CA00001EB800006EBC000B0FBF5F000F0070090
:101CB000D6E7000000100140001401400A4808B5B2
:101CC00000680168C943890609D440688DF800009E
:101CD000064800231A466946006801F02FFD0248B5
:101CE000FFF784FA08BD0000500A00202000002001
:101CF000FEE700004FF0FF382F4D304CDFF8C0906A
:101D0000012621464246286A01F078FD012845D186
:101D1000A119761CF6B23222286A01F06FFD002864
:101D2000F6D1A055254927A000F06AF82348FEF710
:101D3000FCFAC7B2072224A12048FEF7FDFA70B9C9
:101D4000E01910F8010C3038C6B2314620A000F07E
:101D500057F85EB1012E0CD021A000F051F80822F6
:101D600024A11648FEF7E8FA48B117E00022012145
:101D700001E0002202214846FEF711FDEFE7E019DD
:101D800010F8010C3038C6B2314611A000F038F816
:101D90004EB1012E0AD012A000F032F841F2883084
:101DA00000F0EFF9ACE70122114601E00122022127
:101DB0004846FEF7F4FCF1E700000020D4000020C4
:101DC0000010024025730A006F70656E6C65640038
:101DD00070696E5F706F72742025640A00000000E5
:101DE000636D6420697320696C6C6567616C210A9E
:101DF00000000000636C6F73656C65640000000098
:101E00000FB4054B10B503A9044A029800F028F856
:101E100010BC5DF814FB000039210008D000002040
:101E20000907090E002804DB00F1E02080F8001407
:101E3000704700F00F0000F1E02080F8141D70479B
:101E400002E008C8121F08C1002AFAD17047704783
:101E5000002001E001C1121F002AFBD170470000E1
:101E60002DE9FF4F8DB09B460F460446002606E045
:101E700025280BD05A460F999047641C761C207871
:101E80000028F5D111B03046BDE8F08F0025A846F6
:101E90000122984900E0054314F8013F203B02FA73
:101EA00003F00842F7D120782E2817D114F8010F3B
:101EB00045F004052A280ED06FF02F022078A0F1FB
:101EC000300109290AD808EB880102EB410100EB37
:101ED0000108641CF2E757F8048B641C20786C2816
:101EE0000DD004DC4C2812D06A2811D104E07428EB
:101EF0000DD07A280CD10AE045F4001507E061788E
:101F000045F48015814202D1641C05F58015641CDE
:101F10002278692A45D008DC002AB3D0582A69D033
:101F2000632A10D0642A08D13BE0702A67D0732A54
:101F300013D0752A5CD0782A5CD010465A460F9987
:101F40009047761CD3E017F8040B8DF800000020B2
:101F50008DF80100E946012003E057F8049B4FF09B
:101F6000FF3069074FF0000501D40AE06D1C4545BC
:101F70000DDA8542FADB19F805100029F6D106E0E2
:101F80006D1C8542FCDB19F805100029F8D12E44A0
:101F900004E019F8010B5A460F9990476D1EF8D2CC
:101FA000A5E00A200021CDE90801C5F3025002286E
:101FB0000DD001CFC117031E71F100030DDA4FF0F0
:101FC000000CD0EB0C006CEB01012D2308E0FF1D91
:101FD00027F00707F7E80201EDE72B0504D52B23CF
:101FE0008DF8283001233BE0EB0739D02023F7E7B9
:101FF0000A2000E010200021CDE9080107E01020B0
:10200000002145F00405CDE908014FF00808C5F3AB
:10201000025002280FD001CF00214FF0000A2B07F9
:102020001FD5702A0DD0DDE908C38CF0100C5CEAD6
:10203000030C0CD015E0FF1D27F00707F7E802019D
:10204000EBE740228DF828204FF0010A0BE050EA20
:10205000010306D030238DF828308DF82920022383
:102060009A46582A04D024A20DF120090B9209E0C7
:1020700026A2F9E7DDE90823FEF702F90B9B9B5C3A
:1020800009F8013D50EA0102F4D1ADEB090020301E
:102090000890680701D44FF001080899884502DDCF
:1020A000A8EB010000E000208046002506E00AA819
:1020B0005A46405D0F9990476D1C761C5545F6DBDE
:1020C00004E030205A460F999047761CB8F1000181
:1020D000A8F10108F5DC05E019F8010B5A460F9943
:1020E0009047761C0899481E08900029F4DC641C6F
:1020F000C5E6000009280100303132333435363767
:102100003839616263646566000000003031323343
:1021100034353637383941424344454600000000E3
:1021200010B50348FEF7A0FF02490020086010BD6B
:10213000080A00203800002003490A685206FCD52E
:10214000C2B24A60704700000010014001480068B8
:102150007047000038000020FEF734FBFFF7CCFB8F
:10216000FFF7F2FAFFF78EFBFFF76AFBFFF754FA6F
:1021700000F00EF8FEE701460020842900D0C81CBC
:10218000704710B500B9012000F03EFE002010BDE0
:1021900010B500F047FF002010BD38B5D0E901129E
:1021A00004683AB1C3682BB100200090204601F0CA
:1021B0009DF938BD2046BDE83840002201F075B9D0
:1021C00041684FF0010009B101F062B901F055B961
:1021D00041684FF0040009B101F05AB901F04DB95E
:1021E00038B542687AB1012904D0BDE838400846C4
:1021F00001F023B90320134600220090114601206C
:1022000001F074F938BD012904D0BDE83840084612
:1022100001F0F6B803220021012001F046F9040084
:1022200004D000231A46194601F0D8F9204638BDDB
:102230007FB50D4604464169B0F9080081B1A16936
:1022400071B1FFF798FFD4E905128DE80700D4E9D2
:1022500000102B46226901F0D4FB039004B070BD3E
:10226000FFF789FF03A9CDE90001208A2B4682B23E
:10227000D4E9001001F098FB012801D00020EDE71F
:102280000398EBE72DE9F041184C0F460546E66848
:102290002068001D00F066FC38B9206890F82C100A
:1022A00001208840216981432161681C07D137B131
:1022B0002168BDE8F0410E48091D00F0C1BC20684E
:1022C0003544B5424560216805D2206CBDE8F04137
:1022D000091D00F09DBCE06B091D00F099FCA06A8F
:1022E000854200D2A562BDE8F08100004C000020CC
:1022F000FC0B00202DE9F041054600F0ADFC2E4C12
:10230000A068401CA06020682C4F10B1606940B3E9
:102310002DE02560A068012829D1002606EB860063
:1023200007EB800000F066FC761C072EF6D32348EE
:102330008C3000F05FFC2148A03000F05BFC1F48AF
:10234000B43000F057FC1D48C83000F053FC1B4867
:10235000DC3000F04FFC19488C30E063143020640E
:1023600005E02068E96AC06A884200D82560606A92
:10237000401C60626864E96A012022698840104359
:10238000206101EB810007EB8000291D00F058FC63
:1023900000F082FC606900280CD02068E96AC06AFD
:1023A000884207D206494FF080500860BFF34F8F34
:1023B000BFF36F8FBDE8F0814C000020200B0020A0
:1023C00004ED00E038B500F047FC104C2068C8B9B7
:1023D0000F4800F00FFC0E48143000F00BFC0C48C6
:1023E000E060143020610A4B0020F03B009003F1C4
:1023F000500210210A2001F079F8206010B105A1E7
:1024000000F0CCFCBDE8384000F046BC9000002055
:10241000000D0020546D72510000000030B4026CB9
:102420000B46002A0BD0C1681144C1608468A142E8
:1024300001D30168C16030BC1846FDF752BF30BC03
:1024400070472DE9F041856B174604460026026C63
:1024500082B1C7B1E068FDF744FFE168206C091A5A
:10246000E1602268914202D2A168081AE060022F5E
:1024700016D017E02068A8B9A06801F067FB0646EF
:102480000020A0600EE06068FDF72BFF216C606803
:1024900008446060A168884204D32068606001E05D
:1024A00005B16D1E6D1CA5633046BDE8F08110B509
:1024B000044690F85D0058B101280CD002280FD0D6
:1024C000502080F31188BFF34F8FBFF36F8FFEE76B
:1024D000206B00F0F5FB2046BDE8104000F0F0BB9B
:1024E00010BD000010484FF47051420706D0C01DC7
:1024F0000D4920F00700411AC1F570510B4A002325
:102500000144C2E900030839183A21F007011160BB
:102510004B600B600B1AC0E9001393604FF0004052
:102520005360506170470000280D0020BC0000205F
:10253000144E154CA6F1C8074FF08058DFF84C90A8
:1025400012E000BF00F088FBF068C568281D00F0AD
:1025500009FBA068401EA0606068401E606000F03B
:102560009BFB2846FFF7A3FF60680028EAD1386884
:102570000128F9D9C9F80080BFF34F8FBFF36F8FDF
:10258000F2E70000E80B00204C00002004ED00E022
:10259000002807D00021816001600B460A46C16017
:1025A00001F01CB87047000070B51D46049C51B185
:1025B000C4F80020C4E90F010121204600F0CAFF41
:1025C00084F84C5070BD2460F4E700002DE9F05F02
:1025D0008846DDE90B941546834691009A460A9E8B
:1025E000A522206BFDF78FFE6FF00301206B01EB3E
:1025F0008501084420F00707780707D0502080F3B2
:102600001188BFF34F8FBFF36F8FFEE70025B8F13E
:10261000000F0FD05FF00000221818F8001082F8A9
:10262000341018F8001011B1401C1028F4D384F8AD
:10263000435001E084F83450072E00D30626E662AA
:10264000C4E91365201D00F0E0FA04F1180000F061
:10265000DCFA2461C6F107006462A0616565A565C6
:1026600084F85C5052465946384600F065FA2060BE
:10267000B9F1000F01D0C9F80040BDE8F09F00009B
:1026800030B5114900E011460A688242FBD34B681D
:102690005C18844203D14068184448600846436887
:1026A0001C18944209D1084C183C2468A24209D055
:1026B00052681A4442600A6812680260814200D07F
:1026C000086030BD0460F9E7BC00002070B500244C
:1026D00041600B4D0061914206D8D11A8269914246
:1026E00006D2011D286907E09A4203D2994201D31C
:1026F000012403E0011DE86800F08AFA204670BD5D
:102700009000002010B5044600F0A6FAA06B28B196
:102710005FF0000400F0C0FA204610BD0124F9E784
:1027200030B589B03C4D6EE00498002806DADDE94A
:102730000601059A90470498002864DB069C6069AE
:1027400010B1201D00F00EFA03A800F0D7F80246E1
:1027500004980A2857D2DFE800F00505052D334A12
:1027600005052D3394F8280040F0010084F8280076
:102770000599A069059B01442046FFF7A7FF68B3B0
:10278000216A2046884794F8280040073BD500205E
:1027900000900598A169002342181946204601F0CF
:1027A000EDFAD8B9502080F31188BFF34F8FBFF3F3
:1027B0006F8FFEE714F8280F20F00100207022E050
:1027C00094F8280040F0010084F828000598A061E2
:1027D00028B1811813462046FFF778FF13E05020F8
:1027E00080F31188BFF34F8FBFF36F8FFEE794F82C
:1027F0002800810703D4204600F062FA03E020F0AD
:10280000010084F82800002204A9286800F0F6FFDF
:10281000002889D109B030BD900000202DE9FC418D
:102820000F46054600F044FC01A800F067F8044696
:10283000019818B101F010FABDE8FC81254EAFB146
:1028400030690068D0B30027291B3A46306800F091
:10285000B9FA01F001FA0028EED11F494FF080507B
:102860000860BFF34F8FBFF36F8FE5E7A542EBD84A
:1028700001F0F2F9F0682746C068C468201D00F036
:1028800071F994F82800410719D5A0692B46411920
:102890003A462046FFF71AFFA8B10020034601463A
:1028A00000902A46204601F069FA60B9502080F372
:1028B0001188BFF34F8FBFF36F8FFEE707E020F063
:1028C000010084F82800216A20468847B4E70127E0
:1028D000BAE700009000002004ED00E00648C16B5C
:1028E000096829B1C16BC968C968496881627047C4
:1028F0004FF0FF31FAE700004C00002070B50546AC
:1029000001F0B8F8064E0446B068844203D200F0E5
:1029100009F8012000E0002028602046B46070BD66
:1029200090000020F8B5194D20E0C068C468066822
:10293000201D00F017F9216A2046884794F82800E6
:10294000400713D5A0693044B04206D924616060C5
:10295000211DE86800F05CF908E00020034601460C
:1029600000903246204601F009FA38B1E868016863
:102970000029DAD12969C5E90310F8BD502080F398
:102980001188BFF34F8FBFF36F8FFEE790000020D9
:1029900008484068401C4FF0500080F3118804D074
:1029A000BFF34F8FBFF36F8FFEE7BFF34F8FBFF3C0
:1029B0006F8FFEE7C40000200346002012B1994348
:1029C00002D070470B42FCD001207047074CE068F2
:1029D000016841B1C0680021D0F80000FFF71EFF78
:1029E000FFF79EFEF3E701210020F7E790000020AB
:1029F0002DE9F041044600F02FF994F9455004F117
:102A0000240609E0606A48B1304601F0EBF808B1ED
:102A100000F06EFA6D1E6DB2002DF3DC4FF0FF3644
:102A200084F8456000F038F900F016F994F9445044
:102A300004F1100709E0206948B1384601F0D2F8E6
:102A400008B100F055FA6D1E6DB2002DF3DC84F86C
:102A50004460BDE8F04100F01FB900002DE9F041ED
:102A60000546002700F024FB324E306808B9FFF716
:102A700039FD706905424ED1C5B3083568070ED0DF
:102A800005F00700C0F108000544680707D0502092
:102A900080F31188BFF34F8FBFF36F8FFEE72DB325
:102AA0007068854237D82348183001460C6801E029
:102AB00020460C466168A94202D221680029F7D15C
:102AC00031688C4227D00768216801606068083748
:102AD000411B10290FD96019420708D0502080F3FC
:102AE0001188BFF34F8FBFF36F8FFEE713E0416094
:102AF0006560FFF7C5FD61687068401A7060B26874
:102B0000904200D2B060706901430020C4E9000126
:102B1000F068401CF06001F09FF8780707D0502063
:102B200080F31188BFF34F8FBFF36F8FFEE73846F6
:102B3000BDE8F081A400002010B5031F4FF08074A1
:102B40001C601B1F21F001011960191F044B0B6051
:102B500014390A60091F6FF0020244380A6010BD80
:102B600091290008D0E9013201699A60D0E9012376
:102B70005A604A68824201D182684A60002202613A
:102B80000868401E0860086870470000044908682B
:102B90000A688069D26A0968C2F107028A617047CF
:102BA0004C000020034B036003F1600008608020AC
:102BB00010607047E8000020044B036003F16000E0
:102BC00008604FF4807010607047000048030020D8
:102BD00001A0FFF715B90000257320697320537415
:102BE00061636B204F766572466C6F77210D0A002A
:102BF00000F0BABA00F108014FF0FF32C0E901124B
:102C0000C1600161002101607047002101617047CE
:102C100030B50B685A1C02D000F1080202E00269CC
:102C200004E02246546825689D42FAD953684B60F7
:102C300099608A60516008610168491C016030BD7B
:102C400042684A6093688B6093685960916008613C
:102C50000168491C01607047502080F31188BFF360
:102C60004F8FBFF36F8F0A494868401C48600128A6
:102C70000CD10848006810F0FF0F07D0502080F3F7
:102C80001188BFF34F8FBFF36F8FFEE770470000CF
:102C9000C400002004ED00E00849486828B1401E47
:102CA000486001D180F311887047502080F311886B
:102CB000BFF34F8FBFF36F8FFEE70000C40000200B
:102CC00070B500282AD0164DA0F108046068696923
:102CD000084207D1502080F31188BFF34F8FBFF314
:102CE0006F8FFEE722683AB1502080F31188BFF35E
:102CF0004F8FBFF36F8FFEE78843606000F0D8F915
:102D000060686968084468602046FFF7B9FC286974
:102D1000401C2861BDE8704000F09EBF70BD0000FF
:102D2000A40000204FF0E0200021016181610549ED
:102D30004FF47A720968B1FBF2F1491E4161072133
:102D4000016170474800002010B5FDF783FA114972
:102D500010280ED300F1E02090F8F0030A7890429A
:102D600007D2502080F31188BFF34F8FBFF36F8FCE
:102D7000FEE709480068896800F4E060884207D9E6
:102D8000502080F31188BFF34F8FBFF36F8FFEE7A2
:102D900010BD0000C40000200CED00E010B5084B91
:102DA000002200BF53F832401CB1521C082AF9D34C
:102DB00010BD43F8321003EBC201486010BD0000A3
:102DC000E00A002070B515460E460446FFF744FFA2
:102DD00094F944100020491C01D184F8440094F96E
:102DE0004510491C01D184F84500FFF755FFA06B41
:102DF00028B92A46314604F1240000F097F820460D
:102E0000BDE87040FFF7F4BD10B5020014D00F48C4
:102E1000006B38B1502080F31188BFF34F8FBFF3A0
:102E20006F8FFEE700F044F900211046FFF72AFA01
:102E300000F012FF002807D105494FF080500860CC
:102E4000BFF34F8FBFF36F8F10BD00004C00002009
:102E500004ED00E070B50D4604000BD095B11E4A9C
:102E6000106BB8B1502080F31188BFF34F8FBFF3C0
:102E70006F8FFEE7502080F31188BFF34F8FBFF3B1
:102E80006F8FFEE7502080F31188BFF34F8FBFF3A1
:102E90006F8FFEE700F00CF9D2682368591993424E
:102EA00004D98B420AD9914202D807E08B42FAD961
:102EB000881A21600021FFF7E5F900E0216000F0A9
:102EC000CBFE002807D105494FF080500860BFF3C2
:102ED0004F8FBFF36F8F70BD4C00002004ED00E0FA
:102EE00002490A6A0260C968416070474C000020CC
:102EF00001490120C86170474C00002010B50C4604
:102F000050B1094909681831FFF782FE2046BDE833
:102F100010400121FFF7B6B9502080F31188BFF3AC
:102F20004F8FBFF36F8FFEE74C00002070B5144643
:102F30000D4668B10A4909681831FFF781FE0CB1E6
:102F40004FF0FF3521462846BDE87040FFF79AB99B
:102F5000502080F31188BFF34F8FBFF36F8FFEE7D0
:102F60004C00002010B51446030011D01048026B2D
:102F7000B2B1026841F00041916101681846183110
:102F8000FFF75EFE2046BDE810400121FFF77AB949
:102F9000502080F31188BFF34F8FBFF36F8FFEE790
:102FA000502080F31188BFF34F8FBFF36F8FFEE780
:102FB0004C00002070B5194E326BFAB141F000415F
:102FC0000160C46814B3FFF7CDFD201DFFF7CAFDF3
:102FD000E16A0125326905FA01F01043306101EB25
:102FE00081000F4901EB8000211DFFF729FEE06AF7
:102FF0003168C96A884200D9F56170BD502080F3FC
:103000001188BFF34F8FBFF36F8FFEE7502080F31F
:103010001188BFF34F8FBFF36F8FFEE74C00002086
:10302000200B002030B587B00024039405AA04A922
:1030300003A80494FFF7B6FDDDE903010094CDE990
:103040000110002316A11848059A00F0DAFC174D6C
:103050000028E86221D000F061FE012809D0401C60
:103060001BD1502080F31188BFF34F8FBFF36F8FB8
:10307000FEE7502080F31188BFF34F8FBFF36F8FAF
:103080004FF0FF30A86201206861EC60FFF748F85C
:1030900007B0BDE8304000F039B907B030BD0000DE
:1030A00049444C4500000000312500084C00002038
:1030B0000248016B491C0163704700004C0000206E
:1030C00010B5204C206B10B10120E06110BD002034
:1030D000E061FFF73BF8A063626B904204D921687E
:1030E000821A4B6D1A444A65606320682168006843
:1030F000096B884204D8216820683431FFF768FDE5
:1031000020691149B0FA80F0C0F11F0000EB800087
:1031100051F820206AB101EB800000F108024168FB
:1031200049684160914201D149684160C8682060A6
:1031300010BD502080F31188BFF34F8FBFF36F8F06
:10314000FEE700004C000020200B002070B520207E
:10315000FFF784FC040005D00025201D2560FFF743
:1031600049FD2577204670BD2DE9F04100278846AE
:1031700004000AD05FEA18600FD0502080F3118855
:10318000BFF34F8FBFF36F8FFEE7502080F311889E
:10319000BFF34F8FBFF36F8FFEE7261D04F10C05C1
:1031A000FFF786FF2168F06841EA0801216017E017
:1031B000D0E9001601F07F425301236821F07F41DE
:1031C00002D40B4203D10AE031EA030307D1D20152
:1031D00000D50F43216841F00071FFF7EBFE304648
:1031E000A842E5D12068B843206000F035FD206892
:1031F000BDE8F08113460A460146014800F0F2BDE1
:10320000F12B00082DE9F0479A46DDF82090904612
:103210000D4604004FF0000709D0280E0FD05020B3
:1032200080F31188BFF34F8FBFF36F8FFEE75020FD
:1032300080F31188BFF34F8FBFF36F8FFEE71DB18F
:1032400000F00AFC40B112E0502080F31188BFF377
:103250004F8FBFF36F8FFEE7B9F1000F07D05020FB
:1032600080F31188BFF34F8FBFF36F8FFEE7FFF737
:103270001FFF2668524629463046FFF79DFB30B1B6
:10328000B8F1000F1AD02068A843206016E0B9F109
:10329000000F13D0B8F1000F01D04FF08077BAF1D2
:1032A000000F01D047F0806745EA07014A46201D1C
:1032B000FFF758FE00F0D0FC18B10AE000F0CCFC9B
:1032C0001FE011494FF080500860BFF34F8FBFF3EC
:1032D0006F8FFFF75BFC0646800110D4FFF7BCFC44
:1032E0002668524629463046FFF766FB28B1B8F1FA
:1032F000000F02D02068A8432060FFF7CDFC26F025
:103300007F463046BDE8F08704ED00E01CB5374845
:103310000168374A914207D1502080F31188BFF3EA
:103320004F8FBFF36F8FFEE700683149491E884217
:1033300007D1502080F31188BFF34F8FBFF36F8FF9
:10334000FEE72C4908780190FF20087008788DF876
:1033500000009DF800009DF8002000F0F000904271
:1033600007D0502080F31188BFF34F8FBFF36F8FCA
:10337000FEE79DF80000204C00F050002070072070
:10338000A06005E09DF8002052008DF80020401E4E
:103390009DF800201206F5D4A060032807D0502025
:1033A00080F31188BFF34F8FBFF36F8FFEE74FF4A9
:1033B0004070A060019808700C482030016841F40A
:1033C00070010160016841F070410160FFF7AAFCE3
:1033D00000206060FCF706FF0848016841F04041AA
:1033E0000160FCF7EBFE00201CBD000000ED00E0DA
:1033F00071C20F4100E400E0C400002034EF00E09F
:1034000010B50C4648B184420FD9502080F3118882
:10341000BFF34F8FBFF36F8FFEE7502080F311880B
:10342000BFF34F8FBFF36F8FFEE70222002100F042
:103430003CF8002800D0846310BD38B50C4648B174
:1034400084420FD9502080F31188BFF34F8FBFF310
:103450006F8FFEE7502080F31188BFF34F8FBFF3CB
:103460006F8FFEE70221134600220091114600F003
:103470003DF8002800D0846338BD10B50246002115
:10348000012000F012F80446FFF782F8204610BD34
:1034900038B50B46002200901146012000F026F8B6
:1034A0000446FFF775F8204638BDF8B517460E46B6
:1034B000050013D005FB06F05030FFF7CFFA0400EB
:1034C0000AD0002084F8460004F150023B46314601
:1034D00028460094FFF768F82046F8BD502080F396
:1034E0001188BFF34F8FBFF36F8FFEE738B5049D90
:1034F00018B153B1CAB181B120E0502080F31188D6
:10350000BFF34F8FBFF36F8FFEE7502080F311881A
:10351000BFF34F8FBFF36F8FFEE7502080F311880A
:10352000BFF34F8FBFF36F8FFEE739B1502080F3A9
:103530001188BFF34F8FBFF36F8FFEE750241C46F7
:10354000012384F846302B460094FFF72DF82046DF
:1035500038BD000070B50D46040025D0FFF77CFB98
:10356000D4E90F20216802FB0011A1600021A163B2
:10357000216861600A46D4E90F01401E00FB012169
:10358000E16021464FF0FF3001F8440F487004F12C
:1035900010008DB1FFF72EFB04F12400FFF72AFB8A
:1035A000FFF77AFB012070BD502080F31188BFF334
:1035B0004F8FBFF36F8FFEE721690029F0D000F035
:1035C00011FB0028ECD004494FF080500860BFF395
:1035D0004F8FBFF36F8FE3E704ED00E02DE9FF4766
:1035E00082B01D468A464FF00008040003D0BAF1AD
:1035F000000F08D011E0502080F31188BFF34F8FE7
:10360000BFF36F8FFEE7206C38B1502080F3118834
:10361000BFF34F8FBFF36F8FFEE7022D0AD1E06B30
:10362000012807D0502080F31188BFF34F8FBFF3DC
:103630006F8FFEE700F010FA3F4F4FF000094FF098
:10364000805648B9049838B1502080F31188BFF3F0
:103650004F8FBFF36F8FFEE7FFF7FEFAA06BE16BB2
:10366000884207D3022D05D00498D0B1B8F1000FDD
:103670001AD01EE02A4651462046FEF7E2FE616A55
:1036800019B104F1240000F0ADFA20B13E60BFF39F
:103690004F8FBFF36F8FFFF7FFFA012006B0BDE831
:1036A000F087FFF7F9FA22E06846FFF719FC4FF0C0
:1036B0000108FFF7F1FAFFF7FBFCFFF7CDFA94F9E9
:1036C0004400401C01D184F8449094F94500401C0A
:1036D00001D184F84590FFF7DFFA04A9684600F0AD
:1036E00029F930B12046FFF783F900F0B5FA002040
:1036F000D4E7FFF7B1FAA06BE16B884213D1FFF773
:10370000CBFA04F110000499FFF7F8FB2046FFF70D
:103710006FF900F0A1FA00289ED13E60BFF34F8FF1
:10372000BFF36F8F98E7FFF7B7FA2046FFF760F90E
:1037300000F092FA90E7000004ED00E02DE9F04778
:103740001F4690468946040003D0B9F1000F08D007
:1037500011E0502080F31188BFF34F8FBFF36F8FBC
:10376000FEE7206C38B1502080F31188BFF34F8FF3
:10377000BFF36F8FFEE7022F0AD1E06B012807D05D
:10378000502080F31188BFF34F8FBFF36F8FFEE798
:10379000FFF7DAFA5020EFF3118680F31188BFF3B8
:1037A0004F8FBFF36F8FA06BE16B884206D3022F60
:1037B00004D0002086F31188BDE8F08794F94550C5
:1037C000A06B3A4649462046FEF73BFE681C04D0F3
:1037D0006D1C84F845500120ECE7606A0028FAD09F
:1037E00004F1240000F0FEF90028F4D0B8F1000F35
:1037F000F1D00121C8F80010EDE700002DE9F747EE
:10380000002683B08A46040003D0BAF1000F08D026
:1038100011E0502080F31188BFF34F8FBFF36F8FFB
:10382000FEE7206C38B1502080F31188BFF34F8F32
:10383000BFF36F8FFEE700F00FF9DFF8F4804FF071
:1038400000094FF0805748B9059838B1502080F3EF
:103850001188BFF34F8FBFF36F8FFEE7FFF7FCF9BF
:10386000A56BC5B151462046FEF7D8FD6D1EA56378
:10387000206950B104F1100000F0B4F928B1C8F883
:103880000070BFF34F8FBFF36F8FFFF705FA012072
:1038900006B0BDE8F087059808B11EB106E0FFF755
:1038A000FBF927E06846FFF71BFB0126FFF7F4F959
:1038B000FFF7FEFBFFF7D0F994F94400401C01D15B
:1038C00084F8449094F94500401C01D184F8459057
:1038D000FFF7E2F905A9684600F02CF80028204619
:1038E0000AD0FFF785F800F0B7F92046FEF70AFF87
:1038F0000028B3D00020CBE7FEF704FF90B104F11D
:1039000024000599FFF7FAFA2046FFF771F800F056
:10391000A3F90028A2D1C8F80070BFF34F8FBFF3FE
:103920006F8F9BE72046FFF763F800F095F995E766
:1039300004ED00E02DE9F0410C46050011D0C4B1C2
:10394000FFF78AF9174BDA686E682068911B471CED
:1039500017D02F681B6A9F4219D0964217D80124AE
:1039600010E0502080F31188BFF34F8FBFF36F8FAB
:10397000FEE7502080F31188BFF34F8FBFF36F8FA6
:10398000FEE70024FFF788F92046BDE8F081884271
:1039900005D9401A20602846FFF7A2FAF1E7002077
:1039A0002060DCE74C0000202DE9FF5F8346DDE965
:1039B0000E87994616468A469000FFF74FF8050095
:1039C0001CD06020FFF74AF8040014D000202563C3
:1039D00084F85D00CDE90240CDE900874B463246D0
:1039E00051465846FEF7F2FD2046FEF783FC0120C3
:1039F00004B0BDE8F09F2846FFF762F94FF0FF30B2
:103A0000F6E7F0B585B0DDE90B640A9DA6B1DCB13F
:103A1000602700972663022684F85D60002604AFC5
:103A2000CDE90246CDE90057FEF7D0FD2046FEF76E
:103A300061FC049805B0F0BD502080F31188BFF3FD
:103A40004F8FBFF36F8FFEE7502080F31188BFF3D5
:103A50004F8FBFF36F8FFEE70548416919B1006BC7
:103A600018B1002070470120704702207047000005
:103A70004C0000200148C068704700004C00002046
:103A80002DE9F0412F4C0026206B28B1A069401C85
:103A9000A0613046BDE8F081E5686D1CE56013D19A
:103AA000E06B006838B1502080F31188BFF34F8F6E
:103AB000BFF36F8FFEE7E06B216CE1632064206A47
:103AC000401C2062FEF70AFFA06ADFF87C80854276
:103AD00009D3E06B0068A0B1E06BC068C768786884
:103AE000854211D2A0622068C06A00EB800158F8BC
:103AF0002100012800D90126E0690028C9D001264B
:103B0000C7E74FF0FF30EDE7381DFFF72BF8B86A35
:103B100018B107F11800FFF725F8F96A01202269AA
:103B200088401043206101EB810108EB8100391DC1
:103B3000FFF786F8F86A2168C96A8842C9D3012666
:103B4000C7E700004C000020200B002070B50400E7
:103B50004FF0000140D0214D2868844207D050200A
:103B600080F31188BFF34F8FBFF36F8FFEE7206D97
:103B700038B1401E2065E36CE26A9A422CD040B115
:103B80002AE0502080F31188BFF34F8FBFF36F8F6F
:103B9000FEE7201DFEF7E6FF114A012150B9E06A59
:103BA00000EB800352F8233023B92B6901FA00F0AF
:103BB00083432B61E06CE062C0F10700A061E06A22
:103BC0002B6981401943296100EB800002EB8000E2
:103BD000211DFFF735F80121084670BD4C0000207B
:103BE000200B00202DE9F041C068C468ACB104F19D
:103BF00018000746FEF7B6FF154D286B0126A0B149
:103C000039461448FFF71CF8E06A2968C96A8842F7
:103C10001CD90120EE61BDE8F081502080F31188AD
:103C2000BFF34F8FBFF36F8FFEE7201DFEF79AFFA4
:103C3000E16A2A6906FA01F01043286101EB81006C
:103C40000449B43901EB8000211DDBE70020E2E7E5
:103C50004C000020D40B00202DE9F0472C4D00240F
:103C60002746286B38B1FEF7F7FF286B401E286304
:103C7000286B40B146E0502080F31188BFF34F8F8E
:103C8000BFF36F8FFEE7A968224E0120D1B3A6F1E2
:103C9000B40980463068E8B1F068C46804F11800DF
:103CA000FEF760FF201DFEF75DFFE06A2A6908FA53
:103CB00000F11143296100EB800109EB8100211D16
:103CC000FEF7BEFFE06A2968C96A8842E2D3C5F8F8
:103CD0001C80DFE70CB1FEF701FEAC6944B146463B
:103CE000FFF7CEFE00B1EE61641EF9D10020A8619D
:103CF000E86938B10849012738070860BFF34F8FDA
:103D0000BFF36F8FFEF7C8FF3846BDE8F0870000AD
:103D10004C000020D40B002004ED00E010B586B06C
:103D2000FEF750FB114C2068B8B1002003900490BE
:103D300005AA04A903A8FEF73FFFDDE9032102203D
:103D40008DE8070000230AA10B48059AFFF759FEEA
:103D5000606010B106B0012010BD502080F31188C2
:103D6000BFF34F8FBFF36F8FFEE70000900000207E
:103D7000546D722053766300CD2900082DE9FF4170
:103D80001E46134602000A9D4FF0000016D0144C48
:103D90002768002F0FD0CDE900130292062917DA09
:103DA000FFF75AFE02284FF000030FD000226946A9
:103DB0002068FFF713FC04B0BDE8F081502080F3C9
:103DC0001188BFF34F8FBFF36F8FFEE72A46EEE7F0
:103DD0000023324669463846FFF7B0FCEBE70000A7
:103DE000900000201FB51C466FF00103CDE90030A4
:103DF000CDE9021204480023224669460068FFF715
:103E00009DFC04B010BD00009000002014000000D4
:103E10000100000000000000000000001C3F00083E
:103E2000F51C0008FEFF00000000000080000000FC
:103E3000A8070020A8090020F83E0008BD150008CA
:103E400000000000000000008000000000000000F2
:103E5000000000003C3F0008B11500080000000011
:103E600000000000800000000000000000000000D2
:103E7000303F0008BD030008FEFF00000000000006
:103E8000800000000000000000000000103F00085B
:103E90004D15000802000000000000008000000036
:103EA0000000000000000000043F0008BF180008E8
:103EB0000000000000000000800000000000000082
:103EC00000000000283F0008C9150008FEFF0000A0
:103ED0000000000080000000000000000000000062
:103EE00000000000000000000102030406070809AA
:103EF00000000000010203044C6564305461736BE0
:103F0000000000004D6964646C655461736B0000CF
:103F1000486967685461736B0000000055736172F3
:103F2000745461736B0000004C6F775461736B00C5
:103F300044656C61795461736B0000004B65795482
:103F400061736B00643F000800000020D400000093
:103F5000401E000838400008D4000020544C0000E7
:103F6000501E0008000000000000000000000000DB
:103F70000000000000000000000000000000000041
:103F80000000000000000000000000000000000031
:103F90000000000000000000000000000000000021
:103FA0000100000010000000000000000024F400E8
:103FB0000000000000000000000000000000000001
:103FC00000000000000000000000000000000000F1
:103FD00000000000000000000000000000000000E1
:103FE00000000000000000000000000000000000D1
:103FF00000000000000000000000000000000000C1
:1040000000000000000000000000000000000000B0
:1040100000000000000000000000000000000000A0
:10402000000000000000000000000000AAAAAAAAE8
:08403000000000000000000088
:040000050800018965
:00000001FF
