:020000040800F2
:10000000180500209D010008B71400089D12000883
:10001000B5140008BD0700088D1800080000000096
:10002000000000000000000000000000DB140008D9
:10003000BF07000800000000D9140008DD14000804
:10004000B7010008B7010008B7010008B7010008B0
:10005000B7010008B7010008B7010008B7010008A0
:10006000B7010008B7010008B7010008B701000890
:10007000B7010008B7010008B7010008B701000880
:10008000B7010008B7010008B7010008B701000870
:10009000B7010008B7010008B7010008B701000860
:1000A000B7010008B7010008B7010008B701000850
:1000B000B7010008B7010008B7010008B701000840
:1000C000B7010008B7010008B7010008B701000830
:1000D000B7010008B7010008B7010008B701000820
:1000E000B7010008B7010008B7010008B701000810
:1000F000B7010008B7010008B7010008B701000800
:10010000B7010008B7010008B7010008B7010008EF
:10011000B7010008B7010008B7010008B7010008DF
:10012000B7010008B7010008B7010008B7010008CF
:10013000B7010008B7010008B7010008B7010008BF
:10014000B7010008B7010008B7010008B7010008AF
:10015000B7010008B7010008B7010008B70100089F
:10016000B7010008B7010008B7010008B70100088F
:10017000B7010008B7010008B7010008000000003F
:10018000B7010008B7010008DFF80CD000F0F2FA60
:1001900000480047D963000818050020064880473A
:1001A00006480047FEE7FEE7FEE7FEE7FEE7FEE75C
:1001B000FEE7FEE7FEE7FEE78D150008890100086F
:1001C0002DE9F05F0546002092469B46884606468C
:1001D000814640241BE0284641464746224600F01F
:1001E0009CF953465A46C01A914110D311461846FD
:1001F000224600F083F92D1A67EB01084F4622468C
:100200000120002100F07AF917EB00094E41201E71
:10021000A4F10104DFDC484631462A464346BDE8E6
:10022000F09F10B5002200E0521C835C8C5CA3425E
:1002300001D1002BF8D1D8B2E1B2401A10BD2DE99E
:10024000FE4F81EA030404F0004421F000410094D1
:100250004FF0000B23F0004350EA01045ED052EA55
:1002600003045BD0C3F30A54C1F30A552C44A4F22F
:10027000F3340194A0FB0254C1F3130141F4801143
:10028000C3F3130343F4801301FB024400FB034E4A
:10029000840A970A44EA815447EA8357A4FB076813
:1002A00002958D0A05FB07854FEA932C04FB0C543D
:1002B0002705029D4FEA065847EA1637B5EB0805B1
:1002C0006EEB070C870E920E47EA811742EA831203
:1002D000A7FB0201B6EB0B0164EB00042B0D43EA14
:1002E0000C335E1844EB1C50DA465146E7FB020122
:1002F000C5F313044FEA0B3343EA14534FEA0432B5
:10030000019C43EA0603A4F10C040294009CCDE98D
:1003100000B400F021F903B0BDE8F08F00200146E1
:10032000F9E72DE9F04D81EA030404F0004B21F0D8
:10033000004514464FF0000A23F0004150EA050240
:1003400020D054EA01021DD0C5F30A570246C5F376
:100350001303C1F31300C1F30A5640F4801543F4AC
:100360008013A7EB0608101BD64608F2FD3873EB86
:10037000050002D308F1010801E092185B41B8F1D1
:10038000000F03DA00200146BDE8F08D00204FF495
:100390008011064684460EE0171B73EB050705D354
:1003A000121B63EB050306434CEA010C49084FEAB4
:1003B000300092185B4150EA0107EDD152EA030088
:1003C00012D082EA040083EA0501084305D0101B1D
:1003D000AB4106D20122002306E000224FF0004389
:1003E00002E06FF0010253101AEB06004CEB0851CB
:1003F00010EB0A0041EB0B01BDE8F04D00F09DB899
:100400000EB5C10F80EAE0700844CA07002140F22F
:1004100033438DE80E000A460B4600F09DF803B00A
:1004200000BD0EB540F2334102910021CDE900112B
:100430000A460B4600F090F803B000BDC1F30A5223
:1004400010B5C1F3130140F2FF3341F480119A4219
:1004500001DA002010BD40F233439A42A2F2334247
:1004600003DC524200F059F810BD904010BD00006E
:1004700030B5041E71F1000404DB4FF0004440422B
:1004800064EB0101141E73F1000405DB1C464FF000
:100490000043524263EB04038B4208BF824230BDEB
:1004A00030B5041E71F1000404DB4FF000444042FB
:1004B00064EB0101141E73F1000405DB1C464FF0D0
:1004C0000043524263EB0403994208BF904230BD9F
:1004D00030B50B46014600202022012409E021FA14
:1004E00002F59D4205D303FA02F5491B04FA02F511
:1004F0002844151EA2F10102F1DC30BD202A04DBE4
:10050000203A00FA02F1002070479140C2F1200326
:1005100020FA03F3194390407047202A04DB203A65
:1005200021FA02F00021704721FA02F3D040C2F113
:100530002002914008431946704710B5141E73F10C
:10054000000408DA401C41F1000192185B411A4393
:1005500001D120F0010010BD2DE9F04D92469B46DF
:1005600011B1B1FA81F202E0B0FA80F22032904685
:10057000FFF7C4FF04460F4640EA0A0041EA0B01B8
:1005800053465A46084313D0114653EA010019D086
:10059000C8F140025046FFF7C0FF05460E465046E0
:1005A00059464246FFF7AAFF084305D0012004E060
:1005B00020463946BDE8F08D0020054346EAE07646
:1005C0002C4337430A986305E40AA0EB0800002295
:1005D000FD0A44EA47540A3002D500200146E9E703
:1005E000010510196941DDE9084500196941BDE8B7
:1005F000F04DA2E72DE9FE4F804681EA0300C00FCF
:100600000C46009021F0004123F00045B8EB0200B9
:10061000A94105D24046214690461C460B4602465B
:1006200023F00040104347D0270DC7F30A00C3F35F
:100630000A510290401A019040286BDAC3F313006C
:1006400040F4801B0098924620B10023D2EB030AAD
:1006500063EB0B0B01985946C0F140025046FFF77F
:100660004DFF06460D4650465946019A00F094F853
:1006700010EB08006141002487EA115284EAE77315
:100680001A4340D0009A62B3019A012A4FEA0752F6
:1006900015DC001B61EB02014FF0004202EA075239
:1006A000CDE90042001C41F5801132462B46FFF790
:1006B00053FF03B0BDE8F08F40462146F9E7001B29
:1006C00061EB0201001C41F5801300185B4120180A
:1006D000A2F5001747EB030140EAD570B6196D414A
:1006E00011E06D084FEA360645EAC0754FEA075239
:1006F000001B61EB0201001C41F5801149084FEA23
:1007000030000019514132462B4603B0BDE8F04F8E
:10071000FFF713BF0098012240000023D0EB020234
:1007200063EBE073009821464FEAE074B8EB0000F9
:1007300061EB0401E9E783F000435BE781F00041EE
:1007400058E7C1F30A52C1F3130140F2FF3341F4F9
:1007500080119A4202DA00200146704740F233438A
:100760009A42A2F2334202DC5242FFF7D6BEFFF7B2
:10077000C5BE0000064C074D06E0E06840F00103EE
:1007800094E8070098471034AC42F6D3FFF700FD19
:100790004CA100086CA10008202A06DBCB17203AE8
:1007A00041FA02F043EAE07306E041FA02F3D04076
:1007B000C2F120029140084319467047FEE7704796
:1007C00070B5B3F5804F05D06FF0704140F822103E
:1007D000002070BD50F82240084B8E891C40D1E9A2
:1007E000003543EA05138D6889692D0245EA0645FF
:1007F0002B430B43234340F82230E9E70000F0CFBE
:10080000F0B50C6850F82430114A1340D1E90125A5
:10081000D1E903672A433E4332434E6932438E692E
:100820003243CE6932430E6A32434E6A32438E6A95
:100830003243CE6A3243CE6B096B32430A431A43CA
:10084000082D01D142F0400240F824200020F0BDE4
:100850008000F0FF30B500EB820250688D8900F017
:100860004043D1E9000440EA04108C68240244EAC1
:10087000054420430C8A074D05EB045420430C7DAE
:100880006D0105EB046489692043084318435060F7
:10089000002030BD0000F0FF80B201F08DBE0000EE
:1008A0002DE9F0411F4886B00168002937D10127A2
:1008B00007601D488846016841F001010160006839
:1008C000022400F00100059041F201008DE8910042
:1008D00003250C26CDE903566946144800F02CF890
:1008E0004FF680708DE81101CDE903566946104836
:1008F00000F022F84CF203708DE81101DFF834802B
:10090000CDE903566946404600F016F830208DE8E0
:100910009100CDE903566946404600F00DF806B057
:10092000BDE8F08114000020383802400018024071
:1009300000100240000C02402DE9F84FDFF87CB1B6
:1009400000224FF001084FF0030A4FF00F090BF19E
:10095000040E00BF0B6808FA02F42340A3426ED1D4
:100960004D68022D01D0122D0ED1D50800EB850C5B
:10097000DCF820505607F70E09FA07F6B5430E6962
:10098000BE402E43CCF82060066855000F790AFA65
:1009900005FC07F0030726EA0C06AF403743076063
:1009A0004E68012E05D0022E03D0112E01D0122E3A
:1009B0000ED18668CF6826EA0C06AF4037438760C1
:1009C0004668A6430C79C4F3001494403443446051
:1009D000C6688C6826EA0C06AC403443C4604C6898
:1009E000E40065D5364C256845F4804525602468CB
:1009F00022F0030504F480440094324C2E19D6F8FA
:100A0000084895072F0F09FA07F5AC432E4DA84269
:100A100001D1002524E02D4DA84201D101251FE080
:100A20002B4DA84201D102251AE02A4DA84201D13E
:100A3000032515E0284DA84202D1042510E037E037
:100A4000264DA84201D105250AE0254DA84201D135
:100A5000062505E0234DA84201D1072500E0082521
:100A6000BD402543C6F80858DBF800405D464E6897
:100A70009C43F60300D51C432C60DEF8004075460D
:100A80004E689C43B60300D51C432C600B4D0835C3
:100A90002C684E689C43F60200D51C432C60074D21
:100AA0000C352C684E689C43B60200D51C432C6064
:100AB000521C102AFFF44EAFBDE8F88F003C0140F5
:100AC000443802400030014000000240000402406F
:100AD00000080240000C02400010024000140240D6
:100AE00000180240001C02400069084000D00120AC
:100AF000704742694A40426170470AB1816170475C
:100B00000904FBE7014880687047000000000020EE
:100B1000024881680278114481607047000000201B
:100B20000B4810B5016841F400710160016841F49F
:100B300080610160016841F480710160032000F070
:100B400075F8002000F006F800F024F8002010BD31
:100B5000003C024070B50D4D04464FF47A71287880
:100B6000B1FBF0F00A490968B1FBF0F000F026FB98
:100B700048B9102C07D200222146501E00F036F84A
:100B800000206C6070BD012070BD000000000020DE
:100B90000C00002010B5052000F048F80022114696
:100BA0006FF00B0000F022F8002211466FF00A00EF
:100BB00000F01CF8002211466FF0090000F016F852
:100BC00000221146501F00F011F800221146101F9C
:100BD00000F00CF800221146901E00F007F80022E9
:100BE000BDE810401146501EAFF30080F0B40E4B2C
:100BF0001B680C46C3F30223C3F10705042D00D97B
:100C00000425191D072901D2002300E0DB1E01265F
:100C100006FA05F1491E214099409E40761E164075
:100C20003143F0BC00F048BC0CED00E0064900F098
:100C3000070208684FF6FF03184040EA0220034A03
:100C400010430860704700000CED00E00000FA055A
:100C50002DE9F0470E46050065D0DFF81481D8F87D
:100C60000000F7B200F00F00B04207D288F8007021
:100C7000D8F8000000F00F00B04254D128683D4C75
:100C8000810712D5400703D5206840F4E05020606A
:100C90002878000703D5206840F460402060206871
:100CA000A96820F0F000084320602878C0072DD004
:100CB000304968680839012812D0022813D0032867
:100CC00011D00968890700292DDA216821F0030174
:100CD00001432160FFF716FF814641F2883A0EE09A
:100CE00009688903EFE709688901ECE7FFF70AFF64
:100CF000A0EB0901514502D90320BDE8F087206827
:100D0000696800F00C00B0EB810FEFD1D8F800104B
:100D1000404601F00F01B14207D90770006800F0AA
:100D20000F00B04201D00120E7E72878400705D541
:100D30002068E96820F4E050084320602878000724
:100D400006D52068296920F4604040EAC10020608F
:100D500000F03CF82168084AC1F30311515CC84017
:100D6000064908600020FFF7F5FE0020C5E70000F7
:100D7000003C024008380240007100080C000020CE
:100D800001480068704700000C0000200448054935
:100D900000680968044AC1F38221515CC840704769
:100DA0000C00002008380240107100080448054972
:100DB00000680968044AC1F34231515CC840704779
:100DC0000C0000200838024010710008154810B5CA
:100DD000006810F00C02144813D04110042A0FD000
:100DE000082A0ED10F4C241F2268236802F03F020C
:100DF0005B0207D52068C0F38810A0FB010106E064
:100E0000084610BD2168C1F38811A1FB0001002331
:100E1000FFF7D6F92168C1F30141491C4900B0FB35
:100E2000F1F010BD083802400024F4002DE9F84F1D
:100E3000050076D02878DFF8F8B2BE4CC00749D05C
:100E4000DBF800105846C1F38101012908D0006881
:100E5000C0F3810002280AD1201D0068400206D597
:100E60002068800336D568680028E2D032E06868E0
:100E7000B0F5803F10D0B0F5A02F206810D020F43E
:100E800080302060206820F4802020606868A0B155
:100E9000FFF738FE06460CE0206840F48030F4E7A7
:100EA00040F480202060F7E7FFF72CFE801B6428C9
:100EB00073D820688003F7D50CE0FFF723FE0646C1
:100EC00005E000BFFFF71EFE801B6428F0D82068F5
:100ED0008003F7D42878DFF8608280074FF000099C
:100EE0003ED5DBF80010584611F00C0F09D0006811
:100EF000C0F3810002280BD18D48001F006840021A
:100F000006D42068800715D5E868012809D111E0CA
:100F1000E868B8B10120C8F80000FFF7F3FD064605
:100F200005E002E1FFF7EEFD801B0228C0D8206833
:100F30008007F7D52068296920F0F80040EAC10051
:100F400020600DE0C8F80090FFF7DCFD064604E0E5
:100F5000FFF7D8FD801B02281FD820688007F7D430
:100F60002878000722D5724E744869696C3671B1D1
:100F700001210160FFF7C6FD074604E0FFF7C2FD4F
:100F8000C01B022809D830688007F7D50EE0C0F8EA
:100F90000090FFF7B7FD074605E083E0FFF7B2FDDD
:100FA000C01B02287ED830688007F7D42878400715
:100FB00068D5DFF87CA100270AF1380ADAF80000CA
:100FC000C0000BD4DAF8001041F08051CAF80010CC
:100FD000DAF80000012700F080500090584E306889
:100FE000C00510D4306840F480703060FFF78AFD8F
:100FF000009005E0FFF786FD0099401A022851D8BD
:101000003068C005F6D54A4EA868683601280FD06A
:101010000528306810D020F001003060306820F0E2
:1010200004003060A868B8B1FFF76CFD00900FE0D5
:10103000306840F00100F4E740F004003060F7E76A
:10104000FFF760FD0099411A41F28830814264D86F
:1010500030688007F4D50EE0FFF754FD009007E0FC
:10106000FFF750FD0099411A41F28830814254D86F
:1010700030688007F4D42FB1DAF8001021F08051E5
:10108000CAF80010A869C0B3DBF80010C1F38101F1
:1010900002294AD00228484607D0C8F86000FFF766
:1010A00031FD00E039E005463AE04746C8F8600007
:1010B000FFF728FD064604E0FFF724FD801B022809
:1010C0002BD820688001F7D4D5E907010843A96A25
:1010D0001C4A490802EB01416A6A41EA821108434D
:1010E00095F82C1040EA01611148001F01600120B1
:1010F0003866FFF707FD054605E014E0FFF702FD3F
:10110000401B022809D820688001F7D50BE000BFFA
:10111000FFF7F8FC401B022802D90320BDE8F88F36
:1011200020688001F4D40020F8E70120F6E70000F1
:10113000083802400038024000004742800E474213
:10114000007000400000FFFF70B515460E46040019
:1011500003D094F8490010B107E0012070BD0020D1
:1011600084F84800204600F01AF804F108012068CD
:10117000FFF746FB3146A2682068FFF76BFBD4E916
:1011800001022946236BFFF71BFBA168206850F87A
:10119000212042F0010240F82120002070BDFFF71D
:1011A0007FBB4FF0E0210428086903D020F0040041
:1011B0000861704740F00400FAE7704710B5401E20
:1011C000B0F1807F01D3012010BD4FF0E0246061B9
:1011D0000F21601700F070F90020A0610720206146
:1011E000002010BD10B5FFF7E8FF10BD70B504007A
:1011F00004D094F83900002510B106E0012070BD3C
:1012000084F83850204600F023F8242084F8390070
:101210002068C16821F40051C160204600F0E0F967
:101220002068016921F4904101612068416921F041
:101230002A0141612068C16841F40051C160E56341
:10124000202084F8390084F83A00002070BD0000A6
:1012500000B500680E4987B0884216D10D48016874
:1012600041F0100101600068694600F0100005902F
:10127000C0200090022001900120029003200390E2
:10128000072004900448FFF757FB07B000BD00009B
:10129000001001404438024000040240FEE7000014
:1012A00010B51D488EB04FF0204101601B494160D0
:1012B0000621816000211022C160C0E90412816111
:1012C000C16113020162C0E909139302C0E90B1363
:1012D0004163816341640F203C230090CDE9010309
:1012E0000DF10C0C112306918CE80D000924CDE9B9
:1012F00007400DF1280C0D9109948CE80D0007AA08
:1013000069460548FFF720FF002803D05E2104A0AE
:1013100000F0BDFA0EB010BD74000020040100A062
:101320002E2E2F5372632F66736D632E63000000A1
:101330002DE9F04F484887B00025016841F01001C1
:101340000160016801F010010591016841F0800120
:101350000160016801F080010591016841F04001E0
:101360000160016801F040010591016841F0080148
:101370000160016801F008010591016841F0010177
:101380000160016801F001010591016841F002016D
:1013900001600068DFF8C49000F0020005900022B0
:1013A00002214846FFF7A9FBDFF8B4A000224FF462
:1013B000A0715046FFF7A1FB4FF40078012241468F
:1013C0005046FFF79AFBDFF89CB0012211465846C1
:1013D000FFF793FB1C20CDE9000501246946029428
:1013E0005846FFF7A9FA02260327CDE90064CDE9A4
:1013F000024769464846FFF79FFA4020CDE90004BE
:10140000CDE9024769465046FFF796FA8020CDE9BC
:101410000005694602945046FFF78EFA20020090BC
:1014200001AA112082E8910069465046FFF784FA2C
:10143000CDE90084CDE9024669465046FFF77CFAC3
:1014400001AA009482E8700069465846FFF774FAD2
:1014500007B0BDE8F08F00003038024000180240AD
:10146000001C0240001002400D4810B50B490160FD
:101470004FF4E1314160002181600C22C160C0E97C
:1014800004128161C161FFF7B1FE002805D0BDE8FB
:101490001040422103A000F0FAB910BD0010014035
:1014A000C40000202E2E2F5372632F757361727447
:1014B0002E630000FEE770470907090E002806DAD0
:1014C00000F00F0000F1E02080F8141D704700F1DB
:1014D000E02080F8001470477047704710B5FFF7A0
:1014E00017FBBDE81040FFF77DBE000030B5254872
:1014F00093B00025016841F080510160006800F060
:10150000805011902048016841F4804101600068DA
:10151000022400F48040119001200090000401900A
:101520008001CDE90640082008904FF4A870CDE96D
:10153000090404200B906846FFF778FC00B1FEE731
:101540000CA90F2081E831004FF4A0500F904FF408
:101550008050109005210CA8FFF77AFB00B1FEE740
:10156000FFF70EFC4FF47A71B0FBF1F0FFF726FEA7
:101570000420FFF716FE00221146501EFFF736FB2F
:1015800013B030BD40380240007000401048016880
:1015900041F4700101600F48016841F001010160F0
:1015A0000C4A00210832116002680B4B1A4002609D
:1015B000031D0A4A1A60026822F48022026005486C
:1015C0000C300160024958068039086070470000FD
:1015D00088ED00E000380240FFFFF6FE10300024E6
:1015E0002DE9F04104460068016921F44052E168A8
:1015F000114301612168C86849F20C629043236974
:10160000A268E5691A4363692B431A430243CA601F
:101610002168486920F44072A06910434861E1697B
:101620006425B1F5004F9748974A21684FF032087A
:101630003FD0914201D081427CD1FFF7B7FB00EB54
:10164000C00101EB001061688900B0FBF1F6FFF703
:10165000ADFB00EBC00101EB001061688900B0FB3D
:10166000F1F0B0FBF5F06FF01801484306EB800194
:1016700008EB0110B0FBF5F000F0F006FFF796FB69
:1016800000EBC00101EB001061688900B0FBF1F0D4
:10169000B0FBF5F006EB0016FFF788FB00EBC0018E
:1016A00001EB001061688900B0FBF1F7FFF77EFBEA
:1016B000D2E0914201D081423DD1FFF777FB00EBB0
:1016C000C00101EB001061684900B0FBF1F0B0FB14
:1016D000F5F00601FFF76AFB00EBC00101EB00101B
:1016E00061684900B0FBF1F7FFF760FB00EBC00158
:1016F00001EB001061684900B0FBF1F0B0FBF5F0C0
:101700006FF01801484307EB800108EBC100B0FB04
:10171000F5F000F0F80006EB4006FFF747FB00EBA2
:10172000C00101EB001061684900B0FBF1F7FFF761
:101730003DFB3CE055E0FFF729FB00EBC00101EB6E
:10174000001061684900B0FBF1F0B0FBF5F0060154
:10175000FFF71CFB00EBC00101EB001061684900C2
:10176000B0FBF1F7FFF712FB00EBC00101EB00103B
:1017700061684900B0FBF1F0B0FBF5F06FF01801C3
:10178000484307EB800108EBC100B0FBF5F000F027
:10179000F80006EB4006FFF7F9FA00EBC00101EB99
:1017A000001061684900B0FBF1F7FFF7EFFA00EBBA
:1017B000C00101EB001061684900B0FBF1F0B0FB23
:1017C000F5F06FF01801484307EB800108EBC1000A
:1017D000B0FBF5F000F00700216830448860BDE8F8
:1017E000F081FFF7D3FA00EBC00101EB0010616854
:1017F0008900B0FBF1F6FFF7C9FA00EBC00101EB7D
:10180000001061688900B0FBF1F0B0FBF5F06FF0FB
:101810001801484306EB800108EB0110B0FBF5F01E
:1018200000F0F006FFF7B2FA00EBC00101EB001088
:1018300061688900B0FBF1F0B0FBF5F006EB001633
:10184000FFF7A4FA00EBC00101EB0010616889000A
:10185000B0FBF1F7FFF79AFA00EBC00101EB0010C3
:1018600061688900B0FBF1F0B0FBF5F06FF0180192
:10187000484307EB800108EB0110B0FBF5F000F0E6
:101880000F00A9E70014014000100140FEE7FEE749
:101890000FB4054B10B503A9044A029800F0EEF806
:1018A00010BC5DF814FB0000F92500087000002052
:1018B0000FB4084B10B504A902AA039800F0DEF893
:1018C000044602A9002000F070FC204610BC5DF820
:1018D00014FB0000AB21000802E008C8121F08C179
:1018E000002AFAD170477047002001E001C1121FA1
:1018F000002AFBD1704700002DE9FF5F82B0002174
:10190000DDE90430020DDDF840B0034318D044F6A1
:101910001050A2F2FF3242431514119801281FD033
:10192000A5EB0B00401C5FEA000A4FF000064E4F8B
:10193000DFF83891B046504615D5CAF1000413E0DF
:10194000119801244AA3012801D16FEA0B010298E2
:10195000119AC0E90031C0E9024206B0BDE8F09F2B
:10196000CBF10000DFE704460021404A491842EB72
:101970000450CDE9001012E0E00707D032463B46A4
:1019800040464946FEF75BFC8046894632463B4668
:1019900010461946FEF753FC06460F466410002C0D
:1019A000EAD1DDE90401DDE90023BAF1000F06DA2E
:1019B000FEF745FC42464B46FEF741FC05E0FEF7CC
:1019C000B0FC42464B46FEF7ACFC04460E460022F5
:1019D000284BFEF765FD03D84FF0FF30014607E0C6
:1019E0000022254B20463146FEF704FEFEF7A9FEF5
:1019F000102409E0002C0ADB0A220023FEF7E0FB9A
:101A0000039B30321A55641E50EA0102F2D1641C65
:101A1000039AC4F111031444119A012A03D001223C
:101A200008430DD10AE0084304D000204FF0110B09
:101A3000119072E7A3EB0B056D1E0DE05B4504DD15
:101A40004FF0000205F1010504E003DA4FF0000257
:101A5000A5F10105002AECD002981199C0E90231E4
:101A6000C0E9004579E70000000014400000F03FA5
:101A7000300000000000F0430000E03F2DE9FF4F80
:101A800095B09B468946064600250FE2252877D16A
:101A900000242746F84A0121059400E0044316F883
:101AA000013F203B01FA03F01042F7D130782A2899
:101AB00011D06FF02F033078A0F13002092A16D828
:101AC000059A44F0020402EB820203EB4202104446
:101AD000761C0590EFE759F8042B0592002A03DAEB
:101AE000504244F40054059044F00204761C3078CF
:101AF0002E2816D116F8010F44F004042A280DD020
:101B00006FF02F023078A0F13003092B09D807EBD2
:101B1000870302EB4303C718761CF3E759F8047BED
:101B2000761C30786C280FD006DC4C2817D068283B
:101B30000DD06A2814D104E0742810D07A280FD16F
:101B40000DE044F400140AE044F4801401E044F48D
:101B500040147278824202D104F58014761C761CFF
:101B6000307866280BD013DC582877D009DC0028A1
:101B700075D04528F6D04628F4D047281AD19DE1E3
:101B800018E0632835D0642879D0652812D195E112
:101B9000702873D008DC6728F1D069286FD06E28D0
:101BA0000DD06F2806D1B5E073282CD0752875D0DC
:101BB000782874D05A46179990476D1C75E1C4F384
:101BC0000250022809D003280DD0D9F800100428AB
:101BD0000DD00D6009F1040967E1D9F80010EA178A
:101BE000C1E90052F6E7D9F800100D80F2E70D7058
:101BF000F0E719F8041B8DF8001000208DF80100A3
:101C0000EA46012003E059F804AB4FF0FF306107CA
:101C10004FF0000102D40DE008F101018846B942FD
:101C20000FDA8045F8DB1AF808100029F4D108E033
:101C300008F1010188468142FADB1AF808100029F0
:101C4000F6D105985B46A0EB080721463846179A5F
:101C500000F094FA284400EB080507E04DE029E184
:101C60000DE01AF8010B5A4617999047B8F1010890
:101C7000F7D25B4621463846179A13E142E00A2222
:101C80000092C4F302524FF0000A022A08D059F819
:101C900004CB032A4FEAEC710AD00DE029E02AE0D8
:101CA00009F1070121F00702F2E802C1914609E0BB
:101CB0000FFA8CFC4FEAEC71042A03D14FFA8CFC2A
:101CC0004FEAEC71002907DA0A460021DCF1000C2A
:101CD00061EB02012D2202E0220504D52B228DF8B2
:101CE0000420012203E0E20701D02022F7E790461A
:101CF00059E00A2102E010220DE010214FF0000A05
:101D000000910BE010224FF0000A44F00404082771
:101D1000009203E008224FF0000A0092C4F302523E
:101D2000022A05D059F804CB0021032A08D009E083
:101D300009F1070121F00702F2E802C1914605E02E
:101D40001FFA8CFC042A01D10CF0FF0C4FF00008A4
:101D5000220728D5702806D0009B83F0100353EA91
:101D60000A0305D00EE040228DF80420012208E08D
:101D70005CEA010206D030228DF804208DF80500BF
:101D800002229046009B83F0080353EA0A030AD11B
:101D90005CEA010201D1620705D530228DF80420EA
:101DA0004FF001087F1E582804D034A003900EA8DD
:101DB00002900DE036A0F9E753466046009AFEF720
:101DC000FFF984460398825C0298401E02900270DC
:101DD0005CEA0100F0D1029806A9081A00F1200A75
:101DE000600702D524F4803400E00127574502DD66
:101DF000A7EB0A0000E0002000EB0A010090059824
:101E00004144401A0590E00306D45B462146179AE8
:101E1000059800F0B3F90544002706E001A85A46EA
:101E2000C05D179990476D1C7F1C4745F6DBE003AA
:101E30000CD55B462146179A059800F09FF905449A
:101E400004E030205A46179990476D1C0099481EAF
:101E500000900029F5DC08E0029802995A460078C3
:101E6000491C0291179990476D1CBAF10001AAF123
:101E7000010AF1DC65E1000009280100303132334C
:101E800034353637383961626364656600000000B6
:101E900030313233343536373839414243444546A0
:101EA0000000000000F058F90544761C3078002846
:101EB0007FF4ECAD19B02846BDE8F08F620700D47E
:101EC000062709F1070222F0070CFCE80223E1468D
:101ED00003F000485FEA080C02D00FF2702C0DE00E
:101EE0005FEA045C02D50FF2682C07E05FEAC47C6D
:101EF00002D00FF2602C01E0AFF2700C4FF0FF380F
:101F000023F00043CDF850C065280CD006DC4528EE
:101F100009D046281DD047283DD13DE0662818D07D
:101F200067287ED138E00021112F01DB112000E06D
:101F3000781CCDE9000106A90EA8FFF7DDFCDDE95C
:101F40000F010E9A03910021009207F1010A0491FA
:101F50004DE04FF000400097CDE9011006A90EA812
:101F6000FFF7CAFCDDE90F0203920E9B11990022D4
:101F7000DDF80CA00093049211B9791C00EB010A62
:101F8000B7EB0A0004D4C0F1FF3007F1010A049056
:101F9000AAEB0700019044E0012F00DA012700219D
:101FA000112F01DD112000E03846CDE9000106A91E
:101FB0000EA8FFF7A1FCDDE90F010E9A03910021A5
:101FC00004910092BA4621070CD40399514500DAD6
:101FD0008A46BAF1010F05DD009AAAF10101515CB0
:101FE000302908D0B84202DA10F1040F06DA0121D4
:101FF000CDE9011015E0AAF10101E9E7002805DCAF
:10200000049901440491AAEB000102E0411C5145EE
:1020100000DD8A460499401A401C01904FF00040B0
:102020000290200704D40198504501DBCDF80480CC
:1020300000208DF84F0002980DF14F07B0F1004FCE
:1020400025D02B200E9002984FF0020800280CDAC1
:10205000404202902D200E9007E00A210298FEF7E0
:1020600037FA3031029007F8011DB8F10001A8F1EC
:102070000108F2DC02980028EFD1791E0E98087052
:10208000307800F0200040F0450007F8020D12A85B
:10209000C01B00F107081498007800B1012000EB84
:1020A0000A01019801EBE07105984144401A401E75
:1020B0000590E00306D45B462146179A059800F088
:1020C0005DF805441498007818B15A46179990475E
:1020D0006D1CE00324D55B462146179A059800F055
:1020E0004DF805441CE00498002807DBDDE90301F6
:1020F000884203DD0098405C179901E01799302071
:102100005A469047049805F10105401C0490019837
:10211000401E019004D12E205A46179990476D1CFD
:10212000BAF10001AAF1010ADDDC05E017F8010BA4
:102130005A46179990476D1CB8F10001A8F10108A3
:10214000F4DC5B462146179A0598ABE62D000000AB
:102150002B000000200000002DE9F041044600257E
:102160001E461746880404D405E039462020B047AF
:102170006D1C641EF9D52846BDE8F0812DE9F041BB
:10218000044600251E469046C80301D5302700E0CE
:102190002027880404D505E041463846B0476D1C29
:1021A000641EF9D52846BDE8F0810A68531C0B600F
:1021B0001070704700F0AABD70B514460D46064673
:1021C00006E03046711C8EB200F006F805F8010BEF
:1021D000641EA4B2F5D270BD10B5044600F03EFEF8
:1021E000200AA02101EB4000C0B200F00BFE00F07D
:1021F00077FEE0B200F006FE00F072FE00F02EFE68
:10220000A12000F0FFFD00F06BFE002000F0CCFDEF
:10221000044600F047FE204610BD70B516460C4639
:10222000054606E02178284600F007F86D1CADB29F
:10223000641C761EB6B2F5D270BD70B50D4604466C
:1022400000F00CFE200AA02101EB4000C0B200F01B
:10225000D9FD00F045FEE0B200F0D4FD00F040FEF4
:10226000284600F0CFFD00F03BFE00F01BFEBDE86D
:1022700070400A20FEF710BB70B5124D4FF4807409
:10228000002221462846FEF738FC022000F09AF989
:10229000012240212846FEF730FC022000F092F98E
:1022A000002240212846FEF728FC022000F08AF98F
:1022B000012221462846FEF720FCBDE8704002209E
:1022C00000F080B9001C024000F0A2B810B50D4C1F
:1022D000012211022046FEF710FC022000F072F9E4
:1022E000012240212046FEF708FC022000F06AF996
:1022F000002240212046FEF700FCBDE810400220ED
:1023000000F060B9001C02402DE9F0410024154E98
:10231000074625464FF480786006040E01224021CE
:102320003046FEF7EAFB022000F04CF94146304609
:10233000FEF7DAFB08B1641CE4B20022402130460B
:10234000FEF7DBFB022000F03DF96D1CEDB2082D1D
:10235000E2D327B1FFF790FF2046BDE8F081FFF7F9
:10236000B5FFF9E7001C02402DE9F041154E054686
:1023700000244FF48077280601D5012200E00022D6
:1023800039463046FEF7B9FB022000F01BF9012266
:1023900040213046FEF7B1FB022000F013F9002285
:1023A00040213046FEF7A9FB6806641C050EE4B226
:1023B000082CE0D339463046BDE8F0410122FEF753
:1023C0009CBB0000001C024070B501220F4D14029E
:1023D00021462846FEF791FB012240212846FEF7C0
:1023E0008CFB022000F0EEF8002221462846FEF782
:1023F00084FB022000F0E6F8002240212846FEF788
:102400007CFBBDE87040022000F0DCB8001C0240FC
:1024100070B50E4D4FF48074002221462846FEF719
:102420006CFB022000F0CEF8012240212846FEF786
:1024300064FB022000F0C6F8012221462846FEF780
:102440005CFBBDE87040022000F0BCB8001C0240FC
:102450002DE9F0410122164E002417022546394687
:102460003046FEF74AFB022000F0ACF80122402182
:102470003046FEF742FB07E0641CE4B2FA2C03D9B5
:10248000FFF7C6FF012508E0022000F09BF839465F
:102490003046FEF729FB0028EED1002240213046CD
:1024A000FEF72BFB022000F08DF82846BDE8F081F6
:1024B000001C02408EB036A0FFF7EAF9DFF8DC809E
:1024C00000260527B8F80410A1F58050183800D16F
:1024D0000A27334D0DF1080A4FF6FF7B696800208B
:1024E0008847002441E0A88E0121A140084238D04D
:1024F00005EB4409B8F80010B9F80C208A4232D232
:10250000B9F82030B8F8020083422CD23AF824C03F
:102510005046DC4504D100EB840120F824204B8098
:10252000DFF880C002213CF814C0CDE9001C0AEBA2
:1025300084010C9149883AF8240000F0DDFDB9F8D7
:102540000C202AF824200C99B9F820004880B8F80B
:10255000001018398A4206DD142804D203F024FF43
:1025600001E02AF824B0641CE4B2BC42BBD30520CD
:1025700000F022F8761CF6B21420B6FBF0F100FB56
:1025800011600028AAD101210748FEF7B2FAA5E799
:102590006374705F74657374210A00000401002085
:1025A0002400002018710008001002400149086052
:1025B000704700006C0000204FF47A71484300F02F
:1025C00001B8000070B54FF0E024002265690949A8
:1025D000A36909684843A1699942FCD002D2A3EBE0
:1025E000010302E0A5EB010633441A440B46824284
:1025F000F1D370BD6C00002003490A685206FCD577
:10260000C2B24A607047000000100140F0B53E4879
:1026100087B00025016841F040010160016801F0C8
:1026200040010691016841F08001016000680124C9
:1026300000F0800006900220CDE901040326334F0C
:10264000CDE9034601A93846FEF776F98020CDE9A9
:102650000105CDE9034601A92D48FEF76DF92DA02E
:10266000FFF716F9FFF730FE2EA0FFF711F9002251
:1026700002213846FEF741FA1420FFF79DFF0122A0
:1026800002213846FEF739FA3220FFF795FF8DF820
:10269000005001226946002000F024F90122694619
:1026A000A42000F01FF916208DF8000001226946D1
:1026B000802000F017F90C208DF8000001226946F7
:1026C000882000F00FF902226946A12000F03AF8B4
:1026D0009DF80010302903D19DF8010003280AD08D
:1026E0009DF80100012806D0022804D001B910B1DC
:1026F000012007B0F0BDC0B200EB01210EA0FFF732
:10270000C7F80020F5E7000030380240001802400A
:10271000001C024063745F6969635F696E697421BC
:102720000A00000063745F6969635F696E69742001
:10273000646F776E210A00004354502049443A25C3
:10274000780D0A002DE9F04115460E460446FFF7C4
:102750003BFE7020FFF708FEFFF77AFEE0B2FFF7BE
:1027600003FEFFF775FEFFF72FFE7120FFF7FCFD5C
:10277000FFF76EFE00246F1E09E0BC4201D001206D
:1027800000E00020FFF7C0FD3055641CE4B2AC420D
:10279000F3D3BDE8F041FFF73BBE00002DE9FC5F3D
:1027A00000274C4E8DF804704FF00A0B3078DFF89C
:1027B0002881401CC0B2B0FBFBF20BFB12013C466F
:1027C000B94630704FF6FF7A09B10A2866D2012265
:1027D00001A90220FFF7B6FF9DF8040001075DD0B4
:1027E00000F00F01062959D20AFA01F0C04340F463
:1027F0004040A8F8340045460420FFF7DDFE4FF0C6
:102800000109A98E09FA04F001423AD033480422A2
:10281000694630F81400FFF795FF95F844009DF8DD
:102820000010C0079DF8010001F00F010ED000EB71
:10283000012105EB440001849DF802209DF803105E
:1028400002F00F0201EB0221818110E000EB012078
:1028500023490988091A05EB440081819DF802206B
:102860009DF8031002F00F0201EB022101849DF894
:1028700000000821B1EB101F03D005EB44000784D2
:102880008781641CE4B2052CBBD3A8894FF00109F1
:1028900018B9288C08B98DF8047037709DF80400B9
:1028A000C0060ED1B8F83400010402D520F400406F
:1028B00005E0A8F80CA0A8F820A000F46040A8F853
:1028C00034003078F02801D986F800B04846BDE8D9
:1028D000FC9F00002000002024000020ACA0000885
:1028E000040100202DE9F04116460F46044600255C
:1028F000FFF76AFD7020FFF737FDFFF7A9FDE0B293
:10290000FFF732FDFFF7A4FD002408E0385DFFF774
:102910002BFDFFF79DFD050003D1641CE4B2B4421A
:10292000F4D3FFF775FD2846BDE8F08130B587B0D8
:10293000FFF7CAFC2F4C002202212046FEF7DDF8EB
:102940000A20FFF739FE012202212046FEF7D5F8C2
:102950000A20FFF731FE80200024CDE90204032085
:10296000CDE9044002A92448FDF7E6FF6420FFF703
:1029700023FE0422694648F2401000F055F88DF815
:1029800004401EA16846FDF74CFC88B11CA16846B6
:10299000FDF747FC60B11CA16846FDF742FC38B169
:1029A0001BA16846FDF73DFC10B1012007B030BD0A
:1029B000694619A0FEF76CFF15A16846FDF731FCCA
:1029C00010B918490A20087002208DF8000048F25A
:1029D000400501226946284600F048F90A20FFF721
:1029E000EBFD8DF8004001226946284600F03EF9D3
:1029F0000020DBE700180240001C024039313100A2
:102A00003931343700000000313135380000000022
:102A100039323731000000004354502049443A25F0
:102A2000730D0A00210000202DE9F04115460E46E5
:102A30000446FFF7C9FC2820FFF796FCFFF708FDC6
:102A4000200AFFF791FCFFF703FDE0B2FFF78CFCD3
:102A5000FFF7FEFCFFF7B8FC2920FFF785FCFFF726
:102A6000F7FC00246F1E09E0BC4201D0012000E009
:102A70000020FFF749FC3055641CE4B2AC42F3D3AC
:102A8000BDE8F041FFF7C4BC2DE9F14F82B000254D
:102A9000724C8DF804504FF00A0A6078DFF8C0815C
:102AA000401CC0B2B0FBFAF20AFB12012E46607065
:102AB0004FF6FF7909B10A287DD248F24E1701225C
:102AC00002A93846FFF7B0FF9DF8080001060BD5B4
:102AD000217800F00F00884206D88DF804500122BA
:102AE00001A9384600F0C2F89DF80800010762D03D
:102AF000227800F00F0090425DD809FA00F1C94336
:102B0000B8F8347041F44041A8F8341008EB4201A1
:102B1000B8F80C304B81B8F82020CA838DF80450E7
:102B2000DFF840B150E0B8F8340001228A40464650
:102B3000104244D04C48042230F811006946FFF797
:102B400073FFBBF80410A1F5AA42103A0CD0A1F50E
:102B50001842063A08D0A1F5EE42963A04D096F80B
:102B60004410C90717D103E096F84410C90712D0E2
:102B70009DF802109DF80320BBF8000001EB022134
:102B8000411A9DF8040006EB400081819DF8001079
:102B90009DF801200EE09DF800009DF8011000EB6B
:102BA00001219DF8040006EB400081819DF8021090
:102BB0009DF8032000E025E001EB022101849DF84F
:102BC0000400401C8DF804009DF804102078814218
:102BD000A9D3B8F80C20BBF80030012640469A4231
:102BE00004D8028CBBF802108A420AD99DF808105A
:102BF00001F00F0101290CD9C1898181418CA8F80C
:102C0000201065709DF8080000F08F0080280DD01E
:102C10001CE0217800EB41014A898281C98B018443
:102C200080218DF80810A8F83470EBE7B8F834105C
:102C300040460A0402D521F4004105E0A0F80C90BA
:102C4000A0F8209001F46041A8F834106078F028D2
:102C500001D984F801A03046BDE8FE8F2100002094
:102C60002400002004010020B6A000082DE9F04156
:102C700016460F4604460025FFF7A6FB2820FFF75F
:102C800073FBFFF7E5FB200AFFF76EFBFFF7E0FBA6
:102C9000E0B2FFF769FBFFF7DBFB002408E0385DDB
:102CA000FFF762FBFFF7D4FB050003D1641CE4B21D
:102CB000B442F4D3FFF7ACFB2846BDE8F081000036
:102CC00010B5114C002220212046FDF716FF0220EE
:102CD000FFF772FC012210212046FDF70EFF0220B3
:102CE000FFF76AFC002210212046FDF706FF0220B4
:102CF000FFF762FC012220212046FDF7FEFEBDE821
:102D000010400220FFF758BC001C0240154810B5C7
:102D1000016886B041F080010160016801F0800126
:102D20000591016841F08001016000680E4C00F0DF
:102D30008000059010200090012001900290032057
:102D4000039069462046FDF7F7FD202000901120F2
:102D5000019069462046FDF7EFFD00F0A3F806B0AC
:102D600010BD000030380240001C024010B50D4C70
:102D7000012220212046FDF7C0FE0220FFF71CFCA7
:102D8000012210212046FDF7B8FE0220FFF714FCB7
:102D9000002210212046FDF7B0FEBDE810400220C1
:102DA000FFF70ABC001C02402DE9F0410024144E3C
:102DB000074625466006040E012210213046FDF725
:102DC0009CFE0220FFF7F8FB20213046FDF78CFE29
:102DD00008B1641CE4B2002210213046FDF78DFEDC
:102DE0000220FFF7E9FB6D1CEDB2082DE2D327B1FD
:102DF000FFF766FF2046BDE8F081FFF7B7FFF9E770
:102E0000001C024070B5144E05460024280601D56A
:102E1000012200E0002220213046FDF76EFE022054
:102E2000FFF7CAFB012210213046FDF766FE0220A3
:102E3000FFF7C2FB002210213046FDF75EFE680658
:102E4000641C050EE4B2082CE0D33046BDE87040A7
:102E500001222021FDF751BE001C024010B5104C8C
:102E6000012220212046FDF748FE012210212046A4
:102E7000FDF743FE0220FFF79FFB002220212046A2
:102E8000FDF73BFE0220FFF797FB002210212046B2
:102E9000FDF733FEBDE810400220FFF78DBB0000B8
:102EA000001C024010B50D4C002220212046FDF7E9
:102EB00024FE0220FFF780FB012210212046FDF7AF
:102EC0001CFE0220FFF778FB012220212046FDF79F
:102ED00014FEBDE810400220FFF76EBB001C02404C
:102EE00070B5164E00242546012220213046FDF7FC
:102EF00004FE0220FFF760FB012210213046FDF79F
:102F0000FCFD0220FFF758FB07E0641CE4B2FA2C3A
:102F100003D9FFF7C7FF012505E020213046FDF763
:102F2000E3FD0028F1D1002210213046FDF7E5FD38
:102F30000220FFF741FB284670BD0000001C024044
:102F40002DE9F0410025234E234C012708B13770AD
:102F500001E0307870B104212046FDF7C5FD80B155
:102F600008212046FDF7C0FD58B110212046FDF78D
:102F7000BBFD30B104212046FDF7B6FD012818D075
:102F800024E00A20FFF718FB0020307004212046BF
:102F9000FDF7AAFD00B9012508212046FDF7A4FD93
:102FA00000B9022510212046FDF79EFD70B90325CA
:102FB0000CE008212046FDF797FD012806D11021DD
:102FC0002046FDF791FD012800D137702846BDE865
:102FD000F0810000100000200010024070B5094987
:102FE0000646002408884D8821464543204603F0C4
:102FF00075F803F0C7F9044801E00680641CAC4290
:10300000FBD370BD040100200008006C2DE9F04FD7
:1030100038492C260A46887192884FF4305A4FF46A
:10302000285B41F6631E2B274FF02A0C4FF0F00867
:1030300045F210594FF448754FF4A0744FF4F073F3
:1030400058B10C80A1F802804A4530D1A1F808A0FF
:10305000A1F80AB03802888141E0A1F800804C80D4
:103060004A4507D1A1F808A0A1F80AB04FF42C50A6
:10307000888105E072450E8105D14F81A1F80CC011
:103080000B804D8002E0A1F80AC08F81A2F5A64016
:10309000103803D0A2F5EE40963801D10C804B8059
:1030A000A2F5184006381FD10B804D801CE07245F8
:1030B00011D0A2F5184006380DD00E81A1F80AC033
:1030C000A1F80C70A2F5A64010380BD0A2F5EE4086
:1030D000963807D008E00E81A1F80AC08F810D80D4
:1030E0004B80EFE70B804C80BDE8F04F002002F0F2
:1030F00033BF0000040100202DE9FF5F4FF00008FE
:10310000DDF838A0474650454FD352454DD3514581
:103110004BD3534549D3161A5D1A029000914FF0D4
:10312000FF30002E02DD4FF0010102E003D14FF02D
:1031300000018B4602E08346C6F10006002D02DD49
:103140004FF0010002E003D14FF00000019002E0D7
:10315000C5F100050190AE4201DD344600E02C4689
:10316000601C4FF0000903901CE00098524681B2A9
:1031700002980F9B80B202F02FFDB0442F44A0456F
:1031800005DD0299A8EB040801EB0B000290A742B1
:1031900004DDDDE9000108443F1B009009F1010056
:1031A0001FFA80F903998945DFDDBDE8FF9F2DE90E
:1031B000FF4F804600251446032082B00F46A0EB47
:1031C000440651E0381B81B208EB050A01901FFA52
:1031D0008AF0059A00F0B0F8781B009081B208EBF5
:1031E00004091FFA89F0059A00F0A6F807EB050B11
:1031F0001FFA8BF11FFA89F0059A00F09DF807EB92
:1032000004091FFA89F11FFA8AF0059A00F094F870
:10321000A8EB050A1FFA89F11FFA8AF0059A00F057
:103220008BF8A8EB04091FFA8BF11FFA89F0059AB5
:1032300000F082F80198059A81B21FFA8AF000F036
:103240007BF80098059A81B21FFA89F000F074F8B3
:103250006D1C002E03DA06EB8506B61D04E0281B64
:1032600006EB8006641E0A36A542ABDD06B0BDE85B
:10327000F08F000038B5002A0DD0074C2588854214
:1032800009D364888C4206D30244521E009392B242
:103290000B4602F07DFC38BD040100202DE9FE4FF5
:1032A000161ACDE900104FF000085D1A47464FF09E
:1032B000FF30002E02DD4FF0010102E003D14FF09C
:1032C00000018B4602E08346C6F10006002D02DDB8
:1032D0004FF0010002E003D14FF00000824602E00F
:1032E0008246C5F10005AE4201DD344600E02C46C1
:1032F000601C4FF00009029019E000980C9A81B20E
:10330000019880B200F018F8B0442F44A04504DDC5
:103310000198A8EB040858440190A74203DD0098E7
:103320003F1B5044009009F101001FFA80F90299F7
:103330008945E2DDBDE8FE8F10B5144602F0CEFEF1
:1033400003F020F80148048010BD00000008006C64
:1033500010B5CF2003F00AF8002002F0FBFFC120D7
:1033600002F0F8FF302002F0F5FFED2002F0FEFF42
:10337000642002F0EFFF032002F0ECFF122002F0C5
:10338000E9FF812002F0E6FFE82002F0EFFF852050
:1033900002F0E0FF102002F0DDFF7A2002F0DAFFF9
:1033A000CB2002F0E3FF392002F0D4FF2C2002F002
:1033B000D1FF002002F0CEFF342002F0CBFF02202C
:1033C00002F0C8FFF72002F0D1FF202002F0C2FF78
:1033D000EA2002F0CBFF002002F0BCFF002002F048
:1033E000B9FFC02002F0C2FF1B2002F0B3FFC120D2
:1033F00002F0BCFF012002F0ADFFC52002F0B6FFD5
:10340000302002F0A7FF302002F0A4FFC72002F016
:10341000ADFFB72002F09EFF362002F0A7FF482044
:1034200002F098FF3A2002F0A1FF552002F092FF2F
:10343000B12002F09BFF002002F08CFF1A2002F066
:1034400089FFB62002F092FF0A2002F083FFA2203B
:1034500002F080FFF22002F089FF002002F07AFFE4
:10346000262002F083FF012002F074FFE02002F02A
:103470007DFF0F2002F06EFF2A2002F06BFF282054
:1034800002F068FF082002F065FF0E2002F062FFE4
:10349000082002F05FFF542002F05CFFA92002F038
:1034A00059FF432002F056FF0A2002F053FF0F207D
:1034B00002F050FF002002F04DFF002002F04AFF12
:1034C000002002F047FF002002F044FFE12002F05C
:1034D0004DFF002002F03EFF152002F03BFF1720B9
:1034E00002F038FF072002F035FF112002F032FF12
:1034F000062002F02FFF2B2002F02CFF562002F0B6
:1035000029FF3C2002F026FF052002F023FF1020B7
:1035100002F020FF0F2002F01DFF3F2002F01AFFF3
:103520003F2002F017FF0F2002F014FF2B2002F0C3
:103530001DFF002002F00EFF002002F00BFF012013
:1035400002F008FF3F2002F005FF2A2002F00EFFE4
:10355000002002F0FFFE002002F0FCFE002002F03E
:10356000F9FEEF2002F0F6FE112002F0FFFE7820B7
:10357000FDF792F9BDE81040292002F0F7BE10B522
:10358000FF2002F0F3FEFF2002F0E4FE982002F09C
:10359000E1FE062002F0DEFEBC2002F0E7FE012084
:1035A00002F0D8FE0F2002F0D5FE612002F0D2FE1C
:1035B000FF2002F0CFFE012002F0CCFE012002F03D
:1035C000C9FE0B2002F0C6FE102002F0C3FE372019
:1035D00002F0C0FE632002F0BDFEFF2002F0BAFE42
:1035E000FF2002F0B7FE012002F0B4FE012002F03D
:1035F000B1FE002002F0AEFE002002F0ABFEFF2084
:1036000002F0A8FE522002F0A5FE012002F0A2FE68
:10361000002002F09FFE402002F09CFEBD2002F040
:10362000A5FE012002F096FE232002F093FE452025
:1036300002F090FE672002F08DFE012002F08AFE6B
:10364000232002F087FE452002F084FE672002F06E
:1036500081FEBE2002F08AFE002002F07BFE0120E7
:1036600002F078FEAB2002F075FE602002F072FEE0
:10367000222002F06FFE222002F06CFE222002F0D7
:1036800069FE222002F066FE222002F063FEC720BF
:1036900002F06CFE362002F05DFEED2002F066FEC8
:1036A0007F2002F057FE0F2002F054FEC02002F0EF
:1036B0005DFE0F2002F04EFE0B2002F04BFE0A20B2
:1036C00002F048FEFC2002F051FE082002F042FE0B
:1036D000DF2002F04BFE002002F03CFE002002F052
:1036E00039FE002002F036FE002002F033FE0020FA
:1036F00002F030FE202002F02DFEF32002F036FE14
:10370000742002F027FEB42002F030FE002002F008
:1037100021FE002002F01EFE002002F01BFEF7201A
:1037200002F024FE822002F015FEB12002F01EFEFF
:10373000002002F00FFE132002F00CFE132002F016
:1037400009FEF22002F012FE802002F003FE0420A7
:1037500002F000FE402002F0FDFD282002F0FAFDFC
:10376000C12002F003FE172002F0F4FD882002F0D1
:10377000F1FD882002F0EEFD202002F0EBFDE020BC
:1037800002F0F4FD002002F0E5FD0A2002F0E2FD67
:10379000122002F0DFFD102002F0DCFD0E2002F00E
:1037A000D9FD202002F0D6FDCC2002F0D3FD072069
:1037B00002F0D0FD062002F0CDFD0B2002F0CAFD84
:1037C0000E2002F0C7FD0F2002F0C4FD0D2002F014
:1037D000C1FD152002F0BEFD102002F0BBFD00204F
:1037E00002F0B8FDE12002F0C1FD002002F0B2FDC0
:1037F0000B2002F0AFFD132002F0ACFD0D2002F013
:10380000A9FD0E2002F0A6FD1B2002F0A3FD7120F1
:1038100002F0A0FD062002F09DFD062002F09AFDB8
:103820000A2002F097FD0F2002F094FD0E2002F016
:1038300091FD0F2002F08EFD152002F08BFD0C2073
:1038400002F088FD002002F085FD2A2002F08EFDA6
:10385000002002F07FFD002002F07CFD012002F03C
:1038600079FDDF2002F076FD2B2002F07FFD0020A5
:1038700002F070FD002002F06DFD032002F06AFDF1
:103880001F2002F067FD3A2002F070FD552002F083
:1038900061FD362002F06AFD002002F05BFD112080
:1038A00002F064FD7820FCF7F7FF292002F05EFDAE
:1038B0001420FCF7F1FFBDE810402C2002F056BDAB
:1038C00010B5ED2002F052FD012002F043FDFE2074
:1038D00002F040FDEE2002F049FDDE2002F03AFD4C
:1038E000212002F037FDF12002F040FD012002F01E
:1038F00031FDDF2002F03AFD102002F02BFDC42044
:1039000002F034FD8F2002F025FDC62002F02EFDCE
:10391000002002F01FFDE22002F01CFDE22002F078
:1039200019FDE22002F016FDBF2002F01FFDAA20C3
:1039300002F010FDB02002F019FD0D2002F00AFD8A
:10394000002002F007FD0D2002F004FD002002F02F
:1039500001FD112002F0FEFC002002F0FBFC19200A
:1039600002F0F8FC002002F0F5FC212002F0F2FC4D
:10397000002002F0EFFC2D2002F0ECFC002002F011
:10398000E9FC3D2002F0E6FC002002F0E3FC5D20B3
:1039900002F0E0FC002002F0DDFC5D2002F0DAFC29
:1039A000002002F0D7FCB12002F0E0FC802002F001
:1039B000D1FC002002F0CEFC8B2002F0CBFC0020DA
:1039C00002F0C8FC962002F0C5FC002002F0C2FC08
:1039D000B22002F0CBFC002002F0BCFC002002F080
:1039E000B9FC022002F0B6FC002002F0B3FC032078
:1039F00002F0B0FC002002F0ADFCB32002F0B6FCF7
:103A0000002002F0A7FC002002F0A4FC002002F03D
:103A1000A1FC002002F09EFC002002F09BFC002094
:103A200002F098FC002002F095FC002002F092FCCD
:103A3000002002F08FFC002002F08CFC002002F03D
:103A400089FC002002F086FC002002F083FC0020AC
:103A500002F080FC002002F07DFC002002F07AFCE5
:103A6000002002F077FC002002F074FC002002F03D
:103A700071FC002002F06EFC002002F06BFC0020C4
:103A800002F068FC002002F065FC002002F062FCFD
:103A9000B42002F06BFC8B2002F05CFC002002F0F2
:103AA00059FC962002F056FC002002F053FCA120A5
:103AB00002F050FC002002F04DFCB52002F056FC54
:103AC000022002F047FC002002F044FC032002F038
:103AD00041FC002002F03EFC042002F03BFC0020F0
:103AE00002F038FCB62002F041FC002002F032FC6B
:103AF000002002F02FFCB72002F038FC002002F07A
:103B000029FC002002F026FC3F2002F023FC0020CC
:103B100002F020FC5E2002F01DFC002002F01AFCE6
:103B2000642002F017FC002002F014FC8C2002F04C
:103B300011FC002002F00EFCAC2002F00BFC002077
:103B400002F008FCDC2002F005FC002002F002FC80
:103B5000702002F0FFFB002002F0FCFB902002F03E
:103B6000F9FB002002F0F6FBEB2002F0F3FB002053
:103B700002F0F0FBDC2002F0EDFB002002F0EAFB9B
:103B8000B82002F0F3FB002002F0E4FB002002F07A
:103B9000E1FB002002F0DEFB002002F0DBFB002056
:103BA00002F0D8FB002002F0D5FB002002F0D2FB8F
:103BB000002002F0CFFBBA2002F0D8FB242002F054
:103BC000C9FB002002F0C6FB002002F0C3FB00206E
:103BD00002F0C0FBC12002F0C9FB202002F0BAFBBA
:103BE000002002F0B7FB542002F0B4FB002002F0EA
:103BF000B1FBFF2002F0AEFB002002F0ABFBC220C5
:103C000002F0B4FB0A2002F0A5FB002002F0A2FBA8
:103C1000042002F09FFB002002F09CFBC32002F076
:103C2000A5FB3C2002F096FB002002F093FB3A201B
:103C300002F090FB002002F08DFB392002F08AFB9D
:103C4000002002F087FB372002F084FB002002F006
:103C500081FB3C2002F07EFB002002F07BFB362043
:103C600002F078FB002002F075FB322002F072FBBC
:103C7000002002F06FFB2F2002F06CFB002002F00E
:103C800069FB2C2002F066FB002002F063FB292078
:103C900002F060FB002002F05DFB262002F05AFBE0
:103CA000002002F057FB242002F054FB002002F019
:103CB00051FB242002F04EFB002002F04BFB23209E
:103CC00002F048FB002002F045FB3C2002F042FBE2
:103CD000002002F03FFB362002F03CFB002002F007
:103CE00039FB322002F036FB002002F033FB2F209C
:103CF00002F030FB002002F02DFB2C2002F02AFB0A
:103D0000002002F027FB292002F024FB002002F013
:103D100021FB262002F01EFB002002F01BFB2420CA
:103D200002F018FB002002F015FB242002F012FB29
:103D3000002002F00FFB232002F00CFB002002F019
:103D400009FBC42002F012FB622002F003FB0020FA
:103D500002F000FB052002F0FDFA002002F0FAFA62
:103D6000842002F0F7FA002002F0F4FAF02002F0CA
:103D7000F1FA002002F0EEFA182002F0EBFA00202F
:103D800002F0E8FAA42002F0E5FA002002F0E2FADC
:103D9000182002F0DFFA002002F0DCFA502002F0D6
:103DA000D9FA002002F0D6FA0C2002F0D3FA002053
:103DB00002F0D0FA172002F0CDFA002002F0CAFA81
:103DC000952002F0C7FA002002F0C4FAF32002F0B6
:103DD000C1FA002002F0BEFAE62002F0BBFA002091
:103DE00002F0B8FAC52002F0C1FA322002F0B2FAAD
:103DF000002002F0AFFA442002F0ACFA002002F0FA
:103E0000A9FA652002F0A6FA002002F0A3FA7620B3
:103E100002F0A0FA002002F09DFA882002F09AFA3F
:103E2000002002F097FAC62002F0A0FA202002F04B
:103E300091FA002002F08EFA172002F08BFA00208F
:103E400002F088FA012002F085FA002002F082FADE
:103E5000C72002F08BFA002002F07CFA002002F06A
:103E600079FA002002F076FA002002F073FAC820F6
:103E700002F07CFA002002F06DFA002002F06AFAEB
:103E8000002002F067FA002002F064FAC92002F074
:103E90006DFA002002F05EFA002002F05BFA0020CA
:103EA00002F058FA002002F055FA002002F052FA0F
:103EB000002002F04FFA002002F04CFA002002F03D
:103EC00049FA002002F046FA002002F043FA0020EE
:103ED00002F040FA002002F03DFA002002F03AFA27
:103EE000002002F037FA002002F034FA002002F03D
:103EF00031FAE02002F03AFA162002F02BFA002004
:103F000002F028FA1C2002F025FA002002F022FA22
:103F1000212002F01FFA002002F01CFA362002F0E5
:103F200019FA002002F016FA462002F013FA0020D7
:103F300002F010FA522002F00DFA002002F00AFA04
:103F4000642002F007FA002002F004FA7A2002F05E
:103F500001FA002002F0FEF98B2002F0FBF90020AC
:103F600002F0F8F9992002F0F5F9002002F0F2F9D8
:103F7000A82002F0EFF9002002F0ECF9B92002F0DD
:103F8000E9F9002002F0E6F9C42002F0E3F900208C
:103F900002F0E0F9CA2002F0DDF9002002F0DAF9BF
:103FA000D22002F0D7F9002002F0D4F9D92002F093
:103FB000D1F9002002F0CEF9E02002F0CBF9002088
:103FC00002F0C8F9F32002F0C5F9002002F0C2F9AE
:103FD000E12002F0CBF9162002F0BCF9002002F03B
:103FE000B9F91C2002F0B6F9002002F0B3F9222042
:103FF00002F0B0F9002002F0ADF9362002F0AAF983
:10400000002002F0A7F9452002F0A4F9002002F0F8
:10401000A1F9522002F09EF9002002F09BF96420E1
:1040200002F098F9002002F095F97A2002F092F956
:10403000002002F08FF98B2002F08CF9002002F0B2
:1040400089F9992002F086F9002002F083F9A8206E
:1040500002F080F9002002F07DF9B92002F07AF92F
:10406000002002F077F9C42002F074F9002002F079
:1040700071F9CA2002F06EF9002002F06BF9D2202B
:1040800002F068F9002002F065F9D82002F062F928
:10409000002002F05FF9E02002F05CF9002002F05D
:1040A00059F9F32002F056F9002002F053F9E2200A
:1040B00002F05CF9052002F04DF9002002F04AF907
:1040C0000B2002F047F9002002F044F91B2002F017
:1040D00041F9002002F03EF9342002F03BF90020C3
:1040E00002F038F9442002F035F9002002F032F9EC
:1040F0004F2002F02FF9002002F02CF9612002F08D
:1041000029F9002002F026F9792002F023F9002095
:1041100002F020F9882002F01DF9002002F01AF9BF
:10412000972002F017F9002002F014F9A62002F0FF
:1041300011F9002002F00EF9B72002F00BF900206F
:1041400002F008F9C22002F005F9002002F002F99D
:10415000C72002F0FFF8002002F0FCF8D12002F0A6
:10416000F9F8002002F0F6F8D62002F0F3F800206B
:1041700002F0F0F8DD2002F0EDF8002002F0EAF89D
:10418000F32002F0E7F8002002F0E4F8E32002F068
:10419000EDF8052002F0DEF8002002F0DBF80A203E
:1041A00002F0D8F8002002F0D5F81C2002F0D2F876
:1041B000002002F0CFF8332002F0CCF8002002F00B
:1041C000C9F8442002F0C6F8002002F0C3F85020DD
:1041D00002F0C0F8002002F0BDF8622002F0BAF848
:1041E000002002F0B7F8782002F0B4F8002002F0C6
:1041F000B1F8882002F0AEF8002002F0ABF897206A
:1042000002F0A8F8002002F0A5F8A62002F0A2F81B
:10421000002002F09FF8B72002F09CF8002002F086
:1042200099F8C22002F096F8002002F093F8C72017
:1042300002F090F8002002F08DF8D12002F08AF808
:10424000002002F087F8D52002F084F8002002F068
:1042500081F8DD2002F07EF8002002F07BF8F320E8
:1042600002F078F8002002F075F8E42002F07EF801
:10427000012002F06FF8002002F06CF8012002F03B
:1042800069F8002002F066F8022002F063F80020CE
:1042900002F060F82A2002F05DF8002002F05AF8DF
:1042A0003C2002F057F8002002F054F84B2002F0B6
:1042B00051F8002002F04EF85D2002F04BF800208B
:1042C00002F048F8742002F045F8002002F042F8AD
:1042D000842002F03FF8002002F03CF8932002F026
:1042E00039F8002002F036F8A22002F033F800205E
:1042F00002F030F8B32002F02DF8002002F02AF886
:10430000BE2002F027F8002002F024F8C42002F0BA
:1043100021F8002002F01EF8CD2002F01BF800204A
:1043200002F018F8D32002F015F8002002F012F87D
:10433000DD2002F00FF8002002F00CF8F32002F06C
:1043400009F8002002F006F8E52002F00FF800203E
:1043500002F000F8002001F0FDFF002001F0FAFF5C
:10436000002001F0F7FF022001F0F4FF002001F02F
:10437000F1FF292001F0EEFF002001F0EBFF3C20CF
:1043800001F0E8FF002001F0E5FF4B2001F0E2FF23
:10439000002001F0DFFF5D2001F0DCFF002001F0D4
:1043A000D9FF742001F0D6FF002001F0D3FF842054
:1043B00001F0D0FF002001F0CDFF932001F0CAFFF3
:1043C000002001F0C7FFA22001F0C4FF002001F08F
:1043D000C1FFB32001F0BEFF002001F0BBFFBE20F3
:1043E00001F0B8FF002001F0B5FFC42001F0B2FFDA
:1043F000002001F0AFFFCD2001F0ACFF002001F064
:10440000A9FFD32001F0A6FF002001F0A3FFDC20CC
:1044100001F0A0FF002001F09DFFF32001F09AFFC2
:10442000002001F097FFE62001F0A0FF112001F02D
:1044300091FF002001F08EFF342001F08BFF00205F
:1044400001F088FF562001F085FF002001F082FF77
:10445000762001F07FFF002001F07CFF772001F043
:1044600079FF002001F076FF662001F073FF002045
:1044700001F070FF882001F06DFF002001F06AFF5D
:10448000992001F067FF002001F064FFBB2001F0DC
:1044900061FF002001F05EFF992001F05BFF00202A
:1044A00001F058FF662001F055FF002001F052FF97
:1044B000552001F04FFF002001F04CFF552001F086
:1044C00049FF002001F046FF452001F043FF002096
:1044D00001F040FF432001F03DFF002001F03AFFD2
:1044E000442001F037FF002001F034FFE72001F005
:1044F0003DFF322001F02EFF002001F02BFF552060
:1045000001F028FF002001F025FF762001F022FFB6
:10451000002001F01FFF662001F01CFF002001F0C9
:1045200019FF672001F016FF002001F013FF67203C
:1045300001F010FF002001F00DFF872001F00AFFBD
:10454000002001F007FF992001F004FF002001F096
:1045500001FFBB2001F0FEFE002001F0FBFE9920D0
:1045600001F0F8FE002001F0F5FE772001F0F2FEE8
:10457000002001F0EFFE442001F0ECFE002001F0ED
:10458000E9FE562001F0E6FE002001F0E3FE2320C4
:1045900001F0E0FE002001F0DDFE332001F0DAFE44
:1045A000002001F0D7FE452001F0D4FE002001F0EC
:1045B000D1FEE82001F0DAFE002001F0CBFE002061
:1045C00001F0C8FE992001F0C5FE002001F0C2FEF6
:1045D000872001F0BFFE002001F0BCFE882001F022
:1045E000B9FE002001F0B6FE772001F0B3FE0020F6
:1045F00001F0B0FE662001F0ADFE002001F0AAFE41
:10460000882001F0A7FE002001F0A4FEAA2001F0FE
:10461000A1FE002001F09EFEBB2001F09BFE0020C9
:1046200001F098FE992001F095FE002001F092FE25
:10463000662001F08FFE002001F08CFE552001F075
:1046400089FE002001F086FE552001F083FE002047
:1046500001F080FE442001F07DFE002001F07AFE92
:10466000442001F077FE002001F074FE552001F097
:1046700071FE002001F06EFEE92001F077FEAA2015
:1046800001F068FE002001F065FE002001F062FEEE
:10469000002001F05FFE002001F068FEAA2001F07A
:1046A00059FECF2001F062FE002001F053FE0020F1
:1046B00001F050FE002001F04DFE002001F04AFE06
:1046C000002001F047FE002001F044FE002001F030
:1046D00041FE002001F03EFE002001F03BFE0020E4
:1046E00001F038FE002001F035FE002001F032FE1E
:1046F000002001F02FFE002001F02CFE002001F030
:1047000029FE002001F026FE002001F023FEF0200B
:1047100001F02CFE002001F01DFE502001F01AFED9
:10472000002001F017FE002001F014FE002001F02F
:1047300011FEF32001F01AFE002001F00BFEF9201B
:1047400001F014FE062001F005FE102001F002FE2B
:10475000292001F0FFFD002001F0FCFD3A2001F0CE
:1047600005FE552001F0F6FD112001F0FFFD64204B
:10477000FCF792F8292001F0F9FD352001F0F6FD53
:10478000002001F0E7FD512001F0F0FDFF2001F0D5
:10479000E1FD532001F0EAFD2C2001F0DBFD552066
:1047A00001F0E4FD822001F0D5FDBDE810402C2091
:1047B00001F0DCBD2DE9F05F4FF470435521184640
:1047C00001F0EAFD4FF20104AA21204601F0E4FDC8
:1047D000651C5221284601F0DFFDA61C0821304649
:1047E00001F0DAFDE71C0121384601F0D5FD0D216D
:1047F0004FF4304001F0D0FD0D214BF2010001F0EB
:10480000CBFD0D214BF2020001F0C6FD4FF43648FE
:104810003421404601F0C0FD34214BF2016001F02B
:10482000BBFD34214BF2026001F0B6FD4FF431497B
:104830000D21484601F0B0FD4BF2011A0D21504602
:1048400001F0AAFD0D214BF2021001F0A5FD4FF47D
:10485000374B3421584601F09FFD34214BF2017053
:1048600001F09AFD34214BF2027001F095FD002118
:104870004FF4324001F090FD00214BF2012001F095
:104880008BFD00214BF2022001F086FD24214FF424
:10489000384001F081FD24214BF6010001F07CFD40
:1048A00024214BF6020001F077FD01214FF43F4037
:1048B00001F072FD0F214FF4334001F06DFD0F2127
:1048C0004BF2013001F068FD0F214BF2023001F094
:1048D00063FD34214FF4394001F05EFD34214BF685
:1048E000011001F059FD34214BF6021001F054FD86
:1048F00008214FF4354001F04FFD08214BF20150E3
:1049000001F04AFD08214BF2025001F045FD032160
:104910004FF4424001F040FD24214FF43A4001F0B1
:104920003BFD24214BF6012001F036FD24214BF6FE
:10493000022001F031FD00214FF43C4001F02CFD3C
:1049400078214BF6014001F027FD00214BF6024093
:1049500001F022FD00214FF43D4001F01DFD7821C2
:104960004BF6015001F018FD00214BF6025001F00A
:1049700013FD00214FF43E4001F00EFD64214BF683
:10498000016001F009FD00214FF4514001F004FDE8
:1049900033214DF2011001F0FFFC00214DF2021015
:1049A00001F0FAFC34214DF2031001F0F5FC002176
:1049B0004DF2041001F0F0FC3A214DF2051001F027
:1049C000EBFC00214DF2061001F0E6FC4A214DF20D
:1049D000071001F0E1FC00214DF2081001F0DCFCB1
:1049E0005C214DF2091001F0D7FC00214DF20A10B4
:1049F00001F0D2FC81214DF20B1001F0CDFC002121
:104A00004DF20C1001F0C8FCA6214DF20D1001F082
:104A1000C3FC00214DF20E1001F0BEFCE5214DF269
:104A20000F1001F0B9FC01214DF2101001F0B4FC9F
:104A300013214DF2111001F0AFFC01214DF21210C3
:104A400001F0AAFC54214DF2131001F0A5FC012144
:104A50004DF2141001F0A0FC82214DF2151001F06E
:104A60009BFC01214DF2161001F096FCCA214DF27B
:104A7000171001F091FC02214DF2181001F08CFC8E
:104A800000214DF2191001F087FC02214DF21A109D
:104A900001F082FC01214DF21B1001F07DFC02218E
:104AA0004DF21C1001F078FC34214DF21D1001F084
:104AB00073FC02214DF21E1001F06EFC67214DF2D5
:104AC0001F1001F069FC02214DF2201001F064FC7E
:104AD00084214DF2211001F05FFC02214DF22210E1
:104AE00001F05AFCA4214DF2231001F055FC0221E3
:104AF0004DF2241001F050FCB7214DF2251001F0C9
:104B00004BFC02214DF2261001F046FCCF214DF264
:104B1000271001F041FC02214DF2281001F03CFC6D
:104B2000DE214DF2291001F037FC02214DF22A104E
:104B300001F032FCF2214DF22B1001F02DFC02218C
:104B40004DF22C1001F028FCFE214DF22D1001F049
:104B500023FC03214DF22E1001F01EFC10214DF21A
:104B60002F1001F019FC03214DF2301001F014FC5C
:104B700033214DF2311001F00FFC03214DF23210C0
:104B800001F00AFC6D214DF2331001F005FC00210B
:104B90004FF4524001F000FC33214DF2012001F0AE
:104BA000FBFB00214DF2022001F0F6FB34214DF217
:104BB000032001F0F1FB00214DF2042001F0ECFB99
:104BC0003A214DF2052001F0E7FB00214DF20620CD
:104BD00001F0E2FB4A214DF2072001F0DDFB00214C
:104BE0004DF2082001F0D8FB5C214DF2092001F0C4
:104BF000D3FB00214DF20A2001F0CEFB81214DF2C2
:104C00000B2001F0C9FB00214DF20C2001F0C4FB88
:104C1000A6214DF20D2001F0BFFB00214DF20E2028
:104C200001F0BAFBE5214DF20F2001F0B5FB0121A7
:104C30004DF2102001F0B0FB13214DF2112001F0D4
:104C4000ABFB01214DF2122001F0A6FB54214DF2E5
:104C5000132001F0A1FB01214DF2142001F09CFB77
:104C600082214DF2152001F097FB01214DF2162013
:104C700001F092FBCA214DF2172001F08DFB0221B9
:104C80004DF2182001F088FB00214DF2192001F0AF
:104C900083FB02214DF21A2001F07EFB01214DF22F
:104CA0001B2001F079FB02214DF21C2001F074FB66
:104CB00034214DF21D2001F06FFB02214DF21E2028
:104CC00001F06AFB67214DF21F2001F065FB022114
:104CD0004DF2202001F060FB84214DF2212001F0F3
:104CE0005BFB02214DF2222001F056FBA4214DF284
:104CF000232001F051FB02214DF2242001F04CFB56
:104D0000B7214DF2252001F047FB02214DF226206C
:104D100001F042FBCF214DF2272001F03DFB0221A3
:104D20004DF2282001F038FBDE214DF2292001F060
:104D300033FB02214DF22A2001F02EFBF2214DF22D
:104D40002B2001F029FB02214DF22C2001F024FB45
:104D5000FE214DF22D2001F01FFB03214DF22E20EC
:104D600001F01AFB10214DF22F2001F015FB032159
:104D70004DF2302001F010FB33214DF2312001F0D3
:104D80000BFB03214DF2322001F006FB6D214DF2A9
:104D9000332001F001FB00214FF4534001F0FCFAF5
:104DA00033214DF2013001F0F7FA00214DF20230CB
:104DB00001F0F2FA34214DF2033001F0EDFA002156
:104DC0004DF2043001F0E8FA3A214DF2053001F0DD
:104DD000E3FA00214DF2063001F0DEFA4A214DF2ED
:104DE000073001F0D9FA00214DF2083001F0D4FA71
:104DF0005C214DF2093001F0CFFA00214DF20A306A
:104E000001F0CAFA81214DF20B3001F0C5FA002100
:104E10004DF20C3001F0C0FAA6214DF20D3001F038
:104E2000BBFA00214DF20E3001F0B6FAE5214DF249
:104E30000F3001F0B1FA01214DF2103001F0ACFA5F
:104E400013214DF2113001F0A7FA01214DF2123079
:104E500001F0A2FA54214DF2133001F09DFA012124
:104E60004DF2143001F098FA82214DF2153001F024
:104E700093FA01214DF2163001F08EFACA214DF25B
:104E8000173001F089FA02214DF2183001F084FA4E
:104E900000214DF2193001F07FFA02214DF21A3053
:104EA00001F07AFA01214DF21B3001F075FA02216E
:104EB0004DF21C3001F070FA34214DF21D3001F03A
:104EC0006BFA02214DF21E3001F066FA67214DF2B5
:104ED0001F3001F061FA02214DF2203001F05CFA3E
:104EE00084214DF2213001F057FA02214DF2223097
:104EF00001F052FAA4214DF2233001F04DFA0221C3
:104F00004DF2243001F048FAB7214DF2253001F07E
:104F100043FA02214DF2263001F03EFACF214DF244
:104F2000273001F039FA02214DF2283001F034FA2D
:104F3000DE214DF2293001F02FFA02214DF22A3004
:104F400001F02AFAF2214DF22B3001F025FA02216C
:104F50004DF22C3001F020FAFE214DF22D3001F0FF
:104F60001BFA03214DF22E3001F016FA10214DF2FA
:104F70002F3001F011FA03214DF2303001F00CFA1C
:104F800033214DF2313001F007FA03214DF2323076
:104F900001F002FA6D214DF2333001F0FDF90021EC
:104FA0004FF4544001F0F8F933214DF2014001F083
:104FB000F3F900214DF2024001F0EEF934214DF2F7
:104FC000034001F0E9F900214DF2044001F0E4F959
:104FD0003A214DF2054001F0DFF900214DF2064083
:104FE00001F0DAF94A214DF2074001F0D5F900212C
:104FF0004DF2084001F0D0F95C214DF2094001F07A
:10500000CBF900214DF20A4001F0C6F981214DF2A1
:105010000B4001F0C1F900214DF20C4001F0BCF948
:10502000A6214DF20D4001F0B7F900214DF20E40DE
:1050300001F0B2F9E5214DF20F4001F0ADF9012187
:105040004DF2104001F0A8F913214DF2114001F08A
:10505000A3F901214DF2124001F09EF954214DF2C5
:10506000134001F099F901214DF2144001F094F937
:1050700082214DF2154001F08FF901214DF21640C9
:1050800001F08AF9CA214DF2174001F085F9022199
:105090004DF2184001F080F900214DF2194001F065
:1050A0007BF902214DF21A4001F076F901214DF20F
:1050B0001B4001F071F902214DF21C4001F06CF926
:1050C00034214DF21D4001F067F902214DF21E40DE
:1050D00001F062F967214DF21F4001F05DF90221F4
:1050E0004DF2204001F058F984214DF2214001F0A9
:1050F00053F902214DF2224001F04EF9A4214DF264
:10510000234001F049F902214DF2244001F044F915
:10511000B7214DF2254001F03FF902214DF2264022
:1051200001F03AF9CF214DF2274001F035F9022183
:105130004DF2284001F030F9DE214DF2294001F016
:105140002BF902214DF22A4001F026F9F2214DF20D
:105150002B4001F021F902214DF22C4001F01CF905
:10516000FE214DF22D4001F017F903214DF22E40A2
:1051700001F012F910214DF22F4001F00DF9032139
:105180004DF2304001F008F933214DF2314001F089
:1051900003F903214DF2324001F0FEF86D214DF28A
:1051A000334001F0F9F800214FF4554001F0F4F8D4
:1051B00033214DF2015001F0EFF800214DF2025081
:1051C00001F0EAF834214DF2035001F0E5F8002136
:1051D0004DF2045001F0E0F83A214DF2055001F093
:1051E000DBF800214DF2065001F0D6F84A214DF2CD
:1051F000075001F0D1F800214DF2085001F0CCF831
:105200005C214DF2095001F0C7F800214DF20A501F
:1052100001F0C2F881214DF20B5001F0BDF80021E0
:105220004DF20C5001F0B8F8A6214DF20D5001F0EE
:10523000B3F800214DF20E5001F0AEF8E5214DF229
:105240000F5001F0A9F801214DF2105001F0A4F81F
:1052500013214DF2115001F09FF801214DF212502F
:1052600001F09AF854214DF2135001F095F8012104
:105270004DF2145001F090F882214DF2155001F0DA
:105280008BF801214DF2165001F086F8CA214DF23B
:10529000175001F081F802214DF2185001F07CF80E
:1052A00000214DF2195001F077F802214DF21A5009
:1052B00001F072F801214DF21B5001F06DF802214E
:1052C0004DF21C5001F068F834214DF21D5001F0F0
:1052D00063F802214DF21E5001F05EF867214DF295
:1052E0001F5001F059F802214DF2205001F054F8FE
:1052F00084214DF2215001F04FF802214DF222504D
:1053000001F04AF8A4214DF2235001F045F80221A2
:105310004DF2245001F040F8B7214DF2255001F034
:105320003BF802214DF2265001F036F8CF214DF224
:10533000275001F031F802214DF2285001F02CF8ED
:10534000DE214DF2295001F027F802214DF22A50BA
:1053500001F022F8F2214DF22B5001F01DF802214C
:105360004DF22C5001F018F8FE214DF22D5001F0B5
:1053700013F803214DF22E5001F00EF810214DF2DA
:105380002F5001F009F803214DF2305001F004F8DC
:1053900033214DF2315000F0FFFF03214DF2325026
:1053A00000F0FAFF6D214DF2335000F0F5FF0021BF
:1053B0004FF4564000F0F0FF33214DF2016000F051
:1053C000EBFF00214DF2026000F0E6FF34214DF2C8
:1053D000036000F0E1FF00214DF2046000F0DCFF0B
:1053E0003A214DF2056000F0D7FF00214DF2066032
:1053F00000F0D2FF4A214DF2076000F0CDFF0021FE
:105400004DF2086000F0C8FF5C214DF2096000F029
:10541000C3FF00214DF20A6000F0BEFF81214DF272
:105420000B6000F0B9FF00214DF20C6000F0B4FFFA
:10543000A6214DF20D6000F0AFFF00214DF20E608D
:1054400000F0AAFFE5214DF20F6000F0A5FF012159
:105450004DF2106000F0A0FF13214DF2116000F03A
:105460009BFF01214DF2126000F096FF54214DF296
:10547000136000F091FF01214DF2146000F08CFFE9
:1054800082214DF2156000F087FF01214DF2166078
:1054900000F082FFCA214DF2176000F07DFF02216B
:1054A0004DF2186000F078FF00214DF2196000F015
:1054B00073FF02214DF21A6000F06EFF01214DF2E0
:1054C0001B6000F069FF02214DF21C6000F064FFD8
:1054D00034214DF21D6000F05FFF02214DF21E608D
:1054E00000F05AFF67214DF21F6000F055FF0221C6
:1054F0004DF2206000F050FF84214DF2216000F059
:105500004BFF02214DF2226000F046FFA4214DF234
:10551000236000F041FF02214DF2246000F03CFFC7
:10552000B7214DF2256000F037FF02214DF22660D1
:1055300000F032FFCF214DF2276000F02DFF022155
:105540004DF2286000F028FFDE214DF2296000F0C6
:1055500023FF02214DF22A6000F01EFFF2214DF2DE
:105560002B6000F019FF02214DF22C6000F014FFB7
:10557000FE214DF22D6000F00FFF03214DF22E6051
:1055800000F00AFF10214DF22F6000F005FF03210B
:105590004DF2306000F000FF33214DF2316000F039
:1055A000FBFE03214DF2326000F0F6FE6D214DF25C
:1055B000336000F0F1FE5521184600F0EDFEAA21FF
:1055C000204600F0E9FE5221284600F0E5FE0821C1
:1055D000304600F0E1FE0021384600F0DDFECC212F
:1055E000484600F0D9FE0021504600F0D5FE0521C6
:1055F000404600F0D1FE7021584600F0CDFE7021EB
:105600004BF2017000F0C8FE01214FF4384000F069
:10561000C3FE03214BF6010000F0BEFE03214BF652
:10562000020000F0B9FE03214BF6030000F0B4FEC7
:1056300002214FF43C4000F0AFFE00214BF6014048
:1056400000F0AAFE00214BF6024000F0A5FED0219A
:105650004FF4494000F0A0FE02214CF6011000F08A
:105660009BFE50214CF6021000F096FE50214CF6A5
:10567000031000F091FE50214CF6041000F08CFE57
:1056800000214FF4545000F087FE55214FF468502C
:1056900000F082FE4FF4885000F068FE7820FBF79F
:1056A000FBF8BDE8F05F4FF4245000F05FBE10B58A
:1056B000E22000F05BFE1D2000F04CFE022000F016
:1056C00049FE042000F046FE6420FBF7E5F8E020E8
:1056D00000F04CFE012000F03DFE0A20FBF7DCF854
:1056E000E02000F043FE032000F034FE0C20FBF726
:1056F000D3F8012000F03AFE0A20FBF7CDF8E620AF
:1057000000F034FE2F2000F025FEFF2000F022FEE6
:10571000FF2000F01FFEB02000F028FE202000F047
:1057200019FE002000F016FE032000F013FE40F2E8
:105730001F3000F00FFE012000F00CFE40F2DF10E1
:1057400000F008FE002000F005FEB42000F00EFE80
:10575000042000F0FFFD40F21F4000F0FBFD0020A0
:1057600000F0F8FD2E2000F0F5FD002000F0F2FD25
:10577000002000F0EFFD002000F0ECFD002000F024
:10578000E9FDB62000F0F2FD022000F0E3FD4FF449
:10579000037000F0DFFD002000F0DCFD172000F0BA
:1057A000D9FD152000F0D6FD002000F0D3FD00202B
:1057B00000F0D0FDF02000F0D9FD032000F0CAFD7C
:1057C000292000F0D3FDD02000F0D0FD002000F013
:1057D000C1FDBE2000F0CAFD052000F0BBFDFE208B
:1057E00000F0B8FD012000F0B5FD002000F0B2FD92
:1057F000002000F0AFFD002000F0ACFDB82000F06C
:10580000B5FD032000F0A6FD012000F0A3FDBA20A5
:1058100000F0ACFDBDE81040012000F09BBD10B5CC
:10582000112000F0A3FD7820FBF736F8362000F0B9
:105830009DFD002000F08EFD3A2000F097FD052030
:1058400000F088FDB22000F091FD0C2000F082FDF8
:105850000C2000F07FFD002000F07CFD332000F0E4
:1058600079FD332000F076FDB72000F07FFD352074
:1058700000F070FDBB2000F079FD322000F06AFDE1
:10588000C02000F073FD0C2000F064FDC22000F089
:105890006DFD012000F05EFDC32000F067FD1020CB
:1058A00000F058FDC42000F061FD202000F052FD02
:1058B000C62000F05BFD0F2000F04CFDD02000F072
:1058C00055FDA42000F046FDA12000F043FDE0209E
:1058D00000F04CFDD02000F03DFD002000F03AFD2E
:1058E000022000F037FD072000F034FD0A2000F010
:1058F00031FD282000F02EFD322000F02BFD442049
:1059000000F028FD422000F025FD062000F022FDD9
:105910000E2000F01FFD122000F01CFD142000F0EE
:1059200019FD172000F016FDE12000F01FFDD0202A
:1059300000F010FD002000F00DFD022000F00AFD37
:10594000072000F007FD0A2000F004FD282000F0E9
:1059500001FD312000F0FEFC542000F0FBFC47204C
:1059600000F0F8FC0E2000F0F5FC1C2000F0F2FC2A
:10597000172000F0EFFC1B2000F0ECFC1E2000F0D4
:10598000E9FC2A2000F0F2FC002000F0E3FC0020FB
:1059900000F0E0FC002000F0DDFCEF2000F0DAFC7D
:1059A0002B2000F0E3FC002000F0D4FC002000F0ED
:1059B000D1FC012000F0CEFC3F2000F0CBFCBDE884
:1059C0001040292000F0D2BC10B5112000F0CEFC10
:1059D0007820FAF761FF362000F0C8FC482000F07C
:1059E000B9FC3A2000F0C2FC552000F0B3FCF020D6
:1059F00000F0BCFCC32000F0ADFCF02000F0B6FCD1
:105A0000962000F0A7FCB42000F0B0FC012000F0CC
:105A1000A1FCB62000F0AAFC0A2000F09BFCA2200A
:105A200000F098FCB72000F0A1FCC62000F092FC2A
:105A3000B92000F09BFC022000F08CFCE02000F07C
:105A400089FCC02000F092FC802000F083FC16202E
:105A500000F080FCC12000F089FC192000F07AFCE5
:105A6000C22000F083FCA72000F074FCC52000F0E9
:105A70007DFC162000F06EFCE82000F077FC402052
:105A800000F068FC8A2000F065FC002000F062FC59
:105A9000002000F05FFC292000F05CFC192000F0E1
:105AA00059FCA52000F056FC332000F053FCE02008
:105AB00000F05CFCF02000F04DFC072000F04AFCF8
:105AC0000D2000F047FC042000F044FC052000F00D
:105AD00041FC142000F03EFC362000F03BFC54203A
