:020000040800F2
:10000000A86C00209D0100081B170008C5150008FA
:100010001917000855030008C9180008000000005F
:100020000000000000000000000000001F17000892
:1000300057030008000000001D17000821170008E2
:10004000B7010008B7010008B7010008B7010008B0
:10005000B7010008B7010008B7010008B7010008A0
:10006000B7010008B7010008B7010008B701000890
:10007000B7010008B7010008B7010008B701000880
:10008000B7010008B7010008B7010008B701000870
:10009000B7010008B7010008B7010008B701000860
:1000A000B7010008B7010008B7010008B701000850
:1000B000B7010008B7010008B7010008B701000840
:1000C000B7010008B7010008B7010008B701000830
:1000D000B7010008B7010008B7010008B701000820
:1000E000B7010008B7010008B7010008B701000810
:1000F000B7010008B7010008B7010008B701000800
:10010000B7010008B7010008B7010008B7010008EF
:10011000B7010008B7010008B7010008B7010008DF
:10012000B7010008B7010008B7010008B7010008CF
:10013000B7010008A9030008B7010008B7010008CB
:10014000B7010008B7010008B7010008B7010008AF
:10015000B7010008B7010008B7010008B70100089F
:10016000B7010008B7010008B7010008B70100088F
:10017000B7010008B7010008B7010008000000003F
:10018000B7010008B7010008DFF80CD000F0D0F884
:100190000048004783560008A86C002006488047A6
:1001A00006480047FEE7FEE7FEE7FEE7FEE7FEE75C
:1001B000FEE7FEE7FEE7FEE7AD170008890100084D
:1001C0002DE9F05F0546002092469B46884606468C
:1001D000814640241BE0284641464746224600F01F
:1001E00097F853465A46C01A914110D31146184603
:1001F000224600F07EF82D1A67EB01084F46224692
:100200000120002100F075F817EB00094E41201E77
:10021000A4F10104DFDC484631462A464346BDE8E6
:10022000F09F00000649074A0868504343F239022C
:10023000104408604008704701490860704700009A
:10024000D40000206D4EC64110B5431A934209D226
:100250008318881803E010F8011D03F8011D521ED1
:10026000F9D210BD40EA01039B0703D009E008C999
:10027000121F08C0042AFAD203E011F8013B00F86B
:10028000013B521EF9D210BDD2B201E000F8012BA1
:10029000491EFBD270470022F6E710B513460A4606
:1002A00004461946FFF7F0FF204610BD30B504465E
:1002B0000020034600E05B1C934203D2E05CCD5C6F
:1002C000401BF8D030BD30B50B460146002020223F
:1002D000012409E021FA02F59D4205D303FA02F553
:1002E000491B04FA02F52844151EA2F10102F1DCB3
:1002F00030BD202A04DB203A00FA02F100207047CA
:100300009140C2F1200320FA03F319439040704753
:10031000202A04DB203A21FA02F00021704721FA5A
:1003200002F3D040C2F120029140084319467047C1
:10033000064C074D06E0E06840F0010394E8070032
:1003400098471034AC42F6D3FFF722FF9CCC00084C
:10035000BCCC0008FEE77047064908B509684FF4B1
:10036000FA52B1FBF2F14143009100BF491E0091E6
:10037000FBD208BD1800002038B50446006800F51F
:100380008050816941F480118161206800F58050BE
:10039000806900900120FFF7DFFF2068009900F5D9
:1003A0008050816138BD0000014800F05DB9000057
:1003B000B03100202DE9F041044621B14FF4006036
:1003C000E060C000A060E0690025002861D02846F8
:1003D0002368402619683A4A1140D4E902273A4373
:1003E000024342F400700843186020680768012047
:1003F00000F074F82068076020684660206846684E
:10040000012000F06BF82068466020688560206855
:10041000C560216888694FF64172104040F0800045
:10042000886120688669012000F058F8206886619C
:100430002068C5612068C569012000F04FF8206878
:10044000C561226802F5805290691E4908401E4924
:1004500001439161206800F580508569012000F01A
:100460003DF8206800F5805085612068174900F547
:1004700080500160206800F580500568012000F080
:100480002DF8206800F580500560A069012803D090
:1004900009E04FF480609BE7206800F58050C16957
:1004A0000B4A1143C16160690A4982880A64027873
:1004B000D0F8010042EA00204864BDE8F081000065
:1004C0000F8120FF233FDEF8040020028020C102BC
:1004D00040000100008002407047000070B50446F3
:1004E00000F0AEFC0546601C02D0044800780444CD
:1004F00000F0A6FC401BA042FAD370BD0C00002007
:100500002DE9F04390F845400025012C0DD04FF027
:10051000010C80F845C0022480F8444044F2F457AE
:100520004FF000495E1E816217E00220BDE8F083B3
:1005300001EB4514C4F80090C5EBC51808EB48085A
:1005400002EB8808C4E90178B54204D204F120081E
:10055000C4F80C8000E0E1606D1C9D42E8D30268A5
:1005600002F58052D16080F844C0002180F8451027
:100570000846DBE72DE9F043914690F8452000243A
:10058000012A0AD0012680F84560022280F8442022
:100590004FF4801C5D1EC1621BE00220BDE8F083A9
:1005A00001EB4412C2F800C0C4EBC41707EB4708C4
:1005B00009EB88079760C7691FB9176847F44007B8
:1005C0001760AC4203D202F12007D76000E0D1608F
:1005D000641C9C42E4D3026802F58052116180F8E9
:1005E0004460002180F845100846D7E7704710B5F1
:1005F00090F84510012913D0012280F845200221EE
:1006000080F84410816A0C680023002C27DB0C68FA
:10061000E40518D5846B641C8463012C02D002E0CD
:10062000022010BD016341630C68C4F30D44241F14
:10063000C463046BA4680464C96840F8281F027787
:100640004377002010BD0C68A40503D58263C0E980
:100650000C1302E0846B641C8463C968816200F837
:10066000442F4370012010BD70B50446006800F5AA
:10067000805041694FF0000549064FF0010608D54A
:10068000204600F0DDF92068402100F580504161EE
:1006900009E04069C0070AD0204600F098FA2068B7
:1006A00000F58050466184F8446084F84550206825
:1006B0004FF4803100F580504161206800F5805092
:1006C000406900040CD52046FFF790FF20684FF4E6
:1006D000004100F58050416184F8446084F8455041
:1006E00070BD00002DE9FC474FF000060400B14644
:1006F000009603D094F8440018B107E00120BDE84B
:10070000FC8784F84560204600F0E4F867480168FB
:1007100041F480410160006800F480400190644829
:10072000016821F4000101600168226A114301603F
:10073000206800F58050016841F00101016000F07F
:100740007FFB05464FF4FA7709E000BF00F078FB25
:10075000401BB84203D9032004F8440F67E0206827
:1007600000F580500068C007F0D12068006920F0D3
:100770001C0500F0A1FC4F494F4A0144914202D2AE
:1007800045F0080516E04D494D4A0144914202D218
:1007900045F00C050EE04B494B4A0144914209D308
:1007A0004A4908444A49884202D245F0040501E01A
:1007B00045F01005206805614FF4004200212046F5
:1007C00000F006FA0125A8BBFF20FFF787FE60684E
:1007D00088B300F035FB804641F288376A46012134
:1007E000204600F0EBF800F02BFBA0EB0800B8422D
:1007F00017D800984007F1D54FF4805200212046C9
:1008000000F0E6F9B0B900F01BFB80466A46012112
:10081000204600F0D3F800F013FBA0EB0800B8422C
:100820000AD901212046FFF7C5FD04F8445F0320E3
:10083000667064E726E01AE000988006E6D56A460E
:100840001121204600F0BAF8E0B90098810403D5E0
:100850004FF40061E16000E0E66044F21001814382
:1008600003D04FF48040A06017E0A66015E0E06878
:10087000A168C00840EA510082B20021204600F081
:10088000A7F930B101212046FFF794FD84F84450C8
:1008900034E740F6FF70FFF721FE49462046FFF798
:1008A00089FD84F84450002029E7000044380240C4
:1008B0000438014000D3CEFEC0E1E40040F1E9FD80
:1008C00040787D0100796CFC005A6202001F0AFA30
:1008D00080F0FA02F0B587B0044614216846FFF7AD
:1008E000DAFC3149206888425BD130480024016835
:1008F00041F000710160016801F00071059101682B
:1009000041F080610160016801F08061059101683A
:1009100041F000610160016801F00061059101682A
:1009200041F004010160016801F0040105910168D2
:1009300041F001010160016801F0010105910168C8
:1009400041F0400101600068022500F04000059080
:100950003220CDE9000502AA03260B2782E8D00049
:100960006946134800F070F98620CDE9000502AA17
:10097000694682E8D0000F4800F066F94FF4D04095
:10098000CDE9000502AA694682E8D0000A4800F0D5
:100990005BF9002201213D2000F0C2FA3D2000F069
:1009A000B1FA07B0F0BD00000080024030380240CC
:1009B0000008024000000240001802402DE9F04704
:1009C000044690F84400914682281DD0822084F885
:1009D0004400226810694FF6FF7500F01C03208A5E
:1009E00005EAC02018434FF4F86303EA811101437C
:1009F00021F0020040F00105156100F021FA0646E1
:100A000001274FF4803810E00220BDE8F08700BFD6
:100A100000F016FA801B404505D304F8447F0020FF
:100A200060700320F1E720680569E807F0D12068CD
:100A3000406981B2C9F8001084F844700020E4E7EE
:100A40007047F8B5044690F84500012839D00125D3
:100A500084F84550022084F844002068002601688C
:100A600041F0080101602068006800902846FFF707
:100A700073FC2168009808602068016841F0040157
:100A800001602068006800900120FFF765FC216884
:100A9000009808602046FFF76FFC206800F5805042
:100AA000816941F400518161206800F580508169BD
:100AB00041F00201816184F8445084F845600020CF
:100AC000F8BD0220F8BDF0B590F845200023012ABA
:100AD00011D0012780F84570022280F844200024BC
:100AE00059B1C66A3268002A0ADA122100F8441F96
:100AF00044700120F0BD0220F0BD00F8447FF7E70C
:100B000040F2F455A9420BD9B1FBF5FCB1FBF5F26B
:100B100005FB1C1CBCF1000F00D0521C012A43D164
:100B2000326842F040523260C26AC1F30C01516037
:100B3000C16A0A6842F000420A60C16AC968C162BB
:100B400034E0D6F800C02CF0405CC6F800C033B9E1
:100B5000C66AD6F800C04CF0805CC6F800C0C66A11
:100B60007560561EB34214D1C66AD6F800C04CF068
:100B7000005CC6F800C0C2F10106C6EBC61606EB63
:100B80004606D0F82CC001EB8606C6F30C06CCF85E
:100B90000460C66AD6F800C04CF0004CC6F800C02D
:100BA000C66A5B1CF668C6629342CAD3016801F547
:100BB00080514A69520705D504224A61016801F54E
:100BC00080514C6000F8447F44700020F0BD7047B5
:100BD0002DE9F041044690F8440042281ED04220FE
:100BE00084F84400236818694FF6FF7600F01C056E
:100BF000208A06EAC02028434FF4F86505EA8111EF
:100C0000014390B241F0030558612068056100F08E
:100C100017F9064601274FF4803810E00220BDE89E
:100C2000F08100BF00F00CF9801B404505D304F8AB
:100C3000447F002060700320F1E720680569E80721
:100C4000F0D184F84470EAE72DE9F84FDFF8B8A155
:100C5000002201250AF1040B03264FF00F090BF1C6
:100C6000040E00BF0B6805FA02F42340A3426FD1C3
:100C70000F7907F00307012F01D0022F16D18768E3
:100C80004FEA420806FA08FC27EA0C07D1F80CC024
:100C90000CFA08FC4CEA070CC0F808C04768A743E8
:100CA0000C79C4F3001494403C4344600C79E44351
:100CB000A4070AD0C4684FEA420C06FA0CF7BC43FA
:100CC0008F6807FA0CF72743C7600C7904F0030418
:100CD000022C12D1D40800EB840CDCF8204057071A
:100CE000FF0E09FA07F824EA0804D1F8108008FA80
:100CF00007F848EA0408CCF8208004684FEA420C60
:100D000006FA0CF7BC430F7907F0030707FA0CF754
:100D1000274307604C68E40070D53C4C276847F4D3
:100D200080472760246822F0030704F4804400947D
:100D3000374C07EB040CDCF8084897074FEA1778A4
:100D400009FA08F7BC43334FB84202D1002724E028
:100D500054E0314FB84201D101271EE02F4FB84275
:100D600001D1022719E02E4FB84201D1032714E028
:100D70002C4FB84201D104270FE02B4FB84201D1CC
:100D800005270AE0294FB84201D1062705E0284F80
:100D9000B84201D1072700E0082707FA08F72743E0
:100DA000CCF80878DAF800405746D1F804C09C43E4
:100DB0005FEACC3C00D51C433C60DBF800405F465A
:100DC000D1F804C09C435FEA8C3C00D51C433C60D6
:100DD000DEF800407746D1F804C09C435FEACC2C93
:100DE00000D51C433C60084F0C373C68D1F804C068
:100DF0009C435FEA8C2C00D51C433C60521C102A9B
:100E0000FFF430AFBDE8F88F003C014044380240A9
:100E1000003001400000024000040240000802408F
:100E2000000C024000100240001402400018024072
:100E3000001C02400AB1816170470904FBE7000011
:100E400001488068704700000C000020024881685B
:100E500002781144816070470C0000200B4810B5E7
:100E6000016841F400710160016841F48061016032
:100E7000016841F480710160032000F071F80020E6
:100E800000F006F800F024F8002010BD003C0240FD
:100E900070B50D4D04464FF47A712878B1FBF0F02F
:100EA0000A490968B1FBF0F000F012FB48B9102CB8
:100EB00007D200222146501E00F032F800206C605C
:100EC00070BD012070BD00000C0000201800002043
:100ED0000B4882B0016841F480410160006800F471
:100EE000804000900648001F016841F08051016079
:100EF000006800F080500090052002B000F030B88B
:100F000044380240002809DB00F01F020121914013
:100F10004009800000F1E020C0F800117047000097
:100F2000F0B40E4B1B680C46C3F30223C3F1070554
:100F3000042D00D90425191D072901D2002300E042
:100F4000DB1E012606FA05F1491E214099409E400C
:100F5000761E16403143F0BC00F0C8BC0CED00E03A
:100F6000064900F0070208684FF6FF03184040EA00
:100F70000220034A10430860704700000CED00E0B7
:100F80000000FA052DE9F0470E46050065D0DFF8B0
:100F90001481D8F80000F7B200F00700B04207D281
:100FA00088F80070D8F8000000F00700B04254D173
:100FB00028683D4C810712D5400703D5206840F4CE
:100FC000E05020602878000703D5206840F4604096
:100FD00020602068A96820F0F0000843206028788D
:100FE000C0072DD0304968680839012812D002287E
:100FF00013D0032811D00968890700292DDA216848
:1010000021F0030101432160FFF71AFF814641F2FD
:10101000883A0EE009688903EFE709688901ECE77F
:10102000FFF70EFFA0EB0901514502D90320BDE8EF
:10103000F0872068696800F00C00B0EB810FEFD1F9
:10104000D8F80010404601F00701B14207D90770F7
:10105000006800F00700B04201D00120E7E72878DF
:10106000400705D52068E96820F4E0500843206077
:101070002878000706D52068296920F4604040EAF6
:10108000C100206000F03EF82168084AC1F3031156
:10109000515CC8400649086006480068FFF7F8FE42
:1010A0000020C4E7003C0240083802400CCA000897
:1010B0001800002010000020014800687047000060
:1010C000180000200448054900680968044AC1F373
:1010D0008221515CC8407047180000200838024047
:1010E0001CCA00080448054900680968044AC1F39D
:1010F0004231515CC8407047180000200838024057
:101100001CCA0008154810B5006810F00C021448FD
:1011100013D04110042A0FD0082A0ED10F4C241FDF
:101120002268236802F03F025B0207D52068C0F303
:101130008810A0FB010106E0084610BD2168C1F33C
:101140008811A1FB00010023FFF73AF82168C1F3E1
:101150000141491C4900B0FBF1F010BD08380240C4
:101160000024F4002DE9F84F04006ED02078DFF859
:101170004C93C007A9F104054AD009F104000168A5
:10118000C1F38101012908D00068C0F38100022861
:101190000AD1D9F80000400206D52868800337D567
:1011A00060680028E1D033E06068B0F5803F10D07F
:1011B000B0F5A02F286810D020F48030286028686F
:1011C00020F4802028606068A8B1FFF739FE064649
:1011D0000DE0286840F48030F4E740F48020286077
:1011E000F7E700BFFFF72CFE801B642873D8286840
:1011F0008003F7D50CE0FFF723FE064605E000BFAD
:10120000FFF71EFE801B6428F0D828688003F7D4FF
:101210002078DFF8AC8280074FF0000A3ED5A7485F
:10122000001D016811F00C0F08D00068C0F38100A8
:1012300002280BD1D9F80000400207D428688007A3
:1012400016D5E068012800D112E033E1E068B8B1BA
:101250000120C8F80000FFF7F3FD064605E000BFD7
:10126000FFF7EEFD801B0228C0D828688007F7D55D
:101270002868216920F0F80040EAC10028600DE0EC
:10128000C8F800A0FFF7DCFD064604E0FFF7D8FD34
:10129000801B02281FD828688007F7D42078000711
:1012A00022D5864F87486169703771B1012101608D
:1012B000FFF7C6FD064604E0FFF7C2FD801B0228CB
:1012C00009D838688007F7D50EE0C0F800A0FFF70E
:1012D000B7FD064605E082E0FFF7B2FD801B02285D
:1012E0007DD838688007F7D42078400768D5DFF8C4
:1012F000CCB100270BF13C0BDBF80000C0000BD495
:10130000DBF8001041F08051CBF80010DBF8000052
:10131000012700F0805000906B4E3068C00510D45B
:10132000306840F480703060FFF78AFD009005E07F
:10133000FFF786FD0099401A022850D83068C00592
:10134000F6D55E4EA0686C3601280FD005283068AF
:1013500010D020F001003060306820F004003060D0
:10136000A068B8B1FFF76CFD00900FE0306840F066
:101370000100F4E740F004003060F7E7FFF760FD9C
:101380000099411A41F28830814266D8306880075E
:10139000F4D50EE0FFF754FD009007E0FFF750FD95
:1013A0000099411A41F28830814256D8306880074E
:1013B000F4D42FB1DBF8001021F08051CBF80010ED
:1013C000A069C8B33D49091D0968C1F3810102291B
:1013D0004AD00228504607D0C8F8600000E03CE040
:1013E000FFF72EFD04463BE04746C8F86000FFF7D4
:1013F00027FD064605E000BFFFF722FD801B0228FF
:101400002BD828688001F7D4D4E907010843A16AE2
:101410002E4A490802EB0141626A41EA82110843FF
:1014200094F82C1040EA0161C9F8001001203866D8
:10143000FFF706FD044606E03EE000BFFFF700FDB3
:10144000001B022809D828688001F7D534E000BFC6
:10145000FFF7F6FC001B022802D90320BDE8F88F35
:1014600028688001F4D427E00128F7D0D9F80000DB
:10147000E26900F4800191421CD1226A00F03F0130
:10148000914217D147F6C071626A0140B1EB821FE9
:1014900010D1A26A4FF0FF3300F4403103EB520247
:1014A000B1EB024F06D194F82C1000F07060B0EB55
:1014B000016F01D00120D1E70020CFE704380240BE
:1014C00000004742800E4742007000400000FFFFCE
:1014D00010B5401EB0F1807F01D3012010BD4FF048
:1014E000E02460610F21601700F000FA0020A06185
:1014F00007202061002010BD70B5040004D094F8CE
:101500003D00002510B106E0012070BD84F83C507C
:10151000204600F023F8242084F83D002068C168AC
:1015200021F40051C160204600F048F920680169AB
:1015300021F4904101612068416921F02A01416153
:101540002068C16841F40051C1602564202084F8FE
:101550003D0084F83E00002070BD000010B586B04C
:10156000044614216846FEF796FE13492068884217
:1015700020D11248016841F010010160006800F0BC
:10158000100005900D481438016841F00201016017
:101590000068694600F002000590C020009002201B
:1015A000019001200290032003900720049004483A
:1015B000FFF74AFB06B010BD00100140443802405E
:1015C00000040240FEE7000070B586B014216846B2
:1015D000FEF761FE22480025016841F48071016038
:1015E000016801F480710591016841F0800101609A
:1015F000016801F080010591016841F0040101607A
:10160000016801F004010591016841F001010160E8
:10161000016801F001010591016841F0400101609C
:10162000016801F040010591016841F0020101608B
:101630000068012200F002000A4E140205902146C3
:101640003046FFF7F7FB0120CDE900400320CDE94C
:10165000025069463046FFF7F7FA06B070BD000049
:1016600030380240002002400EB503F0FBFF134962
:101670000020144A0860091D104B0860091D08333A
:101680000860CDE900020E4902911A1F111F0E4891
:1016900004F0BEFB0C4804F0D5FD0B4890F82D007B
:1016A0004007094802D504F027FE01E004F0D0FD10
:1016B000BDE80E40044801F009BD00000000002014
:1016C000493F0008E5400008DC00002010B5034851
:1016D00002F04CFDBDE8104005F0B6BDDC00002076
:1016E0000C4810B50A4901604FF4E1314160002116
:1016F00081600C22C160C0E904128161C161FFF701
:10170000FBFE002803D0BDE81040FEF7E5BE10BD8B
:1017100000100140F8310020FEE770477047704725
:10172000FFF794BB30B593B030216846FEF7B3FDA8
:1017300014210CA8FEF7AFFD1A480025016841F0FE
:1017400080510160006800F08050119016480168D7
:1017500041F4804101600068022400F4804011904F
:1017600001200090000401908001CDE9064008208E
:1017700008904FF4A870CDE9090404200B90684646
:10178000FFF7F0FC0CA90F2081E831004FF4A050C6
:101790000F90E002109005210CA8FFF7F3FB13B0A7
:1017A00030BD00004038024000700040024801682F
:1017B00041F470010160704788ED00E070B50446A7
:1017C00000680169E26821F4405111430161216917
:1017D000A068E26908436169114308432168CA6847
:1017E00049F20C639A430243CA6020684169A269C6
:1017F00021F440711143416131492068884202D08F
:101800003049884202D1FFF76DFC01E0FFF75AFC36
:10181000E2690023192164253226B2F5004F62687F
:1018200028D0A0FB0101930F9200FEF7C9FC0146EE
:10183000B0FBF5F06FF01802504301EB800006EBAF
:101840000010B0FBF5F000F0F002B1FBF5F002EB98
:101850000012B1FBF5F06FF01803584301EB800064
:1018600006EB0010B0FBF5F000F00F00216810440B
:10187000886070BDA0FB010192185B41FEF7A0FCDF
:101880000146B0FBF5F00201B1FBF5F06FF0180373
:10189000584301EB800006EBC000B0FBF5F000F010
:1018A000F80002EB4002B1FBF5F0584301EB800079
:1018B00006EBC000B0FBF5F000F00700D6E7000033
:1018C0000010014000140140FEE700000FB4054B7A
:1018D00010B503A9044A029800F028F810BC5DF87E
:1018E00014FB000091410008D80000200907090EF0
:1018F000002804DB00F1E02080F80014704700F0BD
:101900000F0000F1E02080F8141D704702E008C8C5
:10191000121F08C1002AFAD170477047002001E069
:1019200001C1121F002AFBD1704700002DE9FF4FB3
:101930008BB09A460F460546002606E025280BD0B8
:1019400052460D9990476D1C761C28780028F5D1D9
:101950000FB03046BDE8F08F0024A0460122604958
:1019600000E0044315F8013F203B02FA03F008426F
:10197000F7D128782E2817D115F8010F44F0040468
:101980002A280ED06FF02F022878A0F13001092903
:101990000AD808EB880102EB410100EB01086D1C3D
:1019A000F2E757F8048B6D1C287869283ED006DCD6
:1019B0000028CDD063280BD0642804D136E07328EA
:1019C00010D075284BD052460D999047761C85E073
:1019D00017F8040B8DF8000000208DF80100E9468F
:1019E000012003E057F8049B4FF0FF3061074FF0F0
:1019F000000401D40AE0641C44450DDA8442FADB99
:101A000019F804100029F6D106E0641C8442FCDBBE
:101A100019F804100029F8D1264404E019F8010B44
:101A200052460D999047641EF8D257E001CF4FF00F
:101A30000A0B002802DA40422D2102E0210504D5DC
:101A40002B218DF82410012103E0E10705D020218E
:101A5000F7E70DF1200908910CE00021F9E701CF2B
:101A60004FF00A0BF9E75946FEF72DFC01F1300261
:101A700009F8012D0028F6D1ADEB090000F1200B8B
:101A8000600701D44FF00108D84502DDA8EB0B0038
:101A900000E000208046002406E009A85246005DD0
:101AA0000D999047641C761C08988442F5DB04E08D
:101AB000302052460D999047761CB8F10001A8F1EC
:101AC0000108F5DC05E019F8010B52460D99904725
:101AD000761CBBF10001ABF1010BF4DC6D1C34E7AB
:101AE0000928010058B1026A002A0FD05379082B47
:101AF0000CD10968D269914208D100F0C3BA04A39D
:101B000040F28B3210A114A0FFF7E0BE7047000036
:101B10002E2E2F4D6964646C6577617265732F5446
:101B2000686972645F50617274792F4C7749502FE5
:101B30007372632F636F72652F697076342F6468D8
:101B400063702E63000000006E6574696620213D9D
:101B5000204E554C4C000000417373657274696FE0
:101B60006E2022257322206661696C656420617491
:101B7000206C696E6520256420696E2025730A003B
:101B80002DE9FC4105001AD02C6AECB100236382D8
:101B9000A16A4FF03C07B1F1FF3F4FF480364FF0A0
:101BA00001024FF6FF7019D01E31B1FBF7F1B142BF
:101BB00000D301460904090CA1820ED00EE02DA32A
:101BC00040F2154239A103E02AA340F217423EA198
:101BD00043A0FFF77BFEBDE8FC81A282E16AB1F180
:101BE000FF3F0CD01E31B1FBF7F1B14200D30146EB
:101BF0000904090C618100D162816189E181216B55
:101C0000B1F1FF3F0CD01E31B1FBF7F1B14200D36F
:101C100001460904090CA18100D1A281A189218278
:101C20006289A1898A4201D301B16381E17909B155
:101C3000206A08E0217F7F2901D8FF2003E0C02926
:101C400001D36FF07F400090606A019028B9E0698D
:101C50000099084040F0807001900A21204601F070
:101C60002DFA01AB6A4604F11C01284604F0BAFAC9
:101C7000B1E700002E2E2F4D6964646C65776172A8
:101C800065732F54686972645F50617274792F4C68
:101C90007749502F7372632F636F72652F69707667
:101CA000342F646863702E63000000006468637002
:101CB0005F62696E643A206E6574696620213D201A
:101CC0004E554C4C00000000646863705F62696EA2
:101CD000643A206468637020213D204E554C4C00CE
:101CE000417373657274696F6E20222573222066BA
:101CF00061696C6564206174206C696E652025647F
:101D000020696E2025730A0070B5046A0546082113
:101D1000204601F0D3F9002204F11C01284601F00D
:101D200091FEA079FF2801D2401CA0714FF4FA71F6
:101D300040F2E730B0FBF1F0208170BD70B529486A
:101D400004684CE0206AA0B3417991B3818A69B1FB
:101D5000418A491C89B24182828A914206D1204639
:101D600000F0E2FF204601F0B1F937E0018A19B135
:101D70004A1E0282012906D0C189D1B14A1EC28100
:101D8000012917D02AE0256A20466979012905D062
:101D90000A2903D0052901D004291FD100F048FEEB
:101DA000A88A698A401A022818DB00EBD070400824
:101DB000288213E0256A20466979012903D00A297F
:101DC00001D005290AD101F00DF8A889698A401AC5
:101DD000022803DB00EBD0704008E8812468002C67
:101DE000B0D170BD500000202DE9F047994616464D
:101DF0000D4607001BD0002D1ED04FF49A744FF4EF
:101E000020722146362004F02BFBB0F100081BD0D5
:101E1000B8F80A00A246504506D232A340F27172C9
:101E20003EA14EA0FFF752FD032E12D10EE02DA3CE
:101E300040F2697253A103E02AA340F26A7259A1E9
:101E400046A0FFF743FD0020BDE8F087687903282E
:101E500008D1A8795B4C08B1606802E0FEF7E2F9AE
:101E600060602860D8F8044051462046FEF713FA17
:101E700001202070607097F82C00A070286803F093
:101E8000EDFB6060082E0AD0042E08D0072E06D085
:101E9000032E06D16879052801D0042801D178687D
:101EA000E060002039182218401C91F8261080B2FA
:101EB00011770628F6D34448C4F8EC0004F1F00189
:101EC000012335220C46002000F060FA32462146FC
:101ED00000F0A8FAB9F1000F01D0A9F800004046BF
:101EE000B2E700002E2E2F4D6964646C6577617235
:101EF00065732F54686972645F50617274792F4CF6
:101F00007749502F7372632F636F72652F697076F4
:101F1000342F646863702E6300000000646863708F
:101F20005F6372656174655F6D73673A20636865AE
:101F3000636B2074686174206669727374207062C8
:101F400075662063616E20686F6C642073747275AF
:101F5000637420646863705F6D73670041737365B9
:101F60007274696F6E2022257322206661696C6528
:101F700064206174206C696E6520256420696E2080
:101F800025730A00646863705F6372656174655FDE
:101F90006D73673A206E6574696620213D204E5549
:101FA0004C4C0000646863705F6372656174655FC8
:101FB0006D73673A206468637020213D204E554C54
:101FC0004C000000B40000206382536310B50B4C3A
:101FD0002078002805D10AA3FF2217A11FA0FFF730
:101FE00075FC2078401E10F0FF00207004D1A0681E
:101FF0000AF0F0FA0020A06010BD0000B40000203C
:102000002E2E2F4D6964646C6577617265732F5451
:10201000686972645F50617274792F4C7749502FF0
:102020007372632F636F72652F697076342F6468E3
:1020300063702E6300000000646863705F70636209
:102040005F726566636F756E7428293A20726566E3
:10205000636F756E74206572726F72004173736581
:102060007274696F6E2022257322206661696C6527
:1020700064206174206C696E6520256420696E207F
:1020800025730A00FEB5046A06460C21204601F0BD
:1020900015F802AB042221463046FFF7A5FE0500E5
:1020A00028D069680423F03132220F46BDF80800B9
:1020B00000F06CF9ADF80800E06903F0CFFA0246D1
:1020C0003946BDF8080000F00BFAADF808002A46C2
:1020D000394600F0D5FA0F484323CDE900600F4898
:1020E0000D4A294680680AF06DFB0646284604F032
:1020F000B9FD01E04FF0FF36A079FF2801D2401C66
:10210000A07142F603104FF4FA71B0FBF1F0208198
:102110003046FEBD3CCB000840CB0008B400002098
:102120002DE9FE4F046A07464FF0000906212046BC
:10213000C4F81C9000F0C2FF02AB012221463846D1
:10214000FFF752FE06003BD071680223F0318A4649
:1021500039225546BDF8080000F018F9ADF808001E
:10216000BA8C294600F028FAADF80800032337227C
:10217000294600F00BF9DFF88480ADF8080000254F
:10218000514618F80520BDF8080000F04BF96D1C09
:10219000EDB2ADF80800032DF2D33246514680B2BD
:1021A00000F06EFA16484323CDE900701348154A33
:1021B000401E314680680AF005FB304604F052FDAF
:1021C000A079FF2801D2401CA071C1B2062902D219
:1021D0000120884000E03C2000EB4001C1EBC01032
:1021E0004FF6FF7101EAC0004FF4FA7100F2F310EC
:1021F000B0FBF1F020814846BDE8FE8FB50000201D
:102200003CCB000840CB000870B50B4800250468A3
:102210000EE0206A58B10189012903D9A1F1010119
:10222000018104E003D10581204600F0F1FF24681C
:10223000002CEED170BD00005000002070B5046A83
:102240000020154D20626062EA78144E0AB1F268EF
:10225000A2622A790AB1326901E0A26A5208E262F6
:102260006A790AB1726903E0A26AC2EBC202D208BB
:1022700022630969E161A97921B1B06903F0EEF93E
:1022800020620120E071E879002803D0F06903F0B2
:10229000E5F9606270BD0000C00000209867002072
:1022A00010B5154C207800281ED1A068002805D054
:1022B00012A3E5221FA129A0FFF708FB0AF038F9B5
:1022C000A060B0B1417A442241F0200141722D4911
:1022D00009F074FE43222B49A06809F009FF00228F
:1022E0002949A0680AF032F92078401C20700020AB
:1022F00010BD4FF0FF3010BDB40000202E2E2F4D2A
:102300006964646C6577617265732F54686972647F
:102310005F50617274792F4C7749502F7372632F1D
:10232000636F72652F697076342F646863702E63F3
:1023300000000000646863705F696E635F706362D1
:102340005F726566636F756E7428293A206D656DDE
:102350006F7279206C65616B0000000041737365DA
:102360007274696F6E2022257322206661696C6524
:1023700064206174206C696E6520256420696E207C
:1023800025730A003CCB0008092C00082DE9F04118
:102390001D4604462844801C17460E46442806D98C
:1023A00007A340F29A52144914A0FFF78FFA375549
:1023B000641CA0B23554401C80B2BDE8F08100001E
:1023C0002E2E2F4D6964646C6577617265732F548E
:1023D000686972645F50617274792F4C7749502F2D
:1023E0007372632F636F72652F697076342F646820
:1023F00063702E630000000014CC00084173736505
:102400007274696F6E2022257322206661696C6583
:1024100064206174206C696E6520256420696E20DB
:1024200025730A0070B515460E460446442806D3A7
:1024300005A340F2A65212A11FA0FFF747FA355597
:10244000641CA0B270BD00002E2E2F4D6964646C18
:102450006577617265732F54686972645F50617249
:1024600074792F4C7749502F7372632F636F7265A5
:102470002F697076342F646863702E63000000004B
:10248000646863705F6F7074696F6E5F62797465A2
:102490003A206F7074696F6E735F6F75745F6C65EF
:1024A0006E203C20444843505F4F5054494F4E5398
:1024B0005F4C454E00000000417373657274696F94
:1024C0006E2022257322206661696C656420617428
:1024D000206C696E6520256420696E2025730A00D2
:1024E00070B50546001D14460E46442806D90BA3B8
:1024F00040F2B75217A126A0FFF7E8F9200E705559
:102500006D1CA8B2210C3154401C80B2210A3154F8
:10251000401C80B23454401C80B270BD2E2E2F4D12
:102520006964646C6577617265732F54686972645D
:102530005F50617274792F4C7749502F7372632FFB
:10254000636F72652F697076342F646863702E63D1
:1025500000000000646863705F6F7074696F6E5F85
:102560006C6F6E673A206F7074696F6E735F6F7512
:10257000745F6C656E202B2034203C3D2044484322
:10258000505F4F5054494F4E535F4C454E00000032
:10259000417373657274696F6E2022257322206601
:1025A00061696C6564206174206C696E65202564C6
:1025B00020696E2025730A0070B50446801C1546FC
:1025C0000E46442806D907A340F2AE5213A122A01A
:1025D000FFF77CF9280A3055641CA0B23554401C22
:1025E00080B270BD2E2E2F4D6964646C6577617268
:1025F00065732F54686972645F50617274792F4CEF
:102600007749502F7372632F636F72652F697076ED
:10261000342F646863702E63000000006468637088
:102620005F6F7074696F6E5F73686F72743A206F5A
:102630007074696F6E735F6F75745F6C656E202B5D
:102640002032203C3D20444843505F4F5054494F76
:102650004E535F4C454E0000417373657274696F51
:102660006E2022257322206661696C656420617486
:10267000206C696E6520256420696E2025730A0030
:10268000FF230B54401C80B2002302E00B54401C7B
:1026900080B24428FAD3F03081B2104604F0B6BBC1
:1026A0002DE9F04F85B08246A14900200490C86012
:1026B0000861BAF80A002C2817D3BAF808004FF0BE
:1026C000F00901F10C07564607E000BFA9EB020133
:1026D000801A36681FFA81F980B236B1728949468C
:1026E0004A45F3D90C460290F0E06FF0010005B0C6
:1026F000BDE8F08FA11C89B24FF0FF350191A142D6
:10270000F3D37189621C914203D90399214449781A
:1027100003E0316809B1496809783428884634D023
:1027200007DC98B1012814D003281AD0332808D127
:1027300022E0352850D0362857D03A285DD03B28A3
:1027400063D04FF00008002867D02DE000218846B4
:10275000F9E7042903D077A340F22E6211E00625A1
:10276000F1E74FF00408042904D272A340F2336267
:102770007EA1B2E00725E6E7042904D06DA340F26C
:1027800041627FA1A9E00325DDE7012903D069A308
:1027900040F24F6225E0B9F1F00F04D065A340F29A
:1027A00051627AA199E000256018801CB0F5803F45
:1027B0009BD284B2B8F1000F7AD000200090082D8F
:1027C00006D35CA34FF4CF6276A17BA0FFF77EF81F
:1027D000785D002823D06BE0012904D055A340F296
:1027E00055627FA179E00125ADE7042903D051A30B
:1027F00040F25962C5E70225A5E7042903D04DA39D
:1028000040F25D62BDE704259DE7042903D049A39A
:1028100040F26162B5E7052595E794B248E040468D
:10282000B8F1040F00D304208346024669463046BF
:10283000019B04F08BF958457FF457AFB8F1040FB2
:102840001ED95FEA887004D03AA340F2816267A182
:1028500043E001207855009802F000FF01466948E6
:1028600040F82510A8F1040000F0FF080198019934
:10287000001D80B28842FFF438AF6D1C01909EE7C6
:10288000B8F1040F07D0B8F1010F08D029A34FF415
:10289000D2625DA121E0009802F0E0FE01E09DF827
:1028A00000000090012078555648009940F8251006
:1028B0007089A04217D8211A8CB20299081A80B2E6
:1028C00002908442BFF411AF366816B1706803906D
:1028D0000AE018A340F29D6250A137A0FEF7F6FF70
:1028E0006FF0050003E73EB10298844204D20398DA
:1028F000005DFF287FF4FEAE387848B141480021E2
:102900000068397001280ED0022804D0032808D0AE
:1029100004980028E6D0002004904FF02C096C2089
:10292000D1E6012004904FF06C09EC20CBE60000CA
:10293000B40000202E2E2F4D6964646C657761729F
:1029400065732F54686972645F50617274792F4C9B
:102950007749502F7372632F636F72652F6970769A
:10296000342F646863702E63000000006C656E2075
:102970003E3D206465636F64655F6C656E000000BA
:102980006C656E203D3D2034000000006F7665725E
:102990006C6F616420696E2066696C652F736E616F
:1029A0006D650000636865636B206465636F6465D3
:1029B0005F69647800000000417373657274696F29
:1029C0006E2022257322206661696C656420617423
:1029D000206C696E6520256420696E2025730A00CD
:1029E0006C656E203D3D2031000000006465636F22
:1029F00064655F6C656E2025252034203D3D2030C8
:102A00000000000098670020696E76616C696420A0
:102A10006465636F64655F6C656E00006E657874F5
:102A2000207062756620776173206E756C6C000093
:102A30002DE9FC47046A07460421204600F03EFBCE
:102A400001AB032221463846FFF7CEF906003BD002
:102A500071680223F031894639224D46BDF80400E1
:102A6000FFF794FCADF80400BA8C2946FFF7A4FDEB
:102A7000ADF80400032337222946FFF787FCDFF86F
:102A80008080ADF804000025494618F80520BDF8FF
:102A90000400FFF7C7FC6D1CEDB2ADF80400032D78
:102AA000F2D33246494680B2FFF7EAFD1448009758
:102AB000401E4323134A3146806809F0E3FD054672
:102AC000304604F0CFF801E04FF0FF35A079FF2841
:102AD00001D2401CA071C0B20A2804D24FF47A710E
:102AE00010FB01F001E042F2107080B24FF4FA7175
:102AF00000F2F310B0FBF1F020812846BDE8FC871E
:102B0000B500002040CB00082DE9FC47046A0746C9
:102B10000321204600F0D2FA01AB032221463846B9
:102B2000FFF762F906004FD071680223F031894641
:102B300039224D46BDF80400FFF728FCADF804002B
:102B40004FF410722946FFF737FDADF80400042357
:102B500032222946FFF71AFCADF80400E06902F0C2
:102B60007DFD02462946BDF80400FFF7B9FCADF82B
:102B70000400032337222946FFF708FCDFF8808092
:102B8000ADF80400002500BF18F805204946BDF83F
:102B90000400FFF747FC6D1CEDB2ADF80400032DF7
:102BA000F2D33246494680B2FFF76AFD14480097D7
:102BB000401E4323134A3146806809F063FD0546F1
:102BC000304604F04FF801E04FF0FF35A079FF28C0
:102BD00001D2401CA071C0B20A2804D24FF47A710D
:102BE00010FB01F001E042F2107080B24FF4FA7174
:102BF00000F2F310B0FBF1F020812846BDE8FC871D
:102C0000B500002040CB00082DE9F0414248516852
:102C100016464468256A002D79D02879002876D098
:102C200070892C2873D30878022870D1002094F87A
:102C30002C2008E023180F1893F826303F7FBB4262
:102C400065D1401CC0B2824201D90628F2D348683F
:102C500002F004FD2968884259D129463046FFF721
:102C60001FFD08BB2D494878F0B12D4A77681079CF
:102C7000052804D0062821D0022836D047E06879FC
:102C8000012806D0032814D0042812D0052810D01B
:102C90003DE039462046FFF7D1FA94F82D000007B1
:102CA00003D52046FFF730F831E02046FEF768FFF5
:102CB0002DE039462046FFF7C1FAF6E76879032888
:102CC00005D0012803D0042801D005281FD10C21EC
:102CD000206A00F0F3F9134B20461A46114603F020
:102CE00081FA2046FFF71CFA11E0687906280ED118
:102CF0002546246A887850B100202081906802F02F
:102D0000ADFCA0613869E061284600F0D7F8304694
:102D1000BDE8F04103F0A6BF3C320020C000002017
:102D2000986700203CCB00082DE9FE43046A074663
:102D3000002C51D0607900284ED0A0690290002567
:102D4000A561E561256265622563E562A562A582EC
:102D500065822582E581384600F04CFA60B301AB0C
:102D6000072221463846FFF73FF8060024D0716855
:102D70000423F03136228846BDF80400FFF706FB35
:102D8000ADF80400029802F069FC02464146BDF825
:102D90000400FFF7A5FBADF8040032464146FFF7FB
:102DA0006FFC0E480097432302AA3146806809F061
:102DB00069FC304603F056FF094B38461A46114667
:102DC00003F010FA0021204600F078F9207900285D
:102DD00002D0FFF7FBF82571BDE8FE83B4000020A8
:102DE0003CCB00082DE9FC47046A07460521204634
:102DF00000F064F901AB032221463846FEF7F4FFE8
:102E000006003CD071680223F031894639224D46D4
:102E1000BDF80400FFF7BAFAADF80400BA8C2946F1
:102E2000FFF7CAFBADF80400032337222946FFF75A
:102E3000ADFADFF88480ADF804000025494618F8A3
:102E40000520BDF80400FFF7EDFA6D1CEDB2ADF8FA
:102E50000400032DF2D33246494680B2FFF710FC3E
:102E600015480097401E432304F11802314680683C
:102E700009F008FC0546304603F0F4FE01E04FF08F
:102E8000FF35A079FF2801D2401CA071C0B20A28EA
:102E900004D24FF4FA6110FB01F001E044F6206027
:102EA00080B24FF4FA7100F2F310B0FBF1F0208120
:102EB0002846BDE8FC870000B50000202DE9FE4350
:102EC000070073D03C6A002C7CD00121204600F022
:102ED000F5F802AB032221463846FEF785FF0600CF
:102EE0007AD071680223F031894639224D46BDF807
:102EF0000800FFF74BFAADF80800BA8C2946FFF737
:102F00005BFBADF80800042332222946FFF73EFAA6
:102F1000ADF80800E06902F0A1FB02462946BDF8C1
:102F20000800FFF7DDFAADF8080004233622294631
:102F3000FFF72CFAADF80800A06902F08FFB0246FB
:102F40002946BDF80800FFF7CBFAADF808000323C7
:102F500037222946FFF71AFADFF8BC80ADF80800DF
:102F6000002500BF18F805204946BDF80800FFF706
:102F700059FA6D1CEDB2ADF80800032DF2D33246BC
:102F8000494680B2FFF77CFB24484323CDE900701B
:102F90002148234A401E3146806809F013FC05464B
:102FA000304603F05FFE19E000E00BE01DA340F2A5
:102FB00077122AA130A0FEF789FC6FF00F00BDE860
:102FC000FE8309E017A340F2791235A12AA0FEF78B
:102FD0007DFC6FF00500F2E74FF0FF35A079FF2888
:102FE00001D2401CA071C0B2062802D2012181404A
:102FF00000E03C2101EB4100C0EBC1104FF6FF7136
:1030000001EAC0004FF4FA7100F2F310B0FBF1F0E6
:1030100020812846D3E70000B50000203CCB000803
:1030200040CB00082E2E2F4D6964646C6577617269
:1030300065732F54686972645F50617274792F4CA4
:103040007749502F7372632F636F72652F697076A3
:10305000342F646863702E6300000000646863703E
:103060005F73656C6563743A206E657469662021D0
:103070003D204E554C4C0000417373657274696F6E
:103080006E2022257322206661696C65642061745C
:10309000206C696E6520256420696E2025730A0006
:1030A000646863705F73656C6563743A2064686319
:1030B0007020213D204E554C4C00000042798A4240
:1030C00003D04171002181710181704770B5050005
:1030D0006FF00F041AD095F82D00C0071BD0A88CF4
:1030E0002C6A4FF0FF36B0F5107F0DD3002C1BD0AB
:1030F000207908B1FEF76AFF34212046FDF7CBF8AE
:10310000FFF7CEF8002816D0304670BD14A340F269
:10311000E72221A103E012A34FF43A7222A12BA0CF
:10312000FEF7D4FB204670BD342002F0A3FB040060
:10313000EAD02C62E0E70120207195F82D004007CD
:1031400005D402212046FFF7B9FF002070BD2846B4
:10315000FEF7E6FF0028F9D02846FFF7E5FDD3E7A4
:103160002E2E2F4D6964646C6577617265732F54E0
:10317000686972645F50617274792F4C7749502F7F
:103180007372632F636F72652F697076342F646872
:1031900063702E63000000006E6574696620213D37
:1031A000204E554C4C0000006E65746966206973B2
:1031B000206E6F742075702C206F6C64207374798E
:1031C0006C6520706F72743F00000000417373657E
:1031D0007274696F6E2022257322206661696C65A6
:1031E00064206174206C696E6520256420696E20FE
:1031F00025730A0040B1006A30B140790A2805D031
:10320000052803D0042801D0002070470120704712
:1032100010B5026A044651790C290BD0062909D051
:1032200001290BD0082918D0032926D1907902282A
:1032300020461ED3BDE81040FEF772BF90790528E6
:10324000204603D8BDE81040FFF738BEFFF76CFDFD
:103250002046BDE81040FFF739BF9079012820468D
:1032600003D8BDE81040FEF74FBDBDE81040FEF7A3
:1032700087BCBDE81040FFF747BC10BD70B50546E0
:103280000C46880706D006A34FF4B67210A118A00A
:10329000FEF71CFBA86800682060A868046070BD89
:1032A0002E2E2F4D6964646C6577617265732F549F
:1032B000686972645F50617274792F4C7749502F3E
:1032C0007372632F636F72652F6D656D702E63006F
:1032D0006D656D705F667265653A206D656D207015
:1032E000726F7065726C7920616C69676E656400DD
:1032F000417373657274696F6E2022257322206694
:1033000061696C6564206174206C696E6520256458
:1033100020696E2025730A0010B580680468002CAF
:103320000CD021680160A00706D005A34FF48C7271
:103330000FA118A0FEF7CAFA204610BD002010BD4C
:103340002E2E2F4D6964646C6577617265732F54FE
:10335000686972645F50617274792F4C7749502F9D
:103360007372632F636F72652F6D656D702E6300CE
:103370006D656D705F6D616C6C6F633A206D656D2E
:10338000702070726F7065726C7920616C69676E05
:1033900065640000417373657274696F6E20222545
:1033A0007322206661696C6564206174206C696EAB
:1033B0006520256420696E2025730A0070B5094DCB
:1033C0000646002404EB440005EBC000017D29B152
:1033D0008068B04202D1204600F036F9641C0A2C05
:1033E000F0DB70BDB86700202DE9F74F84B04FF0D7
:1033F0000A0B00240646DA465F46D9460294019439
:10340000CDF80040514904EB440001EBC0080390A3
:1034100098F814500A2F1DD0002D2AD0012D08D065
:10342000022D06D24AA340F2231257A166A0FEF74E
:103430004DFA9EB13168D8F8040081420ED1069849
:1034400020B1D8F808100698814207D1204607B06D
:10345000BDE8F08F002DE1D127460AE0012D16D0FE
:10346000022D06D3B8F812000099884201D3A24673
:103470000090641C24B20A2CC4DB059881074FF02D
:10348000FF30E4D40A2F16D018DA3C463EE02F492C
:10349000039851F830000028B8F8120005D00299BE
:1034A0008842E6D3A1460290E3E701998842E0D33F
:1034B000A3460190DDE70599C907C8D05146BAF186
:1034C0000A0F0EDA0C46214801EB440150F8310096
:1034D00080B11FA340F26D1245A13BA0FEF7F6F9A3
:1034E00008E05946BBF10A0F03DB4946B9F10A0F60
:1034F000ADDA0C460A2C06DB15A340F27F1242A17E
:1035000031A0FEF7E3F9204600F09EF80A2C06DB16
:103510000FA340F283123CA12BA0FEF7D7F90B4872
:1035200004EB440100EBC105287D30B108A34FF442
:10353000C2723AA124A0FEF7C9F90EB130686860E2
:10354000002068820698A86080E70000B867002025
:103550002E2E2F4D6964646C6577617265732F54EC
:10356000686972645F50617274792F4C7749502F8B
:103570007372632F636F72652F697076342F657471
:10358000686172702E6300007374617465203D3D44
:10359000204554484152505F53544154455F504573
:1035A0004E44494E47207C7C207374617465203EF4
:1035B0003D204554484152505F53544154455F5358
:1035C0005441424C45000000417373657274696F49
:1035D0006E2022257322206661696C656420617407
:1035E000206C696E6520256420696E2025730A00B1
:1035F0006172705F7461626C655B695D2E71203D04
:103600003D204E554C4C000069203C204152505FFB
:103610005441424C455F53495A4500006172705F06
:103620007461626C655B695D2E7374617465203DC5
:103630003D204554484152505F53544154455F45E5
:103640004D5054590000000070B5074C00EB400588
:10365000002654F8350018B103F004FB44F8356037
:1036600004EBC500067570BDB86700202DE9F04376
:1036700085B00D00074609D07C684FF4807820881B
:10368000404542D1207906283FD109E021A340F2EC
:103690008A222EA131A0FEF719F905B0BDE8F0830A
:1036A0006079042831D1608808282ED1D4F80E0022
:1036B0000490A169686820B1814202D10126334695
:1036C00001E00026022304F10802914604A92846DD
:1036D00000F0ACFBE088404503D0B0F5007F14D18A
:1036E0000FE096B1022204ABCDE90232291DCDE9EB
:1036F000001905F1260319464A46284600F096FAB5
:1037000003E004A92846FEF7EDF9384603F0AAFACB
:10371000C3E700002E2E2F4D6964646C65776172DB
:1037200065732F54686972645F50617274792F4CAD
:103730007749502F7372632F636F72652F697076AC
:10374000342F6574686172702E6300006E65746951
:103750006620213D204E554C4C000000417373659E
:103760007274696F6E2022257322206661696C6510
:1037700064206174206C696E6520256420696E2068
:1037800025730A00FEB515460E46040006D143A374
:1037900040F21E324FA153A0FEF798F836B93FA36E
:1037A00040F21F3259A14FA0FEF790F835B93BA364
:1037B0004FF4487258A14BA0FEF788F821462868BC
:1037C00000F074FE08B1584B3FE02868C0F30311C5
:1037D0000E2925D0A168636800EA01020B409A42D5
:1037E00008D080B2A0F57E41A93903D0E068B0B31B
:1037F00004F10C054D4B4E481A7802EB420100EBE8
:10380000C1010F7D022F2ED38F68A7422BD12F68C5
:1038100049688F4227D13146204600F08BF8FEBD23
:1038200001208DF8040000208DF805005E208DF841
:103830000600687801AB00F07F008DF80700A878DB
:103840008DF80800E8788DF809004FF400600090CA
:1038500004F126023146204600F0C8FBFEBDFFE71A
:103860006FF00300FAE7002202EB420100EBC10116
:103870000F7D022F08D38F68A74205D12F684968B2
:103880008F4201D11A70C6E7521CD2B20A2AEBD37A
:1038900032462946204600F0D5F8DFE72E2E2F4D80
:1038A0006964646C6577617265732F5468697264CA
:1038B0005F50617274792F4C7749502F7372632F68
:1038C000636F72652F697076342F657468617270EA
:1038D0002E6300006E6574696620213D204E554CB4
:1038E0004C000000417373657274696F6E2022256D
:1038F0007322206661696C6564206174206C696E56
:103900006520256420696E2025730A007120213D01
:10391000204E554C4C000000697061646472202197
:103920003D204E554C4C000024CA0008C800002021
:10393000B86700202DE9F8430646154688461C481E
:1039400002EB450100EBC104207D022806D219A339
:1039500040F2EE2225A131A0FDF7B8FF144A05EB95
:103960004501207D02EBC1050C35022813D1608A88
:103970000327B0F58E7F04D9211D304600F010FAE0
:1039800007E0B0F5877F06D32A46211D304600F0B8
:103990000DFA00B927754FF4006000902B4606F130
:1039A00026024146304600F021FBBDE8F8830000C6
:1039B000B86700202E2E2F4D6964646C65776172A4
:1039C00065732F54686972645F50617274792F4C0B
:1039D0007749502F7372632F636F72652F6970760A
:1039E000342F6574686172702E6300006172705FBD
:1039F0007461626C655B6172705F6964785D2E737F
:103A000074617465203E3D204554484152505F53D7
:103A1000544154455F535441424C450041737365D2
:103A20007274696F6E2022257322206661696C654D
:103A300064206174206C696E6520256420696E20A5
:103A400025730A002DE9FC5F8246263001900E4660
:103A5000086814464FF0FF374FF0000B514600F056
:103A600025FD80B93068C0F303110E290BD056B183
:103A700048B1524601213046FFF7B6FC050005D596
:103A800040B2BDE8FC9F6FF00F00FAE77F2D06D330
:103A900037A340F2C13244A147A0FDF717FF05F05C
:103AA000FF094F4909EB490801EBC805287D0028AB
:103AB0000ED0012808D0022806D22DA340F2CD3224
:103AC00048A13DA0FDF702FFBBF1000F06D104E0C5
:103AD00001202875C5F808A000E034B931465046E9
:103AE00000F05EF90746002CCBD0287D3C4E022822
:103AF0000ED346494FF4006005F10C0381F80090A5
:103B0000009021465046019A00F070FA07462DE0D9
:103B100001282BD1254640F2F1376889298988424E
:103B200007D1286828B112A33A4639A122A0FDF78F
:103B3000CDFE287B400607D522464FF420710E208B
:103B400002F0C6FE044605E02D68002DE5D12046B2
:103B500003F0F6F944B156F8380008B103F082F8E2
:103B600046F83840002701E04FF0FF37384688E735
:103B70002E2E2F4D6964646C6577617265732F54C6
:103B8000686972645F50617274792F4C7749502F65
:103B90007372632F636F72652F697076342F65744B
:103BA000686172702E63000074797065206F7665AD
:103BB00072666C6F77000000417373657274696F91
:103BC0006E2022257322206661696C656420617411
:103BD000206C696E6520256420696E2025730A00BB
:103BE000B86700206172705F7461626C655B695DCB
:103BF0002E7374617465203D3D2050454E44494EFE
:103C000047206F7220535441424C4500C8000020A9
:103C10006E6F207061636B65742071756575657377
:103C200020616C6C6F776564210000002DE9FF4F07
:103C300081B09846DDE90FA9DDF838B006004FF0F5
:103C4000000706D12CA340F2574239A13CA0FDF752
:103C50003DFE4FF420721C210E2002F001FC0500F5
:103C600046D068891C2806D223A340F262423EA1B6
:103C700033A0FDF72BFE6C68119801F0F1FCE08099
:103C800096F82C00062806D01BA340F2694243494F
:103C90002BA0FDF71BFED8F80010A160B8F80400B7
:103CA000A081DAF80010C4F81210BAF80400E0821B
:103CB000DBF80000C4F80E00D9F80000A0614FF452
:103CC00080702080082060800620207104206071B0
:103CD00040F60600DDE9022300902946304600F058
:103CE00085F9284602F0BEFF384605B0BDE8F08FE2
:103CF0004FF0FF30F9E700002E2E2F4D6964646C01
:103D00006577617265732F54686972645F50617280
:103D100074792F4C7749502F7372632F636F7265DC
:103D20002F697076342F6574686172702E6300009D
:103D30006E6574696620213D204E554C4C00000094
:103D4000417373657274696F6E2022257322206639
:103D500061696C6564206174206C696E65202564FE
:103D600020696E2025730A00636865636B207468A0
:103D70006174206669727374207062756620636175
:103D80006E20686F6C642073747275637420657440
:103D9000686172705F6864720000000058CC0008AF
:103DA000014A00F003B8000024CA00087FB5064DA0
:103DB000031D0124CDE90035CDE902142233194653
:103DC000FFF734FF04B070BD2ACA000870B5164D65
:103DD000002400BF04EB440005EBC002117DF1B1EB
:103DE000508A401C80B25082B0F5967F0AD20129D9
:103DF00006D003290AD004290AD001290BD00EE0ED
:103E0000052808D32046FFF71FFC08E0042000E047
:103E10000220107503E0111D9068FFF7C1FF641CBC
:103E20000A2CD7DB70BD0000B8670020F8B5044647
:103E300090F82C001F4616460D46062806D020A3F3
:103E400040F2A9122CA135A0FDF740FD9DB12868D4
:103E500088B1214600F02AFB68B92878C0F3031026
:103E60000E2808D0224639462846FFF7BDFA00281A
:103E700004DA40B2F8BD6FF00F00F8BD00EB40016E
:103E80003048022300EBC102137594603368D3609D
:103E9000B38813820023538250F8315075B140F833
:103EA00031304FF400600090334604F12602294679
:103EB000204600F09BF8284602F0D4FE0020F8BD12
:103EC0002E2E2F4D6964646C6577617265732F5473
:103ED000686972645F50617274792F4C7749502F12
:103EE0007372632F636F72652F697076342F6574F8
:103EF000686172702E6300006E657469662D3E689D
:103F000077616464725F6C656E203D3D2045544866
:103F10005F4857414444525F4C454E0041737365BE
:103F20007274696F6E2022257322206661696C6548
:103F300064206174206C696E6520256420696E20A0
:103F400025730A00B86700202DE9F0410446408936
:103F50000E270D460E283CD9E07B18B995F83000A5
:103F6000401CE073606801788689CA0714D0012973
:103F700005D006221C49FCF799F948B10CE04178BC
:103F800051B980785E2807D1607B40F0100002E0D4
:103F9000607B40F008006073082E03D0B6F5C16F57
:103FA00017D10DE095F82D00000712D539462046AF
:103FB00003F00CF868B92946204600F0BFFB10E07A
:103FC00095F82D00000704D53946204602F0FEFF83
:103FD00018B1204602F046FE03E029462046FFF7CE
:103FE00045FB0020BDE8F08124CA00082DE9F0411E
:103FF00004461F4690460E46069801F031FB0546E2
:104000000E21304602F0C8F918B16FF00100BDE88A
:10401000F0817068858139680160B9888180D8F83D
:104020000020C0F80620B8F80410418194F82C0054
:10403000062806D006A34FF4997213A11FA0FDF71E
:1040400045FC31462046A269BDE8F041104700001A
:104050002E2E2F4D6964646C6577617265732F54E1
:10406000686972645F50617274792F4C7749502F80
:104070007372632F6E657469662F65746865726EFE
:1040800065742E63000000006E657469662D3E68DD
:1040900077616464725F6C656E206D757374206205
:1040A00065203620666F722065746865726E65746F
:1040B0005F6F757470757421000000004173736543
:1040C0007274696F6E2022257322206661696C65A7
:1040D00064206174206C696E6520256420696E20FF
:1040E00025730A0010B5040006D10BA340F201228B
:1040F0000EA112A0FDF7EAFB732084F82E007420B5
:1041000084F82F00174860611748A061204601F02D
:104110006DF9002010BD00002E2E2F5372632F6505
:10412000746865726E657469662E63006E65746985
:104130006620213D204E554C4C00000041737365B4
:104140007274696F6E2022257322206661696C6526
:1041500064206174206C696E6520256420696E207E
:1041600025730A00853700087955000870B50546A3
:1041700001F0A2F9040009D02A69294690470028D5
:1041800004D02046BDE8704002F06CBD70BD000058
:1041900003490A685206FCD5C2B24A607047000063
:1041A000001001400A46032100F0F4B82DE9FE4F4B
:1041B0008A4644490446D1F8088098F80000000770
:1041C000850E142D79D36089042876D36068007831
:1041D000002872D0082870D1486901F11407C0F393
:1041E00003120E2A69D08946096800F05FF9002899
:1041F00063D12089082860D305F10E010E462046C0
:1042000002F0CAF8002830D02089411989B28842CA
:1042100053D84FF420720E2002F022F906004CD041
:10422000718905F10800814216D32A46414670681B
:10423000FCF70AF82946304602F0C8FE002806D0EE
:1042400021A3B6222EA13CA0FDF740FB04E02146AD
:10425000304602F08BFB18B1304602F003FD2CE033
:10426000204602F0FFFC34460CE03146204602F0C6
:10427000ADFE002806D014A3C72239A12EA0FDF759
:1042800025FB1AE029462046666802F085F8A0B9A9
:1042900060683968FF22C160D9F8101001610021FF
:1042A000317071800272418101228DE806040A4654
:1042B000FF233946204600F021FB2046BDE8FE4F93
:1042C00002F0D0BC3C3200202E2E2F4D6964646C6D
:1042D0006577617265732F54686972645F506172AB
:1042E00074792F4C7749502F7372632F636F726507
:1042F0002F697076342F69636D702E6300000000A3
:1043000069636D705F696E7075743A206D6F766960
:104310006E6720722D3E7061796C6F616420746FDE
:104320002069636D702068656164657220666169EB
:104330006C65640A00000000417373657274696FF4
:104340006E2022257322206661696C656420617489
:10435000206C696E6520256420696E2025730A0033
:1043600069636D705F696E7075743A2072657374FD
:104370006F72696E67206F726967696E616C207019
:104380002D3E7061796C6F6164206661696C656453
:104390000A0000002DE9FF479146884606464FF483
:1043A00020722421222002F05BF8050031D06889B8
:1043B000242806D218A34FF4B47225A12FA0FDF72C
:1043C00085FA6C6877681C2284F8008084F8019074
:1043D0004FF00008A4F80480A4F8068068687168AB
:1043E0000830FBF731FFF868039003A800F096FC53
:1043F00060B1A4F802800122CDF80080CDE901204F
:10440000FF2303AA0021284600F078FA284602F08C
:1044100029FCBDE8FF8700002E2E2F4D6964646CD7
:104420006577617265732F54686972645F50617259
:1044300074792F4C7749502F7372632F636F7265B5
:104440002F697076342F69636D702E630000000051
:10445000636865636B207468617420666972737445
:1044600020706275662063616E20686F6C642069DD
:10447000636D70206D65737361676500417373656B
:104480007274696F6E2022257322206661696C65E3
:1044900064206174206C696E6520256420696E203B
:1044A00025730A000A460B21FFF774BF421C12D085
:1044B00088B191F82D2092070BD54B68834208D024
:1044C000896800EA01020B409A4202D10143491C6B
:1044D00001D0002070470120704700002DE9F74F00
:1044E00088B00446099800251426808CAF1F143824
:1044F000C11700EB5170C0F3CF00039060680690C5
:10450000017801F00F01052903D038460BB0BDE852
:10451000F08F6189142907D25BA34FF43F7269A120
:104520006FA0FDF7D3F9F0E7C08801F099F8C0F368
:104530000C0100F4005002910790208914381FFAF2
:1045400080F88EE003984FF6FF7101EAC000414603
:10455000404500D9084604904FF4207214210E20E3
:1045600001F07EFF5FEA000A7ED0BAF80A00142844
:1045700006D245A34FF4497263A159A0FDF7A6F9ED
:104580001422DAF804000699FBF75EFEDAF804005C
:104590000590049F35E06089811B8DB2B04206D240
:1045A00039A340F22D3260A14DA0FDF78FF9AF4243
:1045B00000D23D461DB3052001F0D8FB5FEA00099B
:1045C00057D060684B463044CDE90005412229466A
:1045D000002002F0B7F85FEA000B50D0204602F04E
:1045E000AFFC5549C9E904145946504602F0C6F8D3
:1045F000781B07043F0C06D000262468CBE724680C
:104600000026002FC7D1701986B20998808C143803
:1046100040450298C0F30C0001DB079909B140F452
:10462000005001F01DF80599C8800498143080B23C
:1046300001F016F8059948800598002141810998F4
:1046400051460A9A43699847504602F00BFB049979
:10465000A8EB01001FFA80F8DDE90201084480B2EE
:104660000290B8F1000F00E006E07FF46BAF00208D
:104670004CE7504602F0F6FA4FF0FF3046E7484666
:1046800000F07CFBF5E700002E2E2F4D6964646C72
:104690006577617265732F54686972645F506172E7
:1046A00074792F4C7749502F7372632F636F726543
:1046B0002F697076342F6970345F667261672E637C
:1046C000000000006970345F6672616728293A2033
:1046D0007062756620746F6F2073686F727400006B
:1046E000417373657274696F6E2022257322206690
:1046F00061696C6564206174206C696E6520256455
:1047000020696E2025730A0074686973206E6565E0
:1047100064732061207062756620696E206F6E651B
:104720002070696563652100702D3E6C656E203ECA
:104730003D20706F66660000555300082DE9F04774
:10474000456807460E4628780421B1EB101F03D0B8
:10475000384602F087FA86E000074FEA90686888DA
:1047600000F07EFF04463889A04203D9214638462E
:1047700002F04CFB79894145EAD33889A042E7D35E
:10478000B8F1140FE4D32969DFF83C91C1F30310A9
:104790000E28C9F81410EA68C9F8102005D0304670
:1047A00000F096F850B1344616E096F82D00C00798
:1047B00002D070680028F6D1002412E099F81400A5
:1047C00000247F280DD04148046808E0B44205D099
:1047D000204600F07DF808B11CB10BE02468002CE5
:1047E000F4D1687A112805D105EB08004088B0F5AE
:1047F000884F36D0D9F810205AB131461046FFF70D
:1048000055FE0028A4D199F81000C0F303100E281B
:104810009ED0002C9CD0E88830F0C00005D03846EF
:1048200000F038F907001ED07D68C9F80850C9E9C2
:104830000046297838460907890EA9F80C10414628
:1048400002F0C4FB687A01281AD0062813D0112878
:104850000CD04D462146D9F81400FFF727FEA0B131
:1048600020E03446D5E70020BDE8F08731463846E1
:1048700007F0CAFC19E03146384603F08BFC14E01F
:1048800031463846FFF792FC0FE0287DC0F3031055
:104890000E2807D04146384602F0A0FA02213846D9
:1048A000FFF780FC384602F0DDF90021C9F800105E
:1048B000C9F80410C9F80810A9F80C10C9F81010AC
:1048C000C9F81410CFE700003C320020500000204F
:1048D00010B590F82D10C9070CD0416851B1064AA7
:1048E00052698A4204D001461046FFF7DFFD08B145
:1048F000012010BD002010BD3C320020FEB5DDE9D6
:104900000954089E1AB109B10F6807B9211D009614
:10491000CDE9015400F002F8FEBD00002DE9F84F8A
:104920000546DDE90BA8807BDDF828B01F4616465A
:104930008946012806D02FA34FF455723AA13DA015
:10494000FCF7C4FF6FF00104002E35D01421284677
:1049500001F022FD002832D168896C68142806D243
:1049600024A34FF462723DA132A0FCF7AFFF27727F
:1049700084F809A0306820614520207084F801B0D7
:10498000288900F06DFE414F60804FF0000AA4F8C6
:1049900006A0388800F064FEA0803888401C38806B
:1049A000B9F1000F05D0D9F80000E060A4F80AA022
:1049B0000CE037480068F8E76889142802D22046DE
:1049C000BDE8F88F68686E4600690090B8F824006A
:1049D00040B12989814205D9324641462846FFF730
:1049E0007DFDEDE7D8F81430404632462946984719
:1049F000E6E700002E2E2F4D6964646C65776172C6
:104A000065732F54686972645F50617274792F4CBA
:104A10007749502F7372632F636F72652F697076B9
:104A2000342F6970342E6300702D3E726566203D10
:104A30003D203100417373657274696F6E202225C9
:104A40007322206661696C6564206174206C696EF4
:104A50006520256420696E2025730A0063686563FC
:104A60006B2074686174206669727374207062755B
:104A7000662063616E20686F6C6420737472756366
:104A8000742069705F68647200000000CA00002032
:104A90003CCB00082DE9F05F45688346287800F09C
:104AA0000F0005287DD1E88800F0DAFDC004070C6E
:104AB000688800F0D5FD29780907890E814270D8F1
:104AC000401A1FFA80F8584601F0F9FE6A4C064673
:104AD000208830440A2809D93146284600F0E4FBF2
:104AE00000285ED0208830440A28E8D8A1466468AF
:104AF0004FF0000A0CE06069E968884207D1A069BC
:104B00002969884203D1A089A988884203D02468F2
:104B1000002CF0D106E02CB1E88800F0A1FDC00423
:104B20001BD025E0042001F021F904000AD1314610
:104B3000284600F0B9FBB04233DB042001F016F93F
:104B40000400CED02021FBF7A6FB0F20E077D9F898
:104B500004102160C9F8044004E0E08900F080FD01
:104B6000C00405D01422294604F10800FBF76CFBB1
:104B7000A87940F340156D1C08D007EB080080B2FF
:104B8000B84263D34FF6EB7188425FD82A46594644
:104B9000204600F03BF9411C58D0B9F800203244BF
:104BA00000E064E0A9F8002035B107EB0801A1831B
:104BB000A17F41F00101A177012845D1A08B1422EA
:104BC000143087B2606804F10801456828462E68F1
:104BD000FBF73AFB384600F043FD6880A5F806A0D5
:104BE000A5F80AA0656809E014213046776802F04C
:104BF000EDF93146284601F0C1FD3E68002EF3D1A3
:104C0000D9F804104E468C4205D1002105E0086811
:104C1000A04202D001460029F9D1204600F01AFA3C
:104C2000284601F04CFE04463088A04206D213A369
:104C300040F29B2220A127A0FCF748FE3088001BF1
:104C400030802846BDE8F09F0020FBE7606870B91F
:104C5000D9F80400844206D008A340F2AB2227A171
:104C60001CA0FCF733FE0021204600F0F3F9584663
:104C700001F0F8FFE8E70000CC0000202E2E2F4DB9
:104C80006964646C6577617265732F5468697264D6
:104C90005F50617274792F4C7749502F7372632F74
:104CA000636F72652F697076342F6970345F667236
:104CB00061672E630000000069705F726561737345
:104CC0005F70627566636F756E74203E3D20636C25
:104CD000656E0000417373657274696F6E202225E2
:104CE0007322206661696C6564206174206C696E52
:104CF0006520256420696E2025730A006E6F74207C
:104D00006669727374616C74686F756768206A7520
:104D1000737420656E7175657565640070B50146C4
:104D2000144813E090F82D20D3070FD053070DD56A
:104D300043685BB184680D68234005EA04069E421F
:104D400016D0920702D4C268954211D0006800289C
:104D5000E8D10948006850B190F82D20D30706D05B
:104D6000520704D5426812B109787F2900D100208A
:104D700070BD0000500000205400002010B5040059
:104D800006D106A34FF4317213A116A0FCF79EFDC5
:104D90002146BDE81040052000F074BF2E2E2F4D97
:104DA0006964646C6577617265732F5468697264B5
:104DB0005F50617274792F4C7749502F7372632F53
:104DC000636F72652F697076342F6970345F667215
:104DD00061672E63000000007020213D204E554C7D
:104DE0004C000000417373657274696F6E20222558
:104DF0007322206661696C6564206174206C696E41
:104E00006520256420696E2025730A002DE9F05F76
:104E10004C68064693460F4600254FF0010860880F
:104E200000F01EFC21784FF0FF3A0907890E8142FD
:104E300031D8A0EB0109E08800F012FCC0047C68C6
:104E4000010C0020206001EB090083B2A180E38007
:104E50008B4220D3726829E05068B0F804C06145E5
:104E600015D222606DB1B5F806C0614513D38088B4
:104E7000834210D82F60A088844506D04FF00008E8
:104E800003E08088834206D877608AB12EE002D0A2
:104E9000C288914202D25046BDE8F09F25B1EA880F
:104EA000624501D04FF0000802680546002AD3D1C0
:104EB00095B1E888A188884206D92AA34FF4DB720D
:104EC00037A13FA0FCF702FD2F60E888A188884247
:104ED0000CD04FF0000809E0706830B121A34FF406
:104EE000DF7241A136A0FCF7F1FC7760BBF1000F47
:104EF00002D1B07FC007CFD0B8F1000F30D07268B8
:104F0000002A2DD050688088002829D121682046A9
:104F100029B14C68C088A1888842F7D020E0B8F158
:104F2000000F1DD032B90FA340F2DF123CA124A024
:104F3000FCF7CCFC70684068A04206D109A34FF48E
:104F4000F07237A11EA0FCF7C1FC206830B105A3A8
:104F50004FF4F17236A11AA0FCF7B8FC01209BE7D0
:104F6000002099E72E2E2F4D6964646C657761727D
:104F700065732F54686972645F50617274792F4C45
:104F80007749502F7372632F636F72652F69707644
:104F9000342F6970345F667261672E630000000011
:104FA000636865636B20667261676D656E747320FC
:104FB000646F6E2774206F7665726C6170000000FC
:104FC000417373657274696F6E20222573222066A7
:104FD00061696C6564206174206C696E652025646C
:104FE00020696E2025730A006E6F207072657669E5
:104FF0006F757320667261676D656E742C207468BE
:105000006973206D7573742062652074686520660D
:105010006972737420667261676D656E7421000039
:1050200073616E69747920636865636B00000000CA
:1050300076616C69646174655F64617461677261F3
:105040006D3A6E6578745F70627566213D4E554CA1
:105050004C00000070B504460C480D464168A14262
:1050600002D1216841600AE0002D06D108A340F278
:10507000451216A11CA0FCF729FC206828602146D7
:10508000BDE87040042000F0FDBD0000CC00002011
:105090002E2E2F4D6964646C6577617265732F5491
:1050A000686972645F50617274792F4C7749502F30
:1050B0007372632F636F72652F697076342F697016
:1050C000345F667261672E630000000073616E6971
:1050D000747920636865636B206C696E6B6564200E
:1050E0006C69737400000000417373657274696FBA
:1050F0006E2022257322206661696C6564206174CC
:10510000206C696E6520256420696E2025730A0075
:105110002DE9F047054600240F46A94205D12FA3EB
:10512000AB223DA13FA0FCF7D1FB002F08D038688F
:10513000A84205D029A3AD2244A13AA0FCF7C6FBA2
:105140006E684FF480387068818800291AD1006831
:105150006860142205F108017068FBF775F80121F9
:105160003046FFF79FF9304601F0A9FB0446404561
:1051700005D31AA3BC223AA12AA0FCF7A7FB30460C
:1051800001F070FD6E6812E07068B146066848462E
:1051900001F095FB0444444505D310A3CC2230A173
:1051A00020A0FCF793FBA4B2484601F05BFD002E63
:1051B000EAD139462846FFF74DFF314D2888A042F5
:1051C00005D206A3D2222FA116A0FCF77FFB2888C8
:1051D000001B28802046BDE8F08700002E2E2F4DB2
:1051E0006964646C6577617265732F546869726471
:1051F0005F50617274792F4C7749502F7372632F0F
:10520000636F72652F697076342F6970345F6672D0
:1052100061672E63000000007072657620213D20DA
:1052200069707200417373657274696F6E20222514
:105230007322206661696C6564206174206C696EFC
:105240006520256420696E2025730A0070726576DA
:105250002D3E6E657874203D3D206970720000001F
:1052600070627566735F6672656564202B20636C7F
:10527000656E203C3D203078666666660000000062
:10528000CC00002069705F72656173735F70627536
:1052900066636F756E74203E3D2070627566735F45
:1052A00066726565640000002DE9F0471D4F894670
:1052B000064600240022134611461546786822E06F
:1052C000D0F814C0D6F80C80C4450BD1D0F818C063
:1052D000D6F81080C44505D1B0F80CC0B6F80480EB
:1052E000C44509D06D1C2AB190F81FC092F81F80E8
:1052F000C44501D802461946D0F800C0BCF1000FE1
:1053000000D0034660460028DAD11AB11046FFF7F4
:10531000FFFE04444C4501DA012DCBDC2046BDE8FC
:10532000F0870000CC00002070B5094800254468D3
:105330000BE0E07F20B1401EE0772546246804E0C2
:10534000204624682946FFF7E3FE002CF1D170BD0A
:10535000CC00002010B5040006D108A340F2CE22F4
:1053600015A118A0FCF7B2FA606908B101F07AFC47
:105370002046BDE81040FFF701BD00002E2E2F4D46
:105380006964646C6577617265732F5468697264CF
:105390005F50617274792F4C7749502F7372632F6D
:1053A000636F72652F697076342F6970345F66722F
:1053B00061672E630000000070637220213D204E63
:1053C000554C4C00417373657274696F6E202225D1
:1053D0007322206661696C6564206174206C696E5B
:1053E0006520256420696E2025730A007CB52F4D49
:1053F00004462D48286001206860002028828DF82E
:10540000000080218DF80110E1218DF802108DF847
:1054100004008DF803008DF805006946C5E9051004
:10542000E8614FF4000028622846FBF75BF928B9D1
:1054300094F82D0040F0040084F82D0004231C4A49
:105440001C491A48FBF796F81A4A04238032A2F541
:1054500080711648FBF754F8062084F82C00686920
:10546000007884F826006869407884F82700686925
:10547000807884F828006869C07884F82900686911
:10548000007984F82A006869407984F82B0040F29A
:10549000DC5024F8240F607A40F00A006072034860
:1054A000FBF7CFFA7CBD000000800240B031002045
:1054B000E0190020900100202DE9F84F002004465B
:1054C00000902C48FBF793F810B10020BDE8F88F4E
:1054D0002848818FD0F840900904090C2FD04FF450
:1054E000C172002000F0BCFF009040B32148009D35
:1054F00040F2F45BD0F830806E89002710E000BFE6
:10550000A4F2F4525242FAF79FFED8F80C008046FB
:10551000D0F808903F1BAAF2F456002407F2F45783
:10552000686806EB040ADA4509EB04013844E7D859
:105530003246FAF789FE2D683444002DDCD10D483F
:105540000022016B05E00B6843F000430B60C96863
:10555000521C836B9342F6D800218163006800F5EA
:1055600080504269120602D5802242618160009813
:10557000ACE70000B03100202DE9F05F27480D4670
:10558000C66A002083460446D6F808A031E0306899
:1055900000280CDB6F894FF0000818E0A4F2F452E9
:1055A0005242FAF751FEF6683068002802DA6FF0CE
:1055B000070025E0D6F808A0A8EB040000F2F45894
:1055C000ABEB0400A9F2F45700F2F45B002407EB04
:1055D000040940F2F451894569680AEB040041442A
:1055E000DCD83A46FAF730FE0BEB07002D683C4456
:1055F0008346002DCBD101460848FBF764FA002012
:105600000649096801F580514A69920603D52022AE
:105610004A6100224A60BDE8F09F0000B0310020DE
:1056200010B504464068804701F038FE094A2168F9
:1056300052688B181A1AB2F1004F03D3084422465D
:10564000054902E0044922461846BDE8104001F031
:1056500089BE0000A00000202156000800BA704753
:1056600040BA704710B500F0E9F800F059FB00F0BF
:1056700053FD06F0BDFD02F081FDBDE8104001F0D4
:10568000EDBEFBF7EBFBFCF74DF8FBF79DFFFBF7DF
:10569000EBFFFCF725F8FCF719F8FCE72DE9F041E2
:1056A00000284DD0810704D026A340F2732231A1F7
:1056B00032E0394DA0F1080429688C4203D36A68AE
:1056C0000C30904204D91FA340F27F2233A123E083
:1056D0002079002825D0601A86B2208801F0AEFD1E
:1056E0000746608801F0AAFD21884FF4C8630022B4
:1056F00099420DD8618899420AD8B14202D00088F7
:10570000B04205D16868874210D07888B0420DD089
:105710000CA340F2952228A1BDE8F04133A0FCF78C
:10572000D5B808A34FF423723AA1F5E72271A8680F
:10573000844200D2AC602046BDE8F04101F0AEBC2E
:10574000BDE8F0812E2E2F4D6964646C657761721F
:1057500065732F54686972645F50617274792F4C5D
:105760007749502F7372632F636F72652F6D656D6C
:105770002E6300006D656D5F667265653A2073612A
:105780006E69747920636865636B20616C69676E0C
:105790006D656E74000000001C0000206D656D5F7B
:1057A000667265653A20696C6C6567616C206D6531
:1057B0006D6F7279000000006D656D5F66726565E2
:1057C0003A20696C6C6567616C206D656D6F7279EC
:1057D0003A206E6F6E2D6C696E6B65643A20646F53
:1057E00075626C65206672656500000041737365C3
:1057F0007274696F6E2022257322206661696C6560
:1058000064206174206C696E6520256420696E20B7
:1058100025730A006D656D5F667265653A20696C77
:105820006C6567616C206D656D6F72793A20646F8D
:1058300075626C65206672656500000070B50B4886
:105840000B4C20F003014FF4C86521600D8000204F
:1058500048800871284601F0F1FC01216060017167
:10586000058045802068A06070BD00005732002090
:105870001C0000202DE9F04700286FD0C41C4FF613
:10588000FC710C404FF4C8690C2C01D20C2401E0CF
:105890004C457CD884427AD34148C4F5C8678246D7
:1058A00001890288891A8EB276E0304601F0C6FC82
:1058B0000546007900286CD12888801B0838A04252
:1058C00067D3288804F11401801B08384FF00108C1
:1058D00088421DD33019083087B24F4506D131A315
:1058E00040F287323BA140A0FBF7F0FF384601F0C1
:1058F000A5FC002101712988018046802F8085F850
:1059000004800088484505D001F098FC478001E0FC
:1059100085F80480DAF808005646854203D014E082
:10592000008801F08BFC017911B171688842F7D1D0
:10593000B0607168884208D0007930B119A340F294
:10594000B53233A128A0FBF7C1FF281971680830D0
:10595000884208D913A340F2B93200E015E033A120
:1059600021A0FBF7B3FFA8070DD00EA340F2BB3276
:105970003AA11DA0FBF7AAFF0AA340F2BD3243A142
:1059800019A0FBF7A3FF05F10800BDE8F08705E0CB
:10599000FFE7DAF80000865BB74286D80020F4E71C
:1059A0001C0000202E2E2F4D6964646C6577617297
:1059B00065732F54686972645F50617274792F4CFB
:1059C0007749502F7372632F636F72652F6D656D0A
:1059D0002E630000696E76616C6964206E65787470
:1059E0002070747200000000417373657274696FF7
:1059F0006E2022257322206661696C6564206174C3
:105A0000206C696E6520256420696E2025730A006C
:105A10006D656D5F6D616C6C6F633A20216C6672B1
:105A200065652D3E75736564000000006D656D5FF2
:105A30006D616C6C6F633A20616C6C6F636174654F
:105A400064206D656D6F7279206E6F742061626F76
:105A500076652072616D5F656E642E006D656D5FA9
:105A60006D616C6C6F633A20616C6C6F636174651F
:105A700064206D656D6F72792070726F7065726CE5
:105A80007920616C69676E65642E00006D656D5FDD
:105A90006D616C6C6F633A2073616E697479206319
:105AA0006865636B20616C69676E6D656E7400007C
:105AB00002490988401A80B2704700001C0000208B
:105AC0002DE9F05F0646CC1C4FF6FC7004404FF405
:105AD000C86A0C2C01D20C2401E054452AD88C420F
