:020000040800F2
:10000000704D00205D020008471E0008651B0008B7
:10001000451E00088B0500080D27000800000000A1
:100020000000000000000000000000009D0100082A
:100030004906000800000000F9010008F12200084C
:1000400077020008770200087702000877020008AC
:10005000770200087702000877020008770200089C
:1000600057060008770200087702000877020008A8
:10007000770200087702000877020008770200087C
:10008000770200087702000877020008770200086C
:10009000770200087702000877020008770200085C
:1000A00077020008C92300087702000877020008D9
:1000B000770200087702000877020008770200083C
:1000C000770200087702000877020008770200082C
:1000D00077020008D9260008770200087702000896
:1000E000770200087702000877020008770200080C
:1000F00077020008770200087702000877020008FC
:1001000077020008770200087702000877020008EB
:1001100077020008770200087702000877020008DB
:1001200077020008770200087702000877020008CB
:1001300077020008770200087702000877020008BB
:1001400077020008770200087702000877020008AB
:10015000770200087702000877020008770200089B
:10016000770200087702000877020008770200088B
:1001700077020008770200087702000800000000FC
:100180007702000877020008DFF80CD000F08AF947
:1001900000480047452A0008704D00202C4B196884
:1001A0000868B0E8F04F80F30988BFF36F8F4FF015
:1001B000000080F3118870470000000008480068C4
:1001C000006880F308884FF0000080F3148862B65E
:1001D00061B6BFF34F8FBFF36F8F00DF00BF00BF6B
:1001E00008ED00E0DFF80C00016841F470010160E7
:1001F000704700BF88ED00E0EFF30980BFF36F8F19
:10020000134B1A681EF0100F08BF20ED108A20E96A
:10021000F04F106009B44FF0500080F31188BFF325
:100220004F8FBFF36F8F03F053FC4FF0000080F34C
:10023000118809BC19680868B0E8F04F1EF0100F6B
:1002400008BFB0EC108A80F30988BFF36F8F704746
:1002500060000020EFF305807047000006488047EB
:1002600006480047FEE7FEE7FEE7FEE7FEE7FEE79B
:10027000FEE7FEE7FEE7FEE7B92300088901000874
:100280002DE9F05F0546002092469B4688460646CB
:10029000814640241BE0284641464746224600F05E
:1002A000B9F853465A46C01A914110D31146184620
:1002B000224600F0A0F82D1A67EB01084F462246AF
:1002C0000120002100F097F817EB00094E41201E95
:1002D000A4F10104DFDC484631462A464346BDE826
:1002E000F09F40EA01039B0703D009E008C9121FF1
:1002F00008C0042AFAD203E011F8013B00F8013BE0
:10030000521EF9D27047D2B201E000F8012B491E0B
:10031000FBD270470022F6E710B513460A460446A2
:100320001946FFF7F0FF204610BD30B505462A46B6
:100330000B4612F8010B13F8014B08B1A042F8D09C
:100340001CB1002802D06D1CF1E7284630BD421CCC
:1003500010F8011B0029FBD1801A704710B500224C
:1003600000E0521C835C8C5CA34201D1002BF8D1CD
:10037000D8B2E1B2401A10BD30B5054600200346A0
:1003800000E05B1C934205D2EC5CC85C201A01D1F2
:10039000002CF6D130BD000070B50F4D00B92868B3
:1003A000002412E00A4602E09E4203D0521C137859
:1003B000002BF9D1DAB2224305D02BB124B10021B0
:1003C00000F8011B04E00446401C0678002EE9D129
:1003D0002860204670BD0000E800002070B5064689
:1003E00002F0DEF9046805460A220021304600F0DA
:1003F00021F82C6070BD202A04DB203A00FA02F1BB
:10040000002070479140C2F1200320FA03F3194302
:1004100090407047202A04DB203A21FA02F00021A4
:10042000704721FA02F3D040C2F120029140084304
:10043000194670472DE9F04791460F46804604461D
:10044000002614F8015B2DB100F03EF80068405D15
:10045000C007F6D12B2D02D02D2D18D0641E4A4690
:100460003946204600F034F827B13968A14201D15D
:10047000C7F8008071054FF002040BD540420028F8
:1004800003DD02F08DF90460A007BDE8F08746F4B3
:100490008066E4E70028F8DA02F082F904606FF081
:1004A0000040F2E7064C074D06E0E06840F001032B
:1004B00094E8070098471034AC42F6D3FFF768FE83
:1004C0000048000820480008004870479C47000882
:1004D0002DE9F05F82460078002715468B460AF129
:1004E0000104B946302801D09DB113E014F8010B86
:1004F0000127782803D0582801D045B10AE00DB172
:10050000102D07D10027102514F8010B02E0082553
:1005100000E00A250026B0460EE005FB080005FBBA
:1005200006F1012701EB10461FFA80F8B6F5803F6F
:1005300000D3B94614F8010B294600F018F800283A
:10054000EBDABBF1000F05D00FB1641E00E054469A
:10055000CBF80040B9F1000F06D002F021F90221DA
:100560000160C81EBDE8F09F48EA0640FAE73A2855
:1005700000D2303820F02002412A01D3A2F1370006
:10058000884201D34FF0FF307047FEE730B58FB09F
:10059000044608A800F064F8182208A902A8FFF78A
:1005A000A0FE1B49E0B24843C4F3072140F2537256
:1005B00011FB02F100EB4110C4F3074101EB4102D2
:1005C000C2EBC11100EBC1059DF80800104940F2D3
:1005D000537248439DF8091011FB02F100EB4111E1
:1005E0009DF80A0000EB4002C2EBC01001EBC00412
:1005F000294608A002F0B4F821460CA002F0B0F899
:10060000281B02D50F49601B08440FB030BD000005
:1006100080EE3600416C61726D54696D655469639A
:100620006B203D20256C750D0A0000005265616C41
:1006300054696D655469636B203D20256C750D0A06
:1006400000000000005C260570474FF4FA74204655
:1006500002F00DFAFBE7042000F0ECB872B6FEE7FA
:1006600010B58AB00446002203A9144800F03AFEEF
:1006700008B1FFF7F3FF002208A9104800F010FEB0
:1006800008B1FFF7EBFF9DF80C009DF80E209DF8D8
:100690000D108DE807009DF823109DF822309DF87D
:1006A000212007A001F5FA6102F05AF8182203A9E7
:1006B0002046FFF716FE0AB010BD0000A40A002075
:1006C0005265616C2054696D653A25642D25642D51
:1006D00025642025643A25643A25640A0000000058
:1006E0002DE9F0410446876D00F0B2F9064694F812
:1006F00035000025022806D08020606584F834503B
:100700000120BDE8F0812068016821F01601016038
:100710002068416921F080014161206C08B9A06C1A
:1007200020B12068016821F008010160206801689B
:1007300021F0010101600CE000F08AF9801B05281E
:1007400007D920206065032084F8350084F83450F0
:10075000D7E720680068C007EED194F85C103F200E
:100760008840B860012084F8350084F834500020B7
:10077000C7E790F83510022903D080214165012098
:100780007047052180F835100068016821F00101EB
:10079000016000207047000070B5044600F058F971
:1007A0000546601C02D004480078044400F050F96B
:1007B000401BA042FAD370BD5000002070B5042841
:1007C00016D1124D0421284600F038F9104C0028AB
:1007D0004FF014000DD0FFF7DFFF0421284600F092
:1007E0002DF9012804D10BA001F0BAFF01202070DF
:1007F00070BDFFF7D1FF0421284600F01FF9002843
:10080000F6D108A001F0ACFF0020F0E70010024094
:10081000000000204B455930206973205570210A93
:10082000000000004B45593020697320446F776EFB
:10083000210A0000044910B50A68024202D008608B
:10084000FFF7BCFF10BD0000143C01402DE9F84F3C
:10085000DFF8BCA10022012503264FF00F090AF1A1
:10086000040BAAF1040E00BF0B6805FA02F4234042
:10087000A34270D10F7907F00307012F01D0022F97
:1008800016D187684FEA420806FA08FC27EA0C07E7
:10089000D1F80CC00CFA08FC4CEA070CC0F808C0F0
:1008A0004768A7430C79C4F3001494403C43446068
:1008B0000C79E443A4070AD0C4684FEA420C06FA54
:1008C0000CF7BC438F6807FA0CF72743C7600C7915
:1008D00004F00304022C12D1D40800EB840CDCF8E1
:1008E00020405707FF0E09FA07F824EA0804D1F858
:1008F000108008FA07F848EA0408CCF82080046859
:100900004FEA420C06FA0CF7BC430F7907F00307D5
:1009100007FA0CF7274307604C6814F4403F70D087
:100920003C4C276847F480472760246822F003077F
:1009300004F480440094384C07EB040CDCF80848BD
:1009400097074FEA177809FA08F7BC43334FB842C4
:1009500002D1002724E054E0314FB84201D10127F1
:100960001EE0304FB84201D1022719E02E4FB842A5
:1009700001D1032714E02D4FB84201D104270FE025
:100980002B4FB84201D105270AE02A4FB84201D1C6
:10099000062705E0284FB84201D1072700E00827C5
:1009A00007FA08F72743CCF80878DAF800405746EA
:1009B000D1F804C09C435FEACC2C00D51C433C60BA
:1009C000DBF800405F46D1F804C09C435FEA8C2C02
:1009D00000D51C433C60DEF800407746D1F804C0E7
:1009E0009C435FEA8C3C00D51C433C60084F083FA9
:1009F0003C68D1F804C09C435FEACC3C00D51C4362
:100A00003C60521C102AFFF42FAFBDE8F88F0000A5
:100A1000083C0140443802400030014000000240E0
:100A20000004024000080240000C02400010024096
:100A30000014024000180240001C024000690840F7
:100A400000D0012070470AB1816170470904FBE7BB
:100A5000014880687047000050000020024881680B
:100A60000278114481607047500000200B4810B597
:100A7000016841F400710160016841F48061016026
:100A8000016841F480710160032000F099F80020B2
:100A900000F006F800F04AF8002010BD003C0240CB
:100AA00030B505461C4887B00024016841F00101BB
:100AB0000160006806A900F00100009001A800F0A4
:100AC000C9F900F0F7F915494000B0FBF1F11548FC
:100AD000134A491E026040F2E732C0E90324C0E92C
:100AE0000114846100F066FD040012D10D4800F08D
:100AF0008FFD04000DD1192000F034F8102D07D21D
:100B000000222946192000F03BF80748056000E064
:100B1000012407B0204630BD4438024040420F0057
:100B2000000001400C0B0020540000200C4882B053
:100B3000016841F480410160006800F48040009049
:100B40000748001F016841F08051016000680022E1
:100B500000F0805000900F21901E02B000F010B8FD
:100B600044380240002809DB00F01F0201219140B7
:100B70004009800000F1E020C0F80011704700003B
:100B8000F0B40E4B1B680C46C3F30223C3F10705F8
:100B9000042D00D90425191D072901D2002300E0E6
:100BA000DB1E012606FA05F1491E214099409E40B0
:100BB000761E16403143F0BC01F0E2BD0CED00E0C2
:100BC000064900F0070208684FF6FF03184040EAA4
:100BD0000220034A10430860704700000CED00E05B
:100BE0000000FA052DE9F843054600684FF00109B9
:100BF000C1074FF0000601D1400727D5DFF80C816F
:100C0000C8F86860FFF724FF0746414C05E000BFC5
:100C1000FFF71EFFC01B022857D820680001F7D439
:100C200068688101287A41EA007039498431086096
:100C3000C8F86890FFF70CFF074604E0FFF708FFCD
:100C4000C01B022841D820680001F7D5287880070A
:100C500052D52F484030016841F080510160006852
:100C60002C4C00F080500090206840F48070206090
:100C7000FFF7EEFE074604E0FFF7EAFEC01B02287E
:100C800023D82068C005F7D5214C7034206810F4B3
:100C9000407020D0A98901F4407181421BD02068A6
:100CA0001D4920F44070C1F800900E60206020685B
:100CB000C00710D0FFF7CCFE064641F2883707E0A8
:100CC000FFF7C6FE801BB84202D90320BDE8F883B7
:100CD00020688007F4D5E9680D48C1F30122083087
:100CE000032A0BD0016821F4F81101602068A9895A
:100CF000C1F30B01084320600020E7E70268074BBF
:100D000022F4F81219400A430260EFE7000047425C
:100D10000038024000700040400E4742FFFCFF0FC9
:100D20002DE9F0470E46050065D0DFF81481D8F8AC
:100D30000000F7B200F00700B04207D288F8007058
:100D4000D8F8000000F00700B04254D128683D4CAC
:100D5000810712D5400703D5206840F4E050206099
:100D60002878000703D5206840F4604020602068A0
:100D7000A96820F0F000084320602878C0072DD033
:100D8000304968680839012812D0022813D0032896
:100D900011D00968890700292DDA216821F00301A3
:100DA00001432160FFF754FE814641F2883A0EE08C
:100DB00009688903EFE709688901ECE7FFF748FE56
:100DC000A0EB0901514502D90320BDE8F087206856
:100DD000696800F00C00B0EB810FEFD1D8F800107B
:100DE000404601F00701B14207D90770006800F0E2
:100DF0000700B04201D00120E7E72878400705D579
:100E00002068E96820F4E050084320602878000753
:100E100006D52068296920F4604040EAC1002060BE
:100E200000F058F82168084AC1F30311515CC8402A
:100E30000649086006480068FFF732FE0020C4E754
:100E4000003C024008380240004700085C000020D7
:100E5000540000200F2202600C4A136803F00303C1
:100E60004360136803F0F0038360136803F4E053F6
:100E7000C36012684FF4E05303EAD20202610448EF
:100E8000006800F007000860704700000838024062
:100E9000003C02400448054900680968044AC1F35F
:100EA0008221515CC84070475C0000200838024035
:100EB000104700080448054900680968044AC1F35E
:100EC0004231515CC84070475C0000200838024045
:100ED00010470008154810B5006810F00C021448BF
:100EE00013D04110042A0FD0082A0ED10F4C241F12
:100EF0002268236802F03F025B0207D52068C0F336
:100F00008810A0FB010106E0084610BD2168C1F36E
:100F10008811A1FB00010023FFF7B2F92168C1F39A
:100F20000141491C4900B0FBF1F010BD08380240F6
:100F30000024F4002DE9F84F04006ED02078DFF88B
:100F40004C93C007A9F104054AD009F104000168D7
:100F5000C1F38101012908D00068C0F38100022893
:100F60000AD1D9F80000400206D52868800337D599
:100F700060680028E1D033E06068B0F5803F10D0B1
:100F8000B0F5A02F286810D020F4803028602868A1
:100F900020F4802028606068A8B1FFF759FD06465C
:100FA0000DE0286840F48030F4E740F480202860A9
:100FB000F7E700BFFFF74CFD801B642873D8286853
:100FC0008003F7D50CE0FFF743FD064605E000BFC0
:100FD000FFF73EFD801B6428F0D828688003F7D413
:100FE0002078DFF8AC8280074FF0000A3ED5A74892
:100FF000001D016811F00C0F08D00068C0F38100DB
:1010000002280BD1D9F80000400207D428688007D5
:1010100016D5E068012800D112E033E1E068B8B1EC
:101020000120C8F80000FFF713FD064605E000BFE9
:10103000FFF70EFD801B0228C0D828688007F7D56F
:101040002868216920F0F80040EAC10028600DE01E
:10105000C8F800A0FFF7FCFC064604E0FFF7F8FC28
:10106000801B02281FD828688007F7D42078000743
:1010700022D5864F87486169703771B101210160BF
:10108000FFF7E6FC064604E0FFF7E2FC801B0228BF
:1010900009D838688007F7D50EE0C0F800A0FFF740
:1010A000D7FC064605E082E0FFF7D2FC801B022851
:1010B0007DD838688007F7D42078400768D5DFF8F6
:1010C000CCB100270BF13C0BDBF80000C0000BD4C7
:1010D000DBF8001041F08051CBF80010DBF8000085
:1010E000012700F0805000906B4E3068C00510D48E
:1010F000306840F480703060FFF7AAFC009005E093
:10110000FFF7A6FC0099401A022850D83068C005A5
:10111000F6D55E4EA0686C3601280FD005283068E1
:1011200010D020F001003060306820F00400306002
:10113000A068B8B1FFF78CFC00900FE0306840F079
:101140000100F4E740F004003060F7E7FFF780FCAF
:101150000099411A41F28830814266D83068800790
:10116000F4D50EE0FFF774FC009007E0FFF770FC89
:101170000099411A41F28830814256D83068800780
:10118000F4D42FB1DBF8001021F08051CBF800101F
:10119000A069C8B33D49091D0968C1F3810102294D
:1011A0004AD00228504607D0C8F8600000E03CE072
:1011B000FFF74EFC04463BE04746C8F86000FFF7E7
:1011C00047FC064605E000BFFFF742FC801B0228F3
:1011D0002BD828688001F7D4D4E907010843A16A15
:1011E0002E4A490802EB0141626A41EA8211084332
:1011F00094F82C1040EA0161C9F80010012038660B
:10120000FFF726FC044606E03EE000BFFFF720FCA7
:10121000001B022809D828688001F7D534E000BFF8
:10122000FFF716FC001B022802D90320BDE8F88F47
:1012300028688001F4D427E00128F7D0D9F800000D
:10124000E26900F4800191421CD1226A00F03F0162
:10125000914217D147F6C071626A0140B1EB821F1B
:1012600010D1A26A4FF0FF3300F4403103EB520279
:10127000B1EB024F06D194F82C1000F07060B0EB87
:10128000016F01D00120D1E70020CFE704380240F0
:1012900000004742800E4742007000400000FFFF00
:1012A00010B500680B4641680D480140080CD87025
:1012B000C1F304245C7001F03F049C70C1F342311F
:1012C000197052B900F0A6FFD870587800F0A2FF4C
:1012D0005870987800F09EFF9870002010BD0000B4
:1012E0003FFFFF0010B50B460168896A596001682D
:1012F0000969C1F30E019960006801680D48014059
:10130000C1F305401870C1F306245C7001F07F043E
:101310009C70890DD97052B900F07CFF1870587814
:1013200000F078FF5870987800F074FF98700020F3
:1013300010BD00007F7F7F0010B5040002D0607FE9
:1013400010B106E0012010BD00202077204600F0FB
:1013500041F8022060772068C168C943C90632D5C8
:10136000CA214162216853204862204600F066FF8E
:1013700020BB20688168164A114081602168886816
:1013800062681043D4E904231A431043886021683B
:10139000E068086120680169228941EA024101612F
:1013A000204600F06FFF48B921680A6C22F48022C1
:1013B0000A6421680A6CA3691A430A642268FF213F
:1013C000516208B110BD00200121617710BD0000FD
:1013D000BFFF8FFF1FB50021009101910291039182
:1013E0000068084988420CD102200090C001039097
:1013F0006846FFF7F7FB08B1FFF730F90249012013
:1014000008601FBD002800403C0E474270B50446EE
:10141000007F0B46012819D001262677022060772D
:10142000B2B19878D97840EA014558781978000225
:1014300040EA413005432168CA20486221685320B0
:101440004862204600F0FAFED0B122E0022070BDD2
:101450005878C10603D500F0EF000A305870D878EC
:1014600000F0E1FE0204587800F0DDFE42EA0022BE
:10147000987800F0D8FE0243187842EA4035DAE75F
:101480000748054020684560204600F0FBFE00B993
:1014900066772268FF2151620021217770BD00002C
:1014A0003FFFFF002DE9F0410446007F0D46012873
:1014B00023D04FF0010884F81C8002206077206858
:1014C000002780684FEA4060D2B1002800DBEF704F
:1014D000A878297840EA01466878E978000240EA6D
:1014E000815006432168CA2048622168532048621F
:1014F000204600F0A3FEB8B12CE00220BDE8F08148
:10150000002800DBEF70287800F08DFE0204687878
:1015100000F089FE42EA0022A87800F084FE02432F
:10152000E87842EA8056DDE70D480640206806600C
:101530002068816821F480218160D5E90301084396
:1015400021688A6810438860204600F09BFE08B935
:1015500084F81D802268FF2151622777CEE70000C2
:101560007F7F7F0070B504460B482168C860FFF795
:101570006FFA05464FF47A7607E000BFFFF768FA86
:10158000401BB04201D9032070BD2068C0688006AE
:10159000F4D5002070BD00005F7F010003480068A3
:1015A000C16821F00101C160704700000C0B0020F0
:1015B0007047704710B5040003D094F83D0010B197
:1015C00007E0012010BD002084F83C00204600F018
:1015D0001EF8022084F83D00211D206800F0FAFE6C
:1015E000012084F8460084F83E0084F83F0084F827
:1015F000400084F8410084F8420084F8430084F8F5
:10160000440084F8450084F83D00002010BD704778
:1016100090F83D10012901D001207047022180F887
:101620003D100168CA6842F00102CA6000681149B1
:10163000884214D0B0F1804F11D00F4988420ED0AB
:101640000E4988420BD00E49884208D00D49884285
:1016500005D00D49884202D00C49884204D18168E6
:1016600001F00701062903D0016841F00101016082
:1016700000207047000001400004004000080040C6
:10168000000C0040000401400040014000180040F0
:1016900070472DE9F04104460068C66805694FF0BF
:1016A0000007A90713D5B10711D5F91E0161012063
:1016B0002077206880698007204602D0FFF7E8FF86
:1016C00004E000F07EF8204600F07CF827776807F9
:1016D00016D5700714D521686FF004000861022048
:1016E00020772068806910F4407F204602D0FFF701
:1016F000CFFF04E000F065F8204600F063F827779C
:10170000280715D5300713D521686FF00800086148
:10171000042020772068C0698007204602D0FFF7A8
:10172000B7FF04E000F04DF8204600F04BF82777B3
:10173000E80616D5F00614D521686FF01000086190
:10174000082020772068C06910F4407F204602D02E
:10175000FFF79EFF04E000F034F8204600F032F876
:101760002777E80708D0F00706D021686FF001005E
:101770000861204600F028F8280608D5300606D56E
:1017800021686FF0800008612046FFF711FF6806AE
:1017900008D5700606D521686FF040000861204624
:1017A00000F02EF8A8060AD5B00608D521686FF01B
:1017B000200008612046BDE8F041FFF7FABEBDE811
:1017C000F08170477047000070B504460068094D0D
:1017D000A84201D1FFF742F92068A84201D1FFF7E2
:1017E0003DF905492068884203D104480168491C35
:1017F000016070BD00000140001000404C0000205E
:101800007047704770470000F8B5016804460868E3
:10181000CA684B6910F00F0F4FF0000559D003F064
:10182000010602F49077374365D0C10705D0D10592
:1018300003D5616C41F001016164410705D5D90709
:1018400003D0616C41F002016164810705D5D907BD
:1018500003D0616C41F004016164010707D502F017
:101860002001314303D0616C41F008016164616C77
:1018700000293AD0800604D5900602D5204600F013
:1018800044FE20684069616CC0F38010090700D4F1
:1018900060B3204600F012FE20684069400621D562
:1018A0002068143050E8001F21F0400140E8001289
:1018B000002AF5D1E06BA8B16E490165E06BFEF737
:1018C00058FF002811D0E06B016D01B0BDE8F04079
:1018D000084783060FD593060DD52046BDE8F8408E
:1018E00000F013BE2046FFF78DFFF8BD2046FFF73E
:1018F00089FF6564F8BD266B2023012E7DD1C606C5
:101900007BD5D60679D508684868009048694FF0BD
:101910000206400641D5E16B086840680004000CEF
:10192000E8D0A28D8242E5D9E085C869B0F5807F14
:101930002DD020680C3050E8001F21F4807140E861
:101940000012002AF5D12068143050E8001F21F061
:10195000010140E80012002AF5D12068143050E857
:10196000001F21F0400140E80012002AF5D184F860
:101970004230256320680C3050E8001F21F0100130
:1019800040E80012002AF5D1E06BFEF7A9FE66637D
:10199000A08DE18D401A81B22AE0A08DE18D401A20
:1019A00081B2E08D0028A5D00029A3D022680C3296
:1019B00052E8000F20F4907042E80007002FF5D1A4
:1019C0002068143050E8002F22F0010240E8002780
:1019D000002FF5D184F84230256320680C3050E8A0
:1019E000002F22F0100240E80023002BF5D166639F
:1019F0002046FFF706FFF8BDFFE705062BD51506C5
:101A000029D594F841002128F5D1A068B0F5805F70
:101A100001D12069B0B1206A411C2162216800789F
:101A20004860E08C401E0004000CE084E3D1206894
:101A3000C16821F08001C1602068C16841F04001A7
:101A4000C160D8E7206A0088C0F308004860206AB7
:101A5000801C2062E5E74006CDD55006CBD5CA688C
:101A6000204622F04002CA6084F8413000F079F844
:101A7000C1E70000AD24000870B5040004D094F85C
:101A80004100002510B106E0012070BD84F84050EF
:101A9000204600F023F8242084F841002068C16823
:101AA00021F40051C160204600F090FD20680169DA
:101AB00021F4904101612068416921F02A014161CE
:101AC0002068C16841F40051C1606564202084F839
:101AD000410084F842006563002070BD10B586B0F7
:101AE000044614216846FEF715FC1A49206888420E
:101AF0002DD119480021026842F0100202600068EE
:101B000000F01000059014481438026842F00202F8
:101B10000260006800F002000590C02000900220E2
:101B2000CDE90101032003900720049069460B488A
:101B3000FEF78CFE002205212520FFF721F8252045
:101B4000FFF710F82068C16841F02001C16006B0BD
:101B500010BD000000100140443802400004024063
:101B600070477047FEE700000C4C02250C4E2570B4
:101B70000DE0012211463046FEF765FF01220221E9
:101B80003046FEF760FF2078012800D125700A203A
:101B900000F06DFF20780028F5D1EAE70000002072
:101BA00000100240114E4FF47A71F06900F0C8FF46
:101BB0000F4C4FF0FF380027214601254246B069FF
:101BC00002F02CFA0128F7D161196D1CEDB2322216
:101BD000B06902F023FA0028F6D16755044801F0F5
:101BE000E7FC32210248FEF795FBE5E70400002000
:101BF0002601002030B5294DA7B00022D5E900010B
:101C0000CDE92401012124A800F07AFF244C0835F5
:101C10000DF1700CE06195E80F008CE80F000021D9
:101C20001CA8083D00F02FFF1835606195E80F00F3
:101C300020AD85E80F00002120A800F024FF1749FF
:101C4000A0611C2228316846FEF74BFB0021684644
:101C500000F02CFF114960601C22443107A8FEF7F8
:101C600040FB002107A800F021FF0C49A0601C22C6
:101C700060310EA8FEF735FB00210EA800F016FF1C
:101C80000649E0601C227C3115A8FEF72AFB0021E2
:101C900015A800F00BFF206127B030BD6846000892
:101CA000040000202DE9F04186B014216846FEF7BB
:101CB00031FB33484FF00008016841F0100101602A
:101CC000016801F010010591016841F00401016013
:101CD000016801F004010591016841F020010160F3
:101CE000016801F020010591016841F08001016067
:101CF000016801F080010591016841F00101016076
:101D0000016801F001010591016841F002010160E3
:101D100000681C4E00F002000590002201213046B0
:101D2000FEF791FE184F012203213846FEF78BFE85
:101D3000042000904FF444100124CDE901046946C9
:101D40003846FEF783FD022500946946304601942B
:101D5000CDE90245FEF77AFD032003958DE81101D8
:101D600069463846FEF772FD002205210820FEF77D
:101D700007FF0820FEF7F6FE06B0BDE8F081000080
:101D800030380240001402400010024010B586B006
:101D900014216846FEF7BEFA1B4800241949059431
:101DA000C0E900147F218160FF21C0E90314446170
:101DB0008461FFF7C1FA08B1FEF750FC8DF80040CE
:101DC0008DF801408DF802400394002269460E48C8
:101DD0000494FFF767FB08B1FEF740FC01208DF883
:101DE00014008DF815008DF816008DF817400022AC
:101DF00005A90548FFF70AFB002801D0FEF72EFCD5
:101E000006B010BD00280040A40A00200C4810B500
:101E10000A4901604FF4E1314160002181600C22E8
:101E2000C160C0E904128161C161FFF725FE00288D
:101E300003D0BDE81040FEF711BC10BD00100140FA
:101E4000C40A0020FEE7FEE72DE9B847054650A189
:101E5000FEF76BFA04464FA12846FEF766FA0746DE
:101E60004D4800F1140A00F10A0934B3601C49A17D
:101E7000FEF792FA46A1FEF78FFA0446FEF767FADC
:101E8000024621464448FEF72CFA41A10020FEF705
:101E900083FA0446FEF75BFA024621464846FEF7FF
:101EA00020FA3BA10020FEF777FA0446FEF74FFA2E
:101EB000024621465046FEF714FA374C04F1280832
:101EC0001E34BFB1781C33A1FEF766FA0746FEF751
:101ED0003EFA024639462046FEF703FA2DA10020BD
:101EE000FEF75AFA0746FEF732FA024639464046EE
:101EF000FEF7F7F953464A46274928A000F030FC80
:101F000021462EA000F02CFC414633A000F028FC16
:101F10002148FEF763FA60F307054846FEF75EFACC
:101F200060F30F255046FEF759FA60F31745204637
:101F3000FEF754FAC4B264F31F654046FEF74EFA4A
:101F4000C7B2314667F307012846FEF71FFB054677
:101F5000014628A000F004FC2C4800903B46224695
:101F600029462BA002F0EEFA04000ED002F092F9FE
:101F700002460020034600900121204602F044FB67
:101F8000BDE8B84724A000F0EBBBBDE8B88700006F
:101F90003A0000002C00000076010020C9E8D6C3FA
:101FA000C4D6D6D3CFB5CDB3CAB1BCE4CEAAA3BAFA
:101FB00025733A25733A25730D0A0000C9E8D6C384
:101FC000C4D6D6D3B9A4D7F7C4A3CABDCEAAA3BAE0
:101FD00025730D0A00000000C9E8D6C3C4D6D6D3C5
:101FE000D6B4D0D0B6AFD7F7CEAAA3BA25730D0A10
:101FF00000000000B5B1C7B0C4D6D6D3BCE4B8F475
:10200000CEAAA3BA256C750D0A000000453B000856
:1020100074696D6572000000C6F4B6AFB6A8CAB1A7
:10202000C6F7B3C9B9A6A3A10D0A00002DE9F04374
:1020300089B0044648A1FEF778F9064647A1204634
:10204000FEF773F9464C054604F1280904F11E0811
:10205000323436B3701C41A1FEF79EF941A1FEF760
:102060009BF90646FEF773F9024631462046FEF715
:1020700038F93CA10020FEF78FF90646FEF767F914
:10208000024631464046FEF72CF936A10020FEF705
:1020900083F90646FEF75BF9024631464846FEF7ED
:1020A00020F92F4800F1140600F10A071DB3681C3F
:1020B00029A1FEF771F90546FEF749F902462946BE
:1020C0002748FEF70EF924A10020FEF765F9054622
:1020D000FEF73DF9024629463846FEF702F91EA1F1
:1020E0000020FEF759F90546FEF731F90246294668
:1020F0003046FEF7F6F81A48CDE900074B4642464F
:102100002146029618A000F02BFB2046FEF766F948
:10211000A0F5FA608DF823004046FEF75FF98DF8D0
:1021200021004846FEF75AF98DF822000C48FEF7C8
:1021300055F98DF80C003846FEF750F98DF80D0072
:102140003046FEF74BF98DF80E0003A800F0B6F804
:1021500009B0BDE8F08300003A0000002C00000048
:102160003A0100202D000000C9E8D6C3B5B1C7B0C0
:10217000CFB5CDB3CAB1BCE4CEAAA3BA25732D2581
:10218000732D25732C25733A25733A25730D0A0098
:10219000014601A000F0E4BA416C726561647920E7
:1021A000656E74657220736C656570206D6F646513
:1021B0002120756C457870656374656449646C654D
:1021C00054696D65203D2025750A000010B5014653
:1021D00003A000F0C5FABDE81040FFF7DFB900002A
:1021E0004265666F726520656E74657220736C65FA
:1021F0006570206D6F64652120756C45787065632E
:1022000074656449646C6554696D65203D2025756D
:102210000A000000010901EB810100F00F0000EB52
:102220004100C0B27047002102E00A38C0B2491C28
:102230000A28FAD2090740EA116070472DE9F041F7
:10224000044600680025C168490618D4C16841F0F9
:102250008001C160FEF7FCFB06464FF47A78042744
:1022600007E000BFFEF7F4FB801B404501D967770C
:1022700001252068C068400601D4002DF2D0284610
:10228000BDE8F08170B5044600680025C16821F002
:102290008001C16020688068800606D42046FFF770
:1022A00061F910B1042060770125284670BD00B5A2
:1022B00087B06846FEF7D4F907B000BD10B50446F4
:1022C000014600220948FFF7EDF808B1FEF7C6F90C
:1022D000002204F114010548FFF798F8002803D004
:1022E000BDE81040FEF7BAB910BD0000A40A0020F6
:1022F00010B5502080F31188BFF34F8FBFF36F8F5D
:1023000001F0CEFF18B104494FF080500860002062
:1023100080F3118810BD000004ED00E030B593B0EB
:1023200030216846FDF7F6FF14210CA8FDF7F2FFF7
:102330001F480025016841F080510160006800F0ED
:10234000805011901B48016841F480410160006891
:10235000022400F480401190052000904FF480305A
:102360000190012002908005CDE9064008200890E8
:102370004FF4A870CDE9090404200B906846FEF7DD
:10238000D9FD08B172B6FEE70CA90F2081E8310033
:102390004FF4A0500F904FF48050109005210CA8DE
:1023A000FEF7BEFC002801D072B6FEE713B030BDC8
:1023B00040380240007000400248016841F470015A
:1023C0000160704788ED00E00148FFF762B9000046
:1023D0000C0B0020F0B50268294C2A4D2A4E2B4FD9
:1023E0002B4B4FF0804CA04209D0604507D0A8424B
:1023F00005D0B04203D0B84201D0984204D122F0B7
:10240000700E4A6842EA0E02A0421BD0604519D005
:10241000A84217D0B04215D0B84213D0984211D07C
:102420001C4DA8420ED01C4DA8420BD01B4DA842FB
:1024300008D01B4DA84205D01A4DA84202D01A4D13
:10244000A84203D122F44075CA682A434D6922F09C
:1024500080022A4302608A68C2620A688262A042DD
:1024600001D0984201D109690163012141610169EB
:10247000C90703D0016921F001010161F0BD00002D
:10248000000001400004004000080040000C004033
:102490000004014000400140004401400048014068
:1024A00000180040001C00400020004010B5806B68
:1024B0000021C185C184FFF7A5F910BD01680C3169
:1024C00051E8002F22F4907241E80023002BF5D14F
:1024D0000168143151E8002F22F0010241E8002385
:1024E000002BF5D1016B012909D101680C3151E8AC
:1024F000002F22F0100241E80023002BF5D120210B
:1025000080F8421000210163704708B590F842102E
:10251000222901D0022008BD82684FF480539A42DC
:1025200001D1016921B1816A9A421BD04AB10AE006
:102530000268816A5268C2F308020A80816A891CB3
:1025400008E0026972B10268526802F07F020A7004
:10255000816A491C8162C18D491E0904090CC1852B
:1025600003D01BE002685268F1E70168CA6822F0F4
:102570002002CA600168CA6822F48072CA600168D9
:102580004A6922F001024A61202180F842100021AC
:102590004163026B012A03D0FFF7E2FA002008BD75
:1025A000016301680C3151E8002F22F0100241E86C
:1025B0000023002BF5D101680A68D20602D50A680B
:1025C00049680091818DFFF71CF9E7E770B5044673
:1025D00000680169E26821F44051114301612169F9
:1025E000A068E26908436169114308432168CA6829
:1025F00049F20C639A430243CA6020684169A269A8
:1026000021F440711143416131492068884202D070
:102610003049884202D1FEF74DFC01E0FEF73AFC5A
:10262000E2690023192164253226B2F5004F626861
:1026300028D0A0FB0101930F9200FDF721FE014677
:10264000B0FBF5F06FF01802504301EB800006EB91
:102650000010B0FBF5F000F0F002B1FBF5F002EB7A
:102660000012B1FBF5F06FF01803584301EB800046
:1026700006EB0010B0FBF5F000F00F0021681044ED
:10268000886070BDA0FB010192185B41FDF7F8FD69
:102690000146B0FBF5F00201B1FBF5F06FF0180355
:1026A000584301EB800006EBC000B0FBF5F000F0F2
:1026B000F80002EB4002B1FBF5F0584301EB80005B
:1026C00006EBC000B0FBF5F000F00700D6E7000015
:1026D00000100140001401400A4808B50068016874
:1026E000C943890609D440688DF8000006480023D4
:1026F0001A466946006801F031FC0248FFF784F889
:1027000008BD0000C40A002018000020FEE70000F9
:10271000114E124C4FF0FF38002741F28839214604
:1027200001254246706901F079FC012810D1611938
:102730006D1CEDB23222706901F070FC0028F6D1F8
:102740006755064800F00EFF32210448FDF7E2FD10
:10275000484600F08CF9E2E704000020F400002075
:102760000FB4054B10B503A9044A029800F02CF8E9
:1027700010BC5DF814FB0000252A0008EC000020C6
:102780000907090E002804DB00F1E02080F800149E
:10279000704700F00F0000F1E02080F8141D704732
:1027A00000487047F000002002E008C8121F08C16E
:1027B000002AFAD170477047002001E001C1121FC2
:1027C000002AFBD1704700002DE9FF4F8BB09A46DD
:1027D0000F460446002606E025280BD052460D99E8
:1027E0009047641C761C20780028F5D10FB0304645
:1027F000BDE8F08F0025A94601227D4900E0054390
:1028000014F8013F203B02FA03F00842F7D1207888
:102810002E2817D114F8010F45F004052A280ED0F0
:102820006FF02F022078A0F1300109290AD809EBB6
:10283000890102EB410100EB0109641CF2E757F842
:10284000049B641C20786C280DD004DC4C2812D02A
:102850006A2811D104E074280DD07A280CD10AE03E
:1028600045F4001507E0617845F48015814202D1F6
:10287000641C05F58015641C207869283ED006DCB0
:102880000028B3D063280BD0642804D136E0732825
:1028900010D075285CD052460D999047761CA5E063
:1028A00017F8040B8DF8000000208DF80100E846B1
:1028B000012003E057F8048B4FF0FF3069074FF019
:1028C000000501D40AE06D1C4D450DDA8542FADBA6
:1028D00018F805100029F6D106E06D1C8542FCDBD6
:1028E00018F805100029F8D12E4404E018F8010B5F
:1028F00052460D9990476D1EF8D277E000200A905D
:10290000C5F302504FF00A0B02280CD001CFC117BB
:10291000021E71F100020CDA0023D0EB030063EB1E
:1029200001012D2208E0FF1D27F00707F7E802014B
:10293000EEE72A0504D52B228DF82420012203E09E
:10294000EA070FD02022F7E70DF12008089218E0DF
:1029500000200A90C5F302504FF00A0B022803D062
:1029600001CF00210022EFE7FF1D27F00707F7E85E
:102970000201F7E75A460A9BFDF782FC303208F85D
:10298000012D50EA0102F5D1ADEB080000F1200B5A
:10299000680701D44FF00109D94502DDA9EB0B000E
:1029A00000E000208146002506E009A85246405D6F
:1029B0000D9990476D1C761C08988542F5DB04E064
:1029C000302052460D999047761CB9F10001A9F1CB
:1029D0000109F5DC05E018F8010B52460D99904706
:1029E000761CBBF10001ABF1010BF4DC641CFAE6D0
:1029F0000928010009490120096809B10020704730
:102A00000749CA69002AF9D1044A2832126889683C
:102A1000491E8A42F3D1022070470000480C002072
:102A20006000002003490A685206FCD5C2B24A6021
:102A30007047000000100140EFF30580002800D02F
:102A400001207047FEF712F8FFF768FCFFF72AF93C
:102A5000FFF7DCF9FFF79AF9FFF7CCF800F00EF872
:102A6000FEE701460020842900D0C81C704710B53D
:102A700000B9012000F064FF002010BD10B500F087
:102A8000C7FF002010BD38B5D0E9011204683AB183
:102A9000C3682BB100200090204601F038F938BD02
:102AA0002046BDE83840002201F010B97FB50D4640
:102AB00004464169B0F9080081B1A16971B1FFF71D
:102AC000D0FFD4E905128DE80700D4E900102B46A9
:102AD000226901F0A6FB039004B070BDFFF7C1FFAF
:102AE00003A9CDE90001208A2B4682B2D4E9001067
:102AF00001F06AFB012801D00020EDE70398EBE725
:102B00001CB511C86CB1CDE90004012907D0002023
:102B100013460246012109A001F02EFD1CBD012033
:102B2000F6E70090012907D0002013460246012154
:102B300002A001F007FD1CBD0120F6E70000000027
:102B40002DE9FC41002507462E4601950C0000D1D9
:102B50000124FFF771FF009690B101AB22460921D5
:102B6000384601F051FD012812D1019888B10A4977
:102B70004FF080500860BFF34F8FBFF36F8F08E0B6
:102B8000002322460421384601F03EFD012800D0F2
:102B9000FF252846BDE8FC8104ED00E02DE9F04169
:102BA000184C0F460546E6682068001D00F0A0FCA2
:102BB00038B9206890F82C100120884021698143A1
:102BC0002161681C07D137B12168BDE8F0410E488A
:102BD000091D00F053BD20683544B54245602168A9
:102BE00005D2A06BBDE8F041091D00F02FBD606B60
:102BF000091D00F02BFDA06A854200D2A562BDE848
:102C0000F081000060000020700C00202DE9F041F0
:102C1000054600F03FFD2E4CA068401CA0602068D7
:102C20002C4F10B1606940B32DE02560A0680128E9
:102C300029D1002606EB860007EB800000F0F8FCA7
:102C4000761C072EF6D323488C3000F0F1FC214887
:102C5000A03000F0EDFC1F48B43000F0E9FC1D4846
:102C6000C83000F0E5FC1B48DC3000F0E1FC1948FE
:102C70008C3060631430A06305E02068E96AC06AA4
:102C8000884200D82560606A401C6062E96A0120C1
:102C9000226988401043206101EB810007EB80002E
:102CA000291D00F0EBFC00F015FD606900280CD038
:102CB0002068E96AC06A884207D207494FF080500D
:102CC0000860BFF34F8FBFF36F8FBDE8F081000046
:102CD00060000020940B002004ED00E038B500F007
:102CE000D9FC104C2068C8B90F4800F0A1FC0E4870
:102CF000143000F09DFC0C48E060143020610A4B59
:102D00000020C03B009003F148020C210A2000F093
:102D1000FEFF206010B105A100F0DCFDBDE83840E9
:102D200000F0D8BC9C000020440D0020546D72516E
:102D30000000000030B4026C0B46002A0BD0C168C2
:102D40001144C1608468A14201D30168C16030BCF4
:102D50001846FDF7C6BA30BC70472DE9F041856BC7
:102D6000174604460026026C82B1C7B1E068FDF741
:102D7000B8FAE168206C091AE1602268914202D237
:102D8000A168081AE060022F16D017E02068A8B9E1
:102D9000A06801F0EBFA06460020A0600EE0606833
:102DA000FDF79FFA216C606808446060A168884262
:102DB00004D32068606001E005B16D1E6D1CA56341
:102DC0003046BDE8F08110B5044690F8510058B186
:102DD00001280CD002280FD0502080F31188BFF3B7
:102DE0004F8FBFF36F8FFEE7206B00F087FC20460C
:102DF000BDE8104000F082BC10BD00000A48002170
:102E00000269012A00D901210268D26A0AB10020B0
:102E10007047064A1268012AF9D80029F7D1816A59
:102E2000C068081A7047000060000020940B002062
:102E300010484FF47051420706D0C01D0D4920F0D4
:102E40000700411AC1F570510B4A00230144C2E941
:102E500000030839183A21F0070111604B600B603C
:102E60000B1AC0E9001393604FF0004053605061AB
:102E7000704700006C0D0020C8000020204C214E3F
:102E800012E000BF00F006FCF068C568281D00F0E5
:102E90002FFBA068401EA0606068401E606000F0CC
:102EA00019FC2846FFF78FFF60680028EAD1154813
:102EB000C8380068012807D913494FF080500860CE
:102EC000BFF34F8FBFF36F8FFFF798FF0228D6D362
:102ED00000F0F6FDA06AE168884207D2502080F336
:102EE0001188BFF34F8FBFF36F8FFEE7FFF786FFA9
:102EF000022801D300F058FC01F0C2FABFE700003D
:102F0000600000205C0C002004ED00E00346009807
:102F100029B10260C0E90F31012100F02BBF006030
:102F2000F8E72DE9F0479A46DDE9098481466FF01C
:102F30000303206B03EB82021044089E20F0070776
:102F4000780707D0502080F31188BFF34F8FBFF36D
:102F50006F8FFEE7002561B1002023180A5C83F81B
:102F600034200A5C12B1401C1028F6D384F8435078
:102F700001E084F83450072E00D30626E662C4E947
:102F80001165201D00F05FFB04F1180000F05BFBF1
:102F90002461C6F107006462A061E56484F85050C2
:102FA00052464946384600F08DFA2060B8F1000FCD
:102FB00001D0C8F80040BDE8F0872DE9F0471E4673
:102FC000DDE9089417460D00804615D0002C11D07D
:102FD000FFF784FE04F11801C4F8008081E8600264
:102FE000201D00F030FB002F04D014F8240F40F017
:102FF00004002070BDE8F087502080F31188BFF3F3
:103000004F8FBFF36F8FFEE730B5114900E01146D7
:103010000A688242FBD34B685C18844203D1406843
:1030200018444860084643681C18944209D1084C6B
:10303000183C2468A24209D052681A4442600A68C7
:1030400012680260814200D0086030BD0460F9E778
:10305000C800002070B5002441600B4D0061914212
:1030600006D8D11A8269914206D2011D286907E06B
:103070009A4203D2994201D3012403E0011DE8687A
:1030800000F0E4FA204670BD9C00002010B5044614
:1030900000F000FBA06B28B15FF0000400F01AFB09
:1030A000204610BD0124F9E730B587B0394D67E0FF
:1030B0000498002864DB069C606910B1201D00F0B4
:1030C00017FA03A800F0D8F8024604980A2857D245
:1030D000DFE800F00505052D334A05052D3394F88A
:1030E000240040F0010084F824000599A069059BA4
:1030F00001442046FFF7AEFF68B3216A20468847A7
:1031000094F8240040073BD5002000900598A16961
:10311000002342181946204601F076FAD8B950200B
:1031200080F31188BFF34F8FBFF36F8FFEE714F862
:10313000240F20F00100207022E094F8240040F0D9
:10314000010084F824000598A06128B18118134675
:103150002046FFF77FFF13E0502080F31188BFF374
:103160004F8FBFF36F8FFEE794F82400810703D4DD
:10317000204600F0C3FA03E020F0010084F82400A8
:10318000002204A9286800F049FF002890D107B068
:1031900030BD00009C0000202DE9FC410F46054693
:1031A00000F08EFC01A800F067F80446019818B101
:1031B00001F066F9BDE8FC81254EAFB130690068C9
:1031C000D0B30027291B3A46306800F097FB01F086
:1031D00057F90028EED11F494FF080500860BFF327
:1031E0004F8FBFF36F8FE5E7A542EBD801F048F9A9
:1031F000F0682746C068C468201D00F079F994F88B
:103200002400410719D5A0692B4641193A462046AA
:10321000FFF720FFA8B100200346014600902A4690
:10322000204601F0F1F960B9502080F31188BFF316
:103230004F8FBFF36F8FFEE707E020F0010084F8A7
:103240002400216A20468847B4E70127BAE7000036
:103250009C00002004ED00E00648416B096829B19C
:10326000416BC968C9684968816270474FF0FF3196
:10327000FAE700006000002070B5054601F00AF88A
:10328000064E0446B068844203D200F009F80120DB
:1032900000E0002028602046B46070BD9C00002043
:1032A000F8B5194D20E0C068C4680668201D00F01C
:1032B0001FF9216A2046884794F82400400713D557
:1032C000A0693044B04206D924616060211DE868DD
:1032D00000F0BCF908E000200346014600903246A9
:1032E000204601F091F938B1E86801680029DAD187
:1032F0002969C5E90310F8BD502080F31188BFF398
:103300004F8FBFF36F8FFEE79C0000200848406896
:10331000401C4FF0500080F3118804D0BFF34F8F52
:10332000BFF36F8FFEE7BFF34F8FBFF36F8FFEE7E3
:10333000D0000020074CE068016841B1C06800215E
:10334000D0F80000FFF728FFFFF7AEFEF3E70121FA
:103350000020F7E79C0000202DE9F041044600F032
:1033600099F994F9455004F1240609E0606A48B1DE
:10337000304601F047F808B100F010FB6D1E6DB249
:10338000002DF3DC4FF0FF3684F8456000F0A2F921
:1033900000F080F994F9445004F1100709E0206925
:1033A00048B1384601F02EF808B100F0F7FA6D1E6A
:1033B0006DB2002DF3DC84F84460BDE8F04100F00C
:1033C00089B900002DE9F0410546002700F078FB9F
:1033D000324E306808B9FFF72BFD706905424ED1B7
:1033E000C5B3083568070ED005F00700C0F1080026
:1033F0000544680707D0502080F31188BFF34F8F32
:10340000BFF36F8FFEE72DB37068854237D823482E
:10341000183001460C6801E020460C466168A9425C
:1034200002D221680029F7D131688C4227D0076881
:103430002168016060680837411B10290FD96019A5
:10344000420708D0502080F31188BFF34F8FBFF39D
:103450006F8FFEE713E041606560FFF7D5FD61689F
:103460007068401A7060B268904200D2B0607069B3
:1034700001430020C4E90001F068401CF06000F046
:10348000FFFF780707D0502080F31188BFF34F8FDC
:10349000BFF36F8FFEE73846BDE8F081B000002033
:1034A00010B5040006D000F0F5F8E46900F012F958
:1034B000204610BD502080F31188BFF34F8FBFF31B
:1034C0006F8FFEE710B5031F4FF080741C601B1F49
:1034D00021F001011960191F044B0B6014390A60B7
:1034E000091F6FF0020244380A6010BD0D33000856
:1034F000D0E9013201699A60D0E901235A604A6833
:10350000824201D182684A60002202610868401E3E
:103510000860086870470000034B036003F1540023
:103520000860802010607047A8010020044B0360F1
:1035300003F1540008604FF4807010607047000081
:10354000FC03002001A0FFF70BB9000025732069E0
:103550007320537461636B204F766572466C6F778E
:10356000210D0A0010B5044608220BA1FCF704FF48
:1035700058B109220BA12046FCF7FEFE002809D114
:103580002046BDE81040FEF75FBC2046BDE8104075
:10359000FEF74CBD10BD00007265616C74696D650D
:1035A00000000000616C61726D74696D650000005F
:1035B0002DE9F0411A4D8046002405F1300605F151
:1035C000200700BF57F824104046FCF7C7FE98B10B
:1035D000641CE4B2022CF5D3114F002417F1280724
:1035E000404657F82410FCF7B9FE58B1641CE4B209
:1035F000022CF5D3BDE8F08135F8141056F82400FC
:10360000002204E035F8141056F824000122FDF7DA
:103610001AFA57F82410BDE8F04102A0FFF7A0B84D
:1036200004000020436D642069732025730A0000A4
:1036300000F108014FF0FF32C0E90112C1600161E1
:1036400000210160704700210161704730B50B68AF
:103650005A1C02D000F1080202E0026904E022468E
:10366000546825689D42FAD953684B6099608A6016
:10367000516008610168491C016030BD42684A60C0
:1036800093688B6093685960916008610168491C78
:1036900001607047502080F31188BFF34F8FBFF354
:1036A0006F8F0A494868401C486001280CD10848BF
:1036B000006810F0FF0F07D0502080F31188BFF38F
:1036C0004F8FBFF36F8FFEE770470000D0000020E0
:1036D00004ED00E00849486828B1401E486001D167
:1036E00080F311887047502080F31188BFF34F8F0B
:1036F000BFF36F8FFEE70000D000002070B50028F8
:103700002AD0164DA0F1080460686969084207D103
:10371000502080F31188BFF34F8FBFF36F8FFEE708
:1037200022683AB1502080F31188BFF34F8FBFF366
:103730006F8FFEE78843606000F0C2F960686968D7
:10374000084468602046FFF75FFC2869401C286138
:10375000BDE8704000F094BE70BD0000B0000020D5
:103760000F4810B501684FF47A72B1FBF2F30D48BF
:103770006FF07F448360B4FBF3F3C360B1FBF1F3FC
:103780002D24B4FBF3F303614FF0E0200023036129
:103790008361B1FBF2F1491E41610721016110BD56
:1037A0005C000020D00000202DE9F041334E05469A
:1037B000F068854200D905464FF0E024206920F0EA
:1037C00001002061A169B268681E02FB0017306920
:1037D000874200D93F1A72B6BFF34F8FBFF36F8F86
:1037E000FFF708F958B367614FF000084046C4F886
:1037F0001880216941F001012161FEF7E7FC2846AC
:10380000FEF7C6FC62B6BFF34F8FBFF36F8F72B681
:10381000BFF34F8FBFF36F8F062020612069C00375
:1038200014D5A069B168381A081A3269401E90424E
:1038300001D3884200D9481E6061681E10E0A0696B
:103840006061206940F00100206111E0B168A06969
:103850004D432A1AB2FBF1F0431C4B43991A6161A4
:10386000C4F81880216941F00101216100F014F9C8
:10387000B068401E606162B6BDE8F081D0000020F3
:1038800010B5FCF7E7FC114910280ED300F1E02039
:1038900090F8F0030A78904207D2502080F3118804
:1038A000BFF34F8FBFF36F8FFEE709480068496988
:1038B00000F4E060884207D9502080F31188BFF3FC
:1038C0004F8FBFF36F8FFEE710BD0000D0000020C8
:1038D0000CED00E010B5084B002200BF53F8324059
:1038E0001CB1521C082AF9D310BD43F8321003EB67
:1038F000C201486010BD0000540B002070B5154691
:103900000E460446FFF7C6FE94F944100020491CF9
:1039100001D184F8440094F94510491C01D184F880
:103920004500FFF7D7FEA06B28B92A46314604F1BF
:10393000240000F051F82046BDE87040FFF70CBDB0
:1039400010B5020014D00F48006B38B1502080F33E
:103950001188BFF34F8FBFF36F8FFEE700F0B0F811
:1039600000211046FFF71AF900F08AFD002807D160
:1039700005494FF080500860BFF34F8FBFF36F8F42
:1039800010BD00006000002004ED00E002490A6A5A
:103990000260C96841607047600000200149012051
:1039A000C86170476000002010B50C4650B109494D
:1039B00009681831FFF74AFE2046BDE81040012192
:1039C000FFF7ECB8502080F31188BFF34F8FBFF39F
:1039D0006F8FFEE76000002070B514460D4668B199
:1039E0000A4909681831FFF749FE0CB14FF0FF355D
:1039F00021462846BDE87040FFF7D0B8502080F33C
:103A00001188BFF34F8FBFF36F8FFEE76000002078
:103A100030B587B00024039405AA04A903A8049430
:103A2000FFF77AFDDDE903010094CDE901100023E1
:103A300015A11748059A00F0F4FB164D0028E8621E
:103A40001FD000F0B1FD012809D0401C19D1502031
:103A500080F31188BFF34F8FBFF36F8FFEE75020C5
:103A600080F31188BFF34F8FBFF36F8F4FF0FF309C
:103A7000A86201206861EC6007B0BDE8304000F04A
:103A8000ABB807B030BD000049444C450000000011
:103A90007D2E0008600000200849CA688B6A024435
:103AA0009A4207D9502080F31188BFF34F8FBFF39C
:103AB0006F8FFEE7CA681044C8607047600000203E
:103AC0000248016B491C0163704700006000002040
:103AD00010B51A4C206B10B10120E06110BD002020
:103AE000E061206821680068096B884204D8216879
:103AF00020683431FFF726FD20691149B0FA80F0C3
:103B0000C0F11F0000EB800051F820206AB101EBEA
:103B1000800000F10802416849684160914201D18A
:103B200049684160C868206010BD502080F311884A
:103B3000BFF34F8FBFF36F8FFEE7000060000020E0
:103B4000940B0020F8B50446FFF7AAFC0546E0698F
:103B500050B1002003460090114A0921204600F090
:103B600053FD10A0FEF7FCFD294615A0FEF7F8FD59
:103B7000184E0024A6F138070AE000BF56F82500C9
:103B8000002301190122B86900F038F9641CE4B27D
:103B900056F82500FCF7DBFBA042EFD8F8BD00008B
:103BA000005C2605C3F7CCECBCCCD0F8B4A5B7A21A
:103BB000B6AFD7F7A3A1A3A1A3A10D0A00000000EF
:103BC000756C54696D65724944203D2025640D0A69
:103BD000000000003C0000201CB537480168374A4F
:103BE000914207D1502080F31188BFF34F8FBFF36C
:103BF0006F8FFEE700683149491E884207D1502087
:103C000080F31188BFF34F8FBFF36F8FFEE72C490E
:103C100008780190FF20087008788DF800009DF862
:103C200000009DF8002000F0F000904207D05020E6
:103C300080F31188BFF34F8FBFF36F8FFEE79DF8BE
:103C40000000204C00F0500020700720606105E06B
:103C50009DF8002052008DF80020401E9DF80020A5
:103C60001206F5D46061032807D0502080F3118834
:103C7000BFF34F8FBFF36F8FFEE74FF4407060616B
:103C8000019808700C482030016841F4700101600F
:103C9000016841F070410160FFF762FD0020606043
:103CA000FCF7A0FA0848016841F040410160FCF7C8
:103CB00085FA00201CBD000000ED00E071C20F413C
:103CC00000E400E0D000002034EF00E0F8B5174633
:103CD0000E46050013D005FB06F04830FFF772FBD7
:103CE00004000AD0002084F8460004F148023B4654
:103CF000314628460094FFF709F92046F8BD5020C8
:103D000080F31188BFF34F8FBFF36F8FFEE738B595
:103D1000049D18B153B1CAB181B120E0502080F3A5
:103D20001188BFF34F8FBFF36F8FFEE7502080F3F2
:103D30001188BFF34F8FBFF36F8FFEE7502080F3E2
:103D40001188BFF34F8FBFF36F8FFEE739B150205B
:103D500080F31188BFF34F8FBFF36F8FFEE74824C6
:103D60001C46012384F846302B460094FFF7CEF81A
:103D7000204638BD70B50D46040025D0FFF78AFCFB
:103D8000D4E90F20216802FB0011A1600021A1638A
:103D9000216861600A46D4E90F01401E00FB012141
:103DA000E16021464FF0FF3001F8440F487004F104
:103DB00010008DB1FFF73CFC04F12400FFF738FC44
:103DC000FFF788FC012070BD502080F31188BFF3FD
:103DD0004F8FBFF36F8FFEE721690029F0D000F00D
:103DE00011FB0028ECD004494FF080500860BFF36D
:103DF0004F8FBFF36F8FE3E704ED00E02DE9FF473E
:103E000082B01D468A464FF00008040003D0BAF184
:103E1000000F08D011E0502080F31188BFF34F8FBE
:103E2000BFF36F8FFEE7206C38B1502080F311880C
:103E3000BFF34F8FBFF36F8FFEE7022D0AD1E06B08
:103E4000012807D0502080F31188BFF34F8FBFF3B4
:103E50006F8FFEE700F010FA3F4F4FF000094FF070
:103E6000805648B9049838B1502080F31188BFF3C8
:103E70004F8FBFF36F8FFEE7FFF70CFCA06BE16B7A
:103E8000884207D3022D05D00498D0B1B8F1000FB5
:103E90001AD01EE02A4651462046FEF75EFF616AB0
:103EA00019B104F1240000F0ADFA20B13E60BFF377
:103EB0004F8FBFF36F8FFFF70DFC012006B0BDE8F9
:103EC000F087FFF707FC22E06846FFF75FFD4FF041
:103ED0000108FFF7FFFBFFF7F3FDFFF7DBFB94F9AA
:103EE0004400401C01D184F8449094F94500401CE2
:103EF00001D184F84590FFF7EDFB04A9684600F076
:103F000029F930B12046FFF727FA00F0B9FA00206E
:103F1000D4E7FFF7BFFBA06BE16B884213D1FFF73B
:103F2000D9FB04F110000499FFF73EFD2046FFF78E
:103F300013FA00F0A5FA00289ED13E60BFF34F8F20
:103F4000BFF36F8F98E7FFF7C5FB2046FFF704FA32
:103F500000F096FA90E7000004ED00E02DE9F0474C
:103F60001F4690468946040003D0B9F1000F08D0DF
:103F700011E0502080F31188BFF34F8FBFF36F8F94
:103F8000FEE7206C38B1502080F31188BFF34F8FCB
:103F9000BFF36F8FFEE7022F0AD1E06B012807D035
:103FA000502080F31188BFF34F8FBFF36F8FFEE770
:103FB000FFF766FC5020EFF3118680F31188BFF302
:103FC0004F8FBFF36F8FA06BE16B884206D3022F38
:103FD00004D0002086F31188BDE8F08794F945509D
:103FE000A06B3A4649462046FEF7B7FE681C04D04F
:103FF0006D1C84F845500120ECE7606A0028FAD077
:1040000004F1240000F0FEF90028F4D0B8F1000F0C
:10401000F1D00121C8F80010EDE700002DE9F747C5
:10402000002683B08A46040003D0BAF1000F08D0FE
:1040300011E0502080F31188BFF34F8FBFF36F8FD3
:10404000FEE7206C38B1502080F31188BFF34F8F0A
:10405000BFF36F8FFEE700F00FF9DFF8F4804FF049
:1040600000094FF0805748B9059838B1502080F3C7
:104070001188BFF34F8FBFF36F8FFEE7FFF70AFB87
:10408000A56BC5B151462046FEF754FE6D1EA563D3
:10409000206950B104F1100000F0B4F928B1C8F85B
:1040A0000070BFF34F8FBFF36F8FFFF713FB01203B
:1040B00006B0BDE8F087059808B11EB106E0FFF72D
:1040C00009FB27E06846FFF761FC0126FFF702FBCA
:1040D000FFF7F6FCFFF7DEFA94F94400401C01D12B
:1040E00084F8449094F94500401C01D184F845902F
:1040F000FFF7F0FA05A9684600F02CF800282046E2
:104100000AD0FFF729F900F0BBF92046FEF7BEFF01
:104110000028B3D00020CBE7FEF7B8FF90B104F140
:1041200024000599FFF740FC2046FFF715F900F041
:10413000A7F90028A2D1C8F80070BFF34F8FBFF3D2
:104140006F8F9BE72046FFF707F900F099F995E795
:1041500004ED00E02DE9F0410C46050011D0C4B19A
:10416000FFF798FA174BDA686E682068911B471CB6
:1041700017D02F681B6A9F4219D0964217D8012486
:1041800010E0502080F31188BFF34F8FBFF36F8F83
:10419000FEE7502080F31188BFF34F8FBFF36F8F7E
:1041A000FEE70024FFF796FA2046BDE8F08188423A
:1041B00005D9401A20602846FFF7E8FBF1E7002008
:1041C0002060DCE7600000202DE9FF5F8346DDE929
:1041D0000E87994616468A469000FFF7F3F80500C9
:1041E0001CD05420FFF7EEF8040014D00020256303
:1041F00084F85100CDE90240CDE900874B463246B4
:1042000051465846FEF78DFE2046FEF7FFFC012082
:1042100004B0BDE8F09F2846FFF770FA4FF0FF307A
:10422000F6E7F0B585B0DDE90B640A9DA6B1DCB117
:10423000542700972663022684F85160002604AFB5
:10424000CDE90246CDE90057FEF76BFE2046FEF7AA
:10425000DDFC049805B0F0BD502080F31188BFF359
:104260004F8FBFF36F8FFEE7502080F31188BFF3AD
:104270004F8FBFF36F8FFEE70548416919B1006B9F
:1042800018B10020704701207047022070470000DD
:10429000600000200148C0687047000060000020F6
:1042A0002DE9F0412F4C0026206B28B1A069401C5D
:1042B000A0613046BDE8F081E5686D1CE56013D172
:1042C000606B006838B1502080F31188BFF34F8FC6
:1042D000BFF36F8FFEE7606BA16B6163A063206A21
:1042E000401C2062FEF7B8FFA06ADFF87C808542A0
:1042F00009D3606B0068A0B1606BC068C76878685C
:10430000854211D2A0622068C06A00EB800158F893
:104310002100012800D90126E0690028C9D0012622
:10432000C7E74FF0FF30EDE7381DFFF7E1F8B86A57
:1043300018B107F11800FFF7DBF8F96A01202269CC
:1043400088401043206101EB810108EB8100391D99
:10435000FFF794F9F86A2168C96A8842C9D301262F
:10436000C7E7000060000020940B002070B5040037
:104370004FF0000140D0214D2868844207D05020E2
:1043800080F31188BFF34F8FBFF36F8FFEE7A06CF0
:1043900038B1401EA064636CE26A9A422CD040B1EE
:1043A0002AE0502080F31188BFF34F8FBFF36F8F47
:1043B000FEE7201DFFF79CF8114A012150B9E06A81
:1043C00000EB800352F8233023B92B6901FA00F087
:1043D00083432B61606CE062C0F10700A061E06A7A
:1043E0002B6981401943296100EB800002EB8000BA
:1043F000211DFFF743F90121084670BD6000002030
:10440000940B00202DE9F041C068C468ACB104F100
:1044100018000746FFF76CF8174D286B0126A0B16E
:1044200039461648FFF72AF9E06A2968C96A8842BE
:1044300020D90120EE61BDE8F081502080F3118881
:10444000BFF34F8FBFF36F8FFEE7201DFFF750F8CC
:10445000E16A2A6906FA01F01043286101EB810044
:104460000649B43901EB8000211DFFF707F9FEF77B
:10447000F3FED9E70020DEE760000020480C0020B2
:104480002DE9F0472C4D00242746286B38B1FFF763
:1044900001F9286B401E2863286B40B146E050208C
:1044A00080F31188BFF34F8FBFF36F8FFEE7A968CA
:1044B000224E0120D1B3A6F1B40980463068E8B19C
:1044C000F068C46804F11800FFF712F8201DFFF728
:1044D0000FF8E06A2A6908FA00F11143296100EB3C
:1044E000800109EB8100211DFFF7C8F8E06A296807
:1044F000C96A8842E2D3C5F81C80DFE70CB1FEF739
:10450000ABFEAC6944B14646FFF7CAFE00B1EE61AE
:10451000641EF9D10020A861E86938B10849012773
:1045200038070860BFF34F8FBFF36F8FFFF7D2F8E4
:104530003846BDE8F087000060000020480C0020ED
:1045400004ED00E02DE9FC4781461E4617468846EB
:1045500028200A9DFEF736FF04000AD0002084F8C8
:104560002400CDE9005433463A4641464846FEF71A
:1045700024FD2046BDE8FC877CB52826DDE90654ED
:10458000009644B1022684F82460CDE90054FEF779
:1045900014FD20467CBD502080F31188BFF34F8F5F
:1045A000BFF36F8FFEE7000010B586B0FEF796FBF5
:1045B000114C2068B8B100200390049005AA04A90A
:1045C00003A8FEF7B3FFDDE9032102208DE8070011
:1045D00000230AA10B48059AFFF723FE606010B183
:1045E00006B0012010BD502080F31188BFF34F8F1B
:1045F000BFF36F8FFEE700009C000020546D722017
:104600005376630035330008FEB51E46134602009C
:10461000089D4FF0000014D0124C2768002F0FD0D7
:10462000CDE900130292062915DAFFF725FE0228CC
:104630004FF000030DD0002269462068FFF7DEFB33
:10464000FEBD502080F31188BFF34F8FBFF36F8FF3
:10465000FEE72A46F0E70023324669463846FFF770
:104660007DFCFEBD9C000020AF2200080000000081
:104670003200000001000000000000000000000007
:104680001400000001000000000000000000000015
:10469000DC47000811270008FEFF000000000000B2
:1046A0008000000050080020500A0020E847000861
:1046B000A51B0008000000000000000080000000B2
:1046C0000000000000000000D0470008691B00083F
:1046D000000000000000000080000000000000005A
:1046E00000000000F44700084B060008FEFF000031
:1046F000000000008000000000000000000000003A
:104700000000000000000000010203040607080981
:1047100000000000010203040040404040404040CF
:104720004040414141414140404040404040404084
:104730004040404040404040400502020202020228
:104740000202020202020202022020202020202077
:10475000202020020202020202029090909090908B
:104760001010101010101010101010101010101049
:1047700010101010020202020202888888888888BD
:1047800008080808080808080808080808080808A9
:104790000808080802020202400000001947000849
:1047A000636C6F73656C6564300000006F70656EDC
:1047B0006C65643000000000636C6F73656C656449
:1047C000310000006F70656E6C65643100000000A0
:1047D0004B6579305461736B000000005573617252
:1047E000745461736B0000004C6564785461736BA2
:1047F0000000000044656C61795461736B00000037
:104800002048000800000020F4000000A82700084D
:1048100014490008F40000207C4C0000B827000870
:104820000000000001000200000000000000000085
:104830000000000000000000000000000000000078
:1048400000000000AC470008C4470008A04700086B
:10485000B84700080010024000100240AC470008B2
:10486000C4470008A0470008B8470008000000003F
:104870000100000010000000000000000024F4000F
:104880000000000000000000000000000000000028
:104890000000000000000000000000000000000018
:1048A0000000000000000000000000000000000008
:1048B00000000000000000000000000000000000F8
:1048C00000000000000000000000000000000000E8
:1048D00000000000000000000000000000000000D8
:1048E00000000000000000000000000000000000C8
:1048F00000000000AAAAAAAA000000000000000010
:1049000000000000000000000000000000000000A7
:0449100000000000A3
:040000050800018965
:00000001FF
