:020000040800F2
:10000000004A00205D020008D3120008B510000865
:10001000D1120008B903000899150008000000007B
:100020000000000000000000000000009D0100082A
:10003000BB03000800000000F9010008D512000809
:1000400077020008770200087702000877020008AC
:10005000770200087702000877020008770200089C
:10006000BD030008C3030008C903000877020008A5
:10007000770200087702000877020008770200087C
:10008000770200087702000877020008770200086C
:10009000770200087702000877020008770200085C
:1000A00077020008A9130008770200087702000809
:1000B000770200087702000877020008770200083C
:1000C000770200087702000877020008770200082C
:1000D000770200087702000877020008770200081C
:1000E000770200087702000877020008770200080C
:1000F00077020008770200087702000877020008FC
:1001000077020008770200087702000877020008EB
:1001100077020008770200087702000877020008DB
:1001200077020008770200087702000877020008CB
:1001300077020008770200087702000877020008BB
:1001400077020008770200087702000877020008AB
:10015000770200087702000877020008770200089B
:10016000770200087702000877020008770200088B
:1001700077020008770200087702000800000000FC
:100180007702000877020008DFF80CD000F002F9CF
:100190000048004765170008004A00202C4B1968EA
:1001A0000868B0E8F04F80F30988BFF36F8F4FF015
:1001B000000080F3118870470000000008480068C4
:1001C000006880F308884FF0000080F3148862B65E
:1001D00061B6BFF34F8FBFF36F8F00DF00BF00BF6B
:1001E00008ED00E0DFF80C00016841F470010160E7
:1001F000704700BF88ED00E0EFF30980BFF36F8F19
:10020000134B1A681EF0100F08BF20ED108A20E96A
:10021000F04F106009B44FF0500080F31188BFF325
:100220004F8FBFF36F8F02F081F94FF0000080F322
:10023000118809BC19680868B0E8F04F1EF0100F6B
:1002400008BFB0EC108A80F30988BFF36F8F704746
:1002500018000020EFF30580704700000648804733
:1002600006480047FEE7FEE7FEE7FEE7FEE7FEE79B
:10027000FEE7FEE7FEE7FEE79913000889010008A4
:100280002DE9F05F0546002092469B4688460646CB
:10029000814640241BE0284641464746224600F05E
:1002A00069F853465A46C01A914110D31146184670
:1002B000224600F050F82D1A67EB01084F462246FF
:1002C0000120002100F047F817EB00094E41201EE5
:1002D000A4F10104DFDC484631462A464346BDE826
:1002E000F09F40EA01039B0703D009E008C9121FF1
:1002F00008C0042AFAD203E011F8013B00F8013BE0
:10030000521EF9D27047D2B201E000F8012B491E0B
:10031000FBD270470022F6E710B513460A460446A2
:100320001946FFF7F0FF204610BD30B50B460146D9
:1003300000202022012409E021FA02F59D4205D384
:1003400003FA02F5491B04FA02F52844151EA2F12E
:100350000102F1DC30BD202A04DB203A00FA02F170
:10036000002070479140C2F1200320FA03F31943A3
:1003700090407047202A04DB203A21FA02F0002145
:10038000704721FA02F3D040C2F1200291400843A5
:1003900019467047064C074D06E0E06840F001033F
:1003A00094E8070098471034AC42F6D3FFF7F0FE0C
:1003B0000031000820310008FEE77047042000F0FB
:1003C00067B8082000F064B8102000F061B872B679
:1003D000FEE7000070B5044600F064F90546601CB5
:1003E00002D004480078044400F05CF9401BA042AD
:1003F000FAD370BD0800002070B5224D224C0428AD
:100400001AD008282AD010283AD11021204600F00E
:1004100043F9002834D11420FFF7DCFF10212046D7
:1004200000F03AF900282BD1002304222968BDE806
:100430007040164802F030BE0421204600F02CF92E
:1004400000281DD11420FFF7C5FF0421204600F02D
:1004500023F9002814D100230122E7E708212046D0
:1004600000F01AF900280BD11420FFF7B3FF082180
:10047000204600F011F9002802D100230222D5E71E
:1004800070BD00000000002000100240ED200008B8
:10049000044910B50A68024202D00860FFF7ACFFB9
:1004A00010BD0000143C01402DE9F84FDFF8BCA15D
:1004B0000022012503264FF00F090AF1040BAAF1CF
:1004C000040E00BF0B6805FA02F42340A34270D16A
:1004D0000F7907F00307012F01D0022F16D187688B
:1004E0004FEA420806FA08FC27EA0C07D1F80CC0CC
:1004F0000CFA08FC4CEA070CC0F808C04768A74390
:100500000C79C4F3001494403C4344600C79E443F8
:10051000A4070AD0C4684FEA420C06FA0CF7BC43A1
:100520008F6807FA0CF72743C7600C7904F00304BF
:10053000022C12D1D40800EB840CDCF820405707C1
:10054000FF0E09FA07F824EA0804D1F8108008FA27
:1005500007F848EA0408CCF8208004684FEA420C07
:1005600006FA0CF7BC430F7907F0030707FA0CF7FC
:10057000274307604C6814F4403F70D03C4C276818
:1005800047F480472760246822F0030704F480447E
:100590000094384C07EB040CDCF8084897074FEA46
:1005A000177809FA08F7BC43334FB84202D1002745
:1005B00024E054E0314FB84201D101271EE0304F12
:1005C000B84201D1022719E02E4FB84201D10327CA
:1005D00014E02D4FB84201D104270FE02B4FB84251
:1005E00001D105270AE02A4FB84201D1062705E0CC
:1005F000284FB84201D1072700E0082707FA08F77B
:100600002743CCF80878DAF800405746D1F804C000
:100610009C435FEACC2C00D51C433C60DBF80040D7
:100620005F46D1F804C09C435FEA8C2C00D51C4384
:100630003C60DEF800407746D1F804C09C435FEA96
:100640008C3C00D51C433C60084F083F3C68D1F807
:1006500004C09C435FEACC3C00D51C433C60521C68
:10066000102AFFF42FAFBDE8F88F0000083C0140CE
:1006700044380240003001400000024000040240C3
:1006800000080240000C024000100240001402402A
:1006900000180240001C02400069084000D0012000
:1006A0007047000001488068704700000800002083
:1006B0000248816802781144816070470800002078
:1006C0000B4810B5016841F400710160016841F404
:1006D00080610160016841F480710160032000F0D5
:1006E00099F8002000F006F800F04AF8002010BD4C
:1006F000003C024030B505461C4887B00024016824
:1007000041F001010160006806A900F001000090BD
:1007100001A800F02BF900F059F915494000B0FB91
:10072000F1F11548134A491E026040F2E732C0E970
:100730000324C0E90114846100F040FB040012D1DD
:100740000D4800F069FB04000DD1192000F034F8C9
:10075000102D07D200222946192000F03BF8074847
:10076000056000E0012407B0204630BD4438024057
:1007700040420F0000000140780700200C000020DC
:100780000C4882B0016841F480410160006800F4C7
:10079000804000900748001F016841F080510160CF
:1007A0000068002200F0805000900F21901E02B0DF
:1007B00000F010B844380240002809DB00F01F02A6
:1007C000012191404009800000F1E020C0F80011B3
:1007D00070470000F0B40E4B1B680C46C3F30223B5
:1007E000C3F10705042D00D90425191D072901D2DD
:1007F000002300E0DB1E012606FA05F1491E214018
:1008000099409E40761E16403143F0BC00F0D6BEA3
:100810000CED00E0064900F0070208684FF6FF0300
:10082000184040EA0220034A104308607047000065
:100830000CED00E00000FA052DE9F0470E4605003A
:1008400065D0DFF81481D8F80000F7B200F0070097
:10085000B04207D288F80070D8F8000000F0070016
:10086000B04254D128683D4C810712D5400703D5CA
:10087000206840F4E05020602878000703D5206805
:1008800040F4604020602068A96820F0F000084330
:1008900020602878C0072DD03049686808390128C1
:1008A00012D0022813D0032811D009688907002923
:1008B0002DDA216821F0030101432160FFF7F2FEE8
:1008C000814641F2883A0EE009688903EFE709683A
:1008D0008901ECE7FFF7E6FEA0EB0901514502D9DB
:1008E0000320BDE8F0872068696800F00C00B0EBD9
:1008F000810FEFD1D8F80010404601F00701B14256
:1009000007D90770006800F00700B04201D001204D
:10091000E7E72878400705D52068E96820F4E0502B
:10092000084320602878000706D52068296920F44C
:10093000604040EAC100206000F058F82168084A91
:10094000C1F30311515CC8400649086006480068BD
:10095000FFF7D0FE0020C4E7003C02400838024008
:10096000DC300008140000200C0000200F22026080
:100970000C4A136803F003034360136803F0F003A9
:100980008360136803F4E053C36012684FF4E053CC
:1009900003EAD20202610448006800F00700086020
:1009A0007047000008380240003C024004480549F6
:1009B00000680968044AC1F38221515CC84070474D
:1009C0001400002008380240EC30000804480549B3
:1009D00000680968044AC1F34231515CC84070475D
:1009E0001400002008380240EC300008154810B50B
:1009F000006810F00C02144813D04110042A0FD0E4
:100A0000082A0ED10F4C241F2268236802F03F02EF
:100A10005B0207D52068C0F38810A0FB010106E047
:100A2000084610BD2168C1F38811A1FB0001002315
:100A3000FFF726FC2168C1F30141491C4900B0FBC6
:100A4000F1F010BD083802400024F4002DE9F84F01
:100A500004006ED02078DFF84C93C007A9F104059C
:100A60004AD009F104000168C1F38101012908D0CD
:100A70000068C0F3810002280AD1D9F800004002C2
:100A800006D52868800337D560680028E1D033E0B8
:100A90006068B0F5803F10D0B0F5A02F286810D066
:100AA00020F480302860286820F480202860606866
:100AB000A8B1FFF7F7FD06460DE0286840F4803046
:100AC000F4E740F480202860F7E700BFFFF7EAFD75
:100AD000801B642873D828688003F7D50CE0FFF7E3
:100AE000E1FD064605E000BFFFF7DCFD801B642842
:100AF000F0D828688003F7D42078DFF8AC8280072C
:100B00004FF0000A3ED5A748001D016811F00C0FF8
:100B100008D00068C0F3810002280BD1D9F800008A
:100B2000400207D42868800716D5E068012800D164
:100B300012E033E1E068B8B10120C8F80000FFF727
:100B4000B1FD064605E000BFFFF7ACFD801B0228A3
:100B5000C0D828688007F7D52868216920F0F800F8
:100B600040EAC10028600DE0C8F800A0FFF79AFD38
:100B7000064604E0FFF796FD801B02281FD8286870
:100B80008007F7D42078000722D5864F874861690F
:100B9000703771B101210160FFF784FD064604E062
:100BA000FFF780FD801B022809D838688007F7D539
:100BB0000EE0C0F800A0FFF775FD064605E082E0F4
:100BC000FFF770FD801B02287DD838688007F7D4B6
:100BD0002078400768D5DFF8CCB100270BF13C0B3B
:100BE000DBF80000C0000BD4DBF8001041F08051AE
:100BF000CBF80010DBF80000012700F080500090D7
:100C00006B4E3068C00510D4306840F4807030609E
:100C1000FFF748FD009005E0FFF744FD0099401AFA
:100C2000022850D83068C005F6D55E4EA0686C36F4
:100C300001280FD00528306810D020F00100306066
:100C4000306820F004003060A068B8B1FFF72AFDDA
:100C500000900FE0306840F00100F4E740F004003D
:100C60003060F7E7FFF71EFD0099411A41F2883026
:100C7000814266D830688007F4D50EE0FFF712FD98
:100C8000009007E0FFF70EFD0099411A41F288300D
:100C9000814256D830688007F4D42FB1DBF80010B9
:100CA00021F08051CBF80010A069C8B33D49091D5F
:100CB0000968C1F3810102294AD00228504607D0B1
:100CC000C8F8600000E03CE0FFF7ECFC04463BE0C5
:100CD0004746C8F86000FFF7E5FC064605E000BFA0
:100CE000FFF7E0FC801B02282BD828688001F7D48E
:100CF000D4E907010843A16A2E4A490802EB0141E1
:100D0000626A41EA8211084394F82C1040EA0161BA
:100D1000C9F8001001203866FFF7C4FC044606E05D
:100D20003EE000BFFFF7BEFC001B022809D8286880
:100D30008001F7D534E000BFFFF7B4FC001B0228A8
:100D400002D90320BDE8F88F28688001F4D427E099
:100D50000128F7D0D9F80000E26900F4800191423F
:100D60001CD1226A00F03F01914217D147F6C071B1
:100D7000626A0140B1EB821F10D1A26A4FF0FF33CB
:100D800000F4403103EB5202B1EB024F06D194F86C
:100D90002C1000F07060B0EB016F01D00120D1E7A2
:100DA0000020CFE70438024000004742800E47424F
:100DB000007000400000FFFF7047704710B504004E
:100DC00003D094F83D0010B107E0012010BD0020D1
:100DD00084F83C00204600F01EF8022084F83D0014
:100DE000211D206800F0E6FA012084F8460084F80E
:100DF0003E0084F83F0084F8400084F8410084F805
:100E0000420084F8430084F8440084F8450084F8E4
:100E10003D00002010BD704790F83D10012901D021
:100E200001207047022180F83D100168CA6842F035
:100E30000102CA6000681149884214D0B0F1804FA5
:100E400011D00F4988420ED00E4988420BD00E496E
:100E5000884208D00D49884205D00D49884202D009
:100E60000C49884204D1816801F00701062903D0AA
:100E7000016841F00101016000207047000001405D
:100E80000004004000080040000C00400004014045
:100E9000004001400018004070472DE9F041044631
:100EA0000068C66805694FF00007A90713D5B107A8
:100EB00011D5F91E01610120207720688069800723
:100EC000204602D0FFF7E8FF04E000F07EF820465D
:100ED00000F07CF82777680716D5700714D52168CD
:100EE0006FF004000861022020772068806910F408
:100EF000407F204602D0FFF7CFFF04E000F065F806
:100F0000204600F063F82777280715D5300713D55A
:100F100021686FF008000861042020772068C0690C
:100F20008007204602D0FFF7B7FF04E000F04DF83D
:100F3000204600F04BF82777E80616D5F00614D5C2
:100F400021686FF010000861082020772068C069D0
:100F500010F4407F204602D0FFF79EFF04E000F02F
:100F600034F8204600F032F82777E80708D0F00779
:100F700006D021686FF001000861204600F028F8D3
:100F8000280608D5300606D521686FF08000086174
:100F90002046FFF711FF680608D5700606D52168C0
:100FA0006FF040000861204600F01CF8A8060AD542
:100FB000B00608D521686FF0200008612046BDE822
:100FC000F041FFF7FABEBDE8F081704770470000BE
:100FD00000680349884201D1FFF76ABB70470000EF
:100FE00000000140704770B5040004D094F841003F
:100FF000002510B106E0012070BD84F84050204665
:1010000000F024F8242084F841002068C16821F40D
:101010000051C160204600F039FA2068016921F4CE
:10102000904101612068416921F02A0141612068F5
:10103000C16841F40051C1606564202084F841001A
:1010400084F842006563002070BD000010B586B0D2
:10105000044614216846FFF75DF913492068884269
:1010600020D112480021026842F01002026000689C
:1010700000F0100005900D481438026842F002029A
:101080000260006800F002000590C020009002207D
:10109000CDE901010320039007200490694604482C
:1010A000FFF702FA06B010BD0010014044380240BC
:1010B00000040240FEE7000008B50024164E651E3D
:1010C0000095002301220721306801F0B1FA0128C0
:1010D00004D002280BD004281AD113E00CB10FA0C1
:1010E0000DE0642000F048FF044612A007E02CB198
:1010F000204601F063F8002413A000E017A000F0E0
:101100004DFA05E001F018FB014621A000F046FA77
:10111000642000F03AFBD3E70000002050726573B2
:1011200073204B4559312076506F72744672656555
:10113000210A00004D616C6C6F63207375636365F9
:1011400073736564210A00004672656520737563D8
:10115000636573736564210A00000000416C726569
:1011600061647920656D7074792C20506C656173B1
:1011700065207072657373204B45593020746F2061
:101180007076506F72744D616C6C6F630A00000072
:101190004865617020667265652073697A652069AB
:1011A000732025640A00000010B588B001F0ECF946
:1011B000084C206010B908A000F0F0F91C220D497D
:1011C0006846FFF78EF80021684600F0EAFA606092
:1011D00008B010BD00000020784576656E74477237
:1011E0006F7570437265617465204661696C6564F2
:1011F00020210A00C030000800B587B014216846DD
:10120000FFF788F82248016841F010010160016889
:1012100001F010010591016841F080010160016851
:1012200001F080010591016841F001010160016850
:1012300001F001010591016841F0020101600068BF
:10124000694600F0020005901C2000904FF4441005
:101250000190012002900F48FFF726F90022052196
:101260000820FFF7B7FA0820FFF7A6FA00220521A9
:101270000920FFF7AFFA0920FFF79EFA00220521A7
:101280000A20FFF7A7FA0A20FFF796FA07B000BD79
:1012900030380240001002400C4810B50A49016085
:1012A0004FF4E1314160002181600C22C160C0E94E
:1012B00004128161C161FFF796FE002803D0BDE8EA
:1012C0001040FFF784B810BD001001403007002027
:1012D000FEE7FEE710B5502080F31188BFF34F8F73
:1012E000BFF36F8F01F072FD18B104494FF08050C9
:1012F0000860002080F3118810BD000004ED00E0BC
:1013000030B593B030216846FFF704F814210CA8DB
:10131000FFF700F81E480025016841F08051016088
:10132000006800F0805011901A48016841F4804133
:1013300001600068022400F48040119001200090B8
:10134000000401908001CDE90640082008904FF488
:10135000A870CDE9090404200B906846FFF776FBDE
:1013600008B172B6FEE70CA90F2081E831004FF4F6
:10137000A0500F904FF48050109005210CA8FFF75B
:101380005BFA002801D072B6FEE713B030BD000052
:1013900040380240007000400248016841F470018A
:1013A0000160704788ED00E00148FFF776BD00005E
:1013B00078070020F0B50268294C2A4D2A4E2B4FA1
:1013C0002B4B4FF0804CA04209D0604507D0A8427B
:1013D00005D0B04203D0B84201D0984204D122F0E7
:1013E000700E4A6842EA0E02A0421BD0604519D036
:1013F000A84217D0B04215D0B84213D0984211D0AD
:101400001C4DA8420ED01C4DA8420BD01B4DA8422B
:1014100008D01B4DA84205D01A4DA84202D01A4D43
:10142000A84203D122F44075CA682A434D6922F0CC
:1014300080022A4302608A68C2620A688262A0420D
:1014400001D0984201D1096901630121416101691B
:10145000C90703D0016921F001010161F0BD00005D
:10146000000001400004004000080040000C004063
:101470000004014000400140004401400048014098
:1014800000180040001C00400020004070B50446D9
:1014900000680169E26821F440511143016121694A
:1014A000A068E26908436169114308432168CA687A
:1014B00049F20C639A430243CA6020684169A269F9
:1014C00021F440711143416131492068884202D0C2
:1014D0003049884202D1FFF779FA01E0FFF766FA56
:1014E000E2690023192164253226B2F5004F6268B3
:1014F00028D0A0FB0101930F9200FEF7C1FE014628
:10150000B0FBF5F06FF01802504301EB800006EBE2
:101510000010B0FBF5F000F0F002B1FBF5F002EBCB
:101520000012B1FBF5F06FF01803584301EB800097
:1015300006EB0010B0FBF5F000F00F00216810443E
:10154000886070BDA0FB010192185B41FEF798FE18
:101550000146B0FBF5F00201B1FBF5F06FF01803A6
:10156000584301EB800006EBC000B0FBF5F000F043
:10157000F80002EB4002B1FBF5F0584301EB8000AC
:1015800006EBC000B0FBF5F000F00700D6E7000066
:101590000010014000140140FEE700000FB4054BAD
:1015A00010B503A9044A029800F028F810BC5DF8B1
:1015B00014FB000051170008940000200907090ED1
:1015C000002804DB00F1E02080F80014704700F0F0
:1015D0000F0000F1E02080F8141D704702E008C8F9
:1015E000121F08C1002AFAD170477047002001E09D
:1015F00001C1121F002AFBD1704700002DE9FF4FE7
:1016000089B09B460446002506E025280BD05A46A3
:101610000B999047641C6D1C20780028F5D10DB003
:101620002846BDE8F08F0027B8460122474900E070
:10163000074314F8013F203B02FA03F00842F7D1B8
:1016400020782E2819D114F8010F47F004072A2812
:101650000ED06FF02F022078A0F1300109290CD8AC
:1016600008EB880102EB410100EB0108641CF2E782
:101670000A98641C50F8048B0A9020780028CED079
:10168000642808D0692806D075281ED05A460B99C0
:1016900090476D1C58E00A994FF00A0901C90A9158
:1016A000002802DA40422D2102E0390504D52B2121
:1016B0008DF82010012103E0F90704D02021F7E77D
:1016C0008A4608AE0DE00021FAE70A994FF00A09B0
:1016D00001C90A91F7E74946FEF727FE303106F8BF
:1016E000011D0028F7D1ADEB060000F120097807B5
:1016F00001D44FF00108C84502DDA8EB090000E065
:1017000000208046002706E008A85A46C05D0B99D5
:1017100090476D1C7F1C5745F6DB04E030205A468D
:101720000B9990476D1CB8F10001A8F10108F5DC98
:1017300005E016F8010B5A460B9990476D1CB9F15C
:101740000001A9F10109F4DC641C65E70928010026
:1017500003490A685206FCD5C2B24A6070470000CD
:1017600000100140FEF7ACFFFFF7CAFDFFF744FD94
:10177000FFF792FDFFF718FD00F00EF8FEE70146B7
:101780000020842900D0C81C704710B500B9012082
:1017900000F0B8FD002010BD10B500F07BFE002069
:1017A00010BD7FB50D4604464169B0F9080081B10E
:1017B000A16971B1FFF7E3FFD4E905128DE80700D5
:1017C000D4E900102B46226901F0C1FA039004B05D
:1017D00070BDFFF7D4FF03A9CDE90001208A2B4695
:1017E00082B2D4E9001001F085FA012801D000206E
:1017F000EDE70398EBE700002DE9F041184C0F46A8
:101800000546E6682068001D00F03AFC38B92068FB
:1018100090F82C1001208840216981432161681CC7
:1018200007D137B12168BDE8F0410E48091D00F02D
:1018300085BC20683544B5424560216805D2A06B5F
:10184000BDE8F041091D00F061BC606B091D00F0AE
:101850005DFCA06A854200D2A562BDE8F08100006F
:1018600018000020DC0800202DE9F041054600F0BA
:1018700071FC2E4CA068401CA06020682C4F10B159
:10188000606940B32DE02560A068012829D10026B9
:1018900006EB860007EB800000F02AFC761C072E82
:1018A000F6D323488C3000F023FC2148A03000F010
:1018B0001FFC1F48B43000F01BFC1D48C83000F06E
:1018C00017FC1B48DC3000F013FC19488C306063B7
:1018D0001430A06305E02068E96AC06A884200D835
:1018E0002560606A401C6062E96A012022698840C4
:1018F0001043206101EB810007EB8000291D00F0FF
:101900001DFC00F047FC606900280CD02068E96AE3
:10191000C06A884207D207494FF080500860BFF381
:101920004F8FBFF36F8FBDE8F081000018000020DB
:101930000008002004ED00E038B500F00BFC104C6E
:101940002068C8B90F4800F0D3FB0E48143000F0EF
:10195000CFFB0C48E060143020610A4B0020E83BCC
:10196000009003F1480210210A2000F065FF20607A
:1019700010B105A100F090FCBDE8384000F00ABCB1
:1019800054000020D8090020546D7251000000005E
:1019900030B4026C0B46002A0BD0C1681144C16000
:1019A0008468A14201D30168C16030BC1846FEF7CB
:1019B00098BC30BC70472DE9F041856B1646044653
:1019C0000027026CFAB17EB1E068FEF78AFCE1689C
:1019D000206C091AE1602268914202D2A168081ABB
:1019E000E060022E0DD00EE06068FEF77AFC216CFC
:1019F000606808446060A168884204D32068606021
:101A000001E005B16D1E6D1CA5633846BDE8F0818F
:101A100010B5044690F8490058B101280CD00228AE
:101A20000FD0502080F31188BFF34F8FBFF36F8F1B
:101A3000FEE7206B00F0C2FB2046BDE8104000F03E
:101A4000BDBB10BD10484FF47051420706D0C01DF9
:101A50000D4920F00700411AC1F570510B4A0023CF
:101A60000144C2E900030839183A21F00701116066
:101A70004B600B600B1AC0E9001393604FF00040FD
:101A80005360506170470000000A00208000002071
:101A9000144E154CA6F1C8074FF08058DFF84C9053
:101AA00012E000BF00F056FBF068C568281D00F08A
:101AB000E7FAA068401EA0606068401E606000F009
:101AC00069FB2846FFF7A4FF60680028EAD1386860
:101AD0000128F9D9C9F80080BFF34F8FBFF36F8F8A
:101AE000F2E70000C80800201800002004ED00E024
:101AF0000346009829B10260C0E90F31012100F0CE
:101B0000CFBE0060F8E72DE9F0479A46DDE9098489
:101B100081466FF00303206B03EB82021044089EA2
:101B200020F00707780707D0502080F31188BFF313
:101B30004F8FBFF36F8FFEE7002561B100202318A0
:101B40000A5C83F834200A5C12B1401C1028F6D3DA
:101B500084F8435001E084F83450072E00D3062661
:101B6000201DE66200F0CFFA04F1180000F0CBFA75
:101B70002461C6F107006462A061656484F848507E
:101B800052464946384600F065FA2060B8F1000F29
:101B900001D0C8F80040BDE8F087000030B5114919
:101BA00000E011460A688242FBD34B685C1884420D
:101BB00003D1406818444860084643681C189442A2
:101BC00009D1084C183C2468A24209D052681A4432
:101BD00042600A6812680260814200D0086030BD2D
:101BE0000460F9E78000002070B5002441600B4DCF
:101BF0000061914206D8D11A8269914206D2011D34
:101C0000286907E09A4203D2994201D3012403E0F4
:101C1000011DE86800F07AFA204670BD54000020EB
:101C200010B5044600F096FAA06B28B15FF00004EE
:101C300000F0B0FA204610BD0124F9E730B589B0B4
:101C40003C4D6EE00498002806DADDE90601059AAD
:101C500090470498002864DB069C606910B1201D41
:101C600000F00EFA03A800F0D7F8024604980A28FC
:101C700057D2DFE800F00505052D334A05052D3361
:101C800094F8240040F0010084F824000599A0692C
:101C9000059B01442046FFF7A7FF68B3216A204651
:101CA000884794F8240040073BD500200090059811
:101CB000A169002342181946204601F0B9F9D8B9A4
:101CC000502080F31188BFF34F8FBFF36F8FFEE773
:101CD00014F8240F20F00100207022E094F8240072
:101CE00040F0010084F824000598A06128B1811813
:101CF00013462046FFF778FF13E0502080F3118849
:101D0000BFF34F8FBFF36F8FFEE794F82400810776
:101D100003D4204600F052FA03E020F0010084F8DA
:101D20002400002204A9286800F00EFF002889D1B1
:101D300009B030BD540000202DE9FC410F46054696
:101D400000F0ECFB01A800F067F80446019818B118
:101D500001F0DCF8BDE8FC81254EAFB130690068C8
:101D6000D0B30027291B3A46306800F0A9FA01F0E9
:101D7000CDF80028EED11F494FF080500860BFF326
:101D80004F8FBFF36F8FE5E7A542EBD801F0BEF8A8
:101D9000F0682746C068C468201D00F071F994F807
:101DA0002400410719D5A0692B4641193A4620461F
:101DB000FFF71AFFA8B100200346014600902A460B
:101DC000204601F035F960B9502080F31188BFF347
:101DD0004F8FBFF36F8FFEE707E020F0010084F81C
:101DE0002400216A20468847B4E70127BAE70000AB
:101DF0005400002004ED00E00648416B096829B159
:101E0000416BC968C9684968816270474FF0FF310A
:101E1000FAE700001800002070B5054600F0D0FF7A
:101E2000064E0446B068844203D200F009F801204F
:101E300000E0002028602046B46070BD54000020FF
:101E4000F8B5194D20E0C068C4680668201D00F090
:101E500017F9216A2046884794F82400400713D5D3
:101E6000A0693044B04206D924616060211DE86851
:101E700000F04CF908E0002003460146009032468D
:101E8000204601F0D5F838B1E86801680029DAD1B8
:101E90002969C5E90310F8BD502080F31188BFF30C
:101EA0004F8FBFF36F8FFEE7540000200848406853
:101EB000401C4FF0500080F3118804D0BFF34F8FC7
:101EC000BFF36F8FFEE7BFF34F8FBFF36F8FFEE758
:101ED000880000200346002012B1994302D07047C9
:101EE0000B42FCD001207047074CE068016841B10B
:101EF000C0680021D0F80000FFF71EFFFFF79EFE2C
:101F0000F3E701210020F7E7540000202DE9F0411C
:101F1000044600F01FF994F9455004F1240609E045
:101F2000606A48B1304600F0B7FF08B100F018FA17
:101F30006D1E6DB2002DF3DC4FF0FF3684F8456066
:101F400000F028F900F006F994F9445004F1100764
:101F500009E0206948B1384600F09EFF08B100F062
:101F6000FFF96D1E6DB2002DF3DC84F84460BDE80E
:101F7000F04100F00FB900002DE9F04105460027BF
:101F800000F0CCFA324E306808B9FFF75BFD70699B
:101F900005424ED1C5B3083568070ED005F00700DD
:101FA000C0F108000544680707D0502080F311886D
:101FB000BFF34F8FBFF36F8FFEE72DB3706885427D
:101FC00037D82348183001460C6801E020460C46FB
:101FD0006168A94202D221680029F7D131688C4298
:101FE00027D007682168016060680837411B102905
:101FF0000FD96019420708D0502080F31188BFF331
:102000004F8FBFF36F8FFEE713E041606560FFF70E
:10201000C5FD61687068401A7060B268904200D275
:10202000B060706901430020C4E90001F068401C01
:10203000F06000F06BFF780707D0502080F3118824
:10204000BFF34F8FBFF36F8FFEE73846BDE8F081D7
:102050006800002010B5031F4FF080741C601B1F28
:1020600021F001011960191F044B0B6014390A603B
:10207000091F6FF0020244380A6010BDAD1E00084F
:10208000D0E9013201699A60D0E901235A604A68B7
:10209000824201D182684A60002202610868401EC3
:1020A0000860086870470000044908680A68806989
:1020B000D26A0968C2F107028A61704718000020DD
:1020C000034B036003F14C000860802010607047F0
:1020D00098000020044B036003F14C0008604FF4AB
:1020E0008070106070470000E402002000F05ABACF
:1020F00000F108014FF0FF32C0E90112C160016137
:1021000000210160704700210161704730B50B6804
:102110005A1C02D000F1080202E0026904E02246E3
:10212000546825689D42FAD953684B6099608A606B
:10213000516008610168491C016030BD42684A6015
:1021400093688B6093685960916008610168491CCD
:1021500001607047502080F31188BFF34F8FBFF3A9
:102160006F8F0A494868401C486001280CD1084814
:10217000006810F0FF0F07D0502080F31188BFF3E4
:102180004F8FBFF36F8FFEE770470000880000207D
:1021900004ED00E00849486828B1401E486001D1BC
:1021A00080F311887047502080F31188BFF34F8F60
:1021B000BFF36F8FFEE700008800002070B5002895
:1021C0002AD0164DA0F1080460686969084207D159
:1021D000502080F31188BFF34F8FBFF36F8FFEE75E
:1021E00022683AB1502080F31188BFF34F8FBFF3BC
:1021F0006F8FFEE78843606000F090F9606869685F
:10220000084468602046FFF7C9FC2869401C286123
:10221000BDE8704000F07ABE70BD0000680000208C
:102220004FF0E02000210161816105494FF47A728D
:102230000968B1FBF2F1491E416107210161704754
:102240001400002010B5FEF705F8114910280ED330
:1022500000F1E02090F8F0030A78904207D2502075
:1022600080F31188BFF34F8FBFF36F8FFEE70948EC
:102270000068896800F4E060884207D9502080F344
:102280001188BFF34F8FBFF36F8FFEE710BD0000C3
:10229000880000200CED00E010B5084B002200BFC4
:1022A00053F832401CB1521C082AF9D310BD43F830
:1022B000321003EBC201486010BD0000C0070020CF
:1022C00070B515460E460446FFF744FF94F94410D6
:1022D0000020491C01D184F8440094F94510491CA0
:1022E00001D184F84500FFF755FFA06B28B92A46B5
:1022F000314604F1240000F051F82046BDE870405A
:10230000FFF704BE10B5020014D00F48006B38B1BF
:10231000502080F31188BFF34F8FBFF36F8FFEE71C
:1023200000F0FCF800211046FFF766FA00F0EEFD21
:10233000002807D105494FF080500860BFF34F8F48
:10234000BFF36F8F10BD00001800002004ED00E007
:1023500002490A6A0260C96841607047180000209B
:1023600001490120C86170471800002010B50C46D3
:1023700050B1094909681831FFF7C8FE2046BDE889
:1023800010400121FFF738BA502080F31188BFF3C5
:102390004F8FBFF36F8FFEE71800002070B5144613
:1023A0000D4668B10A4909681831FFF7C7FE0CB13C
:1023B0004FF0FF3521462846BDE87040FFF71CBAB4
:1023C000502080F31188BFF34F8FBFF36F8FFEE76C
:1023D0001800002010B51446030011D01048026BFD
:1023E000B2B1026841F000419161016818461831AC
:1023F000FFF7A4FE2046BDE810400121FFF7FCB91D
:10240000502080F31188BFF34F8FBFF36F8FFEE72B
:10241000502080F31188BFF34F8FBFF36F8FFEE71B
:102420001800002070B5194E326BFAB141F000412E
:102430000160C46814B3FFF723FE201DFFF720FEE0
:10244000E16A0125326905FA01F01043306101EBC0
:1024500081000F4901EB8000211DFFF76FFEE06A4C
:102460003168C96A884200D9F56170BD502080F397
:102470001188BFF34F8FBFF36F8FFEE7502080F3BB
:102480001188BFF34F8FBFF36F8FFEE71800002056
:102490000008002030B587B00024039405AA04A9E1
:1024A00003A80494FFF70CFEDDE903010094CDE9D5
:1024B0000110002315A11748059A00F048FC164D9D
:1024C0000028E8621FD000F083FD012809D0401CDD
:1024D00019D1502080F31188BFF34F8FBFF36F8F56
:1024E000FEE7502080F31188BFF34F8FBFF36F8F4B
:1024F0004FF0FF30A86201206861EC6007B0BDE8D2
:10250000304000F01FB907B030BD000049444C45D1
:1025100000000000911A0008180000200248016B1A
:10252000491C016370470000180000201448016B2B
:1025300011B10121C16170470021C1610169B1FA86
:1025400081F1C1F11F0101EB81020E4951F82230E6
:102550006BB101EB820101F108034A6852684A60DD
:102560009A4201D152684A60D16801607047502098
:1025700080F31188BFF34F8FBFF36F8FFEE700002A
:10258000180000200008002070B51C20FFF7F4FCA4
:10259000040005D00025201D2560FFF7A9FD257644
:1025A000204670BD2DE9F0410027884604000AD07E
:1025B0005FEA18600FD0502080F31188BFF34F8F6F
:1025C000BFF36F8FFEE7502080F31188BFF34F8F6A
:1025D000BFF36F8FFEE7261D04F10C05FFF79EFF8A
:1025E0002168F06841EA0801216017E0D0E900168F
:1025F00001F07F425301236821F07F4102D40B4256
:1026000003D10AE031EA030307D1D20100D50F4319
:10261000216841F00071FFF705FF3046A842E5D17F
:102620002068B843206000F071FC2068BDE8F081AC
:102630002DE9F0479A46DDF8209090460D460400BB
:102640004FF0000709D0280E0FD0502080F31188DA
:10265000BFF34F8FBFF36F8FFEE7502080F31188D9
:10266000BFF34F8FBFF36F8FFEE71DB100F09AFBF2
:1026700040B112E0502080F31188BFF34F8FBFF3B9
:102680006F8FFEE7B9F1000F07D0502080F311885B
:10269000BFF34F8FBFF36F8FFEE7FFF73FFF266853
:1026A000524629463046FFF715FC30B1B8F1000F0D
:1026B0001AD02068A843206016E0B9F1000F13D0AB
:1026C000B8F1000F01D04FF08077BAF1000F01D0C0
:1026D00047F0806745EA07014A46201DFFF77AFE6A
:1026E00000F014FC18B10AE000F010FC1FE01149E2
:1026F0004FF080500860BFF34F8FBFF36F8FFFF72D
:10270000D3FC0646800110D4FFF724FD266852460C
:1027100029463046FFF7DEFB28B1B8F1000F02D0A2
:102720002068A8432060FFF735FD26F07F4630463D
:10273000BDE8F08704ED00E0014840687047000004
:10274000680000201CB537480168374A914207D11C
:10275000502080F31188BFF34F8FBFF36F8FFEE7D8
:1027600000683149491E884207D1502080F3118802
:10277000BFF34F8FBFF36F8FFEE72C4908780190AE
:10278000FF20087008788DF800009DF800009DF883
:10279000002000F0F000904207D0502080F3118814
:1027A000BFF34F8FBFF36F8FFEE79DF80000204C03
:1027B00000F0500020700720A06005E09DF8002088
:1027C00052008DF80020401E9DF800201206F5D41E
:1027D000A060032807D0502080F31188BFF34F8FEB
:1027E000BFF36F8FFEE74FF44070A0600198087050
:1027F0000C482030016841F470010160016841F02B
:1028000070410160FFF70CFD00206060FDF7EAFCFD
:102810000848016841F040410160FDF7CFFC00200D
:102820001CBD000000ED00E071C20F4100E400E0BB
:102830008800002034EF00E038B5049D18B153B192
:10284000CAB181B120E0502080F31188BFF34F8FCF
:10285000BFF36F8FFEE7502080F31188BFF34F8FD7
:10286000BFF36F8FFEE7502080F31188BFF34F8FC7
:10287000BFF36F8FFEE739B1502080F31188BFF3AB
:102880004F8FBFF36F8FFEE748241C46012384F867
:1028900046302B460094FFF72BF9204638BD000048
:1028A00070B50D46040025D0FFF754FCD4E90F2085
:1028B000216802FB0011A1600021A1632168616011
:1028C0000A46D4E90F01401E00FB0121E1602146C8
:1028D0004FF0FF3001F8440F487004F110008DB143
:1028E000FFF706FC04F12400FFF702FCFFF752FC9F
:1028F000012070BD502080F31188BFF34F8FBFF3CC
:102900006F8FFEE721690029F0D000F0C5FA00289A
:10291000ECD004494FF080500860BFF34F8FBFF3F5
:102920006F8FE3E704ED00E02DE9FF4782B01D461D
:102930008A464FF00008040003D0BAF1000F08D017
:1029400011E0502080F31188BFF34F8FBFF36F8FDA
:10295000FEE7206C38B1502080F31188BFF34F8F11
:10296000BFF36F8FFEE7022D0AD1E06B012807D07D
:10297000502080F31188BFF34F8FBFF36F8FFEE7B6
:1029800000F010FA3F4F4FF000094FF0805648B961
:10299000049838B1502080F31188BFF34F8FBFF3F4
:1029A0006F8FFEE7FFF7D6FBA06BE16B884207D382
:1029B000022D05D00498D0B1B8F1000F1AD01EE056
:1029C0002A4651462046FEF7F6FF616A19B104F126
:1029D000240000F061FA20B13E60BFF34F8FBFF3D7
:1029E0006F8FFFF7D7FB012006B0BDE8F087FFF738
:1029F000D1FB22E06846FFF7ABFC4FF00108FFF780
:102A0000C9FBFFF78BFDFFF7A5FB94F94400401CC1
:102A100001D184F8449094F94500401C01D184F818
:102A20004590FFF7B7FB04A9684600F029F930B1DB
:102A30002046FFF76BFA00F069FA0020D4E7FFF7B1
:102A400089FBA06BE16B884213D1FFF7A3FB04F174
:102A500010000499FFF78AFC2046FFF757FA00F0B0
:102A600055FA00289ED13E60BFF34F8FBFF36F8FA2
:102A700098E7FFF78FFB2046FFF748FA00F046FA89
:102A800090E7000004ED00E02DE9F0471F46904676
:102A90008946040003D0B9F1000F08D011E050209E
:102AA00080F31188BFF34F8FBFF36F8FFEE7206C69
:102AB00038B1502080F31188BFF34F8FBFF36F8F71
:102AC000FEE7022F0AD1E06B012807D0502080F3E7
:102AD0001188BFF34F8FBFF36F8FFEE7FFF7B2FB95
:102AE0005020EFF3118680F31188BFF34F8FBFF3AF
:102AF0006F8FA06BE16B884206D3022F04D00020B9
:102B000086F31188BDE8F08794F94550A06B3A46EA
:102B100049462046FEF74FFF681C04D06D1C84F820
:102B200045500120ECE7606A0028FAD004F1240047
:102B300000F0B2F90028F4D0B8F1000FF1D0012173
:102B4000C8F80010EDE700002DE9F747002683B034
:102B50008A46040003D0BAF1000F08D011E05020DB
:102B600080F31188BFF34F8FBFF36F8FFEE7206CA8
:102B700038B1502080F31188BFF34F8FBFF36F8FB0
:102B8000FEE700F00FF9DFF8F4804FF000094FF096
:102B9000805748B9059838B1502080F31188BFF3A9
:102BA0004F8FBFF36F8FFEE7FFF7D4FAA56BC5B168
:102BB00051462046FEF7ECFE6D1EA563206950B11C
:102BC00004F1100000F068F928B1C8F80070BFF3F4
:102BD0004F8FBFF36F8FFFF7DDFA012006B0BDE81E
:102BE000F087059808B11EB106E0FFF7D3FA27E099
:102BF0006846FFF7ADFB0126FFF7CCFAFFF78EFC26
:102C0000FFF7A8FA94F94400401C01D184F84490DD
:102C100094F94500401C01D184F84590FFF7BAFAB9
:102C200005A9684600F02CF8002820460AD0FFF7D6
:102C30006DF900F06BF92046FEF7F2FF0028B3D0E3
:102C40000020CBE7FEF7ECFF90B104F124000599DA
:102C5000FFF78CFB2046FFF759F900F057F90028E1
:102C6000A2D1C8F80070BFF34F8FBFF36F8F9BE7FF
:102C70002046FFF74BF900F049F995E704ED00E035
:102C80002DE9F0410C46050011D0C4B1FFF762FAFE
:102C9000174BDA686E682068911B471C17D02F68A5
:102CA0001B6A9F4219D0964217D8012410E0502089
:102CB00080F31188BFF34F8FBFF36F8FFEE7502073
:102CC00080F31188BFF34F8FBFF36F8FFEE70024AF
:102CD000FFF760FA2046BDE8F081884205D9401A26
:102CE00020602846FFF734FBF1E700202060DCE796
:102CF000180000202DE9FF5F8346DDE90E87994625
:102D000016468A469000FFF737F905001CD04C2084
:102D1000FFF732F9040014D00020256384F849003D
:102D2000CDE90240CDE900874B4632465146584630
:102D3000FEF7E9FE2046FEF797FD012004B0BDE84E
:102D4000F09F2846FFF73AFA4FF0FF30F6E7F0B56C
:102D500085B0DDE90B640A9DA6B1DCB14C27009774
:102D60002663022684F84960002604AFCDE90246B6
:102D7000CDE90057FEF7C7FE2046FEF775FD049823
:102D800005B0F0BD502080F31188BFF34F8FBFF323
:102D90006F8FFEE7502080F31188BFF34F8FBFF392
:102DA0006F8FFEE70548416919B1006B18B100202B
:102DB0007047012070470220704700001800002073
:102DC0000148C06870470000180000202DE9F0415C
:102DD0002F4C0026206B28B1A069401CA061304612
:102DE000BDE8F081E5686D1CE56013D1606B00689B
:102DF00038B1502080F31188BFF34F8FBFF36F8F2E
:102E0000FEE7606BA16B6163A063206A401C2062D7
:102E1000FEF7F2FFA06ADFF87C80854209D3606B81
:102E20000068A0B1606BC068C7687868854211D23D
:102E3000A0622068C06A00EB800158F821000128D8
:102E400000D90126E0690028C9D00126C7E74FF064
:102E5000FF30EDE7381DFFF713F9B86A18B107F135
:102E60001800FFF70DF9F96A012022698840104324
:102E7000206101EB810108EB8100391DFFF75EF94C
:102E8000F86A2168C96A8842C9D30126C7E70000E9
:102E900018000020000800202DE9F041C068C46837
:102EA000ACB104F118000746FFF7EAF8154D286B9E
:102EB0000126A0B139461448FFF740F9E06A2968B5
:102EC000C96A88421CD90120EE61BDE8F08150201A
:102ED00080F31188BFF34F8FBFF36F8FFEE7201D84
:102EE000FFF7CEF8E16A2A6906FA01F0104328617B
:102EF00001EB81000449B43901EB8000211DDBE7BF
:102F00000020E2E718000020B40800202DE9F04777
:102F10002C4D00242746286B38B1FFF71BF9286B8E
:102F2000401E2863286B40B146E0502080F3118892
:102F3000BFF34F8FBFF36F8FFEE7A968224E0120CA
:102F4000D1B3A6F1B40980463068E8B1F068C4682E
:102F500004F11800FFF794F8201DFFF791F8E06ADC
:102F60002A6908FA00F11143296100EB800109EB9D
:102F70008100211DFFF7E2F8E06A2968C96A8842EA
:102F8000E2D3C5F81C80DFE70CB1FEF735FFAC6972
:102F900044B14646FFF71AFF00B1EE61641EF9D155
:102FA0000020A861E86938B108490127380708609E
:102FB000BFF34F8FBFF36F8FFFF7ECF83846BDE8D4
:102FC000F087000018000020B408002004ED00E0A5
:102FD00010B586B0FEF7B0FC114C2068B8B10020E7
:102FE0000390049005AA04A903A8FFF773F8DDE98C
:102FF000032102208DE8070000230AA10B48059A4F
:10300000FFF7A5FE606010B106B0012010BD502092
:1030100080F31188BFF34F8FBFF36F8FFEE700007F
:1030200054000020546D722053766300E91E00089E
:103030002DE9FF411E46134602000A9D4FF0000095
:1030400016D0144C2768002F0FD0CDE90013029240
:10305000062917DAFFF7A6FE02284FF000030FD06B
:10306000002269462068FFF75FFC04B0BDE8F081EC
:10307000502080F31188BFF34F8FBFF36F8FFEE7AF
:103080002A46EEE70023324669463846FFF7FCFC45
:10309000EBE70000540000201FB51C466FF0010351
:1030A000CDE90030CDE902120448002322466946EA
:1030B0000068FFF7E9FC04B010BD000054000020D8
:1030C000F4300008B9100008020000000000000001
:1030D0008000000000000000000000000000000070
:1030E00000000000010203040607080900000000B8
:1030F000010203044B6579785461736B0000000092
:10310000203100080000002098000000DC150008B5
:10311000B83100089800002068490000EC1500084C
:10312000000000000000000001000000100000008E
:10313000000000000024F400000000000000000077
:10314000000000000000000000000000000000007F
:10315000000000000000000000000000000000006F
:10316000000000000000000000000000000000005F
:10317000000000000000000000000000000000004F
:10318000000000000000000000000000000000003F
:10319000000000000000000000000000000000002F
:1031A000000000000000000000000000AAAAAAAA77
:0831B000000000000000000017
:040000050800018965
:00000001FF
