:020000040800F2
:10000000D04800205D020008CF17000861150008E5
:10001000CD170008F9030008F51B000800000000D8
:100020000000000000000000000000009D0100082A
:10003000FB03000800000000F9010008D1170008C8
:1000400077020008770200087702000877020008AC
:10005000770200087702000877020008770200089C
:100060003D040008770200087702000877020008C4
:10007000770200087702000877020008770200087C
:10008000770200087702000877020008770200086C
:10009000770200087702000877020008770200085C
:1000A00077020008A5180008770200087702000808
:1000B000770200087702000877020008770200083C
:1000C000770200087702000877020008770200082C
:1000D00077020008C11B00087702000877020008B9
:1000E000770200087702000877020008770200080C
:1000F00077020008770200087702000877020008FC
:1001000077020008770200087702000877020008EB
:100110007702000877020008B1180008770200088B
:1001200077020008770200087702000877020008CB
:1001300077020008770200087702000877020008BB
:1001400077020008770200087702000877020008AB
:10015000770200087702000877020008770200089B
:10016000770200087702000877020008770200088B
:1001700077020008770200087702000800000000FC
:100180007702000877020008DFF80CD000F022F9AF
:1001900000480047FD1F0008D04800202C4B19687C
:1001A0000868B0E8F04F80F30988BFF36F8F4FF015
:1001B000000080F3118870470000000008480068C4
:1001C000006880F308884FF0000080F3148862B65E
:1001D00061B6BFF34F8FBFF36F8F00DF00BF00BF6B
:1001E00008ED00E0DFF80C00016841F470010160E7
:1001F000704700BF88ED00E0EFF30980BFF36F8F19
:10020000134B1A681EF0100F08BF20ED108A20E96A
:10021000F04F106009B44FF0500080F31188BFF325
:100220004F8FBFF36F8F02F095FD4FF0000080F30A
:10023000118809BC19680868B0E8F04F1EF0100F6B
:1002400008BFB0EC108A80F30988BFF36F8F704746
:1002500030000020EFF3058070470000064880471B
:1002600006480047FEE7FEE7FEE7FEE7FEE7FEE79B
:10027000FEE7FEE7FEE7FEE79518000889010008A3
:100280002DE9F05F0546002092469B4688460646CB
:10029000814640241BE0284641464746224600F05E
:1002A00088F853465A46C01A914110D31146184651
:1002B000224600F06FF82D1A67EB01084F462246E0
:1002C0000120002100F066F817EB00094E41201EC6
:1002D000A4F10104DFDC484631462A464346BDE826
:1002E000F09F40EA01039B0703D009E008C9121FF1
:1002F00008C0042AFAD203E011F8013B00F8013BE0
:10030000521EF9D27047D2B201E000F8012B491E0B
:10031000FBD270470022F6E710B513460A460446A2
:100320001946FFF7F0FF204610BD421C10F8011BD4
:100330000029FBD1801A7047034611F8012B00F801
:10034000012B002AF9D11846704730B50546002028
:10035000034600E05B1C934205D2EC5CC85C201AAB
:1003600001D1002CF6D130BD30B50B46014600203E
:100370002022012409E021FA02F59D4205D303FA67
:1003800002F5491B04FA02F52844151EA2F10102E8
:10039000F1DC30BD202A04DB203A00FA02F1002013
:1003A00070479140C2F1200320FA03F319439040B3
:1003B0007047202A04DB203A21FA02F0002170471E
:1003C00021FA02F3D040C2F12002914008431946BD
:1003D00070470000064C074D06E0E06840F001035E
:1003E00094E8070098471034AC42F6D3FFF7D0FEEC
:1003F0000C3A00082C3A0008FEE7704708B503F0F5
:1004000009F941F28834009002F04CFA04A001F09E
:1004100079FC02F067FA2146684602F00BFBF3E72D
:1004200044656C6179207461736B20697320727507
:100430006E6E696E67210D0A00000000042000F056
:10044000ABB872B6FEE72DE9F0410446876D00F0C7
:10045000B1F9064694F835000025022806D0802020
:10046000606584F834500120BDE8F081206801689F
:1004700021F0160101602068416921F0800141618D
:10048000206C08B9A06C20B12068016821F0080137
:1004900001602068016821F0010101600CE000F0BA
:1004A00089F9801B052807D920206065032084F87E
:1004B000350084F83450D7E720680068C007EED1D3
:1004C00094F85C103F208840B860012084F8350023
:1004D00084F834500020C7E790F83510022903D083
:1004E0008021416501207047052180F835100068A2
:1004F000016821F0010101600020704770B50446D9
:1005000000F058F90546601C02D004480078044405
:1005100000F050F9401BA042FAD370BD200000202B
:1005200070B5042816D1124D0421284600F038F980
:10053000104C00284FF014000DD0FFF7DFFF04210E
:10054000284600F02DF9012804D10BA001F0DAFBB8
:100550000120207070BDFFF7D1FF0421284600F074
:100560001FF90028F6D108A001F0CCFB0020F0E72D
:1005700000100240000000204B45593020697320D4
:100580005570210A000000004B4559302069732046
:10059000446F776E210A0000044910B50A680242D0
:1005A00002D00860FFF7BCFF10BD0000143C014002
:1005B0002DE9F84FDFF8BCA10022012503264FF0FA
:1005C0000F090AF1040BAAF1040E00BF0B6805FA2B
:1005D00002F42340A34270D10F7907F00307012FE3
:1005E00001D0022F16D187684FEA420806FA08FCAC
:1005F00027EA0C07D1F80CC00CFA08FC4CEA070CEF
:10060000C0F808C04768A7430C79C4F300149440AD
:100610003C4344600C79E443A4070AD0C4684FEA21
:10062000420C06FA0CF7BC438F6807FA0CF7274315
:10063000C7600C7904F00304022C12D1D40800EB3B
:10064000840CDCF820405707FF0E09FA07F824EA6B
:100650000804D1F8108008FA07F848EA0408CCF832
:10066000208004684FEA420C06FA0CF7BC430F796D
:1006700007F0030707FA0CF7274307604C6814F4E8
:10068000403F70D03C4C276847F48047276024687F
:1006900022F0030704F480440094384C07EB040C68
:1006A000DCF8084897074FEA177809FA08F7BC43BF
:1006B000334FB84202D1002724E054E0314FB84212
:1006C00001D101271EE0304FB84201D1022719E0C5
:1006D0002E4FB84201D1032714E02D4FB84201D16B
:1006E00004270FE02B4FB84201D105270AE02A4F1B
:1006F000B84201D1062705E0284FB84201D10727AB
:1007000000E0082707FA08F72743CCF80878DAF85A
:1007100000405746D1F804C09C435FEACC2C00D57A
:100720001C433C60DBF800405F46D1F804C09C43AA
:100730005FEA8C2C00D51C433C60DEF80040774615
:10074000D1F804C09C435FEA8C3C00D51C433C605C
:10075000084F083F3C68D1F804C09C435FEACC3C9A
:1007600000D51C433C60521C102AFFF42FAFBDE89B
:10077000F88F0000083C014044380240003001403E
:10078000000002400004024000080240000C024049
:10079000001002400014024000180240001C0240F9
:1007A0000069084000D0012070470AB1816170479C
:1007B0000904FBE701488068704700002000002022
:1007C000024881680278114481607047200000204F
:1007D0000B4810B5016841F400710160016841F4F3
:1007E00080610160016841F480710160032000F0C4
:1007F00099F8002000F006F800F04AF8002010BD3B
:10080000003C024030B505461C4887B00024016812
:1008100041F001010160006806A900F001000090AC
:1008200001A800F02BF900F059F915494000B0FB80
:10083000F1F11548134A491E026040F2E732C0E95F
:100840000324C0E90114846100F088FB040012D184
:100850000D4800F0CFFB04000DD1192000F034F852
:10086000102D07D200222946192000F03BF8074836
:10087000056000E0012407B0204630BD4438024046
:1008800040420F0000000140980700202400002093
:100890000C4882B0016841F480410160006800F4B6
:1008A000804000900748001F016841F080510160BE
:1008B0000068002200F0805000900F21901E02B0CE
:1008C00000F010B844380240002809DB00F01F0295
:1008D000012191404009800000F1E020C0F80011A2
:1008E00070470000F0B40E4B1B680C46C3F30223A4
:1008F000C3F10705042D00D90425191D072901D2CC
:10090000002300E0DB1E012606FA05F1491E214006
:1009100099409E40761E16403143F0BC01F016BA55
:100920000CED00E0064900F0070208684FF6FF03EF
:10093000184040EA0220034A104308607047000054
:100940000CED00E00000FA052DE9F0470E46050029
:1009500065D0DFF81481D8F80000F7B200F0070086
:10096000B04207D288F80070D8F8000000F0070005
:10097000B04254D128683D4C810712D5400703D5B9
:10098000206840F4E05020602878000703D52068F4
:1009900040F4604020602068A96820F0F00008431F
:1009A00020602878C0072DD03049686808390128B0
:1009B00012D0022813D0032811D009688907002912
:1009C0002DDA216821F0030101432160FFF7F2FED7
:1009D000814641F2883A0EE009688903EFE7096829
:1009E0008901ECE7FFF7E6FEA0EB0901514502D9CA
:1009F0000320BDE8F0872068696800F00C00B0EBC8
:100A0000810FEFD1D8F80010404601F00701B14244
:100A100007D90770006800F00700B04201D001203C
:100A2000E7E72878400705D52068E96820F4E0501A
:100A3000084320602878000706D52068296920F43B
:100A4000604040EAC100206000F058F82168084A80
:100A5000C1F30311515CC8400649086006480068AC
:100A6000FFF7D0FE0020C4E7003C024008380240F7
:100A7000C83900082C000020240000200F2202604A
:100A80000C4A136803F003034360136803F0F00398
:100A90008360136803F4E053C36012684FF4E053BB
:100AA00003EAD20202610448006800F0070008600F
:100AB0007047000008380240003C024004480549E5
:100AC00000680968044AC1F38221515CC84070473C
:100AD0002C00002008380240D83900080448054995
:100AE00000680968044AC1F34231515CC84070474C
:100AF0002C00002008380240D8390008154810B5ED
:100B0000006810F00C02144813D04110042A0FD0D2
:100B1000082A0ED10F4C241F2268236802F03F02DE
:100B20005B0207D52068C0F38810A0FB010106E036
:100B3000084610BD2168C1F38811A1FB0001002304
:100B4000FFF79EFB2168C1F30141491C4900B0FB3E
:100B5000F1F010BD083802400024F4002DE9F84FF0
:100B600004006ED02078DFF84C93C007A9F104058B
:100B70004AD009F104000168C1F38101012908D0BC
:100B80000068C0F3810002280AD1D9F800004002B1
:100B900006D52868800337D560680028E1D033E0A7
:100BA0006068B0F5803F10D0B0F5A02F286810D055
:100BB00020F480302860286820F480202860606855
:100BC000A8B1FFF7F7FD06460DE0286840F4803035
:100BD000F4E740F480202860F7E700BFFFF7EAFD64
:100BE000801B642873D828688003F7D50CE0FFF7D2
:100BF000E1FD064605E000BFFFF7DCFD801B642831
:100C0000F0D828688003F7D42078DFF8AC8280071A
:100C10004FF0000A3ED5A748001D016811F00C0FE7
:100C200008D00068C0F3810002280BD1D9F8000079
:100C3000400207D42868800716D5E068012800D153
:100C400012E033E1E068B8B10120C8F80000FFF716
:100C5000B1FD064605E000BFFFF7ACFD801B022892
:100C6000C0D828688007F7D52868216920F0F800E7
:100C700040EAC10028600DE0C8F800A0FFF79AFD27
:100C8000064604E0FFF796FD801B02281FD828685F
:100C90008007F7D42078000722D5864F87486169FE
:100CA000703771B101210160FFF784FD064604E051
:100CB000FFF780FD801B022809D838688007F7D528
:100CC0000EE0C0F800A0FFF775FD064605E082E0E3
:100CD000FFF770FD801B02287DD838688007F7D4A5
:100CE0002078400768D5DFF8CCB100270BF13C0B2A
:100CF000DBF80000C0000BD4DBF8001041F080519D
:100D0000CBF80010DBF80000012700F080500090C5
:100D10006B4E3068C00510D4306840F4807030608D
:100D2000FFF748FD009005E0FFF744FD0099401AE9
:100D3000022850D83068C005F6D55E4EA0686C36E3
:100D400001280FD00528306810D020F00100306055
:100D5000306820F004003060A068B8B1FFF72AFDC9
:100D600000900FE0306840F00100F4E740F004002C
:100D70003060F7E7FFF71EFD0099411A41F2883015
:100D8000814266D830688007F4D50EE0FFF712FD87
:100D9000009007E0FFF70EFD0099411A41F28830FC
:100DA000814256D830688007F4D42FB1DBF80010A8
:100DB00021F08051CBF80010A069C8B33D49091D4E
:100DC0000968C1F3810102294AD00228504607D0A0
:100DD000C8F8600000E03CE0FFF7ECFC04463BE0B4
:100DE0004746C8F86000FFF7E5FC064605E000BF8F
:100DF000FFF7E0FC801B02282BD828688001F7D47D
:100E0000D4E907010843A16A2E4A490802EB0141CF
:100E1000626A41EA8211084394F82C1040EA0161A9
:100E2000C9F8001001203866FFF7C4FC044606E04C
:100E30003EE000BFFFF7BEFC001B022809D828686F
:100E40008001F7D534E000BFFFF7B4FC001B022897
:100E500002D90320BDE8F88F28688001F4D427E088
:100E60000128F7D0D9F80000E26900F4800191422E
:100E70001CD1226A00F03F01914217D147F6C071A0
:100E8000626A0140B1EB821F10D1A26A4FF0FF33BA
:100E900000F4403103EB5202B1EB024F06D194F85B
:100EA0002C1000F07060B0EB016F01D00120D1E791
:100EB0000020CFE70438024000004742800E47423E
:100EC000007000400000FFFF7047704770B590F859
:100ED0003C20012A32D0012480F83C40022280F8D4
:100EE0003D2003685A689D6822F070060A68324304
:100EF0005A60134B02689A4214D0B2F1804F11D05D
:100F0000104B9A420ED0104B9A420BD00F4B9A4284
:100F100008D00F4B9A4205D00E4B9A4202D00E4B8E
:100F20009A4204D1496825F080031943916080F802
:100F30003D40002180F83C10084670BD022070BD85
:100F4000000001400004004000080040000C004088
:100F500000040140004001400018004010B50400AA
:100F600003D094F83D0010B107E0012010BD00202F
:100F700084F83C00204600F01FF8022084F83D0071
:100F8000211D206800F09AFC012084F8460084F8B6
:100F90003E0084F83F0084F8400084F8410084F863
:100FA000420084F8430084F8440084F8450084F843
:100FB0003D00002010BD000008B500680B498842C4
:100FC00012D10B48016841F0100101600068002255
:100FD00000F01000009005213620FFF783FCBDE8EB
:100FE00008403620FFF770BC08BD0000001000402C
:100FF0004038024090F83D10012901D0012070478F
:10100000022180F83D100168CA6842F00102CA60FE
:1010100000681149884214D0B0F1804F11D00F49B7
:1010200088420ED00E4988420BD00E49884208D023
:101030000D49884205D00D49884202D00C498842AA
:1010400004D1816801F00701062903D0016841F04D
:1010500001010160002070470000014000040040D1
:1010600000080040000C0040000401400040014026
:10107000001800400168CA6822F00102CA600168D5
:101080000A6A41F211131A4207D10A6A9B101A42E6
:1010900003D10A6822F001020A60012180F83D10A4
:1010A0000020704770472DE9F04104460068C6688B
:1010B00005694FF00007A90713D5B10711D5F91E2F
:1010C000016101202077206880698007204602D0D6
:1010D000FFF7E8FF04E000F07EF8204600F07CF81F
:1010E0002777680716D5700714D521686FF00400BC
:1010F0000861022020772068806910F4407F204634
:1011000002D0FFF7CFFF04E000F065F8204600F0C2
:1011100063F82777280715D5300713D521686FF0B6
:1011200008000861042020772068C06980072046F5
:1011300002D0FFF7B7FF04E000F04DF8204600F0C2
:101140004BF82777E80616D5F00614D521686FF01E
:1011500010000861082020772068C06910F4407FE3
:10116000204602D0FFF79EFF04E000F034F820464E
:1011700000F032F82777E80708D0F00706D021689A
:101180006FF001000861204600F028F8280608D515
:10119000300606D521686FF0800008612046FFF711
:1011A00093FE680608D5700606D521686FF04000EA
:1011B0000861204600F022F8A8060AD5B00608D536
:1011C00021686FF0200008612046BDE8F041FFF77C
:1011D0007CBEBDE8F08170477047000010B5006824
:1011E0000449884205D1FFF7EBFA03480168491C1E
:1011F000016010BD000001401C00002070477047D6
:1012000070470000F8B5016804460868CA684B6971
:1012100010F00F0F4FF0000559D003F0010602F453
:101220009077374365D0C10705D0D10503D5616CF0
:1012300041F001016164410705D5D90703D0616C14
:1012400041F002016164810705D5D90703D0616CC3
:1012500041F004016164010707D502F02001314328
:1012600003D0616C41F008016164616C00293AD0DF
:10127000800604D5900602D5204600F0BAFB20680F
:101280004069616CC0F38010090700D460B3204648
:1012900000F088FB20684069400621D520681430A2
:1012A00050E8001F21F0400140E80012002AF5D16B
:1012B000E06BA8B16E490165E06BFFF70DF90028FE
:1012C00011D0E06B016D01B0BDE8F0400847830626
:1012D0000FD593060DD52046BDE8F84000F089BB38
:1012E0002046FFF78DFFF8BD2046FFF789FF6564B4
:1012F000F8BD266B2023012E7DD1C6067BD5D606F0
:1013000079D508684868009048694FF002064006A1
:1013100041D5E16B086840680004000CE8D0A28D5C
:101320008242E5D9E085C869B0F5807F2DD020687C
:101330000C3050E8001F21F4807140E80012002AB0
:10134000F5D12068143050E8001F21F0010140E879
:101350000012002AF5D12068143050E8001F21F057
:10136000400140E80012002AF5D184F8423025639C
:1013700020680C3050E8001F21F0100140E80012F6
:10138000002AF5D1E06BFFF75EF86663A08DE18D72
:10139000401A81B22AE0A08DE18D401A81B2E08D21
:1013A0000028A5D00029A3D022680C3252E8000FF3
:1013B00020F4907042E80007002FF5D12068143027
:1013C00050E8002F22F0010240E80027002FF5D15D
:1013D00084F84230256320680C3050E8002F22F05A
:1013E000100240E80023002BF5D166632046FFF78A
:1013F00006FFF8BDFFE705062BD5150629D594F89D
:1014000041002128F5D1A068B0F5805F01D12069A5
:10141000B0B1206A411C2162216800784860E08CEC
:10142000401E0004000CE084E3D12068C16821F074
:101430008001C1602068C16841F04001C160D8E707
:10144000206A0088C0F308004860206A801C20627F
:10145000E5E74006CDD55006CBD5CA68204622F038
:101460004002CA6084F8413000F079F8C1E700001A
:101470009519000870B5040004D094F841000025C7
:1014800010B106E0012070BD84F84050204600F005
:1014900023F8242084F841002068C16821F4005119
:1014A000C160204600F006FB2068016921F49041EC
:1014B00001612068416921F02A0141612068C16809
:1014C00041F40051C1606564202084F8410084F833
:1014D00042006563002070BD10B586B0044614213B
:1014E0006846FEF717FF1A49206888422DD119482F
:1014F0000021026842F010020260006800F0100053
:10150000059014481438026842F002020260006834
:1015100000F002000590C02000900220CDE90101FA
:10152000032003900720049069460B48FFF740F81A
:10153000002205212520FFF7D5F92520FFF7C4F962
:101540002068C16841F02001C16006B010BD0000F4
:1015500000100140443802400004024070477047C8
:10156000FEE700000224124D124E4FF0FF382C709F
:101570004FF4C8774146706901F0F0FE0128F9D1B7
:1015800039460D48FEF7C6FE01F08CF90A4801F015
:10159000D9FA0AA000F0B6FB12A000F0B3FB06498E
:1015A0001BA000F0AFFB01F09DF92C70E2E70000FA
:1015B0000000002004000020A40000205461736B90
:1015C0002020202020202020202020204162732065
:1015D00054696D6520202020202054696D65200D00
:1015E0000A0000002A2A2A2A2A2A2A2A2A2A2A2AF9
:1015F0002A2A2A2A2A2A2A2A2A2A2A2A2A2A2A2A4B
:101600002A2A2A2A2A2A2A2A2A2A2A2A0D0A0000CB
:10161000257300004CF25034204600F004FDFBE737
:1016200010B5A2B0002020902190012120A800F048
:1016300019FD1D4C1D4B0DF1700C60610FCB8CE83A
:101640000F0000211CA800F0FAFC184920611C22A0
:1016500010316846FEF745FE0021684600F021FD86
:10166000124920601C222C3107A8FEF73AFE002107
:1016700007A800F016FD0D4960601C2248310EA835
:10168000FEF72FFE00210EA800F00BFD0749A06019
:101690001C22643115A8FEF724FE002115A800F0D5
:1016A00000FDE06022B010BD0400002048390008B1
:1016B00070B586B014216846FEF72CFE224800253E
:1016C000016841F010010160016801F0100105910D
:1016D000016841F080010160016801F0800105911D
:1016E000016841F001010160016801F0010105910B
:1016F000016841F0020101600068144E00F0020030
:101700000590012203213046FFF74FF80420009096
:101710004FF444100124CDE9010469463046FEF738
:1017200047FF03208DE831000220039069463046D0
:10173000FEF73EFF002205210820FFF7D3F808201E
:10174000FFF7C2F806B070BD30380240001002400A
:101750001CB500240E4800940C490194016042F22B
:10176000CF01C0E9011409218461C160FFF7F6FBD4
:1017700008B1FEF766FE0094694605480194FFF73C
:10178000A5FB002801D0FEF75CFE1CBD0010004048
:10179000080700200C4810B50A4901604FF4E131F8
:1017A0004160002181600C22C160C0E904128161A6
:1017B000C161FFF75FFE002803D0BDE81040FEF7CF
:1017C00040BE10BD0010014050070020FEE7FEE7BC
:1017D00010B5502080F31188BFF34F8FBFF36F8F88
:1017E00001F01EFF18B104494FF08050086000203E
:1017F00080F3118810BD000004ED00E030B593B017
:1018000030216846FEF786FD14210CA8FEF782FD04
:101810001E480025016841F080510160006800F019
:10182000805011901A48016841F4804101600068BD
:10183000022400F4804011900120009000040190E7
:101840008001CDE90640082008904FF4A870CDE94A
:10185000090404200B906846FFF780F908B172B6BE
:10186000FEE70CA90F2081E831004FF4A0500F9043
:101870004FF48050109005210CA8FFF765F8002860
:1018800001D072B6FEE713B030BD00004038024010
:10189000007000400248016841F470010160704727
:1018A00088ED00E00148FFF7FEBB0000980700202C
:1018B0000148FFF7F8BB000008070020F0B50268F8
:1018C000294C2A4D2A4E2B4F2B4B4FF0804CA042D7
:1018D00009D0604507D0A84205D0B04203D0B84235
:1018E00001D0984204D122F0700E4A6842EA0E02FA
:1018F000A0421BD0604519D0A84217D0B04215D0E5
:10190000B84213D0984211D01C4DA8420ED01C4DA5
:10191000A8420BD01B4DA84208D01B4DA84205D0B1
:101920001A4DA84202D01A4DA84203D122F44075A4
:10193000CA682A434D6922F080022A4302608A68FD
:10194000C2620A688262A04201D0984201D109694C
:101950000163012141610169C90703D0016921F0D7
:1019600001010161F0BD00000000014000040040E1
:1019700000080040000C004000040140004001400D
:10198000004401400048014000180040001C004095
:101990000020004010B5806B0021C185C184FFF795
:1019A0002FFC10BD01680C3151E8002F22F4907219
:1019B00041E80023002BF5D10168143151E8002FD4
:1019C00022F0010241E80023002BF5D1016B01292F
:1019D00009D101680C3151E8002F22F0100241E8D2
:1019E0000023002BF5D1202180F842100021016353
:1019F000704708B590F84210222901D0022008BD96
:101A000082684FF480539A4201D1016921B1816A01
:101A10009A421BD04AB10AE00268816A5268C2F356
:101A200008020A80816A891C08E0026972B10268B2
:101A3000526802F07F020A70816A491C8162C18D7E
:101A4000491E0904090CC18503D01BE002685268D5
:101A5000F1E70168CA6822F02002CA600168CA681A
:101A600022F48072CA6001684A6922F001024A6168
:101A7000202180F8421000214163026B012A03D02B
:101A8000FFF76CFD002008BD016301680C3151E8CF
:101A9000002F22F0100241E80023002BF5D101684D
:101AA0000A68D20602D50A6849680091818DFFF75D
:101AB000A6FBE7E770B5044600680169E26821F417
:101AC0004051114301612169A068E26908436169DD
:101AD000114308432168CA6849F20C639A430243E0
:101AE000CA6020684169A26921F4407111434161D3
:101AF00031492068884202D03049884202D1FEF73D
:101B0000EDFF01E0FEF7DAFFE26900231921642509
:101B10003226B2F5004F626828D0A0FB0101930F76
:101B20009200FEF7ADFB0146B0FBF5F06FF0180236
:101B3000504301EB800006EB0010B0FBF5F000F025
:101B4000F002B1FBF5F002EB0012B1FBF5F06FF023
:101B50001803584301EB800006EB0010B0FBF5F0D2
:101B600000F00F0021681044886070BDA0FB0101E7
:101B700092185B41FEF784FB0146B0FBF5F00201D1
:101B8000B1FBF5F06FF01803584301EB800006EB52
:101B9000C000B0FBF5F000F0F80002EB4002B1FB32
:101BA000F5F0584301EB800006EBC000B0FBF5F008
:101BB00000F00700D6E700000010014000140140CB
:101BC0000A4808B500680168C943890609D4406815
:101BD0008DF80000064800231A466946006801F0A7
:101BE000C1FA0248FFF70EFB08BD000050070020B5
:101BF00014000020FEE700004FF0FF382F4D304C5E
:101C0000DFF8C090012621464246286901F00AFB10
:101C1000012845D1A119761CF6B23222286901F0BB
:101C200001FB0028F6D1A055254927A000F06AF84D
:101C30002348FEF77AFBC7B2072224A12048FEF70B
:101C400084FB70B9E01910F8010C3038C6B2314687
:101C500020A000F057F85EB1012E0CD021A000F0BA
:101C600051F8082224A11648FEF76FFB48B117E08F
:101C70000022012101E0002202214846FEF795FDE5
:101C8000EFE7E01910F8010C3038C6B2314611A068
:101C900000F038F84EB1012E0AD012A000F032F850
:101CA00041F2883000F0BFF9ACE70122114601E0B3
:101CB000012202214846FEF778FDF1E704000020EA
:101CC000340200200010024025730A006F70656E18
:101CD0006C65640070696E5F706F72742025640AB1
:101CE00000000000636D6420697320696C6C656797
:101CF000616C210A00000000636C6F73656C6564A1
:101D0000000000000FB4054B10B503A9044A029867
:101D100000F03CF810BC5DF814FB0000DD1F00086B
:101D2000A00000200FB4084B10B504A902AA039824
:101D300000F02CF8044602A9002000F003F9204628
:101D400010BC5DF814FB0000451F00080907090ED0
:101D5000002804DB00F1E02080F80014704700F058
:101D60000F0000F1E02080F8141D704702E008C861
:101D7000121F08C1002AFAD170477047002001E005
:101D800001C1121F002AFBD1704700002DE9FF4F4F
:101D90008BB09A460F460546002606E025280BD054
:101DA00052460D9990476D1C761C28780028F5D175
:101DB0000FB03046BDE8F08F0024A04601226049F4
:101DC00000E0044315F8013F203B02FA03F008420B
:101DD000F7D128782E2817D115F8010F44F0040404
:101DE0002A280ED06FF02F022878A0F1300109299F
:101DF0000AD808EB880102EB410100EB01086D1CD9
:101E0000F2E757F8048B6D1C287869283ED006DC71
:101E10000028CDD063280BD0642804D136E0732885
:101E200010D075284BD052460D999047761C85E00E
:101E300017F8040B8DF8000000208DF80100E9462A
:101E4000012003E057F8049B4FF0FF3061074FF08B
:101E5000000401D40AE0641C44450DDA8442FADB34
:101E600019F804100029F6D106E0641C8442FCDB5A
:101E700019F804100029F8D1264404E019F8010BE0
:101E800052460D999047641EF8D257E001CF4FF0AB
:101E90000A0B002802DA40422D2102E0210504D578
:101EA0002B218DF82410012103E0E10705D020212A
:101EB000F7E70DF1200908910CE00021F9E701CFC7
:101EC0004FF00A0BF9E75946FEF74EFA01F13002DE
:101ED00009F8012D0028F6D1ADEB090000F1200B27
:101EE000600701D44FF00108D84502DDA8EB0B00D4
:101EF00000E000208046002406E009A85246005D6C
:101F00000D999047641C761C08988442F5DB04E028
:101F1000302052460D999047761CB8F10001A8F187
:101F20000108F5DC05E019F8010B52460D999047C0
:101F3000761CBBF10001ABF1010BF4DC6D1C34E746
:101F4000092801000A68531C0B60107070470000DC
:101F500010B50348FFF78EF802490020086010BD55
:101F6000080700201C0000202DE9F041040006D0E5
:101F7000184E306884420AD10020BDE8F08150201C
:101F800080F31188BFF34F8FBFF36F8FFEE700F030
:101F900089FC6569F76B366C00F0A4FCBD4201D08A
:101FA000B54201D10220E8E70B48854208D1A06A7A
:101FB0000028F7D194F85C000128F3D00320DCE777
:101FC00005481438854202D00DB10120D5E7042020
:101FD000D3E7000030000020BC08002003490A6855
:101FE0005206FCD5C2B24A607047000000100140A2
:101FF00001480068704700001C000020FEF7E8FB65
:10200000FFF7FCFBFFF754FBFFF7C4FBFFF7A0FB58
:10201000FFF706FB00F00EF8FEE7014600208429DA
:1020200000D0C81C704710B500B9012000F0DCFCDE
:10203000002010BD10B500F04DFE002010BD38B5D9
:10204000D0E9011204683AB1C3682BB100200090B6
:10205000204600F060FF38BD2046BDE83840002231
:1020600000F038BF38B543684BB1012909D10320CE
:10207000002200901146012000F04DFF38BD0129DB
:1020800001D0002038BD03220021012000F022FFF2
:10209000040004D000231A46194600F0B3FF20467E
:1020A00038BD7FB50D4604464169B0F9080081B1DD
:1020B000A16971B1FFF7B1FFD4E905128DE80700FE
:1020C000D4E900102B46226901F06BFA039004B0AA
:1020D00070BDFFF7A2FF03A9CDE90001208A2B46BE
:1020E00082B2D4E9001001F02FFA012801D00020BB
:1020F000EDE70398EBE700002DE9F041184C0F469F
:102100000546E6682068001D00F016FB38B9206817
:1021100090F82C1001208840216981432161681CBE
:1021200007D137B12168BDE8F0410E48091D00F024
:10213000ADBB20683544B5424560216805D2206CAE
:10214000BDE8F041091D00F089BBE06B091D00F0FE
:1021500085FBA06A854200D2A562BDE8F08100003F
:1021600030000020BC0800202DE9F041054600F0B9
:1021700099FB2E4CA068401CA06020682C4F10B129
:10218000606940B32DE02560A068012829D10026B0
:1021900006EB860007EB800000F052FB761C072E52
:1021A000F6D323488C3000F04BFB2148A03000F0E0
:1021B00047FB1F48B43000F043FB1D48C83000F017
:1021C0003FFB1B48DC3000F03BFB19488C30E063E0
:1021D0001430206405E02068E96AC06A884200D8AB
:1021E0002560606A401C60626864E96A01202269B7
:1021F00088401043206101EB810007EB8000291D1E
:1022000000F044FB00F06EFB606900280CD02068F1
:10221000E96AC06A884207D206494FF080500860D8
:10222000BFF34F8FBFF36F8FBDE8F0813000002008
:10223000E007002004ED00E030B4026C0B46002AF9
:102240000BD0C1681144C1608468A14201D3016808
:10225000C16030BC1846FEF744B830BC70472DE969
:10226000F041856B174604460026026C82B1C7B167
:10227000E068FEF736F8E168206C091AE160226830
:10228000914202D2A168081AE060022F16D017E02E
:102290002068A8B9A06801F029FA06460020A060CD
:1022A0000EE06068FEF71DF8216C6068084460600D
:1022B000A168884204D32068606001E005B16D1E0A
:1022C0006D1CA5633046BDE8F08110B5044690F85A
:1022D0005D0058B101280CD002280FD0502080F3A7
:1022E0001188BFF34F8FBFF36F8FFEE7206B00F0B5
:1022F0000DFB2046BDE8104000F008BB10BD0000FB
:1023000010484FF47051420706D0C01D0D4920F00F
:102310000700411AC1F570510B4A00230144C2E97C
:1023200000030839183A21F0070111604B600B6077
:102330000B1AC0E9001393604FF0004053605061E6
:1023400070470000D00800208C000020144E154C6F
:10235000A6F1C8074FF08058DFF84C9012E000BF9C
:1023600000F0A0FAF068C568281D00F0E5F9A06843
:10237000401EA0606068401E606000F0B3FA28460E
:10238000FFF7A3FF60680028EAD138680128F9D96F
:10239000C9F80080BFF34F8FBFF36F8FF2E70000E3
:1023A000A80800203000002004ED00E070B51D46B4
:1023B000049C51B1C4F80020C4E90F01012120465A
:1023C00000F0DCFD84F84C5070BD2460F4E70000A0
:1023D0002DE9F05F8846DDE90B94154683469100B0
:1023E0009A460A9EA522206BFDF78DFF6FF0030130
:1023F000206B01EB8501084420F00707780707D020
:10240000502080F31188BFF34F8FBFF36F8FFEE72B
:102410000025B8F1000F0FD05FF00000221818F867
:10242000001082F8341018F8001011B1401C102868
:10243000F4D384F8435001E084F83450072E00D3DD
:102440000626E662C4E91365201D00F004FA04F1D3
:10245000180000F000FA2461C6F107006462A06170
:102460006565A56584F85C5052465946384600F0CB
:102470004DF92060B9F1000F01D0C9F80040BDE866
:10248000F09F000030B5114900E011460A68824211
:10249000FBD34B685C18844203D140681844486001
:1024A000084643681C18944209D1084C183C24681B
:1024B000A24209D052681A4442600A681268026057
:1024C000814200D0086030BD0460F9E78C00002034
:1024D00010B5044600F0E6F9A06B28B15FF00004E7
:1024E00000F000FA204610BD0124F9E72DE9F0477D
:1024F0008146086892460C46002600B3606804F1E5
:10250000080540686060A84201D141686160606868
:10251000D0F80C80606840686060A84201D14168D2
:102520006160606806EBC60109EB8101C76853462C
:102530000122384600F0C4FA761C4745EAD13046FD
:10254000BDE8F0870648C16B096829B1C16BC9684D
:10255000C9684968816270474FF0FF31FAE70000AF
:102560003000002008484068401C4FF0500080F3C5
:10257000118804D0BFF34F8FBFF36F8FFEE7BFF317
:102580004F8FBFF36F8FFEE7940000202DE9F041DD
:10259000044600F087F994F9455004F1240609E057
:1025A000606A48B1304601F033F908B100F024FB0D
:1025B0006D1E6DB2002DF3DC4FF0FF3684F84560E0
:1025C00000F090F900F06EF994F9445004F110070E
:1025D00009E0206948B1384601F01AF908B100F065
:1025E0000BFB6D1E6DB2002DF3DC84F84460BDE87A
:1025F000F04100F077B910B50446FDF79DFE204686
:10260000FDF793FE202101E02154401C0F28FBD34D
:1026100000212154204410BD2DE9F041054600273A
:1026200000F090FB324E306808B9FFF769FE706920
:1026300005424ED1C5B3083568070ED005F0070036
:10264000C0F108000544680707D0502080F31188C6
:10265000BFF34F8FBFF36F8FFEE72DB370688542D6
:1026600037D82348183001460C6801E020460C4654
:102670006168A94202D221680029F7D131688C42F1
:1026800027D007682168016060680837411B10295E
:102690000FD96019420708D0502080F31188BFF38A
:1026A0004F8FBFF36F8FFEE713E041606560FFF768
:1026B000E9FE61687068401A7060B268904200D2AA
:1026C000B060706901430020C4E90001F068401C5B
:1026D000F06001F0D7F8780707D0502080F3118818
:1026E000BFF34F8FBFF36F8FFEE73846BDE8F08131
:1026F000740000200449086818B10868026D521C73
:1027000002650868704700003000002010B5031F04
:102710004FF080741C601B1F21F001011960191F0C
:10272000044B0B6014390A60091F6FF00202443831
:102730000A6010BD65250008D0E9013201699A6080
:10274000D0E901235A604A68824201D182684A6016
:10275000002202610868401E086008687047000097
:102760002DE9F04717460A4605460024072600F0E3
:10277000E9FADFF89080D8F8080082423CD3DFF80D
:102780008890761E06EB860104EBC40009EB8101FC
:1027900005EB80000122FFF7A9FE0444002EF0D1D2
:1027A00004EBC40005EB800002224646D8F83C103A
:1027B000FFF79CFE044404EBC40005EB80000222FA
:1027C000316CFFF793FE04440F4904EBC40005EBA2
:1027D00080000422C831FFF789FE04440A4904EB53
:1027E000C40005EB80000322DC31FFF77FFE0444C8
:1027F00017B1FFF7FDFB386001F044F82046BDE853
:10280000F087000030000020E0070020034B036049
:1028100003F16000086080201060704748020020CB
:1028200001A0FFF76FBA000025732069732053746D
:1028300061636B204F766572466C6F77210D0A00DD
:1028400000F108014FF0FF32C0E90112C1600161DF
:1028500000210160704700210161704730B50B68AD
:102860005A1C02D000F1080202E0026904E022468C
:10287000546825689D42FAD953684B6099608A6014
:10288000516008610168491C016030BD42684A60BE
:1028900093688B6093685960916008610168491C76
:1028A00001607047502080F31188BFF34F8FBFF352
:1028B0006F8F0A494868401C486001280CD10848BD
:1028C000006810F0FF0F07D0502080F31188BFF38D
:1028D0004F8FBFF36F8FFEE770470000940000201A
:1028E00004ED00E00849486828B1401E486001D165
:1028F00080F311887047502080F31188BFF34F8F09
:10290000BFF36F8FFEE700009400002070B5002831
:102910002AD0164DA0F1080460686969084207D101
:10292000502080F31188BFF34F8FBFF36F8FFEE706
:1029300022683AB1502080F31188BFF34F8FBFF364
:102940006F8FFEE78843606000F0FCF9606869689B
:10295000084468602046FFF795FD2869401C2861FF
:10296000BDE8704000F08EBF70BD00007400002014
:102970004FF0E02000210161816105494FF47A7236
:102980000968B1FBF2F1491E4161072101617047FD
:102990002C00002010B5FDF75DFC114910280ED366
:1029A00000F1E02090F8F0030A78904207D250201E
:1029B00080F31188BFF34F8FBFF36F8FFEE7094895
:1029C0000068896800F4E060884207D9502080F3ED
:1029D0001188BFF34F8FBFF36F8FFEE710BD00006C
:1029E000940000200CED00E010B5020014D00F4858
:1029F000006B38B1502080F31188BFF34F8FBFF3C5
:102A00006F8FFEE700F09EF900211046FFF774FB80
:102A100000F038FF002807D105494FF080500860CA
:102A2000BFF34F8FBFF36F8F10BD00003000002049
:102A300004ED00E070B50D4604000BD095B11E4AC0
:102A4000106BB8B1502080F31188BFF34F8FBFF3E4
:102A50006F8FFEE7502080F31188BFF34F8FBFF3D5
:102A60006F8FFEE7502080F31188BFF34F8FBFF3C5
:102A70006F8FFEE700F066F9D26823685919934218
:102A800004D98B420AD9914202D807E08B42FAD985
:102A9000881A21600021FFF72FFB00E0216000F081
:102AA000F1FE002807D105494FF080500860BFF3C0
:102AB0004F8FBFF36F8F70BD3000002004ED00E03A
:102AC0002DE9F0410C461E491646B8B14FEA000503
:102AD00005F13400C4E90050E86A2061286BE06128
:102AE000686CA060E86C6061686D0027A061052BD0
:102AF00012D00868854203D1277311E00D68E7E71B
:102B00002373032B0CD100F01DF9A86A08B1022031
:102B1000207300F0B7FE03E02846FFF725FA207384
:102B20005EB10021286B01E0401C491C0278A52AF7
:102B3000FAD088082084BDE8F0812784FBE70000F4
:102B4000300000202DE9F8430021804601701F4825
:102B50008468806800EBC0008000FFF75DFD060020
:102B600031D06A462146FFF7FBFD074600986421F5
:102B7000B0FBF1F0009018B300241FE004EBC40098
:102B800006EB80050099A869B0FBF1F94046696839
:102B9000FFF731FD8046AA69B9F1000005D0034670
:102BA0000BA14046FFF7BEF803E00CA14046FFF73B
:102BB000B9F84046FDF7B9FB8044641CBC42DDD344
:102BC0003046FFF7A3FEBDE8F88300003000002088
:102BD0000925750909257525250D0A000925750999
:102BE000093C3125250D0A0002490A6A0260C968BC
:102BF000416070473000002001490120C8617047E2
:102C00003000002010B50C4650B109490968183150
:102C1000FFF724FE2046BDE810400121FFF76CBA03
:102C2000502080F31188BFF34F8FBFF36F8FFEE703
:102C30003000002070B5040047D0226DA2B1E06CD6
:102C4000884200D30146E06A88423ED0012A3CD146
:102C50001E4D2A6894420FD1502080F31188BFF393
:102C60004F8FBFF36F8FFEE7502080F31188BFF3C3
:102C70004F8FBFF36F8FFEE7E162A269002A02DB8C
:102C8000C1F10701A161124E00EB8000616906EB02
:102C90008000814219D1201DFFF74EFD012130B97E
:102CA00094F82C002A6901FA00F082432A61E06A54
:102CB0002A6981401143296100EB800006EB800006
:102CC000211DBDE87040FFF7E1BD70BD3000002060
:102CD000E007002010B586B00024039405AA04A9DB
:102CE00003A80494FFF792FDDDE903010094CDE908
:102CF000011000230FA11148059A00F052FC104961
:102D00000028C86213D0502080F31188BFF34F8F82
:102D1000BFF36F8F4FF0FF30886201204861CC60B5
:102D2000FFF716F906B0BDE8104000F059B806B03C
:102D300010BD000049444C45000000004D23000830
:102D4000300000200248016B491C016370470000FD
:102D50003000002010B5204C206B10B10120E06144
:102D600010BD0020E061FFF743F9A063626B904261
:102D700004D92168821A4B6D1A444A656063206841
:102D800021680068096B884204D8216820683431C2
:102D9000FFF746FD20691149B0FA80F0C0F11F002D
:102DA00000EB800051F820206AB101EB800000F1B7
:102DB0000802416849684160914201D14968416017
:102DC000C868206010BD502080F31188BFF34F8F7A
:102DD000BFF36F8FFEE7000030000020E007002007
:102DE0001CB537480168374A914207D1502080F31B
:102DF0001188BFF34F8FBFF36F8FFEE70068314933
:102E0000491E884207D1502080F31188BFF34F8FAD
:102E1000BFF36F8FFEE72C4908780190FF20087000
:102E200008788DF800009DF800009DF8002000F063
:102E3000F000904207D0502080F31188BFF34F8FED
:102E4000BFF36F8FFEE79DF80000204C00F05000AC
:102E500020700720A06005E09DF8002052008DF84A
:102E60000020401E9DF800201206F5D4A060032823
:102E700007D0502080F31188BFF34F8FBFF36F8FBF
:102E8000FEE74FF44070A060019808700C482030B5
:102E9000016841F470010160016841F07041016016
:102EA000FFF766FD00206060FDF79CF908480168A7
:102EB00041F040410160FDF781F900201CBD000098
:102EC00000ED00E071C20F4100E400E0940000203A
:102ED00034EF00E0F8B517460E46050013D005FBA9
:102EE00006F05030FFF798FB04000AD0002084F869
:102EF000460004F150023B46314628460094FFF755
:102F000055FA2046F8BD502080F31188BFF34F8F4B
:102F1000BFF36F8FFEE738B5049D18B153B1CAB146
:102F200081B120E0502080F31188BFF34F8FBFF3B1
:102F30006F8FFEE7502080F31188BFF34F8FBFF3F0
:102F40006F8FFEE7502080F31188BFF34F8FBFF3E0
:102F50006F8FFEE739B1502080F31188BFF34F8F98
:102F6000BFF36F8FFEE750241C46012384F84630E0
:102F70002B460094FFF71AFA204638BD70B50D466F
:102F8000040025D0FFF78EFCD4E90F20216802FB56
:102F90000011A1600021A163216861600A46D4E9A3
:102FA0000F01401E00FB0121E16021464FF0FF3080
:102FB00001F8440F487004F110008DB1FFF740FC98
:102FC00004F12400FFF73CFCFFF78CFC012070BDEE
:102FD000502080F31188BFF34F8FBFF36F8FFEE750
:102FE00021690029F0D000F013FC0028ECD004493E
:102FF0004FF080500860BFF34F8FBFF36F8FE3E750
:1030000004ED00E02DE9FF4782B01D468A464FF0EF
:103010000008040003D0BAF1000F08D011E05020DE
:1030200080F31188BFF34F8FBFF36F8FFEE7206CE3
:1030300038B1502080F31188BFF34F8FBFF36F8FEB
:10304000FEE7022D0AD1E06B012807D0502080F363
:103050001188BFF34F8FBFF36F8FFEE700F0CCFAFC
:103060003F4F4FF000094FF0805648B9049838B1EF
:10307000502080F31188BFF34F8FBFF36F8FFEE7AF
:10308000FFF710FCA06BE16B884207D3022D05D03F
:103090000498D0B1B8F1000F1AD01EE02A4651466C
:1030A0002046FFF7DCF8616A19B104F1240000F052
:1030B000AFFB20B13E60BFF34F8FBFF36F8FFFF7C1
:1030C00011FC012006B0BDE8F087FFF70BFC22E001
:1030D0006846FFF789FD4FF00108FFF703FCFFF793
:1030E00031FEFFF7DFFB94F94400401C01D184F866
:1030F000449094F94500401C01D184F84590FFF7B5
:10310000F1FB04A9684600F0E5F930B12046FFF76D
:103110003DFA00F0B7FB0020D4E7FFF7C3FBA06B3C
:10312000E16B884213D1FFF7DDFB04F11000049935
:10313000FFF768FD2046FFF729FA00F0A3FB0028FF
:103140009ED13E60BFF34F8FBFF36F8F98E7FFF7BD
:10315000C9FB2046FFF71AFA00F094FB90E7000045
:1031600004ED00E02DE9F0471F4690468946040033
:1031700003D0B9F1000F08D011E0502080F311887E
:10318000BFF34F8FBFF36F8FFEE7206C38B1502035
:1031900080F31188BFF34F8FBFF36F8FFEE7022FCD
:1031A0000AD1E06B012807D0502080F31188BFF3CB
:1031B0004F8FBFF36F8FFEE7FFF7ECFB5020EFF36D
:1031C000118680F31188BFF34F8FBFF36F8FA06B11
:1031D000E16B884206D3022F04D0002086F31188C9
:1031E000BDE8F08794F94550A06B3A464946204621
:1031F000FFF735F8681C04D06D1C84F84550012099
:10320000ECE7606A0028FAD004F1240000F000FB2B
:103210000028F4D0B8F1000FF1D00121C8F8001057
:10322000EDE700002DE9F747002683B08A46040049
:1032300003D0BAF1000F08D011E0502080F31188BC
:10324000BFF34F8FBFF36F8FFEE7206C38B1502074
:1032500080F31188BFF34F8FBFF36F8FFEE700F04D
:10326000CBF9DFF8F4804FF000094FF0805748B9F0
:10327000059838B1502080F31188BFF34F8FBFF30A
:103280006F8FFEE7FFF70EFBA56BC5B151462046D9
:10329000FEF7D2FF6D1EA563206950B104F1100046
:1032A00000F0B6FA28B1C8F80070BFF34F8FBFF333
:1032B0006F8FFFF717FB012006B0BDE8F087059878
:1032C00008B11EB106E0FFF70DFB27E06846FFF7E7
:1032D0008BFC0126FFF706FBFFF734FDFFF7E2FA50
:1032E00094F94400401C01D184F8449094F94500BD
:1032F000401C01D184F84590FFF7F4FA05A968460F
:1033000000F0E8F8002820460AD0FFF73FF900F067
:10331000B9FA2046FFF7DCF80028B3D00020CBE74D
:10332000FFF7D6F890B104F124000599FFF76AFC85
:103330002046FFF72BF900F0A5FA0028A2D1C8F823
:103340000070BFF34F8FBFF36F8F9BE72046FFF7EF
:103350001DF900F097FA95E704ED00E02DE9F3433D
:10336000002683B00400354609D0206C78B1502087
:1033700080F31188BFF34F8FBFF36F8FFEE75020AC
:1033800080F31188BFF34F8FBFF36F8FFEE700F01C
:1033900033F9DFF83C814FF000094FF0805748B90E
:1033A000049838B1502080F31188BFF34F8FBFF3DA
:1033B0006F8FFEE7FFF776FAA06BC8B1401EA063DF
:1033C000206810B9FFF796F9A060206950B104F1A8
:1033D000100000F01DFA28B1C8F80070BFF34F8F3D
:1033E000BFF36F8FFFF77EFA012005B0BDE8F083D1
:1033F000049808B166B10FE03DB1502080F3118808
:10340000BFF34F8FBFF36F8FFEE7FFF76BFA5DE0FF
:103410006846FFF7E9FB0126FFF764FAFFF792FC25
:10342000FFF740FA94F94400401C01D184F844901D
:1034300094F94500401C01D184F84590FFF752FAF9
:1034400004A9684600F046F80028204612D0FFF78D
:103450009DF800F017FA2046FFF73AF80028A9D0A7
:103460009DB3FFF71FFA606A50B3206B0068C0F18C
:10347000070126E0FFF72CF8E0B1206838B9FFF724
:1034800011FAA06800F07EF90546FFF72BFA04F167
:1034900024000499FFF7B6FB2046FFF777F800F009
:1034A000F1F9002886D1C8F80070BFF34F8FBFF341
:1034B0006F8F7FE72046FFF769F800F0E3F979E7BF
:1034C0000021A068FFF7B6FB9FE7FFE700208CE72D
:1034D00004ED00E02DE9F0410C46050011D0C4B127
:1034E000FFF7E0F9174BDA686E682068911B471CFC
:1034F00017D02F681B6A9F4219D0964217D8012413
:1035000010E0502080F31188BFF34F8FBFF36F8F0F
:10351000FEE7502080F31188BFF34F8FBFF36F8F0A
:10352000FEE70024FFF7DEF92046BDE8F08188427F
:1035300005D9401A20602846FFF756FBF1E7002026
:103540002060DCE7300000202DE9FF5F8346DDE9E5
:103550000E87994616468A469000FFF75DF80500EB
:103560001CD06020FFF758F8040014D00020256319
:1035700084F85D00CDE90240CDE900874B46324634
:1035800051465846FEF724FF2046FEF7EDFD012088
:1035900004B0BDE8F09F2846FFF7B8F94FF0FF30C0
:1035A000F6E7F0B585B0DDE90B640A9DA6B1DCB1A4
:1035B000602700972663022684F85D60002604AF2A
:1035C000CDE90246CDE90057FEF702FF2046FEF79F
:1035D000CBFD049805B0F0BD502080F31188BFF3F7
:1035E0004F8FBFF36F8FFEE7502080F31188BFF33A
:1035F0004F8FBFF36F8FFEE70548416919B1006B2C
:1036000018B1002070470120704702207047000069
:10361000300000200148C0687047000030000020E2
:103620002DE9F0412F4C0026206B28B1A069401CE9
:10363000A0613046BDE8F081E5686D1CE56013D1FE
:10364000E06B006838B1502080F31188BFF34F8FD2
:10365000BFF36F8FFEE7E06B216CE1632064206AAB
:10366000401C2062FEF76EFFA06ADFF87C80854276
:1036700009D3E06B0068A0B1E06BC068C7687868E8
:10368000854211D2A0622068C06A00EB800158F820
:103690002100012800D90126E0690028C9D00126AF
:1036A000C7E74FF0FF30EDE7381DFFF745F8B86A80
:1036B00018B107F11800FFF73FF8F96A01202269F5
:1036C00088401043206101EB810108EB8100391D26
:1036D000FFF7DCF8F86A2168C96A8842C9D3012675
:1036E000C7E7000030000020E007002070B50400AC
:1036F0004FF0000140D0214D2868844207D050206F
:1037000080F31188BFF34F8FBFF36F8FFEE7206DFB
:1037100038B1401E2065E36CE26A9A422CD040B179
:103720002AE0502080F31188BFF34F8FBFF36F8FD3
:10373000FEE7201DFFF700F8114A012150B9E06AA9
:1037400000EB800352F8233023B92B6901FA00F013
:1037500083432B61E06CE062C0F10700A061E06A86
:103760002B6981401943296100EB800002EB800046
:10377000211DFFF78BF80121084670BD30000020A5
:10378000E007002070B504004FF0000034D01E4D5B
:10379000E16A2A68D26A91422FD2A069002804DB2C
:1037A0002868C06AC0F10700A061184E01EB8101D2
:1037B000606906EB810188421AD1201DFEF7BCFF2B
:1037C000012130B994F82C002A6901FA00F08243F3
:1037D0002A612868C06AE0622A6981401143296130
:1037E00000EB800006EB8000211DFFF74FF802E0A0
:1037F0002868C06AE062012070BDE16C2A68D26A64
:103800009142F8D370BD000030000020E007002096
:103810002DE9F041C068C468ACB104F11800074656
:10382000FEF78AFF154D286B0126A0B139461448D2
:10383000FFF72CF8E06A2968C96A88421CD9012080
:10384000EE61BDE8F081502080F31188BFF34F8F07
:10385000BFF36F8FFEE7201DFEF76EFFE16A2A6956
:1038600006FA01F01043286101EB81000449B439E4
:1038700001EB8000211DDBE70020E2E730000020A3
:10388000940800202DE9F0472C4D00242746286B92
:1038900038B1FFF707F8286B401E2863286B40B14A
:1038A00046E0502080F31188BFF34F8FBFF36F8F36
:1038B000FEE7A968224E0120D1B3A6F1B4098046E3
:1038C0003068E8B1F068C46804F11800FEF734FF0E
:1038D000201DFEF731FFE06A2A6908FA00F1114362
:1038E000296100EB800109EB8100211DFEF7CEFF6D
:1038F000E06A2968C96A8842E2D3C5F81C80DFE71C
:103900000CB1FEF71FFEAC6944B14646FFF788FED6
:1039100000B1EE61641EF9D10020A861E86938B1F8
:103920000849012738070860BFF34F8FBFF36F8F37
:10393000FEF7D8FF3846BDE8F087000030000020D1
:103940009408002004ED00E01400000001000000D5
:103950000000000000000000EC390008F91B00081E
:10396000FEFF00000000000080000000A80400200E
:10397000A8060020E0390008151600080000000025
:1039800000000000800000000000000000000000B7
:10399000043A00086515000800000000000000005F
:1039A000800000000000000000000000F83900085E
:1039B000FD030008FEFF0000000000008000000082
:1039C00000000000000000000000000000000000F7
:1039D00001020304060708090000000001020304B5
:1039E0004C6564305461736B000000005573617264
:1039F000745461736B00000044656C6179546173A9
:103A00006B0000004B65795461736B002C3A000821
:103A100000000020A40000006C1D0008D03A00083F
:103A2000A40000202C4800007C1D000800000000BD
:103A30000000000000000000000000000000000086
:103A40000000000000000000000000000100000075
:103A500010000000000000000024F400000000003E
:103A60000000000000000000000000000000000056
:103A70000000000000000000000000000000000046
:103A80000000000000000000000000000000000036
:103A90000000000000000000000000000000000026
:103AA0000000000000000000000000000000000016
:103AB0000000000000000000000000000000000006
:103AC00000000000AAAAAAAA00000000000000004E
:040000050800018965
:00000001FF
