:020000040800F2
:10000000204A00205D0200089B100008D50F000860
:1000100099100008B9030008E5130008000000006B
:100020000000000000000000000000009D0100082A
:10003000BB03000800000000F901000821110008BE
:1000400077020008770200087702000877020008AC
:10005000770200087702000877020008770200089C
:10006000770200087702000877020008770200088C
:10007000770200087702000877020008770200087C
:10008000770200087702000877020008770200086C
:10009000770200087702000877020008770200085C
:1000A00077020008F51100087702000877020008BF
:1000B000770200087702000877020008770200083C
:1000C000770200087702000877020008770200082C
:1000D000770200087702000877020008770200081C
:1000E000770200087702000877020008770200080C
:1000F00077020008770200087702000877020008FC
:1001000077020008770200087702000877020008EB
:1001100077020008770200087702000877020008DB
:1001200077020008770200087702000877020008CB
:1001300077020008770200087702000877020008BB
:1001400077020008770200087702000877020008AB
:10015000770200087702000877020008770200089B
:10016000770200087702000877020008770200088B
:1001700077020008770200087702000800000000FC
:100180007702000877020008DFF80CD000F002F9CF
:1001900000480047E1150008204A00202C4B196850
:1001A0000868B0E8F04F80F30988BFF36F8F4FF015
:1001B000000080F3118870470000000008480068C4
:1001C000006880F308884FF0000080F3148862B65E
:1001D00061B6BFF34F8FBFF36F8F00DF00BF00BF6B
:1001E00008ED00E0DFF80C00016841F470010160E7
:1001F000704700BF88ED00E0EFF30980BFF36F8F19
:10020000134B1A681EF0100F08BF20ED108A20E96A
:10021000F04F106009B44FF0500080F31188BFF325
:100220004F8FBFF36F8F02F017F94FF0000080F38C
:10023000118809BC19680868B0E8F04F1EF0100F6B
:1002400008BFB0EC108A80F30988BFF36F8F704746
:1002500018000020EFF30580704700000648804733
:1002600006480047FEE7FEE7FEE7FEE7FEE7FEE79B
:10027000FEE7FEE7FEE7FEE7E5110008890100085A
:100280002DE9F05F0546002092469B4688460646CB
:10029000814640241BE0284641464746224600F05E
:1002A00069F853465A46C01A914110D31146184670
:1002B000224600F050F82D1A67EB01084F462246FF
:1002C0000120002100F047F817EB00094E41201EE5
:1002D000A4F10104DFDC484631462A464346BDE826
:1002E000F09F40EA01039B0703D009E008C9121FF1
:1002F00008C0042AFAD203E011F8013B00F8013BE0
:10030000521EF9D27047D2B201E000F8012B491E0B
:10031000FBD270470022F6E710B513460A460446A2
:100320001946FFF7F0FF204610BD30B50B460146D9
:1003300000202022012409E021FA02F59D4205D384
:1003400003FA02F5491B04FA02F52844151EA2F12E
:100350000102F1DC30BD202A04DB203A00FA02F170
:10036000002070479140C2F1200320FA03F31943A3
:1003700090407047202A04DB203A21FA02F0002145
:10038000704721FA02F3D040C2F1200291400843A5
:1003900019467047064C074D06E0E06840F001033F
:1003A00094E8070098471034AC42F6D3FFF7F0FE0C
:1003B0000C2F00082C2F0008FEE7704772B6FEE7EE
:1003C0002DE9F84FDFF8BCA10022012503264FF0EC
:1003D0000F090AF1040BAAF1040E00BF0B6805FA1D
:1003E00002F42340A34270D10F7907F00307012FD5
:1003F00001D0022F16D187684FEA420806FA08FC9E
:1004000027EA0C07D1F80CC00CFA08FC4CEA070CE0
:10041000C0F808C04768A7430C79C4F3001494409F
:100420003C4344600C79E443A4070AD0C4684FEA13
:10043000420C06FA0CF7BC438F6807FA0CF7274307
:10044000C7600C7904F00304022C12D1D40800EB2D
:10045000840CDCF820405707FF0E09FA07F824EA5D
:100460000804D1F8108008FA07F848EA0408CCF824
:10047000208004684FEA420C06FA0CF7BC430F795F
:1004800007F0030707FA0CF7274307604C6814F4DA
:10049000403F70D03C4C276847F480472760246871
:1004A00022F0030704F480440094384C07EB040C5A
:1004B000DCF8084897074FEA177809FA08F7BC43B1
:1004C000334FB84202D1002724E054E0314FB84204
:1004D00001D101271EE0304FB84201D1022719E0B7
:1004E0002E4FB84201D1032714E02D4FB84201D15D
:1004F00004270FE02B4FB84201D105270AE02A4F0D
:10050000B84201D1062705E0284FB84201D107279C
:1005100000E0082707FA08F72743CCF80878DAF84C
:1005200000405746D1F804C09C435FEACC2C00D56C
:100530001C433C60DBF800405F46D1F804C09C439C
:100540005FEA8C2C00D51C433C60DEF80040774607
:10055000D1F804C09C435FEA8C3C00D51C433C604E
:10056000084F083F3C68D1F804C09C435FEACC3C8C
:1005700000D51C433C60521C102AFFF42FAFBDE88D
:10058000F88F0000083C0140443802400030014030
:10059000000002400004024000080240000C02403B
:1005A000001002400014024000180240001C0240EB
:1005B00001488068704700000800002002488168F8
:1005C0000278114481607047080000200B4810B584
:1005D000016841F400710160016841F480610160CB
:1005E000016841F480710160032000F099F80F2048
:1005F00000F006F800F04AF8002010BD003C024070
:1006000030B505461C4887B00024016841F001015F
:100610000160006806A900F00100009001A800F048
:100620002BF900F059F915494000B0FBF1F11548DC
:10063000134A491E026040F2E732C0E90324C0E9D0
:100640000114846100F04AFB040012D10D4800F04F
:1006500073FB04000DD1192000F034F8102D07D2DF
:1006600000222946192000F03BF80748056000E009
:10067000012407B0204630BD4438024040420F00FC
:1006800000000140940700200C0000200C4882B0BC
:10069000016841F480410160006800F480400090EE
:1006A0000748001F016841F0805101600068002286
:1006B00000F0805000900F21901E02B000F010B8A2
:1006C00044380240002809DB00F01F02012191405C
:1006D0004009800000F1E020C0F8001170470000E0
:1006E000F0B40E4B1B680C46C3F30223C3F107059D
:1006F000042D00D90425191D072901D2002300E08B
:10070000DB1E012606FA05F1491E214099409E4054
:10071000761E16403143F0BC00F076BE0CED00E0D2
:10072000064900F0070208684FF6FF03184040EA48
:100730000220034A10430860704700000CED00E0FF
:100740000000FA052DE9F0470E46050065D0DFF8F8
:100750001481D8F80000F7B200F00700B04207D2C9
:1007600088F80070D8F8000000F00700B04254D1BB
:1007700028683D4C810712D5400703D5206840F416
:10078000E05020602878000703D5206840F46040DE
:1007900020602068A96820F0F000084320602878D5
:1007A000C0072DD0304968680839012812D00228C6
:1007B00013D0032811D00968890700292DDA216890
:1007C00021F0030101432160FFF7F2FE814641F26F
:1007D000883A0EE009688903EFE709688901ECE7C8
:1007E000FFF7E6FEA0EB0901514502D90320BDE861
:1007F000F0872068696800F00C00B0EB810FEFD142
:10080000D8F80010404601F00701B14207D907703F
:10081000006800F00700B04201D00120E7E7287827
:10082000400705D52068E96820F4E05008432060BF
:100830002878000706D52068296920F4604040EA3E
:10084000C100206000F058F82168084AC1F3031184
:10085000515CC8400649086006480068FFF7D0FEB2
:100860000020C4E7003C024008380240E02E0008A7
:10087000140000200C0000200F2202600C4A1368B4
:1008800003F003034360136803F0F003836013680D
:1008900003F4E053C36012684FF4E05303EAD2025A
:1008A00002610448006800F007000860704700001B
:1008B00008380240003C02400448054900680968C5
:1008C000044AC1F38221515CC840704714000020E3
:1008D00008380240F02E00080448054900680968FD
:1008E000044AC1F34231515CC840704714000020F3
:1008F00008380240F02E0008154810B5006810F0C6
:100900000C02144813D04110042A0FD0082A0ED12B
:100910000F4C241F2268236802F03F025B0207D5B8
:100920002068C0F38810A0FB010106E0084610BD56
:100930002168C1F38811A1FB00010023FFF7A0FC8F
:100940002168C1F30141491C4900B0FBF1F010BD21
:10095000083802400024F4002DE9F84F04006ED05E
:100960002078DFF84C93C007A9F104054AD009F1BB
:1009700004000168C1F38101012908D00068C0F3B7
:10098000810002280AD1D9F80000400206D5286863
:10099000800337D560680028E1D033E06068B0F5A7
:1009A000803F10D0B0F5A02F286810D020F4803000
:1009B0002860286820F4802028606068A8B1FFF7CC
:1009C000F7FD06460DE0286840F48030F4E740F477
:1009D00080202860F7E700BFFFF7EAFD801B64284E
:1009E00073D828688003F7D50CE0FFF7E1FD0646D1
:1009F00005E000BFFFF7DCFD801B6428F0D8286805
:100A00008003F7D42078DFF8AC8280074FF0000A2B
:100A10003ED5A748001D016811F00C0F08D00068F2
:100A2000C0F3810002280BD1D9F80000400207D49E
:100A30002868800716D5E068012800D112E033E16C
:100A4000E068B8B10120C8F80000FFF7B1FD064624
:100A500005E000BFFFF7ACFD801B0228C0D8286866
:100A60008007F7D52868216920F0F80040EAC10026
:100A700028600DE0C8F800A0FFF79AFD064604E0E4
:100A8000FFF796FD801B02281FD828688007F7D43F
:100A90002078000722D5864F87486169703771B189
:100AA00001210160FFF784FD064604E0FFF780FDA9
:100AB000801B022809D838688007F7D50EE0C0F8F7
:100AC00000A0FFF775FD064605E082E0FFF770FD28
:100AD000801B02287DD838688007F7D4207840072B
:100AE00068D5DFF8CCB100270BF13C0BDBF8000038
:100AF000C0000BD4DBF8001041F08051CBF800109F
:100B0000DBF80000012700F0805000906B4E306849
:100B1000C00510D4306840F480703060FFF748FDA5
:100B2000009005E0FFF744FD0099401A022850D8D4
:100B30003068C005F6D55E4EA0686C3601280FD02F
:100B40000528306810D020F001003060306820F0B7
:100B500004003060A068B8B1FFF72AFD00900FE0F4
:100B6000306840F00100F4E740F004003060F7E73F
:100B7000FFF71EFD0099411A41F28830814266D884
:100B800030688007F4D50EE0FFF712FD009007E013
:100B9000FFF70EFD0099411A41F28830814256D884
:100BA00030688007F4D42FB1DBF8001021F08051B9
:100BB000CBF80010A069C8B33D49091D0968C1F30D
:100BC000810102294AD00228504607D0C8F86000A7
:100BD00000E03CE0FFF7ECFC04463BE04746C8F889
:100BE0006000FFF7E5FC064605E000BFFFF7E0FC0C
:100BF000801B02282BD828688001F7D4D4E907018C
:100C00000843A16A2E4A490802EB0141626A41EA9F
:100C10008211084394F82C1040EA0161C9F80010D1
:100C200001203866FFF7C4FC044606E03EE000BF42
:100C3000FFF7BEFC001B022809D828688001F7D501
:100C400034E000BFFFF7B4FC001B022802D90320E8
:100C5000BDE8F88F28688001F4D427E00128F7D098
:100C6000D9F80000E26900F4800191421CD1226AA7
:100C700000F03F01914217D147F6C071626A01400E
:100C8000B1EB821F10D1A26A4FF0FF3300F4403164
:100C900003EB5202B1EB024F06D194F82C1000F096
:100CA0007060B0EB016F01D00120D1E70020CFE7E9
:100CB0000438024000004742800E47420070004066
:100CC0000000FFFF03480068C16821F00101C16016
:100CD00070470000940700207047704710B504006B
:100CE00003D094F83D0010B107E0012010BD0020B2
:100CF00084F83C00204600F01EF8022084F83D00F5
:100D0000211D206800F07CFA012084F8460084F858
:100D10003E0084F83F0084F8400084F8410084F8E5
:100D2000420084F8430084F8440084F8450084F8C5
:100D30003D00002010BD704790F83D10012901D002
:100D400001207047022180F83D100168CA6842F016
:100D50000102CA6000681149884214D0B0F1804F86
:100D600011D00F4988420ED00E4988420BD00E494F
:100D7000884208D00D49884205D00D49884202D0EA
:100D80000C49884204D1816801F00701062903D08B
:100D9000016841F00101016000207047000001403E
:100DA0000004004000080040000C00400004014026
:100DB000004001400018004070472DE9F041044612
:100DC0000068C66805694FF00007A90713D5B10789
:100DD00011D5F91E01610120207720688069800704
:100DE000204602D0FFF7E8FF04E000F07EF820463E
:100DF00000F07CF82777680716D5700714D52168AE
:100E00006FF004000861022020772068806910F4E8
:100E1000407F204602D0FFF7CFFF04E000F065F8E6
:100E2000204600F063F82777280715D5300713D53B
:100E300021686FF008000861042020772068C069ED
:100E40008007204602D0FFF7B7FF04E000F04DF81E
:100E5000204600F04BF82777E80616D5F00614D5A3
:100E600021686FF010000861082020772068C069B1
:100E700010F4407F204602D0FFF79EFF04E000F010
:100E800034F8204600F032F82777E80708D0F0075A
:100E900006D021686FF001000861204600F028F8B4
:100EA000280608D5300606D521686FF08000086155
:100EB0002046FFF711FF680608D5700606D52168A1
:100EC0006FF040000861204600F01CF8A8060AD523
:100ED000B00608D521686FF0200008612046BDE803
:100EE000F041FFF7FABEBDE8F0817047704700009F
:100EF00000680349884201D1FFF760BB70470000DA
:100F000000000140704770B5040004D094F841001F
:100F1000002510B106E0012070BD84F84050204645
:100F200000F024F8242084F841002068C16821F4EE
:100F30000051C160204600F0CFF92068016921F41A
:100F4000904101612068416921F02A0141612068D6
:100F5000C16841F40051C1606564202084F84100FB
:100F600084F842006563002070BD000010B586B0B3
:100F7000044614216846FFF7CDF9134920688842DA
:100F800020D112480021026842F01002026000687D
:100F900000F0100005900D481438026842F002027B
:100FA0000260006800F002000590C020009002205E
:100FB000CDE901010320039007200490694604480D
:100FC000FFF7FEF906B010BD0010014044380240A2
:100FD00000040240FEE70A2000F015FBFBE71420A6
:100FE00000F011FBFBE7000010B58EB01C220B498E
:100FF0006846FFF776F90021684600F010FB084CC0
:1010000006491C2220601C3107A8FFF76AF900215D
:1010100007A800F004FB60600EB010BDA82E000809
:10102000000000200D4808B5016841F08001016012
:10103000016801F080010091016841F00101016047
:10104000016801F001010091016841F002010160B5
:10105000006800F00200009008BD00003038024037
:101060000C4810B50A4901604FF4E131416000219C
:1010700081600C22C160C0E904128161C161FFF787
:1010800042FF002803D0BDE81040FFF797B910BD1C
:10109000001001404C070020FEE7FEE7014601A0DA
:1010A00000F0A2B9416C726561647920656E746567
:1010B0007220736C656570206D6F64652120756C9E
:1010C000457870656374656449646C6554696D65E1
:1010D000203D2025750A000010B5014603A000F050
:1010E00083F9BDE81040FFF7EDBD00004265666F73
:1010F000726520656E74657220736C656570206D15
:101100006F64652120756C4578706563746564490A
:10111000646C6554696D65203D2025750A000000EA
:1011200010B5502080F31188BFF34F8FBFF36F8F3E
:1011300001F004FD18B104494FF080500860002010
:1011400080F3118810BD000004ED00E030B593B0CD
:1011500030216846FFF7DEF814210CA8FFF7DAF813
:101160001E480025016841F080510160006800F0D0
:10117000805011901A48016841F480410160006874
:10118000022400F48040119001200090000401909E
:101190008001CDE90640082008904FF4A870CDE901
:1011A000090404200B906846FFF7D6FB08B172B61D
:1011B000FEE70CA90F2081E831004FF4A0500F90FA
:1011C0004FF48050109005210CA8FFF7BBFA0028BF
:1011D00001D072B6FEE713B030BD000040380240C7
:1011E000007000400248016841F4700101607047DE
:1011F00088ED00E00148FFF7E0BD00009407002003
:10120000F0B50268294C2A4D2A4E2B4F2B4B4FF03C
:10121000804CA04209D0604507D0A84205D0B0421A
:1012200003D0B84201D0984204D122F0700E4A682F
:1012300042EA0E02A0421BD0604519D0A84217D046
:10124000B04215D0B84213D0984211D01C4DA842DC
:101250000ED01C4DA8420BD01B4DA84208D01B4DF0
:10126000A84205D01A4DA84202D01A4DA84203D177
:1012700022F44075CA682A434D6922F080022A434D
:1012800002608A68C2620A688262A04201D0984203
:1012900001D109690163012141610169C90703D0D5
:1012A000016921F001010161F0BD00000000014071
:1012B0000004004000080040000C00400004014011
:1012C0000040014000440140004801400018004037
:1012D000001C00400020004070B504460068016911
:1012E000E26821F44051114301612169A068E2697B
:1012F00008436169114308432168CA6849F20C63D5
:101300009A430243CA6020684169A26921F440718E
:101310001143416131492068884202D030498842F6
:1013200002D1FFF7D9FA01E0FFF7C6FAE26900231C
:10133000192164253226B2F5004F626828D0A0FB3F
:101340000101930F9200FEF79BFF0146B0FBF5F001
:101350006FF01802504301EB800006EB0010B0FB69
:10136000F5F000F0F002B1FBF5F002EB0012B1FB7A
:10137000F5F06FF01803584301EB800006EB001006
:10138000B0FBF5F000F00F0021681044886070BDDC
:10139000A0FB010192185B41FEF772FF0146B0FB12
:1013A000F5F00201B1FBF5F06FF01803584301EBC3
:1013B000800006EBC000B0FBF5F000F0F80002EB97
:1013C0004002B1FBF5F0584301EB800006EBC00092
:1013D000B0FBF5F000F00700D6E700000010014078
:1013E00000140140FEE700000FB4054B10B503A93F
:1013F000044A029800F028F810BC5DF814FB0000C5
:10140000CD150008A00000200907090E002804DB04
:1014100000F1E02080F80014704700F00F0000F1A8
:10142000E02080F8141D704702E008C8121F08C1B0
:10143000002AFAD170477047002001E001C1121F55
:10144000002AFBD1704700002DE9FF4F89B09B4671
:101450000446002506E025280BD05A460B999047F4
:10146000641C6D1C20780028F5D10DB02846BDE81D
:10147000F08F0027B8460122474900E0074314F8DF
:10148000013F203B02FA03F00842F7D120782E28D2
:1014900019D114F8010F47F004072A280ED06FF075
:1014A0002F022078A0F1300109290CD808EB88011F
:1014B00002EB410100EB0108641CF2E70A98641C8E
:1014C00050F8048B0A9020780028CED0642808D0E9
:1014D000692806D075281ED05A460B9990476D1C76
:1014E00058E00A994FF00A0901C90A91002802DA66
:1014F00040422D2102E0390504D52B218DF8201022
:10150000012103E0F90704D02021F7E78A4608AE5D
:101510000DE00021FAE70A994FF00A0901C90A9182
:10152000F7E74946FEF701FF303106F8011D0028B4
:10153000F7D1ADEB060000F12009780701D44FF098
:101540000108C84502DDA8EB090000E00020804644
:10155000002706E008A85A46C05D0B9990476D1C0D
:101560007F1C5745F6DB04E030205A460B99904724
:101570006D1CB8F10001A8F10108F5DC05E016F8D2
:10158000010B5A460B9990476D1CB9F10001A9F166
:101590000109F4DC641C65E7092801000949012000
:1015A000096809B1002070470749CA69002AF9D1C2
:1015B000044A283212688968491E8A42F3D10220FF
:1015C00070470000D00800201800002003490A6876
:1015D0005206FCD5C2B24A607047000000100140BC
:1015E000FEF7F4FFFFF7B2FDFFF71CFDFFF738FD34
:1015F000FFF7FAFC00F00EF8FEE701460020842910
:1016000000D0C81C704710B500B9012000F05CFE86
:10161000002010BD10B500F0BFFE002010BD7FB54A
:101620000D4604464169B0F9080081B1A16971B164
:10163000FFF7E3FFD4E905128DE80700D4E90010B5
:101640002B46226901F03BFA039004B070BDFFF70E
:10165000D4FF03A9CDE90001208A2B4682B2D4E948
:10166000001001F0FFF9012801D00020EDE70398F8
:10167000EBE700002DE9F041184C0F460546E668FF
:101680002068001D00F06EFC38B9206890F82C101E
:1016900001208840216981432161681C07D137B14D
:1016A0002168BDE8F0410E48091D00F0ABBC206880
:1016B0003544B5424560216805D2A06BBDE8F041D4
:1016C000091D00F087BC606B091D00F083FCA06A57
:1016D000854200D2A562BDE8F0810000180000201C
:1016E000F80800202DE9F041054600F097FC2E4C4B
:1016F000A068401CA06020682C4F10B1606940B306
:101700002DE02560A068012829D1002606EB86007F
:1017100007EB800000F050FC761C072EF6D3234820
:101720008C3000F049FC2148A03000F045FC1F48F7
:10173000B43000F041FC1D48C83000F03DFC1B48AF
:10174000DC3000F039FC19488C3060631430A06341
:1017500005E02068E96AC06A884200D82560606AAE
:10176000401C6062E96A01202269884010432061C0
:1017700001EB810007EB8000291D00F043FC00F025
:101780006DFC606900280CD02068E96AC06A884254
:1017900007D207494FF080500860BFF34F8FBFF367
:1017A0006F8FBDE8F0810000180000201C080020A9
:1017B00004ED00E038B500F031FC104C2068C8B9E9
:1017C0000F4800F0F9FB0E48143000F0F5FB0C4810
:1017D000E060143020610A4B0020E83B009003F1E8
:1017E000480210210A2000F0DFFE206010B105A1A0
:1017F00000F034FDBDE8384000F030BC540000205B
:10180000F4090020546D72510000000030B4026CE5
:101810000B46002A0BD0C1681144C1608468A14204
:1018200001D30168C16030BC1846FEF75ABD30BC18
:1018300070472DE9F041856B174604460026026C7F
:1018400082B1C7B1E068FEF74CFDE168206C091A6F
:10185000E1602268914202D2A168081AE060022F7A
:1018600016D017E02068A8B9A06801F0CDF90646A7
:101870000020A0600EE06068FEF733FD216C606818
:1018800008446060A168884204D32068606001E079
:1018900005B16D1E6D1CA5633046BDE8F08110B525
:1018A000044690F8510058B101280CD002280FD0FE
:1018B000502080F31188BFF34F8FBFF36F8FFEE787
:1018C000206B00F0DFFB2046BDE8104000F0DABBE3
:1018D00010BD00000A4800210269012A00D9012137
:1018E0000268D26A0AB100207047064A1268012ACB
:1018F000F9D80029F7D1816AC068081A704700003A
:10190000180000201C08002010484FF470514207B6
:1019100006D0C01D0D4920F00700411AC1F57051D5
:101920000B4A00230144C2E900030839183A21F0A8
:10193000070111604B600B600B1AC0E90013936044
:101940004FF0004053605061704700001C0A0020B7
:1019500080000020204C214E12E000BF00F05EFB12
:10196000F068C568281D00F0FDFAA068401EA06060
:101970006068401E606000F071FB2846FFF78FFF33
:1019800060680028EAD11548C8380068012807D9DE
:1019900013494FF080500860BFF34F8FBFF36F8F34
:1019A000FFF798FF0228D6D300F04EFDA06AE16849
:1019B000884207D2502080F31188BFF34F8FBFF3C6
:1019C0006F8FFEE7FFF786FF022801D300F0B0FB20
:1019D00001F0A4F9BFE7000018000020E40800208F
:1019E00004ED00E00346009829B10260C0E90F3120
:1019F000012100F00DBE0060F8E72DE9F0479A469E
:101A0000DDE9098481466FF00303206B03EB82025A
:101A10001044089E20F00707780707D0502080F375
:101A20001188BFF34F8FBFF36F8FFEE7002561B1C1
:101A3000002023180A5C83F834200A5C12B1401C91
:101A40001028F6D384F8435001E084F83450072E70
:101A500000D30626E662C4E91165201D00F0B7FA3E
:101A600004F1180000F0B3FA2461C6F107006462C3
:101A7000A061E56484F8505052464946384600F06B
:101A80005BFA2060B8F1000F01D0C8F80040BDE853
:101A9000F087000030B5114900E011460A68824223
:101AA000FBD34B685C18844203D1406818444860FB
:101AB000084643681C18944209D1084C183C246815
:101AC000A24209D052681A4442600A681268026051
:101AD000814200D0086030BD0460F9E7800000203A
:101AE00070B5002441600B4D0061914206D8D11AB7
:101AF0008269914206D2011D286907E09A4203D209
:101B0000994201D3012403E0011DE86800F062FA64
:101B1000204670BD5400002010B5044600F07EFA47
:101B2000A06B28B15FF0000400F098FA204610BDC9
:101B30000124F9E730B589B03C4D6EE004980028E7
:101B400006DADDE90601059A90470498002864DB6F
:101B5000069C606910B1201D00F004FA03A800F093
:101B6000D7F8024604980A2857D2DFE800F00505A6
:101B7000052D334A05052D3394F8240040F001006B
:101B800084F824000599A069059B01442046FFF7CD
:101B9000A7FF68B3216A2046884794F824004007CD
:101BA0003BD5002000900598A169002342181946F2
:101BB000204601F045F9D8B9502080F31188BFF3D1
:101BC0004F8FBFF36F8FFEE714F8240F20F0010052
:101BD000207022E094F8240040F0010084F82400F2
:101BE0000598A06128B1811813462046FFF778FFB9
:101BF00013E0502080F31188BFF34F8FBFF36F8F36
:101C0000FEE794F82400810703D4204600F03AFA56
:101C100003E020F0010084F82400002204A92868D1
:101C200000F04AFE002889D109B030BD54000020E0
:101C30002DE9FC410F46054600F006FC01A800F026
:101C400067F80446019818B101F068F8BDE8FC8116
:101C5000254EAFB130690068D0B30027291B3A4642
:101C6000306800F00FFB01F059F80028EED11F4951
:101C70004FF080500860BFF34F8FBFF36F8FE5E7E1
:101C8000A542EBD801F04AF8F0682746C068C4685E
:101C9000201D00F067F994F82400410719D5A069C8
:101CA0002B4641193A462046FFF71AFFA8B10020FB
:101CB0000346014600902A46204601F0C1F860B96B
:101CC000502080F31188BFF34F8FBFF36F8FFEE773
:101CD00007E020F0010084F82400216A20468847AC
:101CE000B4E70127BAE700005400002004ED00E04B
:101CF0000648416B096829B1416BC968C9684968E0
:101D0000816270474FF0FF31FAE7000018000020B1
:101D100070B5054600F00CFF064E0446B0688442DC
:101D200003D200F009F8012000E0002028602046DE
:101D3000B46070BD54000020F8B5194D20E0C068B3
:101D4000C4680668201D00F00DF9216A2046884706
:101D500094F82400400713D5A0693044B04206D956
:101D600024616060211DE86800F034F908E000207B
:101D70000346014600903246204601F061F838B132
:101D8000E86801680029DAD12969C5E90310F8BDBE
:101D9000502080F31188BFF34F8FBFF36F8FFEE7A2
:101DA0005400002008484068401C4FF0500080F369
:101DB000118804D0BFF34F8FBFF36F8FFEE7BFF3DF
:101DC0004F8FBFF36F8FFEE788000020074CE0685D
:101DD000016841B1C0680021D0F80000FFF728FF7A
:101DE000FFF7A8FEF3E701210020F7E754000020E9
:101DF0002DE9F041044600F011F994F9455004F141
:101E0000240609E0606A48B1304600F049FF08B195
:101E100000F088FA6D1E6DB2002DF3DC4FF0FF3636
:101E200084F8456000F01AF900F0F8F894F944508D
:101E300004F1100709E0206948B1384600F030FF8E
:101E400008B100F06FFA6D1E6DB2002DF3DC84F85E
:101E50004460BDE8F04100F001B900002DE9F04117
:101E60000546002700F0F0FA324E306808B9FFF757
:101E70004BFD706905424ED1C5B3083568070ED0D9
:101E800005F00700C0F108000544680707D050209E
:101E900080F31188BFF34F8FBFF36F8FFEE72DB331
:101EA0007068854237D82348183001460C6801E035
:101EB00020460C466168A94202D221680029F7D168
:101EC00031688C4227D00768216801606068083754
:101ED000411B10290FD96019420708D0502080F308
:101EE0001188BFF34F8FBFF36F8FFEE713E04160A0
:101EF0006560FFF7CFFD61687068401A7060B26876
:101F0000904200D2B060706901430020C4E9000132
:101F1000F068401CF06000F001FF780707D0502007
:101F200080F31188BFF34F8FBFF36F8FFEE7384602
:101F3000BDE8F0816800002010B5031F4FF08074E9
:101F40001C601B1F21F001011960191F044B0B605D
:101F500014390A60091F6FF0020244380A6010BD8C
:101F6000A51D0008D0E9013201699A60D0E901237A
:101F70005A604A68824201D182684A600022026146
:101F80000868401E0860086870470000034B036043
:101F900003F154000860802010607047A400002006
:101FA000044B036003F1540008604FF4807010602C
:101FB00070470000F802002000F108014FF0FF32E6
:101FC000C0E90112C1600161002101607047002178
:101FD0000161704730B50B685A1C02D000F108024D
:101FE00002E0026904E02246546825689D42FAD95D
:101FF00053684B6099608A60516008610168491CB0
:10200000016030BD42684A6093688B609368596094
:10201000916008610168491C01607047502080F39D
:102020001188BFF34F8FBFF36F8F0A494868401C78
:10203000486001280CD10848006810F0FF0F07D055
:10204000502080F31188BFF34F8FBFF36F8FFEE7EF
:10205000704700008800002004ED00E0084948684F
:1020600028B1401E486001D180F31188704750208C
:1020700080F31188BFF34F8FBFF36F8FFEE700002F
:102080008800002070B500282AD0164DA0F1080461
:1020900060686969084207D1502080F31188BFF356
:1020A0004F8FBFF36F8FFEE722683AB1502080F365
:1020B0001188BFF34F8FBFF36F8FFEE788436060D7
:1020C00000F0C2F960686968084468602046FFF75C
:1020D000E1FC2869401C2861BDE8704000F01EBE8C
:1020E00070BD0000680000200F4810B501684FF473
:1020F0007A72B1FBF2F30D486FF07F448360B4FB5A
:10210000F3F3C360B1FBF1F32D24B4FBF3F30361EC
:102110004FF0E020002303618361B1FBF2F1491E1F
:1021200041610721016110BD1400002088000020DA
:102130002DE9F041334E0546F068854200D9054649
:102140004FF0E024206920F001002061A169B2680D
:10215000681E02FB00173069874200D93F1A72B629
:10216000BFF34F8FBFF36F8FFFF718FA58B3676154
:102170004FF000084046C4F81880216941F0010181
:102180002161FEF7A9FF2846FEF788FF62B6BFF37C
:102190004F8FBFF36F8F72B6BFF34F8FBFF36F8F49
:1021A000062020612069C00314D5A069B168381ADF
:1021B000081A3269401E904201D3884200D9481E55
:1021C0006061681E10E0A0696061206940F0010054
:1021D000206111E0B168A0694D432A1AB2FBF1F009
:1021E000431C4B43991A6161C4F81880216941F07E
:1021F0000101216100F014F9B068401E606162B60F
:10220000BDE8F0818800002010B5FEF723F81149E1
:1022100010280ED300F1E02090F8F0030A789042E5
:1022200007D2502080F31188BFF34F8FBFF36F8F19
:10223000FEE709480068496900F4E060884207D970
:10224000502080F31188BFF34F8FBFF36F8FFEE7ED
:1022500010BD0000880000200CED00E010B5084B18
:10226000002200BF53F832401CB1521C082AF9D397
:1022700010BD43F8321003EBC201486010BD0000EE
:10228000DC07002070B515460E460446FFF7C6FE73
:1022900094F944100020491C01D184F8440094F9B9
:1022A0004510491C01D184F84500FFF7D7FEA06B0B
:1022B00028B92A46314604F1240000F051F820469E
:1022C000BDE87040FFF794BD10B5020014D00F4870
:1022D000006B38B1502080F31188BFF34F8FBFF3EC
:1022E0006F8FFEE700F0B0F800211046FFF7C2F94B
:1022F00000F014FD002807D105494FF08050086018
:10230000BFF34F8FBFF36F8F10BD00001800002088
:1023100004ED00E002490A6A0260C9684160704742
:102320001800002001490120C861704718000020F2
:1023300010B50C4650B1094909681831FFF74AFE3B
:102340002046BDE810400121FFF794B9502080F3EA
:102350001188BFF34F8FBFF36F8FFEE71800002087
:1023600070B514460D4668B10A4909681831FFF77F
:1023700049FE0CB14FF0FF3521462846BDE87040BC
:10238000FFF778B9502080F31188BFF34F8FBFF368
:102390006F8FFEE71800002030B587B0002403944B
:1023A00005AA04A903A80494FFF7F0FDDDE90301E1
:1023B0000094CDE90110002315A11748059A00F0FB
:1023C0007EFB164D0028E8621FD000F009FD0128B1
:1023D00009D0401C19D1502080F31188BFF34F8FD2
:1023E000BFF36F8FFEE7502080F31188BFF34F8F4C
:1023F000BFF36F8F4FF0FF30A86201206861EC607F
:1024000007B0BDE8304000F055B807B030BD00005F
:1024100049444C45000000005519000818000020F0
:102420000849CA688B6A02449A4207D9502080F34F
:102430001188BFF34F8FBFF36F8FFEE7CA68104458
:10244000C8607047180000200248016B491C0163F6
:1024500070470000180000201448016B11B10121E1
:10246000C16170470021C1610169B1FA81F1C1F117
:102470001F0101EB81020E4951F822306BB101EBD3
:10248000820101F108034A6852684A609A4201D108
:1024900052684A60D16801607047502080F311880B
:1024A000BFF34F8FBFF36F8FFEE7000018000020CF
:1024B0001C0800201CB537480168374A914207D1F3
:1024C000502080F31188BFF34F8FBFF36F8FFEE76B
:1024D00000683149491E884207D1502080F3118895
:1024E000BFF34F8FBFF36F8FFEE72C490878019041
:1024F000FF20087008788DF800009DF800009DF816
:10250000002000F0F000904207D0502080F31188A6
:10251000BFF34F8FBFF36F8FFEE79DF80000204C95
:1025200000F0500020700720606105E09DF8002059
:1025300052008DF80020401E9DF800201206F5D4B0
:102540006061032807D0502080F31188BFF34F8FBC
:10255000BFF36F8FFEE74FF4407060610198087021
:102560000C482030016841F470010160016841F0BD
:1025700070410160FFF7B8FD00206060FDF732FE9A
:102580000848016841F040410160FDF717FE002056
:102590001CBD000000ED00E071C20F4100E400E04E
:1025A0008800002034EF00E038B5049D18B153B125
:1025B000CAB181B120E0502080F31188BFF34F8F62
:1025C000BFF36F8FFEE7502080F31188BFF34F8F6A
:1025D000BFF36F8FFEE7502080F31188BFF34F8F5A
:1025E000BFF36F8FFEE739B1502080F31188BFF33E
:1025F0004F8FBFF36F8FFEE748241C46012384F8FA
:1026000046302B460094FFF7EDF9204638BD000018
:1026100070B50D46040025D0FFF700FDD4E90F206A
:10262000216802FB0011A1600021A16321686160A3
:102630000A46D4E90F01401E00FB0121E16021465A
:102640004FF0FF3001F8440F487004F110008DB1D5
:10265000FFF7B2FC04F12400FFF7AEFCFFF7FEFC2D
:10266000012070BD502080F31188BFF34F8FBFF35E
:102670006F8FFEE721690029F0D000F011FB0028E0
:10268000ECD004494FF080500860BFF34F8FBFF388
:102690006F8FE3E704ED00E02DE9FF4782B01D46B0
:1026A0008A464FF00008040003D0BAF1000F08D0AA
:1026B00011E0502080F31188BFF34F8FBFF36F8F6D
:1026C000FEE7206C38B1502080F31188BFF34F8FA4
:1026D000BFF36F8FFEE7022D0AD1E06B012807D010
:1026E000502080F31188BFF34F8FBFF36F8FFEE749
:1026F00000F010FA3F4F4FF000094FF0805648B9F4
:10270000049838B1502080F31188BFF34F8FBFF386
:102710006F8FFEE7FFF782FCA06BE16B884207D367
:10272000022D05D00498D0B1B8F1000F1AD01EE0E8
:102730002A4651462046FFF77CF8616A19B104F138
:10274000240000F0ADFA20B13E60BFF34F8FBFF31D
:102750006F8FFFF783FC012006B0BDE8F087FFF71D
:102760007DFC22E06846FFF7D5FD4FF00108FFF73A
:1027700075FCFFF769FEFFF751FC94F94400401C1B
:1027800001D184F8449094F94500401C01D184F8AB
:102790004590FFF763FC04A9684600F029F930B1C1
:1027A0002046FFF725FB00F0B9FA0020D4E7FFF739
:1027B00035FCA06BE16B884213D1FFF74FFC04F1AD
:1027C00010000499FFF7B4FD2046FFF711FB00F05D
:1027D000A5FA00289ED13E60BFF34F8FBFF36F8FE5
:1027E00098E7FFF73BFC2046FFF702FB00F096FA64
:1027F00090E7000004ED00E02DE9F0471F46904609
:102800008946040003D0B9F1000F08D011E0502030
:1028100080F31188BFF34F8FBFF36F8FFEE7206CFB
:1028200038B1502080F31188BFF34F8FBFF36F8F03
:10283000FEE7022F0AD1E06B012807D0502080F379
:102840001188BFF34F8FBFF36F8FFEE7FFF7DCFCFC
:102850005020EFF3118680F31188BFF34F8FBFF341
:102860006F8FA06BE16B884206D3022F04D000204B
:1028700086F31188BDE8F08794F94550A06B3A467D
:1028800049462046FEF7D5FF681C04D06D1C84F82D
:1028900045500120ECE7606A0028FAD004F12400DA
:1028A00000F0FEF90028F4D0B8F1000FF1D00121BA
:1028B000C8F80010EDE700002DE9F747002683B0C7
:1028C0008A46040003D0BAF1000F08D011E050206E
:1028D00080F31188BFF34F8FBFF36F8FFEE7206C3B
:1028E00038B1502080F31188BFF34F8FBFF36F8F43
:1028F000FEE700F00FF9DFF8F4804FF000094FF029
:10290000805748B9059838B1502080F31188BFF33B
:102910004F8FBFF36F8FFEE7FFF780FBA56BC5B14D
:1029200051462046FEF772FF6D1EA563206950B127
:1029300004F1100000F0B4F928B1C8F80070BFF33A
:102940004F8FBFF36F8FFFF789FB012006B0BDE803
:10295000F087059808B11EB106E0FFF77FFB27E07E
:102960006846FFF7D7FC0126FFF778FBFFF76CFD01
:10297000FFF754FB94F94400401C01D184F84490C3
:1029800094F94500401C01D184F84590FFF766FB9F
:1029900005A9684600F02CF8002820460AD0FFF769
:1029A00027FA00F0BBF92046FFF7B6F80028B3D0AD
:1029B0000020CBE7FFF7B0F890B104F124000599AF
:1029C000FFF7B6FC2046FFF713FA00F0A7F900283E
:1029D000A2D1C8F80070BFF34F8FBFF36F8F9BE792
:1029E0002046FFF705FA00F099F995E704ED00E0BD
:1029F0002DE9F0410C46050011D0C4B1FFF70EFBE4
:102A0000174BDA686E682068911B471C17D02F6837
:102A10001B6A9F4219D0964217D8012410E050201B
:102A200080F31188BFF34F8FBFF36F8FFEE7502005
:102A300080F31188BFF34F8FBFF36F8FFEE7002441
:102A4000FFF70CFB2046BDE8F081884205D9401A0B
:102A500020602846FFF75EFCF1E700202060DCE7FD
:102A6000180000202DE9FF5F8346DDE90E879946B7
:102A700016468A469000FFF7F1F905001CD0542055
:102A8000FFF7ECF9040014D00020256384F851000E
:102A9000CDE90240CDE900874B46324651465846C3
:102AA000FEF7ABFF2046FEF71DFE012004B0BDE897
:102AB000F09F2846FFF7E6FA4FF0FF30F6E7F0B553
:102AC00085B0DDE90B640A9DA6B1DCB154270097FF
:102AD0002663022684F85160002604AFCDE9024641
:102AE000CDE90057FEF789FF2046FEF7FBFD04986D
:102AF00005B0F0BD502080F31188BFF34F8FBFF3B6
:102B00006F8FFEE7502080F31188BFF34F8FBFF324
:102B10006F8FFEE70548416919B1006B18B10020BD
:102B20007047012070470220704700001800002005
:102B30000148C06870470000180000202DE9F041EE
:102B40002F4C0026206B28B1A069401CA0613046A4
:102B5000BDE8F081E5686D1CE56013D1606B00682D
:102B600038B1502080F31188BFF34F8FBFF36F8FC0
:102B7000FEE7606BA16B6163A063206A401C20626A
:102B8000FFF7B6F8A06ADFF87C80854209D3606B56
:102B90000068A0B1606BC068C7687868854211D2D0
:102BA000A0622068C06A00EB800158F8210001286B
:102BB00000D90126E0690028C9D00126C7E74FF0F7
:102BC000FF30EDE7381DFFF7CDF9B86A18B107F10E
:102BD0001800FFF7C7F9F96A0120226988401043FD
:102BE000206101EB810108EB8100391DFFF70AFA32
:102BF000F86A2168C96A8842C9D30126C7E700007C
:102C0000180000201C08002070B504004FF00001DF
:102C100040D0214D2868844207D0502080F311888D
:102C2000BFF34F8FBFF36F8FFEE7A06C38B1401E2C
:102C3000A064636CE26A9A422CD040B12AE0502032
:102C400080F31188BFF34F8FBFF36F8FFEE7201D16
:102C5000FFF788F9114A012150B9E06A00EB8003BF
:102C600052F8233023B92B6901FA00F083432B611A
:102C7000606CE062C0F10700A061E06A2B698140EE
:102C80001943296100EB800002EB8000211DFFF752
:102C9000B9F90121084670BD180000201C08002069
:102CA0002DE9F041C068C468ACB104F118000746D2
:102CB000FFF758F9174D286B0126A0B13946164881
:102CC000FFF7A0F9E06A2968C96A884220D9012083
:102CD000EE61BDE8F081502080F31188BFF34F8F83
:102CE000BFF36F8FFEE7201DFFF73CF9E16A2A6909
:102CF00006FA01F01043286101EB81000649B4395E
:102D000001EB8000211DFFF77DF9FEF7F1FFD9E708
:102D10000020DEE718000020D00800202DE9F04751
:102D20002C4D00242746286B38B1FFF777F9286B24
:102D3000401E2863286B40B146E0502080F3118884
:102D4000BFF34F8FBFF36F8FFEE7A968224E0120BC
:102D5000D1B3A6F1B40980463068E8B1F068C46820
:102D600004F11800FFF7FEF8201DFFF7FBF8E06AFA
:102D70002A6908FA00F11143296100EB800109EB8F
:102D80008100211DFFF73EF9E06A2968C96A88427F
:102D9000E2D3C5F81C80DFE70CB1FEF7A9FFAC69F0
:102DA00044B14646FFF7CAFE00B1EE61641EF9D198
:102DB0000020A861E86938B1084901273807086090
:102DC000BFF34F8FBFF36F8FFFF748F93846BDE869
:102DD000F087000018000020D008002004ED00E07B
:102DE00010B586B0FEF7E6FC114C2068B8B10020A3
:102DF0000390049005AA04A903A8FFF7D1F8DDE920
:102E0000032102208DE8070000230AA10B48059A40
:102E1000FFF755FE606010B106B0012010BD5020D4
:102E200080F31188BFF34F8FBFF36F8FFEE7000071
:102E300054000020546D722053766300CD1D0008AD
:102E40002DE9FF411E46134602000A9D4FF0000087
:102E500016D0144C2768002F0FD0CDE90013029232
:102E6000062917DAFFF756FE02284FF000030FD0AD
:102E7000002269462068FFF70FFC04B0BDE8F0812E
:102E8000502080F31188BFF34F8FBFF36F8FFEE7A1
:102E90002A46EEE70023324669463846FFF7ACFC87
:102EA000EBE7000054000020F82E0008D70F0008C0
:102EB0000200000000000000800000000000000090
:102EC00000000000042F0008DF0F0008FEFF0000D4
:102ED0000000000080000000000000000000000072
:102EE00000000000000000000102030406070809BA
:102EF0000000000001020304486967685461736BB5
:102F0000000000004C6F775461736B002C2F000899
:102F100000000020A400000028140008D02F0008A2
:102F2000A40000207C4900003814000800000000C4
:102F30000000000001000000100000000000000080
:102F40000024F40000000000000000000000000069
:102F50000000000000000000000000000000000071
:102F60000000000000000000000000000000000061
:102F70000000000000000000000000000000000051
:102F80000000000000000000000000000000000041
:102F90000000000000000000000000000000000031
:102FA0000000000000000000000000000000000021
:102FB0000000000000000000AAAAAAAA0000000069
:102FC0000000000000000000000000000000000001
:040000050800018965
:00000001FF
