:020000040800F2
:10000000C0AD01209D010008130F0008110E00086B
:10001000110F0008D5020008E910000800000000D8
:10002000000000000000000000000000170F0008A2
:10003000D702000800000000150F0008190F000883
:10004000B7010008B7010008B7010008B7010008B0
:10005000B7010008B7010008B7010008B7010008A0
:10006000D9020008DF020008E5020008B701000815
:10007000B7010008B7010008B7010008B701000880
:10008000B7010008B7010008B7010008B701000870
:10009000B7010008B7010008B7010008B701000860
:1000A000B7010008B7010008B7010008B701000850
:1000B000B7010008B7010008B7010008B701000840
:1000C000B7010008B7010008B7010008B701000830
:1000D000B7010008B7010008B7010008B701000820
:1000E000B7010008B7010008B7010008B701000810
:1000F000B7010008B7010008B7010008B701000800
:10010000B7010008B7010008B7010008B7010008EF
:10011000B7010008B7010008B7010008B7010008DF
:10012000B7010008B7010008B7010008B7010008CF
:10013000B7010008B7010008B7010008B7010008BF
:10014000B7010008B7010008B7010008B7010008AF
:10015000B7010008B7010008B7010008B70100089F
:10016000B7010008B7010008B7010008B70100088F
:10017000B7010008B7010008B7010008000000003F
:10018000B7010008B7010008DFF80CD000F090F8C4
:1001900000480047D1140008C0AD01200648804740
:1001A00006480047FEE7FEE7FEE7FEE7FEE7FEE75C
:1001B000FEE7FEE7FEE7FEE7A50F0008890100085D
:1001C0002DE9F05F0546002092469B46884606468C
:1001D000814640241BE0284641464746224600F01F
:1001E00057F853465A46C01A914110D31146184643
:1001F000224600F03EF82D1A67EB01084F462246D2
:100200000120002100F035F817EB00094E41201EB7
:10021000A4F10104DFDC484631462A464346BDE8E6
:10022000F09FD2B201E000F8012B491EFBD27047CB
:100230000022F6E710B513460A4604461946FFF7B2
:10024000F0FF204610BD30B50B46014600202022AD
:10025000012409E021FA02F59D4205D303FA02F5D3
:10026000491B04FA02F52844151EA2F10102F1DC33
:1002700030BD202A04DB203A00FA02F1002070474A
:100280009140C2F1200320FA03F3194390407047D4
:10029000202A04DB203A21FA02F00021704721FADB
:1002A00002F3D040C2F12002914008431946704742
:1002B000064C074D06E0E06840F0010394E80700B3
:1002C00098471034AC42F6D3FFF762FFC41600081B
:1002D000E4160008FEE77047042000F0F3B8082099
:1002E00000F0F0B8102000F0EDB8704770B504468B
:1002F00000F0DAF90546601C02D004480078044496
:1003000000F0D2F9401BA042FAD370BD2C000020AF
:1003100070B50A253B4E3C4C042804D0082826D052
:1003200010284ED068E00421304600F0B3F90028D0
:1003300062D11420FFF7DAFF0421304600F0AAF959
:10034000002859D131A000F0D1FE4FF4006120788F
:1003500001F084F96060F8B1627835A100F0D6FE52
:1003600039A0616800F0C2FE16E0012017E0082104
:10037000304600F08FF900283ED11420FFF7B6FF79
:100380000821304600F086F930B936A000F0AEFE04
:100390002078616801F056F920780028E5D101F055
:1003A0002BF9B0FBF5F1B0FBF5F205FB1103608012
:1003B00032A1354800F0AAFE334934A000F096FE81
:1003C0001AE01021304600F065F9A8B91420FFF7B3
:1003D0008DFF1021304600F05DF968B92CA000F0C7
:1003E00085FE207860B1002107482170083050F860
:1003F000212030A000F07AFE6078401C607070BD53
:100400000121F1E700100240000000204B45593067
:100410002070726573732C7374617274206D616CDB
:100420006C6F6320324B42206D656D21200A000005
:100430004D656D6F7279204D616C6C6F63205465F2
:1004400073742530336400006D616C6C6F63656498
:10045000206D656D206973207365742061733A2582
:10046000730A00004B4559312070726573732C6616
:10047000726565206D656D210A00000025642E25DA
:1004800030316425250000004000002025730A005B
:100490004B4559312070726573732C73776974639F
:1004A00068205352414D494E2F5352414D43434DC5
:1004B000210A00007372616D783A25642025730A61
:1004C00000000000044910B50A68024202D008602A
:1004D000FFF71EFF10BD0000143C01402DE9F84F4E
:1004E00000224FF0010803254FF00F0E0B6808FAA9
:1004F00002F42340A3426ED14E68012E05D0022E95
:1005000003D0112E01D0122E12D186684FEA420C70
:1005100005FA0CF7BE43CF6807FA0CF7374387603C
:100520004668A6430C79C4F30014944034434460F5
:10053000C668570005FA07FC8C6826EA0C06BC4022
:100540003443C4604C68022C01D0122C13D1D4085F
:1005500000EB8404A346D4F8209054074FEAD46AF1
:100560000EFA0AF629EA06090E6906FA0AF646EABA
:100570000906CBF8206006680C7926EA0C0604F020
:100580000304BC40344304604C68E40065D5364C39
:10059000266846F480462660246822F0030604F4A8
:1005A00080440094314C3444A446D4F8084896075B
:1005B000370F0EFA07F6B4432D4EB04201D1002694
:1005C00024E02C4EB04201D101261FE02A4EB04259
:1005D00002D102261AE040E0284EB04201D10326A3
:1005E00014E0274EB04201D104260FE0254EB04260
:1005F00001D105260AE0244EB04201D1062605E0CD
:10060000224EB04201D1072600E00826BE40264314
:10061000CCF808681E4E34684F689C43FF0300D531
:100620001C4334601A4C241D26684F689E43BF0348
:1006300000D51E432660164E083634684F689C432A
:10064000FF0200D51C433460114E0C3634684F68ED
:100650009C43BF0200D51C433460521C102AFFF497
:1006600045AFBDE8F88F000044380240003001403B
:10067000000002400004024000080240000C02405A
:10068000001002400014024000180240001C02400A
:10069000003C01400069084000D0012070470AB1C9
:1006A000816170470904FBE70148806870470000DA
:1006B0002C00002002488168027811448160704754
:1006C0002C0000200B4810B5016841F40071016056
:1006D000016841F480610160016841F4807101604A
:1006E000032000F071F8002000F006F800F024F874
:1006F000002010BD003C024070B50D4D04464FF483
:100700007A712878B1FBF0F00A490968B1FBF0F082
:1007100000F004FB48B9102C07D200222146501EDD
:1007200000F032F800206C6070BD012070BD000048
:100730002C000020380000200B4882B0016841F4F2
:1007400080410160006800F4804000900648001F6E
:10075000016841F080510160006800F08050009015
:10076000052002B000F030B844380240002809DB10
:1007700000F01F02012191404009800000F1E020BB
:10078000C0F8001170470000F0B40E4B1B680C4617
:10079000C3F30223C3F10705042D00D90425191D55
:1007A000072901D2002300E0DB1E012606FA05F12D
:1007B000491E214099409E40761E16403143F0BCB0
:1007C00000F0B8BC0CED00E0064900F00702086834
:1007D0004FF6FF03184040EA0220034A1043086026
:1007E000704700000CED00E00000FA052DE9F0472D
:1007F0000E46050065D0DFF81481D8F80000F7B286
:1008000000F00F00B04207D288F80070D8F800005E
:1008100000F00F00B04254D128683D4C810712D53A
:10082000400703D5206840F4E05020602878000796
:1008300003D5206840F4604020602068A96820F05B
:10084000F000084320602878C0072DD03049686840
:100850000839012812D0022813D0032811D00968C2
:10086000890700292DDA216821F003010143216065
:10087000FFF71AFF814641F2883A0EE009688903C2
:10088000EFE709688901ECE7FFF70EFFA0EB09012C
:10089000514502D90320BDE8F0872068696800F05F
:1008A0000C00B0EB810FEFD1D8F80010404601F0FA
:1008B0000F01B14207D90770006800F00F00B04285
:1008C00001D00120E7E72878400705D52068E968CE
:1008D00020F4E050084320602878000706D52068FF
:1008E000296920F4604040EAC100206000F038F837
:1008F0002168084AC1F30311515CC84006490860E9
:1009000006480068FFF7F8FE0020C4E7003C0240FC
:1009100008380240941600083800002030000020FB
:100920000448054900680968044AC1F38221515C02
:10093000C84070473800002008380240A41600085C
:100940000448054900680968044AC1F34231515C12
:10095000C84070473800002008380240A41600083C
:10096000154810B5006810F00C02144813D041105F
:10097000042A0FD0082A0ED10F4C241F22682368A6
:1009800002F03F025B0207D52068C0F38810A0FB8D
:10099000010106E0084610BD2168C1F38811A1FBE2
:1009A00000010023FFF70CFC2168C1F30141491C41
:1009B0004900B0FBF1F010BD083802400024F400FB
:1009C0002DE9F84F040076D02078DFF838A3CE4D1B
:1009D000C00749D0DAF800105046C1F3810101295F
:1009E00008D00068C0F3810002280AD1281D0068E1
:1009F000400206D52868800336D560680028E2D01A
:100A000032E06068B0F5803F10D0B0F5A02F2868C4
:100A100010D020F480302860286820F480202860DE
:100A20006068A0B1FFF740FE06460CE0286840F47D
:100A30008030F4E740F480202860F7E7FFF734FEC9
:100A4000801B642873D828688003F7D50CE0FFF773
:100A50002BFE064605E000BFFFF726FE801B64283C
:100A6000F0D828688003F7D42078DFF8A0828007C8
:100A70004FF000093ED5DAF80010504611F00C0F87
:100A800009D00068C0F3810002280BD19D48001FE7
:100A90000068400206D42868800715D5E068012860
:100AA00009D111E0E068B8B10120C8F80000FFF7F3
:100AB000FBFD064605E020E1FFF7F6FD801B02285E
:100AC000C0D828688007F7D52868216920F0F80089
:100AD00040EAC10028600DE0C8F80090FFF7E4FD8F
:100AE000064604E0FFF7E0FD801B02281FD82868B7
:100AF0008007F7D42078000722D5824E84486169A8
:100B00006C3671B101210160FFF7CEFD074604E0AC
:100B1000FFF7CAFDC01B022809D830688007F7D547
:100B20000EE0C0F80090FFF7BFFD074605E082E049
:100B3000FFF7BAFDC01B02287DD830688007F7D4C4
:100B40002078400768D5DFF8BCB100270BF1380BDF
:100B5000DBF80000C0000BD4DBF8001041F080513E
:100B6000CBF80010DBF80000012700F08050009067
:100B7000684E3068C00510D4306840F48070306032
:100B8000FFF792FD009005E0FFF78EFD0099401AF7
:100B9000022850D83068C005F6D55A4EA06868368D
:100BA00001280FD00528306810D020F001003060F7
:100BB000306820F004003060A068B8B1FFF774FD21
:100BC00000900FE0306840F00100F4E740F00400CE
:100BD0003060F7E7FFF768FD0099411A41F288306D
:100BE000814266D830688007F4D50EE0FFF75CFDDF
:100BF000009007E0FFF758FD0099411A41F2883054
:100C0000814256D830688007F4D42FB1DBF8001049
:100C100021F08051CBF80010A069D0B3DAF80020A1
:100C20005146C2F38102022A4AD00228484607D020
:100C3000C8F8600000E03CE0FFF736FD04463BE00A
:100C40004746C8F86000FFF72FFD064605E000BFE5
:100C5000FFF72AFD801B02282BD828688001F7D4D3
:100C6000D4E907010843A16A2B4A490802EB014174
:100C7000626A41EA8211084394F82C1040EA01614B
:100C80002048001F016001203866FFF70DFD044673
:100C900005E034E0FFF708FD001B022809D82868AA
:100CA0008001F7D52BE000BFFFF7FEFC001B0228F8
:100CB00002D90320BDE8F88F28688001F4D41EE033
:100CC0000128F7D00868E26900F48001914214D14C
:100CD000226A00F03F0191420FD147F6C071626A6B
:100CE0000140914209D1A26A00F44031914204D1FD
:100CF000E16A00F07060884201D00120DAE700204C
:100D0000D8E700000838024000380240000047429F
:100D1000800E4742007000400000FFFF10B5401EEB
:100D2000B0F1807F01D3012010BD4FF0E02460615D
:100D30000F21601700F0FEF90020A061072020615C
:100D4000002010BD70B5040004D094F839000025CF
:100D500010B106E0012070BD84F83850204600F044
:100D600023F8242084F839002068C16821F4005158
:100D7000C160204600F024F92068016921F4904107
:100D800001612068416921F02A0141612068C16840
:100D900041F40051C160E563202084F8390084F8F3
:100DA0003A00002070BD000010B586B00446142142
:100DB0006846FFF73DFA13492068884220D112485F
:100DC000016841F010010160006800F0100005901A
:100DD0000D481438016841F002010160006869465D
:100DE00000F002000590C020009002200190012038
:100DF000029003200390072004900448FFF76EFB45
:100E000006B010BD0010014044380240000402400A
:100E1000FEE7000070B586B014216846FFF708FAB7
:100E20002A480025016841F010010160016801F0C5
:100E300010010591016841F080010160016801F035
:100E400080010591016841F001010160016801F034
:100E500001010591016841F00201016000681C4E2A
:100E600000F002000122059011463046FFF717FC02
:100E70001C20009017480124CDE901046946304642
:100E8000FFF72CFB0220CDE9025000946946019443
:100E90003046FFF723FB002201210820FFF774FCF6
:100EA0000820FFF763FC002201210920FFF76CFCFA
:100EB0000920FFF75BFC002201210A20FFF764FCF8
:100EC0000A20FFF753FC06B070BD00003038024026
:100ED00000100240000021100C4810B50A490160C2
:100EE0004FF4E1314160002181600C22C160C0E912
:100EF00004128161C161FFF725FF002803D0BDE81E
:100F00001040FFF7F2B910BD00100140540000205E
:100F1000FEE7704770477047FFF7CCBB30B593B022
:100F200030216846FFF784F914210CA8FFF780F9F7
:100F30001A480025016841F080510160006800F006
:100F4000805011901648016841F4804101600068AA
:100F5000022400F4804011900120009000040190D0
:100F60008001CDE90640082008904FF4A870CDE933
:100F7000090404200B906846FFF722FD0CA90F20FE
:100F800081E831004FF4A0500F90E002109005214D
:100F90000CA8FFF72BFC13B030BD00004038024016
:100FA000007000400548016841F470010160034988
:100FB0004FF00060803908607047000088ED00E065
:100FC0002DE9F041044600680169E26821F44051CE
:100FD000114301612169A068E26908436169114315
:100FE00008432168CA6849F20C639A430243CA6005
:100FF00020684169A26921F4407111434161E069AF
:10100000192764253226B0F5004F354A3549206846
:101010004FF0000806D0884201D0904236D1FFF749
:101020008FFC35E0884201D0904202D1FFF788FC66
:1010300001E0FFF775FC61684A18A0FB070148EB67
:101040000803FFF7BDF80146B0FBF5F00201B1FB64
:10105000F5F06FF01803584301EB800006EBC00079
:10106000B0FBF5F000F0F80002EB4002B1FBF5F048
:10107000584301EB800006EBC000B0FBF5F000F038
:101080000700216810448860BDE8F081FFF748FC44
:1010900061688B0F8A00A0FB0701FFF791F80146FA
:1010A000B0FBF5F06FF01802504301EB800006EB47
:1010B0000010B0FBF5F000F0F002B1FBF5F002EB30
:1010C0000012B1FBF5F06FF01803584301EB8000FC
:1010D00006EB0010B0FBF5F000F00F00D1E70000C8
:1010E0000014014000100140FEE700000FB4054B62
:1010F00010B503A9044A029800F03CF810BC5DF852
:1011000014FB0000C11400083C0000200FB4084B81
:1011100010B504A902AA039800F02CF8044602A90D
:10112000002000F0C8F9204610BC5DF814FB000058
:10113000B71400080907090E002804DB00F1E020BD
:1011400080F80014704700F00F0000F1E02080F8F4
:10115000141D704702E008C8121F08C1002AFAD106
:1011600070477047002001E001C1121F002AFBD127
:10117000704700002DE9FF4F8BB0884605460026DA
:1011800006E025280BD0DDE90D1290476D1C761C7A
:1011900028780028F5D10FB03046BDE8F08F002444
:1011A000A146A2460122AE4900E0044315F8013FE2
:1011B000203B02FA03F00842F7D128782A2810D001
:1011C0006FF02F022878A0F13001092915D809EB1A
:1011D000890102EB410144F0020400EB01096D1C9E
:1011E000F0E758F8041B5FEA010903D544F4005402
:1011F000C9F1000944F002046D1C28782E2817D18B
:1012000015F8010F44F004042A280ED06FF02F02C5
:101210002878A0F1300109290AD80AEB8A0102EBEB
:10122000410100EB010A6D1CF2E758F804AB6D1C9C
:1012300028786C280FD006DC4C2817D068280DD0F1
:101240006A2814D104E0742810D07A280FD10DE058
:1012500044F400140AE044F4801401E044F440141F
:101260006978814202D104F580146D1C6D1C2878C8
:10127000692865D006DC00288DD0632827D0642833
:1012800006D15DE06E2808D073282AD0752877D063
:10129000DDE90D129047761CE0E0C4F3025002280D
:1012A00009D003280DD0D8F8001004280DD00E6006
:1012B00008F10408D2E0D8F80010F217C1E9006282
:1012C000F6E7D8F800100E80F2E70E70F0E718F895
:1012D000041B8DF8001000208DF80100EB46012062
:1012E00003E058F804BB4FF0FF3061074FF00007F0
:1012F00001D40AE07F1C57450DDA8742FADB1BF860
:1013000007100029F6D106E07F1C8742FCDB1BF8A2
:1013100007100029F8D1DDE90D23A9EB070081466C
:10132000214600F0B1F83044C61904E0DDE90D12A1
:101330001BF8010B90477F1EF8D22146484688E0F3
:1013400058F8040BC4F302514FF00A0B032900D1E3
:1013500000B2042900D140B2002802DA40422D2117
:1013600002E0210505D52B218DF82410012104E090
:1013700006E0E10710D02021F6E708AF089113E05E
:1013800058F8040BC4F302514FF00A0B032900D1A3
:1013900080B2042900D1C0B20021EEE75946FEF721
:1013A00052FF303107F8011D0028F7D1ADEB0700DF
:1013B00000F1200B600702D524F4803401E04FF0E7
:1013C000010ADA4502DDAAEB0B0000E000208246AC
:1013D00000EB0B0108980144A9EB01000A90E0031F
:1013E00006D4DDE90D2321460A9800F04DF80644A5
:1013F0004FF0000908E009A911F80900DDE90D1214
:10140000904709F10109761C08998945F3DBE0034F
:101410000CD5DDE90D2321460A9800F035F8064485
:1014200004E0DDE90D1230209047761CBAF100018E
:10143000AAF1010AF5DC05E0DDE90D1217F8010B50
:101440009047761CBBF10001ABF1010BF4DC0A986C
:101450002146DDE90D2300F005F806446D1C97E6F2
:10146000092801002DE9F041044600251E461746D3
:10147000880404D405E039462020B0476D1C641E62
:10148000F9D52846BDE8F0812DE9F0410446002554
:101490001E469046C80301D5302700E02027880467
:1014A00004D505E041463846B0476D1C641EF9D5A9
:1014B0002846BDE8F0810A68531C0B601070704725
:1014C00002490A681206FCD54860704700100140C6
:1014D000FFF7F8F8FFF722FDFFF79CFCFFF7FCFC95
:1014E000FEE7000070B5134A13181B7E93B1124B30
:1014F00053F820308B421AD90F4B083B53F8203059
:10150000B1FBF3F102EB8003186930F811200020E1
:10151000044608E011688847012070BD1D690E1857
:10152000401C25F816409042F8DB002070BD0220D8
:1015300070BD0000100000208C16000830B5044675
:101540000748084D002150F82400420005EB8400B4
:10155000006900F06FF801202919087630BD0000FD
:101560007C160008100000202DE9F041204E0446B2
:10157000002530190F46007E10B931682046884793
:101580004FF0FF327FB31B4B53F82410B7FBF1F041
:10159000B7FBF1FC01FB1C7101B1401C1549083976
:1015A00051F82410491E21D406EB8406D6F8107099
:1015B00037F811C0BCF1000F05D00025854213D1CA
:1015C000002285B208E06D1CF8E700BF376901EB27
:1015D000020C521C27F81C508242F7D353F8240007
:1015E0004843BDE8F08101E0491EE1D51046F8E727
:1015F000100000208416000810B50C4B0C4C002283
:1016000053F82030114604EB800005E0046934F8FB
:10161000114004B1521C491C8B42F7D84FF47A7028
:101620004243B2FBF3F080B210BD00007C1600080C
:101630001000002002E000BF00F8011B521EFBD288
:1016400070470000002906D0034A02EB800292682E
:10165000891AFFF747BF70471000002010B50446F5
:10166000FFF782FF411C05D0034901EB8401896823
:10167000084410BD002010BD10000020800C0000A8
:101680008007000020000000200000000090010002
:1016900000F0000000000000000000000102030450
:1016A000060708090000000001020304205352410C
:1016B0004D43434D20000000205352414D494E20E0
:1016C00000000000E41600080000002040000000B8
:1016D00054110008241700084000002080AD0100CC
:1016E000641100080000000000000000B8160008A7
:1016F000AC1600083D150008F9150008C0000020D0
:1017000000000010C090012000F000100000000058
:101710000100000010000000000000000024F400A0
:0417200000000000C5
:040000050800018965
:00000001FF
