:020000040800F2
:10000000584800205D02000813130008F110000892
:1000100011130008D9030008D915000800000000DA
:100020000000000000000000000000009D0100082A
:10003000DB03000800000000F901000815130008A8
:1000400077020008770200087702000877020008AC
:10005000770200087702000877020008770200089C
:100060001D040008770200087702000877020008E4
:10007000770200087702000877020008770200087C
:10008000770200087702000877020008770200086C
:10009000770200087702000877020008770200085C
:1000A00077020008E91300087702000877020008C9
:1000B000770200087702000877020008770200083C
:1000C000770200087702000877020008770200082C
:1000D000770200087702000877020008770200081C
:1000E000770200087702000877020008770200080C
:1000F00077020008770200087702000877020008FC
:1001000077020008770200087702000877020008EB
:1001100077020008770200087702000877020008DB
:1001200077020008770200087702000877020008CB
:1001300077020008770200087702000877020008BB
:1001400077020008770200087702000877020008AB
:10015000770200087702000877020008770200089B
:10016000770200087702000877020008770200088B
:1001700077020008770200087702000800000000FC
:100180007702000877020008DFF80CD000F012F9BF
:1001900000480047E9180008584800202C4B19680F
:1001A0000868B0E8F04F80F30988BFF36F8F4FF015
:1001B000000080F3118870470000000008480068C4
:1001C000006880F308884FF0000080F3148862B65E
:1001D00061B6BFF34F8FBFF36F8F00DF00BF00BF6B
:1001E00008ED00E0DFF80C00016841F470010160E7
:1001F000704700BF88ED00E0EFF30980BFF36F8F19
:10020000134B1A681EF0100F08BF20ED108A20E96A
:10021000F04F106009B44FF0500080F31188BFF325
:100220004F8FBFF36F8F02F083F84FF0000080F321
:10023000118809BC19680868B0E8F04F1EF0100F6B
:1002400008BFB0EC108A80F30988BFF36F8F704746
:1002500024000020EFF30580704700000648804727
:1002600006480047FEE7FEE7FEE7FEE7FEE7FEE79B
:10027000FEE7FEE7FEE7FEE7D91300088901000864
:100280002DE9F05F0546002092469B4688460646CB
:10029000814640241BE0284641464746224600F05E
:1002A00079F853465A46C01A914110D31146184660
:1002B000224600F060F82D1A67EB01084F462246EF
:1002C0000120002100F057F817EB00094E41201ED5
:1002D000A4F10104DFDC484631462A464346BDE826
:1002E000F09F40EA01039B0703D009E008C9121FF1
:1002F00008C0042AFAD203E011F8013B00F8013BE0
:10030000521EF9D27047D2B201E000F8012B491E0B
:10031000FBD270470022F6E710B513460A460446A2
:100320001946FFF7F0FF204610BD421C10F8011BD4
:100330000029FBD1801A7047034611F8012B00F801
:10034000012B002AF9D11846704730B50B460146FB
:1003500000202022012409E021FA02F59D4205D364
:1003600003FA02F5491B04FA02F52844151EA2F10E
:100370000102F1DC30BD202A04DB203A00FA02F150
:10038000002070479140C2F1200320FA03F3194383
:1003900090407047202A04DB203A21FA02F0002125
:1003A000704721FA02F3D040C2F120029140084385
:1003B00019467047064C074D06E0E06840F001031F
:1003C00094E8070098471034AC42F6D3FFF7E0FEFC
:1003D00098270008B8270008FEE7704708B502F024
:1003E000B3F841F28834009001F0DEFD04A001F082
:1003F00011F901F0F9FD2146684601F073FEF3E7BB
:1004000044656C6179207461736B20697320727527
:100410006E6E696E67210D0A00000000042000F076
:1004200051B872B6FEE7000070B5044600F058F906
:100430000546601C02D004480078044400F050F9DE
:10044000401BA042FAD370BD1400002070B50428F0
:1004500016D1124D0421284600F038F9104C00281E
:100460004FF014000DD0FFF7DFFF0421284600F005
:100470002DF9012804D10BA001F0CCF80120207047
:1004800070BDFFF7D1FF0421284600F01FF90028B6
:10049000F6D108A001F0BEF80020F0E700100240FD
:1004A000000000204B455930206973205570210A07
:1004B000000000004B45593020697320446F776E6F
:1004C000210A0000044910B50A68024202D00860FF
:1004D000FFF7BCFF10BD0000143C01402DE9F84FB0
:1004E000DFF8BCA10022012503264FF00F090AF115
:1004F000040BAAF1040E00BF0B6805FA02F42340B6
:10050000A34270D10F7907F00307012F01D0022F0A
:1005100016D187684FEA420806FA08FC27EA0C075A
:10052000D1F80CC00CFA08FC4CEA070CC0F808C063
:100530004768A7430C79C4F3001494403C434460DB
:100540000C79E443A4070AD0C4684FEA420C06FAC7
:100550000CF7BC438F6807FA0CF72743C7600C7988
:1005600004F00304022C12D1D40800EB840CDCF854
:1005700020405707FF0E09FA07F824EA0804D1F8CB
:10058000108008FA07F848EA0408CCF820800468CC
:100590004FEA420C06FA0CF7BC430F7907F0030749
:1005A00007FA0CF7274307604C6814F4403F70D0FB
:1005B0003C4C276847F480472760246822F00307F3
:1005C00004F480440094384C07EB040CDCF8084831
:1005D00097074FEA177809FA08F7BC43334FB84238
:1005E00002D1002724E054E0314FB84201D1012765
:1005F0001EE0304FB84201D1022719E02E4FB84219
:1006000001D1032714E02D4FB84201D104270FE098
:100610002B4FB84201D105270AE02A4FB84201D139
:10062000062705E0284FB84201D1072700E0082738
:1006300007FA08F72743CCF80878DAF8004057465D
:10064000D1F804C09C435FEACC2C00D51C433C602D
:10065000DBF800405F46D1F804C09C435FEA8C2C75
:1006600000D51C433C60DEF800407746D1F804C05A
:100670009C435FEA8C3C00D51C433C60084F083F1C
:100680003C68D1F804C09C435FEACC3C00D51C43D5
:100690003C60521C102AFFF42FAFBDE8F88F000019
:1006A000083C014044380240003001400000024054
:1006B0000004024000080240000C0240001002400A
:1006C0000014024000180240001C0240006908406B
:1006D00000D0012070470AB1816170470904FBE72F
:1006E00001488068704700001400002002488168BB
:1006F0000278114481607047140000200B4810B547
:10070000016841F400710160016841F48061016099
:10071000016841F480710160032000F099F8002025
:1007200000F006F800F04AF8002010BD003C02403E
:1007300030B505461C4887B00024016841F001012E
:100740000160006806A900F00100009001A800F017
:100750002BF900F059F915494000B0FBF1F11548AB
:10076000134A491E026040F2E732C0E90324C0E99F
:100770000114846100F040FB040012D10D4800F028
:1007800069FB04000DD1192000F034F8102D07D2B8
:1007900000222946192000F03BF80748056000E0D8
:1007A000012407B0204630BD4438024040420F00CB
:1007B0000000014020070020180000200C4882B0F3
:1007C000016841F480410160006800F480400090BD
:1007D0000748001F016841F0805101600068002255
:1007E00000F0805000900F21901E02B000F010B871
:1007F00044380240002809DB00F01F02012191402B
:100800004009800000F1E020C0F8001170470000AE
:10081000F0B40E4B1B680C46C3F30223C3F107056B
:10082000042D00D90425191D072901D2002300E059
:10083000DB1E012606FA05F1491E214099409E4023
:10084000761E16403143F0BC00F008BF0CED00E00E
:10085000064900F0070208684FF6FF03184040EA17
:100860000220034A10430860704700000CED00E0CE
:100870000000FA052DE9F0470E46050065D0DFF8C7
:100880001481D8F80000F7B200F00700B04207D298
:1008900088F80070D8F8000000F00700B04254D18A
:1008A00028683D4C810712D5400703D5206840F4E5
:1008B000E05020602878000703D5206840F46040AD
:1008C00020602068A96820F0F000084320602878A4
:1008D000C0072DD0304968680839012812D0022895
:1008E00013D0032811D00968890700292DDA21685F
:1008F00021F0030101432160FFF7F2FE814641F23E
:10090000883A0EE009688903EFE709688901ECE796
:10091000FFF7E6FEA0EB0901514502D90320BDE82F
:10092000F0872068696800F00C00B0EB810FEFD110
:10093000D8F80010404601F00701B14207D907700E
:10094000006800F00700B04201D00120E7E72878F6
:10095000400705D52068E96820F4E050084320608E
:100960002878000706D52068296920F4604040EA0D
:10097000C100206000F058F82168084AC1F3031153
:10098000515CC8400649086006480068FFF7D0FE81
:100990000020C4E7003C0240083802405427000809
:1009A00020000020180000200F2202600C4A13686B
:1009B00003F003034360136803F0F00383601368DC
:1009C00003F4E053C36012684FF4E05303EAD20229
:1009D00002610448006800F00700086070470000EA
:1009E00008380240003C0240044805490068096894
:1009F000044AC1F38221515CC840704720000020A6
:100A0000083802406427000804480549006809685E
:100A1000044AC1F34231515CC840704720000020B5
:100A20000838024064270008154810B5006810F027
:100A30000C02144813D04110042A0FD0082A0ED1FA
:100A40000F4C241F2268236802F03F025B0207D587
:100A50002068C0F38810A0FB010106E0084610BD25
:100A60002168C1F38811A1FB00010023FFF708FCF6
:100A70002168C1F30141491C4900B0FBF1F010BDF0
:100A8000083802400024F4002DE9F84F04006ED02D
:100A90002078DFF84C93C007A9F104054AD009F18A
:100AA00004000168C1F38101012908D00068C0F386
:100AB000810002280AD1D9F80000400206D5286832
:100AC000800337D560680028E1D033E06068B0F576
:100AD000803F10D0B0F5A02F286810D020F48030CF
:100AE0002860286820F4802028606068A8B1FFF79B
:100AF000F7FD06460DE0286840F48030F4E740F446
:100B000080202860F7E700BFFFF7EAFD801B64281C
:100B100073D828688003F7D50CE0FFF7E1FD06469F
:100B200005E000BFFFF7DCFD801B6428F0D82868D3
:100B30008003F7D42078DFF8AC8280074FF0000AFA
:100B40003ED5A748001D016811F00C0F08D00068C1
:100B5000C0F3810002280BD1D9F80000400207D46D
:100B60002868800716D5E068012800D112E033E13B
:100B7000E068B8B10120C8F80000FFF7B1FD0646F3
:100B800005E000BFFFF7ACFD801B0228C0D8286835
:100B90008007F7D52868216920F0F80040EAC100F5
:100BA00028600DE0C8F800A0FFF79AFD064604E0B3
:100BB000FFF796FD801B02281FD828688007F7D40E
:100BC0002078000722D5864F87486169703771B158
:100BD00001210160FFF784FD064604E0FFF780FD78
:100BE000801B022809D838688007F7D50EE0C0F8C6
:100BF00000A0FFF775FD064605E082E0FFF770FDF7
:100C0000801B02287DD838688007F7D420784007F9
:100C100068D5DFF8CCB100270BF13C0BDBF8000006
:100C2000C0000BD4DBF8001041F08051CBF800106D
:100C3000DBF80000012700F0805000906B4E306818
:100C4000C00510D4306840F480703060FFF748FD74
:100C5000009005E0FFF744FD0099401A022850D8A3
:100C60003068C005F6D55E4EA0686C3601280FD0FE
:100C70000528306810D020F001003060306820F086
:100C800004003060A068B8B1FFF72AFD00900FE0C3
:100C9000306840F00100F4E740F004003060F7E70E
:100CA000FFF71EFD0099411A41F28830814266D853
:100CB00030688007F4D50EE0FFF712FD009007E0E2
:100CC000FFF70EFD0099411A41F28830814256D853
:100CD00030688007F4D42FB1DBF8001021F0805188
:100CE000CBF80010A069C8B33D49091D0968C1F3DC
:100CF000810102294AD00228504607D0C8F8600076
:100D000000E03CE0FFF7ECFC04463BE04746C8F857
:100D10006000FFF7E5FC064605E000BFFFF7E0FCDA
:100D2000801B02282BD828688001F7D4D4E907015A
:100D30000843A16A2E4A490802EB0141626A41EA6E
:100D40008211084394F82C1040EA0161C9F80010A0
:100D500001203866FFF7C4FC044606E03EE000BF11
:100D6000FFF7BEFC001B022809D828688001F7D5D0
:100D700034E000BFFFF7B4FC001B022802D90320B7
:100D8000BDE8F88F28688001F4D427E00128F7D067
:100D9000D9F80000E26900F4800191421CD1226A76
:100DA00000F03F01914217D147F6C071626A0140DD
:100DB000B1EB821F10D1A26A4FF0FF3300F4403133
:100DC00003EB5202B1EB024F06D194F82C1000F065
:100DD0007060B0EB016F01D00120D1E70020CFE7B8
:100DE0000438024000004742800E47420070004035
:100DF0000000FFFF7047704710B5040003D094F85F
:100E00003D0010B107E0012010BD002084F83C0037
:100E1000204600F01EF8022084F83D00211D2068C5
:100E200000F0E8FA012084F8460084F83E0084F8D7
:100E30003F0084F8400084F8410084F8420084F8C0
:100E4000430084F8440084F8450084F83D00002005
:100E500010BD704790F83D10012901D00120704766
:100E6000022180F83D100168CA6842F00102CA60A0
:100E700000681149884214D0B0F1804F11D00F4959
:100E800088420ED00E4988420BD00E49884208D0C5
:100E90000D49884205D00D49884202D00C4988424C
:100EA00004D1816801F00701062903D0016841F0EF
:100EB0000101016000207047000001400004004073
:100EC00000080040000C00400004014000400140C8
:100ED0000018004070472DE9F04104460068C668DC
:100EE00005694FF00007A90713D5B10711D5F91E01
:100EF000016101202077206880698007204602D0A8
:100F0000FFF7E8FF04E000F07EF8204600F07CF8F0
:100F10002777680716D5700714D521686FF004008D
:100F20000861022020772068806910F4407F204605
:100F300002D0FFF7CFFF04E000F065F8204600F094
:100F400063F82777280715D5300713D521686FF088
:100F500008000861042020772068C06980072046C7
:100F600002D0FFF7B7FF04E000F04DF8204600F094
:100F70004BF82777E80616D5F00614D521686FF0F0
:100F800010000861082020772068C06910F4407FB5
:100F9000204602D0FFF79EFF04E000F034F8204620
:100FA00000F032F82777E80708D0F00706D021686C
:100FB0006FF001000861204600F028F8280608D5E7
:100FC000300606D521686FF0800008612046FFF7E3
:100FD00011FF680608D5700606D521686FF040003D
:100FE0000861204600F01CF8A8060AD5B00608D50E
:100FF00021686FF0200008612046BDE8F041FFF74E
:10100000FABEBDE8F08170477047000000680349F0
:10101000884201D1FFF76ABB704700000000014021
:10102000704770B5040004D094F84100002510B159
:1010300006E0012070BD84F84050204600F024F8FE
:10104000242084F841002068C16821F40051C16067
:10105000204600F03BFA2068016921F490410161CB
:101060002068416921F02A0141612068C16841F48A
:101070000051C1606564202084F8410084F842007A
:101080006563002070BD000010B586B004461421D1
:101090006846FFF73FF913492068884220D112487B
:1010A0000021026842F010020260006800F01000A7
:1010B00005900D481438026842F002020260006890
:1010C00000F002000590C02000900220CDE901014F
:1010D000032003900720049069460448FFF7FEF9B7
:1010E00006B010BD00100140443802400004024028
:1010F000FEE700000225104C4FF4C876257014E07E
:1011000031460E48FFF706F90C4801F071F80CA0C3
:1011100000F080FA16A000F07DFA084920A000F047
:1011200079FA01E0012800D125700A2000F0EFFBD8
:1011300020780028F6D1E3E700000020900000208E
:101140004E616D6520202020202020202020537417
:101150006174652020205072696F72697479202053
:10116000537461636B20204E756D0D0A0000000002
:101170002A2A2A2A2A2A2A2A2A2A2A2A2A2A2A2ACF
:101180002A2A2A2A2A2A2A2A2A2A2A2A2A2A2A2ABF
:101190002A2A2A2A2A2A2A2A2A2A2A0D0A0000006A
:1011A00025730000094D4FF4FA74002201212846EE
:1011B000FFF791FA204600F0AAFB012211462846CB
:1011C000FFF789FA204600F0A2FBEEE7001002408C
:1011D00010B59CB01C2216496846FFF782F8002122
:1011E000684600F0A0FB134C11491C2220601C3102
:1011F00007A8FFF776F8002107A800F094FB0C4938
:1012000060601C2238310EA8FFF76BF800210EA891
:1012100000F089FB0649A0601C22543115A8FFF795
:1012200060F8002115A800F07EFBE0601CB010BD46
:10123000E42600080400002070B586B0142168463A
:10124000FFF768F822480025016841F010010160AD
:10125000016801F010010591016841F08001016011
:10126000016801F080010591016841F00101016010
:10127000016801F001010591016841F0020101607E
:101280000068144E00F0020001220590114630461D
:10129000FFF721FA042000904FF444100124CDE917
:1012A000010469463046FFF719F90220CDE90250E2
:1012B0000094694601943046FFF710F90022052199
:1012C0000820FFF7A5FA0820FFF794FA06B070BDD2
:1012D00030380240001002400C4810B50A49016045
:1012E0004FF4E1314160002181600C22C160C0E90E
:1012F00004128161C161FFF794FE002803D0BDE8AC
:101300001040FFF78EB810BD00100140D806002035
:10131000FEE7FEE710B5502080F31188BFF34F8F32
:10132000BFF36F8F01F016F918B104494FF08050E8
:101330000860002080F3118810BD000004ED00E07B
:1013400030B593B030216846FEF7E4FF14210CA8B5
:10135000FEF7E0FF1E480025016841F08051016062
:10136000006800F0805011901A48016841F48041F3
:1013700001600068022400F4804011900120009078
:10138000000401908001CDE90640082008904FF448
:10139000A870CDE9090404200B906846FFF774FBA0
:1013A00008B172B6FEE70CA90F2081E831004FF4B6
:1013B000A0500F904FF48050109005210CA8FFF71B
:1013C00059FA002801D072B6FEE713B030BD000014
:1013D00040380240007000400248016841F470014A
:1013E0000160704788ED00E00148FFF774BD000020
:1013F00020070020F0B50268294C2A4D2A4E2B4FB9
:101400002B4B4FF0804CA04209D0604507D0A8423A
:1014100005D0B04203D0B84201D0984204D122F0A6
:10142000700E4A6842EA0E02A0421BD0604519D0F5
:10143000A84217D0B04215D0B84213D0984211D06C
:101440001C4DA8420ED01C4DA8420BD01B4DA842EB
:1014500008D01B4DA84205D01A4DA84202D01A4D03
:10146000A84203D122F44075CA682A434D6922F08C
:1014700080022A4302608A68C2620A688262A042CD
:1014800001D0984201D109690163012141610169DB
:10149000C90703D0016921F001010161F0BD00001D
:1014A000000001400004004000080040000C004023
:1014B0000004014000400140004401400048014058
:1014C00000180040001C00400020004070B5044699
:1014D00000680169E26821F440511143016121690A
:1014E000A068E26908436169114308432168CA683A
:1014F00049F20C639A430243CA6020684169A269B9
:1015000021F440711143416131492068884202D081
:101510003049884202D1FFF777FA01E0FFF764FA19
:10152000E2690023192164253226B2F5004F626872
:1015300028D0A0FB0101930F9200FEF7A1FE014607
:10154000B0FBF5F06FF01802504301EB800006EBA2
:101550000010B0FBF5F000F0F002B1FBF5F002EB8B
:101560000012B1FBF5F06FF01803584301EB800057
:1015700006EB0010B0FBF5F000F00F0021681044FE
:10158000886070BDA0FB010192185B41FEF778FEF8
:101590000146B0FBF5F00201B1FBF5F06FF0180366
:1015A000584301EB800006EBC000B0FBF5F000F003
:1015B000F80002EB4002B1FBF5F0584301EB80006C
:1015C00006EBC000B0FBF5F000F00700D6E7000026
:1015D0000010014000140140FEE7000041F2883491
:1015E00000F0E2FC04A000F015F800F0FDFC20463D
:1015F00000F08DF9F4E7000055736172745F546177
:10160000736B2069732072756E6E696E67210D0AA7
:10161000000000000FB4054B10B503A9044A02985E
:1016200000F03CF810BC5DF814FB0000D518000871
:101630008C0000200FB4084B10B504A902AA03982F
:1016400000F02CF8044602A9002000F003F920461F
:1016500010BC5DF814FB0000551800080907090EBE
:10166000002804DB00F1E02080F80014704700F04F
:101670000F0000F1E02080F8141D704702E008C858
:10168000121F08C1002AFAD170477047002001E0FC
:1016900001C1121F002AFBD1704700002DE9FF4F46
:1016A0008BB09A460F460546002606E025280BD04B
:1016B00052460D9990476D1C761C28780028F5D16C
:1016C0000FB03046BDE8F08F0024A04601226049EB
:1016D00000E0044315F8013F203B02FA03F0084202
:1016E000F7D128782E2817D115F8010F44F00404FB
:1016F0002A280ED06FF02F022878A0F13001092996
:101700000AD808EB880102EB410100EB01086D1CCF
:10171000F2E757F8048B6D1C287869283ED006DC68
:101720000028CDD063280BD0642804D136E073287C
:1017300010D075284BD052460D999047761C85E005
:1017400017F8040B8DF8000000208DF80100E94621
:10175000012003E057F8049B4FF0FF3061074FF082
:10176000000401D40AE0641C44450DDA8442FADB2B
:1017700019F804100029F6D106E0641C8442FCDB51
:1017800019F804100029F8D1264404E019F8010BD7
:1017900052460D999047641EF8D257E001CF4FF0A2
:1017A0000A0B002802DA40422D2102E0210504D56F
:1017B0002B218DF82410012103E0E10705D0202121
:1017C000F7E70DF1200908910CE00021F9E701CFBE
:1017D0004FF00A0BF9E75946FEF7B7FD01F1300269
:1017E00009F8012D0028F6D1ADEB090000F1200B1E
:1017F000600701D44FF00108D84502DDA8EB0B00CB
:1018000000E000208046002406E009A85246005D62
:101810000D999047641C761C08988442F5DB04E01F
:10182000302052460D999047761CB8F10001A8F17E
:101830000108F5DC05E019F8010B52460D999047B7
:10184000761CBBF10001ABF1010BF4DC6D1C34E73D
:10185000092801000A68531C0B60107070470000D3
:101860002DE9F041040006D0184E306884420AD1B8
:101870000020BDE8F081502080F31188BFF34F8F26
:10188000BFF36F8FFEE700F08FFB6569776BB66B78
:1018900000F0AAFBBD4201D0B54201D10220E8E729
:1018A0000B48854208D1A06A0028F7D194F8580067
:1018B0000128F3D00320DCE705481438854202D024
:1018C0000DB10120D5E70420D3E70000240000205B
:1018D0004408002003490A685206FCD5C2B24A6097
:1018E0007047000000100140FEF708FFFFF728FDD9
:1018F000FFF7A2FCFFF7F0FCFFF76AFC00F00EF820
:10190000FEE701460020842900D0C81C704710B5AE
:1019100000B9012000F0C0FB002010BD10B500F0A0
:10192000C9FC002010BD7FB50D4604464169B0F9E1
:10193000080081B1A16971B1FFF7E3FFD4E9051295
:101940008DE80700D4E900102B46226900F0D1FD94
:10195000039004B070BDFFF7D4FF03A9CDE90001E7
:10196000208A2B4682B2D4E9001000F095FD0128B0
:1019700001D00020EDE70398EBE700002DE9F041EE
:10198000184C0F460546E6682068001D00F058FA1E
:1019900038B9206890F82C100120884021698143D3
:1019A0002161681C07D137B12168BDE8F0410E48BC
:1019B000091D00F0EDBA20683544B5424560216844
:1019C00005D2A06BBDE8F041091D00F0C9BA606BFB
:1019D000091D00F0C5FAA06A854200D2A562BDE8E3
:1019E000F081000024000020440800202DE9F0418F
:1019F000054600F0D9FA2E4CA068401CA060206873
:101A00002C4F10B1606940B32DE02560A06801281B
:101A100029D1002606EB860007EB800000F092FA41
:101A2000761C072EF6D323488C3000F08BFA214821
:101A3000A03000F087FA1F48B43000F083FA1D4848
:101A4000C83000F07FFA1B48DC3000F07BFA194800
:101A50008C3060631430A06305E02068E96AC06AD6
:101A6000884200D82560606A401C60626864E96A48
:101A70000120226988401043206101EB810007EBBF
:101A80008000291D00F084FA00F0AEFA6069002899
:101A90000CD02068E96AC06A884207D206494FF034
:101AA00080500860BFF34F8FBFF36F8FBDE8F081A8
:101AB000240000206807002004ED00E010B5044673
:101AC00090F8590058B101280CD002280FD05020AE
:101AD00080F31188BFF34F8FBFF36F8FFEE7206B4A
:101AE00000F096FA2046BDE8104000F091BA10BD13
:101AF00010484FF47051420706D0C01D0D4920F028
:101B00000700411AC1F570510B4A00230144C2E994
:101B100000030839183A21F0070111604B600B608F
:101B20000B1AC0E9001393604FF0004053605061FE
:101B3000704700005808002078000020144E154C13
:101B4000A6F1C8074FF08058DFF84C9012E000BFB4
:101B500000F02AFAF068C568281D00F071F9A06845
:101B6000401EA0606068401E606000F03DFA28469C
:101B7000FFF7A4FF60680028EAD138680128F9D986
:101B8000C9F80080BFF34F8FBFF36F8FF2E70000FB
:101B9000300800202400002004ED00E02DE9F05F73
:101BA0008846DDE90B941546834691009A460A9EC5
:101BB000A522206BFEF7A7FB6FF00301206B01EB62
:101BC0008501084420F00707780707D0502080F3EC
:101BD0001188BFF34F8FBFF36F8FFEE70025B8F179
:101BE000000F0FD05FF00000221818F8001082F8E4
:101BF000341018F8001011B1401C1028F4D384F8E8
:101C0000435001E084F83450072E00D30626E662E4
:101C1000C4E91365201D00F0A0F904F1180000F0DC
:101C20009CF92461C6F107006462A061656584F8CF
:101C3000585052465946384600F0ECF82060B9F149
:101C4000000F01D0C9F80040BDE8F09F30B5114940
:101C500000E011460A688242FBD34B685C1884425C
:101C600003D1406818444860084643681C189442F1
:101C700009D1084C183C2468A24209D052681A4481
:101C800042600A6812680260814200D0086030BD7C
:101C90000460F9E7780000202DE9F04781460868E4
:101CA00092460C46002600B3606804F108054068BF
:101CB0006060A84201D1416861606068D0F80C8022
:101CC000606840686060A84201D1416861606068F6
:101CD00006EBC60109EB8101C7685346012238466D
:101CE00000F046FA761C4745EAD13046BDE8F08759
:101CF0000648416B096829B1416BC968C9684968E0
:101D0000816270474FF0FF31FAE7000024000020A5
:101D100008484068401C4FF0500080F3118804D000
:101D2000BFF34F8FBFF36F8FFEE7BFF34F8FBFF34C
:101D30006F8FFEE7800000202DE9F0410546002767
:101D400000F0EEFA324E306808B9FFF7D1FE706944
:101D500005424ED1C5B3083568070ED005F007001F
:101D6000C0F108000544680707D0502080F31188AF
:101D7000BFF34F8FBFF36F8FFEE72DB370688542BF
:101D800037D82348183001460C6801E020460C463D
:101D90006168A94202D221680029F7D131688C42DA
:101DA00027D007682168016060680837411B102947
:101DB0000FD96019420708D0502080F31188BFF373
:101DC0004F8FBFF36F8FFEE713E041606560FFF751
:101DD0003DFF61687068401A7060B268904200D23E
:101DE000B060706901430020C4E90001F068401C44
:101DF000F06000F015FC780707D0502080F31188C0
:101E0000BFF34F8FBFF36F8FFEE73846BDE8F08119
:101E10006000002010B5031F4FF080741C601B1F72
:101E200021F001011960191F044B0B6014390A607D
:101E3000091F6FF0020244380A6010BD111D00082E
:101E4000D0E9013201699A60D0E901235A604A68F9
:101E5000824201D182684A60002202610868401E05
:101E600008600868704700002DE9F04717460A46E9
:101E700005460024072600F053FADFF88C80D8F8D6
:101E8000080082423BD3DFF88490761E06EB860181
:101E900004EBC40009EB810105EB80000122FFF790
:101EA000FBFE0444002EF0D104EBC40005EB8000DF
:101EB00002224646D8F83410FFF7EEFE044404EB45
:101EC000C40005EB80000222B16BFFF7E5FE04447D
:101ED0000E4904EBC40005EB80000422C831FFF773
:101EE000DBFE0444094904EBC40005EB8000032237
:101EF000DC31FFF7D1FE04440FB10020386000F060
:101F00008FFB2046BDE8F0872400002068070020F2
:101F1000034B036003F15C00086080201060704791
:101F20002002002001A0FFF775BB00002573206987
:101F30007320537461636B204F766572466C6F77C4
:101F4000210D0A0000F108014FF0FF32C0E9011233
:101F5000C16001610021016070470021016170478B
:101F600030B50B685A1C02D000F1080202E0026989
:101F700004E02246546825689D42FAD953684B60B4
:101F800099608A60516008610168491C016030BD38
:101F900042684A6093688B609368596091600861F9
:101FA0000168491C01607047502080F31188BFF31D
:101FB0004F8FBFF36F8F0A494868401C4860012863
:101FC0000CD10848006810F0FF0F07D0502080F3B4
:101FD0001188BFF34F8FBFF36F8FFEE7704700008C
:101FE0008000002004ED00E00849486828B1401E48
:101FF000486001D180F311887047502080F3118828
:10200000BFF34F8FBFF36F8FFEE70000800000200B
:1020100070B500282AD0164DA0F1080460686969DF
:10202000084207D1502080F31188BFF34F8FBFF3D0
:102030006F8FFEE722683AB1502080F31188BFF31A
:102040004F8FBFF36F8FFEE78843606000F068F941
:1020500060686968084468602046FFF7F7FD2869F2
:10206000401C2861BDE8704000F0DABA70BD000085
:10207000600000204FF0E0200021016181610549EE
:102080004FF47A720968B1FBF2F1491E41610721F0
:10209000016170472000002010B5020014D00F48E5
:1020A000006B38B1502080F31188BFF34F8FBFF31E
:1020B0006F8FFEE700F034F900211046FFF75EFC59
:1020C00000F0AEFA002807D105494FF080500860B3
:1020D000BFF34F8FBFF36F8F10BD000024000020AF
:1020E00004ED00E070B50D4604000BD095B11E4A1A
:1020F000106BB8B1502080F31188BFF34F8FBFF33E
:102100006F8FFEE7502080F31188BFF34F8FBFF32E
:102110006F8FFEE7502080F31188BFF34F8FBFF31E
:102120006F8FFEE700F0FCF8D268236859199342DC
:1021300004D98B420AD9914202D807E08B42FAD9DE
:10214000881A21600021FFF719FC00E0216000F0EF
:1021500067FA002807D105494FF080500860BFF3A7
:102160004F8FBFF36F8F70BD2400002004ED00E09F
:102170002DE9F0410C461D491646B0B14FEA000565
:1021800005F13400C4E90050E86A2061286BE06181
:10219000686CA0600027E86CC4E90507052B12D025
:1021A0000868854203D1277311E00D68E8E72373BF
:1021B000032B0CD100F0B4F8A86A08B102202073F8
:1021C00000F02EFA03E02846FFF74AFB20735EB1C9
:1021D0000021286B01E0401C491C0278A52AFAD096
:1021E00088082084BDE8F0812784FBE724000020D4
:1021F0002DE9FC474FF00009044680F8009028487C
:102200008568806800EBC0008000FFF795FD07003F
:1022100044D000222946FFF727FE8046002536E0FD
:1022200005EBC50007EB8006307B052817D2DFE8F9
:1022300000F0030510121400582000E052208246DE
:1022400020467168FEF778F82046FEF76EF82021E8
:1022500009E04220F3E75320F1E74420EFE70020B4
:10226000EDE72154401C0F28FBD304F800900444F0
:10227000B168308CCDE9000152460AA1204633698D
:10228000FFF7D8F92046FEF750F804446D1C454589
:10229000C6D33846BDE8FC47FFF7BABEBDE8FC87A9
:1022A0002400002009256309257509257509257570
:1022B0000D0A000010B586B00024039405AA04A9F5
:1022C00003A80494FFF724FEDDE903010094CDE99F
:1022D000011000230EA11048059A00F00AF90F49D9
:1022E0000028C86211D0502080F31188BFF34F8FAF
:1022F000BFF36F8F4FF0FF30886201204861CC60E0
:1023000006B0BDE8104000F04DB806B010BD0000AA
:1023100049444C45000000003D1B000824000020FB
:102320000248016B491C0163704700002400002033
:1023300010B51A4C206B10B10120E06110BD0020D7
:10234000E061206821680068096B884204D8216830
:1023500020683431FFF7E6FD20691149B0FA80F0BA
:10236000C0F11F0000EB800051F820206AB101EBA2
:10237000800000F10802416849684160914201D142
:1023800049684160C868206010BD502080F3118802
:10239000BFF34F8FBFF36F8FFEE7000024000020D4
:1023A000680700201CB537480168374A914207D1B9
:1023B000502080F31188BFF34F8FBFF36F8FFEE77C
:1023C00000683149491E884207D1502080F31188A6
:1023D000BFF34F8FBFF36F8FFEE72C490878019052
:1023E000FF20087008788DF800009DF800009DF827
:1023F000002000F0F000904207D0502080F31188B8
:10240000BFF34F8FBFF36F8FFEE79DF80000204CA6
:1024100000F0500020700720A06005E09DF800202B
:1024200052008DF80020401E9DF800201206F5D4C1
:10243000A060032807D0502080F31188BFF34F8F8E
:10244000BFF36F8FFEE74FF44070A06001980870F3
:102450000C482030016841F470010160016841F0CE
:1024600070410160FFF706FE00206060FDF7BAFED4
:102470000848016841F040410160FDF79FFE0020DF
:102480001CBD000000ED00E071C20F4100E400E05F
:102490008000002034EF00E02DE9FF5F8346DDE996
:1024A0000E87994616468A469000FFF745FC0500C0
:1024B0001CD05C20FFF740FC040014D000202563F2
:1024C00084F85900CDE90240CDE900874B463246F9
:1024D00051465846FFF762FB2046FFF787FA012076
:1024E00004B0BDE8F09F2846FFF792FD4FF0FF30A3
:1024F000F6E7F0B585B0DDE90B640A9DA6B1DCB165
:102500005C2700972663022684F85960002604AFF2
:10251000CDE90246CDE90057FFF740FB2046FFF723
:1025200065FA049805B0F0BD502080F31188BFF320
:102530004F8FBFF36F8FFEE7502080F31188BFF3FA
:102540004F8FBFF36F8FFEE70148C06870470000F0
:10255000240000202DE9F0412F4C0026206B28B1EB
:10256000A069401CA0613046BDE8F081E5686D1CA3
:10257000E56013D1606B006838B1502080F311889A
:10258000BFF34F8FBFF36F8FFEE7606BA16B61638B
:10259000A063206A401C2062FFF7AAFBA06ADFF854
:1025A0007C80854209D3606B0068A0B1606BC06815
:1025B000C7687868854211D2A0622068C06A00EBC3
:1025C000800158F82100012800D90126E06900287F
:1025D000C9D00126C7E74FF0FF30EDE7381DFFF700
:1025E0002FFCB86A18B107F11800FFF729FCF96A47
:1025F0000120226988401043206101EB810108EB32
:102600008100391DFFF7C4FCF86A2168C96A884255
:10261000C9D30126C7E70000240000206807002076
:102620002DE9F0472C4D00242746286B38B1FFF7E1
:10263000BBFC286B401E2863286B40B146E050204D
:1026400080F31188BFF34F8FBFF36F8FFEE7A96848
:10265000224E0120D1B3A6F1B40980463068E8B11A
:10266000F068C46804F11800FFF7EAFB201DFFF7CB
:10267000E7FBE06A2A6908FA00F11143296100EBDF
:10268000800109EB8100211DFFF782FCE06A2968C7
:10269000C96A8842E2D3C5F81C80DFE70CB1FFF7B6
:1026A00027FBAC6944B14646FFF754FF00B1EE6129
:1026B000641EF9D10020A861E86938B108490127F2
:1026C00038070860BFF34F8FBFF36F8FFFF78CFCA5
:1026D0003846BDE8F0870000240000201C080020D8
:1026E00004ED00E078270008DD150008FEFF00007B
:1026F00000000000800000007C0400207C06002018
:102700006C270008A5110008000000000000000070
:10271000800000000000000000000000902700087A
:10272000F51000080000000000000000800000001C
:10273000000000000000000084270008DD030008FE
:10274000FEFF00000000000080000000000000000C
:10275000000000000000000000000000010203046F
:102760000607080900000000010203044C656430FC
:102770005461736B0000000055736172745461738F
:102780006B00000044656C61795461736B0000005C
:102790004B65795461736B00B82700080000002076
:1027A000900000007C1600084828000890000020D7
:1027B000C84700008C160008000000000000000060
:1027C0000000000000000000000000000100000008
:1027D00010000000000000000024F40000000000D1
:1027E00000000000000000000000000000000000E9
:1027F00000000000000000000000000000000000D9
:1028000000000000000000000000000000000000C8
:1028100000000000000000000000000000000000B8
:1028200000000000000000000000000000000000A8
:10283000000000000000000000000000AAAAAAAAF0
:08284000000000000000000090
:040000050800018965
:00000001FF
