:020000040800F2
:1000000050AE00205D0200089B1B0008A5190008E7
:10001000991B00086B040008691E0008000000001E
:100020000000000000000000000000009D0100082A
:100030006D04000800000000F9010008C51B00085D
:1000400077020008770200087702000877020008AC
:10005000770200087702000877020008770200089C
:10006000770200087702000877020008770200088C
:10007000770200087702000877020008770200087C
:10008000770200087702000877020008770200086C
:10009000770200087702000877020008770200085C
:1000A00077020008891C0008770200087702000820
:1000B000770200087702000877020008770200083C
:1000C000770200087702000877020008770200082C
:1000D000770200087702000877020008770200081C
:1000E000770200087702000877020008770200080C
:1000F00077020008770200087702000877020008FC
:1001000077020008770200087702000877020008EB
:1001100077020008770200087702000877020008DB
:1001200077020008770200087702000877020008CB
:1001300077020008C104000877020008770200086F
:1001400077020008770200087702000877020008AB
:10015000770200087702000877020008770200089B
:10016000770200087702000877020008770200088B
:1001700077020008770200087702000800000000FC
:100180007702000877020008DFF80CD000F030F9A1
:1001900000480047C344000850AE00202C4B1968AB
:1001A0000868B0E8F04F80F30988BFF36F8F4FF015
:1001B000000080F3118870470000000008480068C4
:1001C000006880F308884FF0000080F3148862B65E
:1001D00061B6BFF34F8FBFF36F8F00DF00BF00BF6B
:1001E00008ED00E0DFF80C00016841F470010160E7
:1001F000704700BF88ED00E0EFF30980BFF36F8F19
:10020000134B1A681EF0100F08BF20ED108A20E96A
:10021000F04F106009B44FF0500080F31188BFF325
:100220004F8FBFF36F8F0CF04DF94FF0000080F34C
:10023000118809BC19680868B0E8F04F1EF0100F6B
:1002400008BFB0EC108A80F30988BFF36F8F704746
:1002500030000020EFF3058070470000064880471B
:1002600006480047FEE7FEE7FEE7FEE7FEE7FEE79B
:10027000FEE7FEE7FEE7FEE7791C000889010008BB
:100280002DE9F05F0546002092469B4688460646CB
:10029000814640241BE0284641464746224600F05E
:1002A00097F853465A46C01A914110D31146184642
:1002B000224600F07EF82D1A67EB01084F462246D1
:1002C0000120002100F075F817EB00094E41201EB7
:1002D000A4F10104DFDC484631462A464346BDE826
:1002E000F09F00000649074A0868504343F239026C
:1002F00010440860400870470149086070470000DA
:10030000640100206D4EC64110B5431A934209D2D4
:100310008318881803E010F8011D03F8011D521E10
:10032000F9D210BD40EA01039B0703D009E008C9D8
:10033000121F08C0042AFAD203E011F8013B00F8AA
:10034000013B521EF9D210BDD2B201E000F8012BE0
:10035000491EFBD270470022F6E710B513460A4645
:1003600004461946FFF7F0FF204610BD30B504469D
:100370000020034600E05B1C934203D2E05CCD5CAE
:10038000401BF8D030BD30B50B460146002020227E
:10039000012409E021FA02F59D4205D303FA02F592
:1003A000491B04FA02F52844151EA2F10102F1DCF2
:1003B00030BD202A04DB203A00FA02F10020704709
:1003C0009140C2F1200320FA03F319439040704793
:1003D000202A04DB203A21FA02F00021704721FA9A
:1003E00002F3D040C2F12002914008431946704701
:1003F000064C074D06E0E06840F0010394E8070072
:1004000098471034AC42F6D3FFF7C2FEDCD40008A4
:10041000FCD4000870B58C1810F8015B15F00703C8
:1004200001D110F8013B2A1106D110F8012B03E08D
:1004300010F8016B01F8016B5B1EF9D12B0705D495
:100440000023521E0DD401F8013BFAE710F8013BDE
:10045000CB1A921C03E013F8015B01F8015B521EFA
:10046000F9D5A142D8D3002070BDFEE77047000047
:10047000064908B509684FF4FA52B1FBF2F141435D
:10048000009100BF491E0091FBD208BD2C00002046
:1004900038B50446006800F58050816941F4801148
:1004A0008161206800F58050806900900120FFF78D
:1004B000DFFF2068009900F58050816138BD0000A1
:1004C000014800F064B90000903400202DE9F041AB
:1004D000044621B14FF40060E060C000A060E06914
:1004E0000025002861D028462368402619683A4A2A
:1004F0001140D4E902273A43024342F40070084312
:10050000186020680768012000F074F82068076010
:100510002068466020684668012000F06BF820687B
:100520004660206885602068C560216888694FF64C
:100530004172104040F08000886120688669012087
:1005400000F058F8206886612068C5612068C56998
:10055000012000F04FF82068C561226802F5805242
:1005600090691E4908401E4901439161206800F5C9
:1005700080508569012000F03DF8206800F580502A
:1005800085612068174900F580500160206800F5FA
:1005900080500568012000F02DF8206800F580509B
:1005A0000560A069012803D009E04FF480609BE753
:1005B000206800F58050C1690B4A1143C161606930
:1005C0000A4982880A640278D0F8010042EA0020D1
:1005D0004864BDE8F08100000F8120FF233FDEF872
:1005E000040020028020C10240000100008002407F
:1005F0007047000070B5044600F0BAFC0546601C68
:1006000002D004480078044400F0B2FC401BA04231
:10061000FAD370BD200000202DE9F04390F845404A
:100620000025012C0DD04FF0010C80F845C00224AC
:1006300080F8444044F2F4574FF000495E1E816256
:1006400017E00220BDE8F08301EB4514C4F80090E8
:10065000C5EBC51808EB480802EB8808C4E9017827
:10066000B54204D204F12008C4F80C8000E0E16037
:100670006D1C9D42E8D3026802F58052D16080F87B
:1006800044C0002180F845100846DBE72DE9F0431F
:10069000914690F845200024012A0AD0012680F8CE
:1006A0004560022280F844204FF4801C5D1EC16228
:1006B0001BE00220BDE8F08301EB4412C2F800C049
:1006C000C4EBC41707EB470809EB88079760C769B5
:1006D0001FB9176847F440071760AC4203D202F114
:1006E0002007D76000E0D160641C9C42E4D302681C
:1006F00002F58052116180F84460002180F84510B5
:100700000846D7E7704730B590F845100023012917
:1007100008D0012280F84520022180F844100024EE
:10072000816A1AE0022030BD0D685B1CC5F301250B
:10073000022D0AD00D6815F4407F09D04163836B08
:100740005B1C8363012B12D012E08263016302E021
:10075000856B6D1C8563C96881620D68002D01DBA6
:10076000042BE1D300F8442F4470012030BD016315
:100770000B68C3F30D431B1FC363036B9B680364C8
:10078000C96840F8281F02774477002030BD70B553
:100790000446006800F5805041694FF000054906A5
:1007A0004FF0010608D5204600F0DCF92068402112
:1007B00000F58050416109E04069C0070AD0204639
:1007C00000F09CFA206800F58050466184F844608F
:1007D00084F8455020684FF4803100F58050416125
:1007E000206800F58050406900040CD52046FFF7D2
:1007F00089FF20684FF4004100F58050416184F882
:10080000446084F8455070BD2DE9FC474FF0000668
:100810000400B146009603D094F8440018B107E0F4
:100820000120BDE8FC8784F84560204600F0E4F82C
:100830006748016841F480410160006800F480402D
:1008400001906448016821F4000101600168226A96
:1008500011430160206800F58050016841F00101FA
:10086000016000F085FB05464FF4FA7709E000BF10
:1008700000F07EFB401BB84203D9032004F8440F6C
:1008800067E0206800F580500068C007F0D120685C
:10089000006920F01C0500F0E3FC4F494F4A014479
:1008A000914202D245F0080516E04D494D4A0144F7
:1008B000914202D245F00C050EE04B494B4A0144EF
:1008C000914209D34A4908444A49884202D245F034
:1008D000040501E045F01005206805614FF4004271
:1008E0000021204600F00CFA0125A8BBFF20FFF7ED
:1008F00081FE606888B300F03BFB804641F2883798
:100900006A460121204600F0EBF800F031FBA0EB35
:100910000800B84217D800984007F1D54FF480522C
:100920000021204600F0ECF9B0B900F021FB804630
:100930006A460121204600F0D3F800F019FBA0EB35
:100940000800B8420AD901212046FFF7BFFD04F88C
:10095000445F0320667064E726E01AE00098800692
:10096000E6D56A461121204600F0BAF8E0B90098B1
:10097000810403D54FF40061E16000E0E66044F2D9
:100980001001814303D04FF48040A06017E0A660BF
:1009900015E0E068A168C00840EA510082B2002179
:1009A000204600F0ADF930B101212046FFF78EFD61
:1009B00084F8445034E740F6FF70FFF71BFE4946C9
:1009C0002046FFF783FD84F84450002029E700000B
:1009D000443802400438014000D3CEFEC0E1E400B8
:1009E00040F1E9FD40787D0100796CFC005A62021B
:1009F000001F0AFA80F0FA02F0B587B0044614210D
:100A00006846FFF7A8FC3149206888425BD130482E
:100A10000024016841F000710160016801F000717B
:100A20000591016841F080610160016801F0806119
:100A30000591016841F000610160016801F0006109
:100A40000591016841F004010160016801F00401B1
:100A50000591016841F001010160016801F00101A7
:100A60000591016841F0400101600068022500F035
:100A7000400005903220CDE9000502AA03260B278D
:100A800082E8D0006946134800F076F98620CDE967
:100A9000000502AA694682E8D0000F4800F06CF910
:100AA0004FF4D040CDE9000502AA694682E8D000A3
:100AB0000A4800F061F9002205213D2000F0E4FA27
:100AC0003D2000F0D3FA07B0F0BD000000800240E6
:100AD0003038024000080240000002400018024086
:100AE0002DE9F047044690F84400914682281DD035
:100AF000822084F84400226810694FF6FF7500F0E8
:100B00001C03208A05EAC02018434FF4F86303EA67
:100B10008111014321F0020040F00105156100F050
:100B200027FA064601274FF4803810E00220BDE87E
:100B3000F08700BF00F01CFA801B404505D304F885
:100B4000447F002060700320F1E720680569E80712
:100B5000F0D12068406981B2C9F8001084F844706F
:100B60000020E4E70148006804F0D6BC1C00002027
:100B7000F8B5044690F84500012839D0012584F8DD
:100B80004550022084F8440020680026016841F0A6
:100B9000080101602068006800902846FFF768FCA3
:100BA0002168009808602068016841F00401016034
:100BB0002068006800900120FFF75AFC2168009827
:100BC00008602046FFF764FC206800F580508169CA
:100BD00041F400518161206800F58050816941F045
:100BE0000201816184F8445084F845600020F8BD1A
:100BF0000220F8BDF0B590F845200023012A11D05D
:100C0000012780F84570022280F84420002459B161
:100C1000C66A3268002A0ADA122100F8441F4470BA
:100C20000120F0BD0220F0BD00F8447FF7E740F25C
:100C3000F455A9420BD9B1FBF5FCB1FBF5F205FB6C
:100C40001C1CBCF1000F00D0521C012A43D1326899
:100C500042F040523260C26AC1F30C015160C16A75
:100C60000A6842F000420A60C16AC968C16234E0A1
:100C7000D6F800C02CF0405CC6F800C033B9C66A94
:100C8000D6F800C04CF0805CC6F800C0C66A75603B
:100C9000561EB34214D1C66AD6F800C04CF0005CB0
:100CA000C6F800C0C2F10106C6EBC61606EB460642
:100CB000D0F82CC001EB8606C6F30C06CCF8046015
:100CC000C66AD6F800C04CF0004CC6F800C0C66A30
:100CD0005B1CF668C6629342CAD3016801F5805175
:100CE0004A69520705D504224A61016801F580511D
:100CF0004C6000F8447F44700020F0BD7047000055
:100D00002DE9F041044690F8440042281ED04220CC
:100D100084F84400236818694FF6FF7600F01C053C
:100D2000208A06EAC02028434FF4F86505EA8111BD
:100D3000014390B241F0030558612068056100F05D
:100D400017F9064601274FF4803810E00220BDE86D
:100D5000F08100BF00F00CF9801B404505D304F87A
:100D6000447F002060700320F1E720680569E807F0
:100D7000F0D184F84470EAE72DE9F84FDFF8B8A124
:100D8000002201250AF1040B03264FF00F090BF195
:100D9000040E00BF0B6805FA02F42340A3426FD192
:100DA0000F7907F00307012F01D0022F16D18768B2
:100DB0004FEA420806FA08FC27EA0C07D1F80CC0F3
:100DC0000CFA08FC4CEA070CC0F808C04768A743B7
:100DD0000C79C4F3001494403C4344600C79E44320
:100DE000A4070AD0C4684FEA420C06FA0CF7BC43C9
:100DF0008F6807FA0CF72743C7600C7904F00304E7
:100E0000022C12D1D40800EB840CDCF820405707E8
:100E1000FF0E09FA07F824EA0804D1F8108008FA4E
:100E200007F848EA0408CCF8208004684FEA420C2E
:100E300006FA0CF7BC430F7907F0030707FA0CF723
:100E4000274307604C68E40070D53C4C276847F4A2
:100E500080472760246822F0030704F4804400944C
:100E6000374C07EB040CDCF8084897074FEA177873
:100E700009FA08F7BC43334FB84202D1002724E0F7
:100E800054E0314FB84201D101271EE02F4FB84244
:100E900001D1022719E02E4FB84201D1032714E0F7
:100EA0002C4FB84201D104270FE02B4FB84201D19B
:100EB00005270AE0294FB84201D1062705E0284F4F
:100EC000B84201D1072700E0082707FA08F72743AF
:100ED000CCF80878DAF800405746D1F804C09C43B3
:100EE0005FEACC3C00D51C433C60DBF800405F4629
:100EF000D1F804C09C435FEA8C3C00D51C433C60A5
:100F0000DEF800407746D1F804C09C435FEACC2C61
:100F100000D51C433C60084F0C373C68D1F804C036
:100F20009C435FEA8C2C00D51C433C60521C102A69
:100F3000FFF430AFBDE8F88F003C01404438024078
:100F4000003001400000024000040240000802405E
:100F5000000C024000100240001402400018024041
:100F6000001C02400AB1816170470904FBE70000E0
:100F70000148806870470000200000200248816816
:100F80000278114481607047200000200B4810B5A2
:100F9000016841F400710160016841F48061016001
:100FA000016841F480710160032000F08DF8002099
:100FB00000F006F800F03EF8002010BD003C0240B2
:100FC00010B5014688B00022192000F05DF8192004
:100FD00000F04CF813480024016841F00101016061
:100FE000006805A900F001000690684600F018F9B5
:100FF00000F04CF90C494000B0FBF1F10C480B4AF1
:10100000491E026040F2E732C0E90324C0E901143E
:1010100000F034FB10B1012008B010BD044800F00E
:101020005BFBF9E74438024040420F0000000140FA
:101030001C3500200C4882B0016841F480410160F9
:10104000006800F4804000900748001F016841F0EC
:10105000805101600068002200F0805000900F2154
:10106000901E02B000F010B844380240002809DB9E
:1010700000F01F02012191404009800000F1E020B2
:10108000C0F8001170470000F0B40E4B1B680C460E
:10109000C3F30223C3F10705042D00D90425191D4C
:1010A000072901D2002300E0DB1E012606FA05F124
:1010B000491E214099409E40761E16403143F0BCA7
:1010C00000F0E4BE0CED00E0064900F007020868FD
:1010D0004FF6FF03184040EA0220034A104308601D
:1010E000704700000CED00E00000FA052DE9F04724
:1010F0000E46050065D0DFF81481D8F80000F7B27D
:1011000000F00700B04207D288F80070D8F800005D
:1011100000F00700B04254D128683D4C810712D539
:10112000400703D5206840F4E0502060287800078D
:1011300003D5206840F4604020602068A96820F052
:10114000F000084320602878C0072DD03049686837
:101150000839012812D0022813D0032811D00968B9
:10116000890700292DDA216821F00301014321605C
:10117000FFF7FEFE814641F2883A0EE009688903D6
:10118000EFE709688901ECE7FFF7F2FEA0EB090140
:10119000514502D90320BDE8F0872068696800F056
:1011A0000C00B0EB810FEFD1D8F80010404601F0F1
:1011B0000701B14207D90770006800F00700B0428C
:1011C00001D00120E7E72878400705D52068E968C5
:1011D00020F4E050084320602878000706D52068F6
:1011E000296920F4604040EAC100206000F05EF808
:1011F0002168084AC1F30311515CC84006490860E0
:1012000006480068FFF7DCFE0020C4E7003C02400F
:101210000838024038D200082C00002024000020AA
:101220000F2202600C4A136803F003034360136843
:1012300003F0F0038360136803F4E053C3601268A3
:101240004FF4E05303EAD20202610448006800F060
:10125000070008607047000008380240003C024068
:1012600001480068704700002C0000200448054930
:1012700000680968044AC1F38221515CC840704784
:101280002C0000200838024048D2000804480549D4
:1012900000680968044AC1F34231515CC840704794
:1012A0002C0000200838024048D20008154810B52C
:1012B000006810F00C02144813D04110042A0FD01B
:1012C000082A0ED10F4C241F2268236802F03F0227
:1012D0005B0207D52068C0F38810A0FB010106E07F
:1012E000084610BD2168C1F38811A1FB000100234D
:1012F000FEF7C6FF2168C1F30141491C4900B0FB5C
:10130000F1F010BD083802400024F4002DE9F84F38
:1013100004006ED02078DFF84C93C007A9F10405D3
:101320004AD009F104000168C1F38101012908D004
:101330000068C0F3810002280AD1D9F800004002F9
:1013400006D52868800337D560680028E1D033E0EF
:101350006068B0F5803F10D0B0F5A02F286810D09D
:1013600020F480302860286820F48020286060689D
:10137000A8B1FFF7FDFD06460DE0286840F4803077
:10138000F4E740F480202860F7E700BFFFF7F0FDA6
:10139000801B642873D828688003F7D50CE0FFF71A
:1013A000E7FD064605E000BFFFF7E2FD801B64286D
:1013B000F0D828688003F7D42078DFF8AC82800763
:1013C0004FF0000A3ED5A748001D016811F00C0F30
:1013D00008D00068C0F3810002280BD1D9F80000C2
:1013E000400207D42868800716D5E068012800D19C
:1013F00012E033E1E068B8B10120C8F80000FFF75F
:10140000B7FD064605E000BFFFF7B2FD801B0228CE
:10141000C0D828688007F7D52868216920F0F8002F
:1014200040EAC10028600DE0C8F800A0FFF7A0FD69
:10143000064604E0FFF79CFD801B02281FD82868A1
:101440008007F7D42078000722D5864F8748616946
:10145000703771B101210160FFF78AFD064604E093
:10146000FFF786FD801B022809D838688007F7D56A
:101470000EE0C0F800A0FFF77BFD064605E082E025
:10148000FFF776FD801B02287DD838688007F7D4E7
:101490002078400768D5DFF8CCB100270BF13C0B72
:1014A000DBF80000C0000BD4DBF8001041F08051E5
:1014B000CBF80010DBF80000012700F0805000900E
:1014C0006B4E3068C00510D4306840F480703060D6
:1014D000FFF74EFD009005E0FFF74AFD0099401A26
:1014E000022850D83068C005F6D55E4EA0686C362C
:1014F00001280FD00528306810D020F0010030609E
:10150000306820F004003060A068B8B1FFF730FD0B
:1015100000900FE0306840F00100F4E740F0040074
:101520003060F7E7FFF724FD0099411A41F2883057
:10153000814266D830688007F4D50EE0FFF718FDC9
:10154000009007E0FFF714FD0099411A41F288303E
:10155000814256D830688007F4D42FB1DBF80010F0
:1015600021F08051CBF80010A069C8B33D49091D96
:101570000968C1F3810102294AD00228504607D0E8
:10158000C8F8600000E03CE0FFF7F2FC04463BE0F6
:101590004746C8F86000FFF7EBFC064605E000BFD1
:1015A000FFF7E6FC801B02282BD828688001F7D4BF
:1015B000D4E907010843A16A2E4A490802EB014118
:1015C000626A41EA8211084394F82C1040EA0161F2
:1015D000C9F8001001203866FFF7CAFC044606E08F
:1015E0003EE000BFFFF7C4FC001B022809D82868B2
:1015F0008001F7D534E000BFFFF7BAFC001B0228DA
:1016000002D90320BDE8F88F28688001F4D427E0D0
:101610000128F7D0D9F80000E26900F48001914276
:101620001CD1226A00F03F01914217D147F6C071E8
:10163000626A0140B1EB821F10D1A26A4FF0FF3302
:1016400000F4403103EB5202B1EB024F06D194F8A3
:101650002C1000F07060B0EB016F01D00120D1E7D9
:101660000020CFE70438024000004742800E474286
:10167000007000400000FFFF7047704710B5040085
:1016800003D094F83D0010B107E0012010BD002008
:1016900084F83C00204600F01EF8022084F83D004B
:1016A000211D206800F0F6FA012084F8460084F835
:1016B0003E0084F83F0084F8400084F8410084F83C
:1016C000420084F8430084F8440084F8450084F81C
:1016D0003D00002010BD704790F83D10012901D059
:1016E00001207047022180F83D100168CA6842F06D
:1016F0000102CA6000681149884214D0B0F1804FDD
:1017000011D00F4988420ED00E4988420BD00E49A5
:10171000884208D00D49884205D00D49884202D040
:101720000C49884204D1816801F00701062903D0E1
:10173000016841F001010160002070470000014094
:101740000004004000080040000C0040000401407C
:101750000040014000180040704770B50446006822
:1017600001694FF00005C943890715D4C168C94311
:10177000890711D4E91E0161012020772068806962
:101780008007204602D0FFF7E7FF04E000F098F85A
:10179000204600F096F8257720680169C94349077B
:1017A00017D4C168C943490713D46FF0040101611C
:1017B000022020772068806910F4407F204602D004
:1017C000FFF7CAFF04E000F07BF8204600F079F84C
:1017D000257720680169C943090716D4C168C94340
:1017E000090712D46FF008010161042020772068F6
:1017F000C0698007204602D0FFF7AEFF04E000F08A
:101800005FF8204600F05DF8257720680169C9433C
:10181000C90617D4C168C943C90613D46FF01001B3
:101820000161082020772068C06910F4407F2046BD
:1018300002D0FFF791FF04E000F042F8204600F0EC
:1018400040F8257720680169C943C90708D1C168F4
:10185000C943C90704D1891E0161204600F032F84E
:1018600020680169C943090609D4C168C94309064A
:1018700005D46FF0800101612046FFF7FDFE20686E
:101880000169C943490609D4C168C943490605D459
:101890006FF040010161204600F01EF820680169E8
:1018A000C94389060BD4C168C943890607D46FF0C0
:1018B000200101612046BDE87040FFF7DEBE70BD2B
:1018C0007047704700680349884201D1FFF756BB53
:1018D0007047000000000140704770B5040004D05C
:1018E00094F83D00002510B106E0012070BD84F899
:1018F0003C50204600F022F8242084F83D00206867
:10190000C16821F40051C160204600F027FA206828
:10191000016921F4904101612068416921F02A01A7
:1019200041612068C16841F40051C16025642020F4
:1019300084F83D0084F83E00002070BD10B586B0EC
:10194000044614216846FEF706FD134920688842C4
:1019500020D11248016841F010010160006800F0D8
:10196000100005900D481438016841F00201016033
:101970000068694600F002000590C0200090022037
:101980000190012002900320039007200490044856
:10199000FFF7F2F906B010BD0010014044380240D4
:1019A00000040240FEE7000000B587B01C22064993
:1019B0006846FEF7A9FC0021684603F007FE0349CC
:1019C000086007B000BD000000D200080000002041
:1019D00070B586B014216846FEF7BDFC224800258C
:1019E000016841F480710160016801F48071059122
:1019F000016841F080010160016801F080010591FA
:101A0000016841F004010160016801F004010591E1
:101A1000016841F001010160016801F001010591D7
:101A2000016841F040010160016801F04001059149
:101A3000016841F0020101600068012200F002002B
:101A40000A4E1402059021463046FFF78BFA01201A
:101A5000CDE900400320CDE9025069463046FFF74A
:101A60008BF906B070BD0000303802400020024003
:101A7000FEB5374C0A20012120706070A17016223B
:101A8000E270251DFF222A706A70AA7000272E1DA1
:101A9000EF7030707070B170F1703946384609F0EF
:101AA00053FF2068E17803BA0A0603F47F4342EA51
:101AB000032203BA00BA03F47F03084342EA132265
:101AC000A4F10C0142EA106008602868E97803BAC2
:101AD0000A0603F47F4342EA032203BA00BA03F47E
:101AE0007F03084342EA1322A4F1080142EA10608E
:101AF00008603068F17803BA0A0603F47F4342EACB
:101B0000032203BA03F47F0300BA42EA1322084314
:101B100042EA1060211F231F08600E480E490097FB
:101B2000CDE901101A1F111F0C4803F00BF90B48E7
:101B300003F022FB094890F829004007074803D525
:101B4000BDE8FE4003F072BBBDE8FE4003F01ABBE7
:101B50001000002019BB0008F92E0008C003002067
:101B60000C4810B50A4901604FF4E1314160002191
:101B700081600C22C160C0E904128161C161FFF77C
:101B8000ACFE002803D0BDE81040FEF731BD10BD0B
:101B900000100140D8340020FEE77047FFF768FFCF
:101BA00003A000F063F9012003F090FBFBE70000C5
:101BB0004C57495020696E697420646F776E210A12
:101BC0000000000010B5502080F31188BFF34F8F44
:101BD000BFF36F8F0BF080F918B104494FF08050BC
:101BE0000860002080F3118810BD000004ED00E0C3
:101BF00030B593B030216846FEF7ADFB14210CA838
:101C0000FEF7A9FB1A480025016841F080510160E8
:101C1000006800F0805011901648016841F480413E
:101C200001600068022400F48040119001200090BF
:101C3000000401908001CDE90640082008904FF48F
:101C4000A870CDE9090404200B906846FFF75EFBFD
:101C50000CA90F2081E831004FF4A0500F90E00252
:101C6000109005210CA8FFF741FA13B030BD000019
:101C700040380240007000400248016841F47001A1
:101C80000160704788ED00E00148FFF766BD000085
:101C90001C350020F0B50268254C264D264E274FF6
:101CA000274B4FF0804CA04209D0604507D0A84296
:101CB00005D0B04203D0B84201D0984204D122F0FE
:101CC000700E4A6842EA0E02A0421BD0604519D04D
:101CD000A84217D0B04215D0B84213D0984211D0C4
:101CE000184DA8420ED0184DA8420BD0174DA8424F
:101CF00008D0174DA84205D0164DA84202D0164D67
:101D0000A84203D122F44075CA682A434D6922F0E3
:101D100080022A4302608A68C2620A688262A04224
:101D200001D0984201D10969016301214161F0BDEF
:101D3000000001400004004000080040000C00408A
:101D400000040140004001400044014000480140BF
:101D500000180040001C00400020004070B5044600
:101D600000680169E26821F4405111430161216971
:101D7000A068E26908436169114308432168CA68A1
:101D800049F20C639A430243CA6020684169A26920
:101D900021F440711143416131492068884202D0E9
:101DA0003049884202D1FFF771FA01E0FFF75EFA8D
:101DB000E2690023192164253226B2F5004F6268DA
:101DC00028D0A0FB0101930F9200FEF759FA0146BB
:101DD000B0FBF5F06FF01802504301EB800006EB0A
:101DE0000010B0FBF5F000F0F002B1FBF5F002EBF3
:101DF0000012B1FBF5F06FF01803584301EB8000BF
:101E000006EB0010B0FBF5F000F00F002168104465
:101E1000886070BDA0FB010192185B41FEF730FAAB
:101E20000146B0FBF5F00201B1FBF5F06FF01803CD
:101E3000584301EB800006EBC000B0FBF5F000F06A
:101E4000F80002EB4002B1FBF5F0584301EB8000D3
:101E500006EBC000B0FBF5F000F00700D6E700008D
:101E60000010014000140140FEE700000FB4054BD4
:101E700010B503A9044A029800F028F810BC5DF8D8
:101E800014FB0000B52F0008680100200907090EA7
:101E9000002804DB00F1E02080F80014704700F017
:101EA0000F0000F1E02080F8141D704702E008C820
:101EB000121F08C1002AFAD170477047002001E0C4
:101EC00001C1121F002AFBD1704700002DE9FF4F0E
:101ED0008BB09A460F460546002606E025280BD013
:101EE00052460D9990476D1C761C28780028F5D134
:101EF0000FB03046BDE8F08F0024A04601226049B3
:101F000000E0044315F8013F203B02FA03F00842C9
:101F1000F7D128782E2817D115F8010F44F00404C2
:101F20002A280ED06FF02F022878A0F1300109295D
:101F30000AD808EB880102EB410100EB01086D1C97
:101F4000F2E757F8048B6D1C287869283ED006DC30
:101F50000028CDD063280BD0642804D136E0732844
:101F600010D075284BD052460D999047761C85E0CD
:101F700017F8040B8DF8000000208DF80100E946E9
:101F8000012003E057F8049B4FF0FF3061074FF04A
:101F9000000401D40AE0641C44450DDA8442FADBF3
:101FA00019F804100029F6D106E0641C8442FCDB19
:101FB00019F804100029F8D1264404E019F8010B9F
:101FC00052460D999047641EF8D257E001CF4FF06A
:101FD0000A0B002802DA40422D2102E0210504D537
:101FE0002B218DF82410012103E0E10705D02021E9
:101FF000F7E70DF1200908910CE00021F9E701CF86
:102000004FF00A0BF9E75946FEF7BDF901F130022E
:1020100009F8012D0028F6D1ADEB090000F1200BE5
:10202000600701D44FF00108D84502DDA8EB0B0092
:1020300000E000208046002406E009A85246005D2A
:102040000D999047641C761C08988442F5DB04E0E7
:10205000302052460D999047761CB8F10001A8F146
:102060000108F5DC05E019F8010B52460D9990477F
:10207000761CBBF10001ABF1010BF4DC6D1C34E705
:102080000928010070B505460C46880706D009A34B
:102090004FF4B67213A11BA0FFF7E8FE04F038FD61
:1020A000A96809682160A9680C60BDE8704004F067
:1020B0003BBD00002E2E2F4D6964646C6577617204
:1020C00065732F54686972645F50617274792F4C24
:1020D0007749502F7372632F636F72652F6D656D33
:1020E000702E63006D656D705F667265653A206D78
:1020F000656D2070726F7065726C7920616C6967B4
:102100006E656400417373657274696F6E20222579
:102110007322206661696C6564206174206C696E4D
:102120006520256420696E2025730A0070B5044679
:1021300004F0EEFC0546A0680468002C0FD021686E
:102140000160A00706D008A34FF48C7212A11BA057
:10215000FFF78CFE284604F0E7FC204670BD2846B9
:1021600004F0E2FC002070BD2E2E2F4D6964646CDB
:102170006577617265732F54686972645F5061722C
:1021800074792F4C7749502F7372632F636F726588
:102190002F6D656D702E63006D656D705F6D616C88
:1021A0006C6F633A206D656D702070726F70657230
:1021B0006C7920616C69676E6564000041737365BA
:1021C0007274696F6E2022257322206661696C65C6
:1021D00064206174206C696E6520256420696E201E
:1021E00025730A0070B5094D0646002404EB44002F
:1021F00005EBC000017D29B18068B04202D12046C4
:1022000000F036F9641C0A2CF0DB70BD5CA90020DC
:102210002DE9F74F84B04FF00A0B00240646DA464A
:102220005F46D94602940194CDF80040514904EB31
:10223000440001EBC008039098F814500A2F1DD0F9
:10224000002D2AD0012D08D0022D06D24AA340F23B
:10225000231257A166A0FFF709FE9EB13168D8F896
:10226000040081420ED1069820B1D8F808100698D3
:10227000814207D1204607B0BDE8F08F002DE1D1A3
:1022800027460AE0012D16D0022D06D3B8F8120019
:102290000099884201D3A2460090641C24B20A2C03
:1022A000C4DB059881074FF0FF30E4D40A2F16D025
:1022B00018DA3C463EE02F49039851F830000028D8
:1022C000B8F8120005D002998842E6D3A1460290E0
:1022D000E3E701998842E0D3A3460190DDE7059941
:1022E000C907C8D05146BAF10A0F0EDA0C46214888
:1022F00001EB440150F8310080B11FA340F26D1290
:1023000045A13BA0FFF7B2FD08E05946BBF10A0F1B
:1023100003DB4946B9F10A0FADDA0C460A2C06DB9D
:1023200015A340F27F1242A131A0FFF79FFD204686
:1023300000F09EF80A2C06DB0FA340F283123CA1AA
:102340002BA0FFF793FD0B4804EB440100EBC10504
:10235000287D30B108A34FF4C2723AA124A0FFF740
:1023600085FD0EB130686860002068820698A8601C
:1023700080E700005CA900202E2E2F4D6964646C5C
:102380006577617265732F54686972645F5061721A
:1023900074792F4C7749502F7372632F636F726576
:1023A0002F697076342F6574686172702E63000037
:1023B0007374617465203D3D204554484152505F1F
:1023C00053544154455F50454E44494E47207C7C10
:1023D000207374617465203E3D204554484152503D
:1023E0005F53544154455F535441424C45000000F3
:1023F000417373657274696F6E20222573222066A3
:1024000061696C6564206174206C696E6520256467
:1024100020696E2025730A006172705F7461626CBE
:10242000655B695D2E71203D3D204E554C4C000092
:1024300069203C204152505F5441424C455F534912
:102440005A4500006172705F7461626C655B695D22
:102450002E7374617465203D3D20455448415250AF
:102460005F53544154455F454D505459000000009E
:1024700070B5074C00EB4005002654F8350018B144
:1024800003F040FD44F8356004EBC500067570BDEF
:102490005CA900202DE9F04385B00D00074609D066
:1024A0007C684FF480782088404539D1207906280F
:1024B00036D109E01CA340F28A2229A12CA0FFF703
:1024C000D5FC05B0BDE8F0836079042828D1608888
:1024D000082825D1D4F80E000490A169686820B1BD
:1024E000814202D10126334601E00026022304F195
:1024F0000802914604A9284600F0A2FBE088404566
:102500000ED16EB1022204ABCDE90232291DCDE914
:10251000001905F1220319464A46284600F090FAB0
:10252000384603F0EFFCCCE72E2E2F4D6964646C27
:102530006577617265732F54686972645F50617268
:1025400074792F4C7749502F7372632F636F7265C4
:102550002F697076342F6574686172702E63000085
:102560006E6574696620213D204E554C4C0000007C
:10257000417373657274696F6E2022257322206621
:1025800061696C6564206174206C696E65202564E6
:1025900020696E2025730A00FEB515460E4604001C
:1025A00006D143A340F21E324FA153A0FFF75EFCB9
:1025B00036B93FA340F21F3259A14FA0FFF756FC96
:1025C00035B93BA34FF4487258A14BA0FFF74EFC1E
:1025D0002146286800F082FE08B1584B3FE0286889
:1025E000C0F303110E2925D0A168636800EA010237
:1025F0000B409A4208D080B2A0F57E41A93903D0A1
:10260000E068B0B304F10C054D4B4E481A7802EB6C
:10261000420100EBC1010F7D022F2ED38F68A7422C
:102620002BD12F6849688F4227D13146204600F0D0
:102630008BF8FEBD01208DF8040000208DF8050008
:102640005E208DF80600687801AB00F07F008DF801
:102650000700A8788DF80800E8788DF809004FF495
:102660000060009004F122023146204600F0C8FBD1
:10267000FEBDFFE76FF00300FAE7002202EB420124
:1026800000EBC1010F7D022F08D38F68A74205D14F
:102690002F6849688F4201D11A70C6E7521CD2B226
:1026A0000A2AEBD332462946204600F0D5F8DFE768
:1026B0002E2E2F4D6964646C6577617265732F549B
:1026C000686972645F50617274792F4C7749502F3A
:1026D0007372632F636F72652F697076342F657420
:1026E000686172702E6300006E6574696620213D1A
:1026F000204E554C4C000000417373657274696F35
:102700006E2022257322206661696C6564206174E5
:10271000206C696E6520256420696E2025730A008F
:102720007120213D204E554C4C00000069706164C1
:10273000647220213D204E554C4C000050D20008C0
:10274000540100205CA900202DE9F84306461546F7
:1027500088461C4802EB450100EBC104207D02289D
:1027600006D219A340F2EE2225A131A0FFF77EFB8D
:10277000144A05EB4501207D02EBC1050C3502280A
:1027800013D1608A0327B0F58E7F04D9211D30460E
:1027900000F010FA07E0B0F5877F06D32A46211D26
:1027A000304600F00DFA00B927754FF40060009034
:1027B0002B4606F122024146304600F021FBBDE8DF
:1027C000F88300005CA900202E2E2F4D6964646CF4
:1027D0006577617265732F54686972645F506172C6
:1027E00074792F4C7749502F7372632F636F726522
:1027F0002F697076342F6574686172702E630000E3
:102800006172705F7461626C655B6172705F696454
:10281000785D2E7374617465203E3D2045544841B7
:1028200052505F53544154455F535441424C45000C
:10283000417373657274696F6E202225732220665E
:1028400061696C6564206174206C696E6520256423
:1028500020696E2025730A002DE9FC5F8246223034
:1028600001900E46086814464FF0FF374FF0000BFA
:10287000514600F033FD80B93068C0F303110E29D2
:102880000BD056B148B1524601213046FFF7C0FC8B
:10289000050005D540B2BDE8FC9F6FF00F00FAE7D8
:1028A0007F2D06D337A340F2C13244A147A0FFF7E2
:1028B000DDFA05F0FF094F4909EB490801EBC805AE
:1028C000287D00280ED0012808D0022806D22DA38A
:1028D00040F2CD3248A13DA0FFF7C8FABBF1000F8E
:1028E00006D104E001202875C5F808A000E034B93D
:1028F0003146504600F05EF90746002CCBD0287DCB
:102900003C4E02280ED346494FF4006005F10C03FB
:1029100081F80090009021465046019A00F070FA2C
:1029200007462DE001282BD1254640F2F137688972
:102930002989884207D1286828B112A33A4639A1CB
:1029400022A0FFF793FA287B400607D522464FF4D2
:1029500020710E2003F00CF9044605E02D68002DCF
:10296000E5D1204603F04CFC44B156F8380008B1DC
:1029700003F0C8FA46F83840002701E04FF0FF376F
:10298000384688E72E2E2F4D6964646C6577617236
:1029900065732F54686972645F50617274792F4C4B
:1029A0007749502F7372632F636F72652F6970764A
:1029B000342F6574686172702E63000074797065DD
:1029C000206F766572666C6F7700000041737365E7
:1029D0007274696F6E2022257322206661696C65AE
:1029E00064206174206C696E6520256420696E2006
:1029F00025730A005CA900206172705F7461626CCB
:102A0000655B695D2E7374617465203D3D205045A2
:102A10004E44494E47206F7220535441424C45006A
:102A2000540100206E6F207061636B6574207175B6
:102A30006575657320616C6C6F77656421000000BB
:102A40002DE9FF4F81B09846DDE90FA9DDF838B0D8
:102A500006004FF0000706D12CA340F2574239A1DF
:102A60003CA0FFF703FA4FF420721C210E2002F065
:102A70003BFE050046D068891C2806D223A340F2FD
:102A800062423EA133A0FFF7F1F96C68119801F0A2
:102A900005FDE08096F82800062806D01BA340F22A
:102AA000694243492BA0FFF7E1F9D8F80010A16073
:102AB000B8F80400A081DAF80010C4F81210BAF8CF
:102AC0000400E082DBF80000C4F80E00D9F8000032
:102AD000A0614FF480702080082060800620207163
:102AE0000420607140F60600DDE9022300902946CB
:102AF000304600F085F9284603F004FA384605B060
:102B0000BDE8F08F4FF0FF30F9E700002E2E2F4D7B
:102B10006964646C6577617265732F546869726467
:102B20005F50617274792F4C7749502F7372632F05
:102B3000636F72652F697076342F65746861727087
:102B40002E6300006E6574696620213D204E554C51
:102B50004C000000417373657274696F6E2022250A
:102B60007322206661696C6564206174206C696EF3
:102B70006520256420696E2025730A0063686563FB
:102B80006B2074686174206669727374207062755A
:102B9000662063616E20686F6C6420737472756365
:102BA00074206574686172705F6864720000000070
:102BB00098D40008014A00F003B8000050D2000881
:102BC0007FB5064D031D0124CDE90035CDE9021482
:102BD0001E331946FFF734FF04B070BD56D200080B
:102BE00070B5164D002400BF04EB440005EBC00295
:102BF000117DF1B1508A401C80B25082B0F5967FB1
:102C00000AD2012906D003290AD004290AD00129B1
:102C10000BD00EE0052808D32046FFF729FC08E07A
:102C2000042000E00220107503E0111D9068FFF7FA
:102C3000C1FF641C0A2CD7DB70BD00005CA900201A
:102C4000F8B5044690F828001F4616460D4606289B
:102C500006D020A340F2A9122CA135A0FFF706F957
:102C60009DB1286888B1214600F038FB68B9287802
:102C7000C0F303100E2808D0224639462846FFF735
:102C8000C7FA002804DA40B2F8BD6FF00F00F8BDB3
:102C900000EB40013048022300EBC1021375946041
:102CA0003368D360B38813820023538250F83150C5
:102CB00075B140F831304FF400600090334604F1B4
:102CC00022022946204600F09BF8284603F01AF914
:102CD0000020F8BD2E2E2F4D6964646C65776172FB
:102CE00065732F54686972645F50617274792F4CF8
:102CF0007749502F7372632F636F72652F697076F7
:102D0000342F6574686172702E6300006E6574699B
:102D1000662D3E6877616464725F6C656E203D3D30
:102D2000204554485F4857414444525F4C454E004B
:102D3000417373657274696F6E2022257322206659
:102D400061696C6564206174206C696E652025641E
:102D500020696E2025730A005CA900202DE9F0414E
:102D6000044640890E270D460E283CD9E07B18B951
:102D700095F82C00401CE073606801788689CA07CA
:102D800014D0012905D006221C49FDF7EFFA48B1FD
:102D90000CE0417851B980785E2807D1607B40F023
:102DA000100002E0607B40F008006073082E03D042
:102DB000B6F5C16F17D10DE095F82900000712D5BF
:102DC0003946204603F06AFA68B92946204600F0E1
:102DD000CDFB10E095F82900000704D539462046C0
:102DE00003F05CFA18B1204603F08CF803E02946A2
:102DF0002046FFF74FFB0020BDE8F08150D20008CD
:102E00002DE9F04104461F4690460E46069801F013
:102E100045FB05460E21304602F002FC18B16FF06A
:102E20000100BDE8F0817068858139680160B9886A
:102E30008180D8F80020C0F80620B8F8041041813D
:102E400094F82800062806D006A34FF4997213A11F
:102E50001FA0FFF70BF831462046A269BDE8F041FC
:102E6000104700002E2E2F4D6964646C65776172E7
:102E700065732F54686972645F50617274792F4C66
:102E80007749502F7372632F6E657469662F65746E
:102E90006865726E65742E63000000006E6574696B
:102EA000662D3E6877616464725F6C656E206D7537
:102EB0007374206265203620666F722065746865C1
:102EC000726E65745F6F7574707574210000000018
:102ED000417373657274696F6E20222573222066B8
:102EE00061696C6564206174206C696E652025647D
:102EF00020696E2025730A0010B5040006D10BA3CB
:102F000040F219220EA112A0FEF7B0FF732084F840
:102F10002A00742084F82B00174860611748A061CC
:102F2000204601F06BF9002010BD00002E2E2F531B
:102F300072632F65746865726E657469662E6300CE
:102F40006E6574696620213D204E554C4C00000092
:102F5000417373657274696F6E2022257322206637
:102F600061696C6564206174206C696E65202564FC
:102F700020696E2025730A0099250008B5430008D2
:102F80000B4E04464FF0FF373946306802F0ECFA3A
:102F90000028F9D1204601F0ADF90500F4D02269EE
:102FA000214690470028F5D0284602F0ABFFF1E714
:102FB0001C00002003490A685206FCD5C2B24A60D0
:102FC00070470000001001400A46032100F0F4B8E9
:102FD0002DE9FE4F8A4644490446D1F8088098F806
:102FE00000000007850E142D79D36089042876D35C
:102FF00060680078002872D0082870D1486901F113
:103000001407C0F303120E2A69D08946096800F03C
:1030100065F9002863D12089082860D305F10E01E5
:103020000E46204602F0FCFA002830D020894119D3
:1030300089B2884253D84FF420720E2002F054FB1C
:1030400006004CD0718905F10800814216D32A464A
:1030500041467068FDF758F92946304603F01EF9DD
:10306000002806D021A3B6222EA13CA0FEF7FEFE2A
:1030700004E02146304602F0C9FD18B1304602F0A6
:1030800041FF2CE0204602F03DFF34460CE0314683
:10309000204603F003F9002806D014A3C72239A163
:1030A0002EA0FEF7E3FE1AE029462046666802F0ED
:1030B000B7FAA0B960683968FF22C160D9F810106A
:1030C00001610021317071800272418101228DE81D
:1030D00006040A46FF233946204600F017FB204627
:1030E000BDE8FE4F02F00EBF547200202E2E2F4D71
:1030F0006964646C6577617265732F546869726482
:103100005F50617274792F4C7749502F7372632F1F
:10311000636F72652F697076342F69636D702E63EB
:103120000000000069636D705F696E7075743A200D
:103130006D6F76696E6720722D3E7061796C6F617C
:103140006420746F2069636D7020686561646572C6
:10315000206661696C65640A000000004173736554
:103160007274696F6E2022257322206661696C6516
:1031700064206174206C696E6520256420696E206E
:1031800025730A0069636D705F696E7075743A200B
:10319000726573746F72696E67206F726967696EAA
:1031A000616C20702D3E7061796C6F616420666186
:1031B000696C65640A0000002DE9FF479146884666
:1031C00006464FF420722421222002F08DFA0500D9
:1031D00031D06889242806D218A34FF4B47225A1EF
:1031E0002FA0FEF743FE6C6877681C2284F80080ED
:1031F00084F801904FF00008A4F80480A4F8068039
:10320000686871680830FDF77FF8F868039003A8D4
:1032100000F08CFC60B1A4F802800122CDF800809F
:10322000CDE90120FF2303AA0021284600F06EFA11
:10323000284602F067FEBDE8FF8700002E2E2F4DC6
:103240006964646C6577617265732F546869726430
:103250005F50617274792F4C7749502F7372632FCE
:10326000636F72652F697076342F69636D702E639A
:1032700000000000636865636B20746861742066F9
:103280006972737420706275662063616E20686F66
:103290006C642069636D70206D6573736167650090
:1032A000417373657274696F6E20222573222066E4
:1032B00061696C6564206174206C696E65202564A9
:1032C00020696E2025730A000A460B21FFF774BFA0
:1032D000EFF30580002800D001207047421C12D077
:1032E00088B191F8292092070BD54B68834208D00A
:1032F000896800EA01020B409A4202D10143491C4D
:1033000001D0002070470120704700002DE9F74FE1
:1033100088B00446099800251426008CAF1F143885
:10332000C11700EB5170C0F3CF00039060680690A6
:10333000017801F00F01052903D038460BB0BDE834
:10334000F08F6189142907D25BA34FF43F7269A102
:103350006FA0FEF78BFDF0E7C08801F09FF8C0F387
:103360000C0100F4005002910790208914381FFAD4
:1033700080F88EE003984FF6FF7101EAC0004146E5
:10338000404500D9084604904FF4207214210E20C5
:1033900002F0AAF95FEA000A7ED0BAF80A001428FF
:1033A00006D245A34FF4497263A159A0FEF75EFD12
:1033B0001422DAF804000699FCF7A6FFDAF80400F4
:1033C0000590049F35E06089811B8DB2B04206D222
:1033D00039A340F22D3260A14DA0FEF747FDAF4268
:1033E00000D23D461DB3052001F05AFC5FEA0009FA
:1033F00057D060684B463044CDE90005412229464C
:10340000002002F0F7FA5FEA000B50D0204602F0ED
:10341000F7FE5549C9E904145946504602F006FB27
:10342000781B07043F0C06D000262468CBE72468ED
:103430000026002FC7D1701986B20998008C143865
:1034400040450298C0F30C0001DB079909B140F434
:10345000005001F023F80599C8800498143080B218
:1034600001F01CF8059948800598002141810998D0
:1034700051460A9A43699847504602F043FD049921
:10348000A8EB01001FFA80F8DDE90201084480B2D0
:103490000290B8F1000F00E006E07FF46BAF00206F
:1034A0004CE7504602F02EFD4FF0FF3046E748460D
:1034B00000F06CFBF5E700002E2E2F4D6964646C64
:1034C0006577617265732F54686972645F506172C9
:1034D00074792F4C7749502F7372632F636F726525
:1034E0002F697076342F6970345F667261672E635E
:1034F000000000006970345F6672616728293A2015
:103500007062756620746F6F2073686F727400004C
:10351000417373657274696F6E2022257322206671
:1035200061696C6564206174206C696E6520256436
:1035300020696E2025730A0074686973206E6565C2
:1035400064732061207062756620696E206F6E65FD
:103550002070696563652100702D3E6C656E203EAC
:103560003D20706F66660000654100082DE9F04758
:10357000456807460E4628780421B1EB101F03D09A
:10358000384602F0BFFC77E000074FEA9068688891
:1035900000F084FF04463889A04203D9214638460A
:1035A00002F094FD79894145EAD33889A042E7D3F6
:1035B000B8F1140FE4D32969DFF81C91C1F30310AB
:1035C0000E28C9F81410EA68C9F8102005D0304652
:1035D00000F086F850B1344619E096F82900C0078B
:1035E00002D070680028F6D1002410E099F8140089
:1035F00000247F280BD03948046806E0B44203D089
:10360000204600F06DF810B92468002CF6D1314640
:10361000D9F81000FFF762FE0028B1D199F8100028
:10362000C0F303100E28ABD0002CA9D0E88830F0EE
:10363000C00005D0384600F035F907001CD07D6881
:10364000C9F80850C9E90046297838460907890EA3
:10365000A9F80C10414602F021FE687A012818D022
:10366000062811D011280AD04D462146D9F8140059
:10367000FFF734FE90B11EE00020BDE8F087314630
:10368000384608F0BFFB19E03146384604F064FACA
:1036900014E031463846FFF79BFC0FE0287DC0F36D
:1036A00003100E2807D04146384602F0F7FC0221ED
:1036B0003846FFF789FC384602F024FC0021C9F89F
:1036C0000010C9F80410C9F80810A9F80C10C9F8BE
:1036D0001010C9F81410CFE754720020F000002039
:1036E00010B590F82910C9070CD0416851B1064AAD
:1036F00052698A4204D001461046FFF7EFFD08B137
:10370000012010BD002010BD54720020FEB5DDE97F
:103710000954089E1AB109B10F6807B9211D009616
:10372000CDE9015400F002F8FEBD00002DE9F84F8C
:103730000546DDE90BA8807BDDF828B01F4616465C
:103740008946012806D02FA34FF455723AA13DA017
:10375000FEF78CFB6FF00104002E35D014212846B3
:1037600001F05EFF002832D168896C68142806D207
:1037700024A34FF462723DA132A0FEF777FB2772BB
:1037800084F809A0306820614520207084F801B0D9
:10379000288900F083FE414F60804FF0000AA4F8B2
:1037A00006A0388800F07AFEA0803888401C388057
:1037B000B9F1000F05D0D9F80000E060A4F80AA024
:1037C0000CE037480068F8E76889142802D22046E0
:1037D000BDE8F88F68686E4600690090B8F8200070
:1037E00040B12989814205D9324641462846FFF732
:1037F0008DFDEDE7D8F8143040463246294698470B
:10380000E6E700002E2E2F4D6964646C65776172C7
:1038100065732F54686972645F50617274792F4CBC
:103820007749502F7372632F636F72652F697076BB
:10383000342F6970342E6300702D3E726566203D12
:103840003D203100417373657274696F6E202225CB
:103850007322206661696C6564206174206C696EF6
:103860006520256420696E2025730A0063686563FE
:103870006B2074686174206669727374207062755D
:10388000662063616E20686F6C6420737472756368
:10389000742069705F6864720000000056010020A7
:1038A00098D300082DE9F05F45688346287800F03A
:1038B0000F0005287DD1E88800F0F0FDC004070C5A
:1038C000688800F0EBFD29780907890E814270D8DD
:1038D000401A1FFA80F8584602F040F96A4C064632
:1038E000208830440A2809D93146284600F0E4FBF4
:1038F00000285ED0208830440A28E8D8A1466468B1
:103900004FF0000A0CE06069E968884207D1A069BD
:103910002969884203D1A089A988884203D02468F4
:10392000002CF0D106E02CB1E88800F0B7FDC0040F
:103930001BD025E0042001F0B3F904000AD1314680
:10394000284600F0B9FBB04233DB042001F0A8F9AF
:103950000400CED02021FCF7FEFC0F20E077D9F840
:1039600004102160C9F8044004E0E08900F096FDED
:10397000C00405D01422294604F10800FCF7C4FC59
:10398000A87940F340156D1C08D007EB080080B201
:10399000B84263D34FF6EB7188425FD82A46594646
:1039A000204600F03BF9411C58D0B9F800203244C1
:1039B00000E064E0A9F8002035B107EB0801A1831D
:1039C000A17F41F00101A177012845D1A08B1422EC
:1039D000143087B2606804F10801456828462E68F3
:1039E000FCF792FC384600F059FD6880A5F806A067
:1039F000A5F80AA0656809E014213046776802F04E
:103A00004DFC3146284602F011F83E68002EF3D1F5
:103A1000D9F804104E468C4205D1002105E0086813
:103A2000A04202D001460029F9D1204600F01AFA3E
:103A3000284602F093F804463088A04206D213A329
:103A400040F29B2220A127A0FEF710FA3088001B2D
:103A500030802846BDE8F09F0020FBE7606870B921
:103A6000D9F80400844206D008A340F2AB2227A173
:103A70001CA0FEF7FBF90021204600F0F3F95846A0
:103A800002F040FAE8E70000580100202E2E2F4DEA
:103A90006964646C6577617265732F5468697264D8
:103AA0005F50617274792F4C7749502F7372632F76
:103AB000636F72652F697076342F6970345F667238
:103AC00061672E630000000069705F726561737347
:103AD0005F70627566636F756E74203E3D20636C27
:103AE000656E0000417373657274696F6E202225E4
:103AF0007322206661696C6564206174206C696E54
:103B00006520256420696E2025730A006E6F74207D
:103B10006669727374616C74686F756768206A7522
:103B2000737420656E7175657565640070B50146C6
:103B3000144813E090F82920D3070FD053070DD570
:103B400043685BB184680D68234005EA04069E4221
:103B500016D0920702D4C268954211D0006800289E
:103B6000E8D10948006850B190F82920D30706D061
:103B7000520704D5426812B109787F2900D100208C
:103B800070BD0000F0000020F400002010B504001B
:103B900006D106A34FF4317213A116A0FEF766F901
:103BA0002146BDE81040052001F006B82E2E2F4D0D
:103BB0006964646C6577617265732F5468697264B7
:103BC0005F50617274792F4C7749502F7372632F55
:103BD000636F72652F697076342F6970345F667217
:103BE00061672E63000000007020213D204E554C7F
:103BF0004C000000417373657274696F6E2022255A
:103C00007322206661696C6564206174206C696E42
:103C10006520256420696E2025730A002DE9F05F78
:103C20004C68064693460F4600254FF00108608811
:103C300000F034FC21784FF0FF3A0907890E8142E9
:103C400031D8A0EB0109E08800F028FCC0047C68B2
:103C5000010C0020206001EB090083B2A180E38009
:103C60008B4220D3726829E05068B0F804C06145E7
:103C700015D222606DB1B5F806C0614513D38088B6
:103C8000834210D82F60A088844506D04FF00008EA
:103C900003E08088834206D877608AB12EE002D0A4
:103CA000C288914202D25046BDE8F09F25B1EA8811
:103CB000624501D04FF0000802680546002AD3D1C2
:103CC00095B1E888A188884206D92AA34FF4DB720F
:103CD00037A13FA0FEF7CAF82F60E888A188884284
:103CE0000CD04FF0000809E0706830B121A34FF408
:103CF000DF7241A136A0FEF7B9F87760BBF1000F83
:103D000002D1B07FC007CFD0B8F1000F30D07268B9
:103D1000002A2DD050688088002829D121682046AB
:103D200029B14C68C088A1888842F7D020E0B8F15A
:103D3000000F1DD032B90FA340F2DF123CA124A026
:103D4000FEF794F870684068A04206D109A34FF4CA
:103D5000F07237A11EA0FEF789F8206830B105A3E4
:103D60004FF4F17236A11AA0FEF780F801209BE70C
:103D7000002099E72E2E2F4D6964646C657761727F
:103D800065732F54686972645F50617274792F4C47
:103D90007749502F7372632F636F72652F69707646
:103DA000342F6970345F667261672E630000000013
:103DB000636865636B20667261676D656E747320FE
:103DC000646F6E2774206F7665726C6170000000FE
:103DD000417373657274696F6E20222573222066A9
:103DE00061696C6564206174206C696E652025646E
:103DF00020696E2025730A006E6F207072657669E7
:103E00006F757320667261676D656E742C207468BF
:103E10006973206D7573742062652074686520660F
:103E20006972737420667261676D656E742100003B
:103E300073616E69747920636865636B00000000CC
:103E400076616C69646174655F64617461677261F5
:103E50006D3A6E6578745F70627566213D4E554CA3
:103E60004C00000070B504460C480D464168A14264
:103E700002D1216841600AE0002D06D108A340F27A
:103E8000451216A11CA0FDF7F1FF2068286021460D
:103E9000BDE87040042000F08FBE000058010020F3
:103EA0002E2E2F4D6964646C6577617265732F5493
:103EB000686972645F50617274792F4C7749502F32
:103EC0007372632F636F72652F697076342F697018
:103ED000345F667261672E630000000073616E6973
:103EE000747920636865636B206C696E6B65642010
:103EF0006C69737400000000417373657274696FBC
:103F00006E2022257322206661696C6564206174CD
:103F1000206C696E6520256420696E2025730A0077
:103F20002DE9F047054600240F46A94205D12FA3ED
:103F3000AB223DA13FA0FDF799FF002F08D03868C4
:103F4000A84205D029A3AD2244A13AA0FDF78EFFD7
:103F50006E684FF480387068818800291AD1006833
:103F60006860142205F108017068FCF7CDF90121A1
:103F70003046FFF7A9F9304601F0F0FD0446404510
:103F800005D31AA3BC223AA12AA0FDF76FFF304641
:103F900001F0B8FF6E6812E07068B14606684846E6
:103FA00001F0DCFD0444444505D310A3CC2230A12C
:103FB00020A0FDF75BFFA4B2484601F0A3FF002E4E
:103FC000EAD139462846FFF74DFF314D2888A042F7
:103FD00005D206A3D2222FA116A0FDF747FF2888FD
:103FE000001B28802046BDE8F08700002E2E2F4DB4
:103FF0006964646C6577617265732F546869726473
:104000005F50617274792F4C7749502F7372632F10
:10401000636F72652F697076342F6970345F6672D2
:1040200061672E63000000007072657620213D20DC
:1040300069707200417373657274696F6E20222516
:104040007322206661696C6564206174206C696EFE
:104050006520256420696E2025730A0070726576DC
:104060002D3E6E657874203D3D2069707200000021
:1040700070627566735F6672656564202B20636C81
:10408000656E203C3D203078666666660000000064
:104090005801002069705F72656173735F706275AB
:1040A00066636F756E74203E3D2070627566735F47
:1040B00066726565640000002DE9F0471D4F894672
:1040C000064600240022134611461546786822E071
:1040D000D0F814C0D6F80C80C4450BD1D0F818C065
:1040E000D6F81080C44505D1B0F80CC0B6F80480ED
:1040F000C44509D06D1C2AB190F81FC092F81F80EA
:10410000C44501D802461946D0F800C0BCF1000FE2
:1041100000D0034660460028DAD11AB11046FFF7F6
:10412000FFFE04444C4501DA012DCBDC2046BDE8FE
:10413000F08700005801002070B509480025446848
:104140000BE0E07F20B1401EE0772546246804E0C4
:10415000204624682946FFF7E3FE002CF1D170BD0C
:104160005801002010B5040006D108A340F2CE2269
:1041700015A118A0FDF77AFE606908B101F0C2FE32
:104180002046BDE81040FFF701BD00002E2E2F4D48
:104190006964646C6577617265732F5468697264D1
:1041A0005F50617274792F4C7749502F7372632F6F
:1041B000636F72652F697076342F6970345F667231
:1041C00061672E630000000070637220213D204E65
:1041D000554C4C00417373657274696F6E202225D3
:1041E0007322206661696C6564206174206C696E5D
:1041F0006520256420696E2025730A0070B5384D4E
:1042000004468CB0354828600120002668602E8264
:104210008DF81C6080218DF81D10E1218DF81E1095
:104220008DF820608DF81F608DF8216007A9C5E921
:104230000510C005C5E907602846FCF7E5FA28B96E
:1042400094F8290040F0040084F829000423254A4A
:1042500025492348FCF71AFA234A04238032A2F5A1
:1042600080711F48FCF7D8F9062084F82800686997
:104270000121007884F822006869407884F82300DE
:104280006869807884F824006869C07884F825001B
:104290006869007984F826006869407984F8270005
:1042A00040F2DC50208494F8290040F00A0084F8A1
:1042B0002900099609A80A9601F00EF90B491C225B
:1042C00008600B496846FCF71FF82146684601F074
:1042D0007DF90348FCF74CFC0CB070BD0080024037
:1042E00090340020C01C0020700400201C0000201E
:1042F0001CD200082DE9F84F0020044600902C48FD
:10430000FCF701FA10B10020BDE8F88F2848818F32
:10431000D0F840900904090C2FD04FF4C17200204E
:1043200001F0E2F9009040B32148009D40F2F45BB7
:10433000D0F830806E89002710E000BFA4F2F4525C
:104340005242FBF7E1FFD8F80C008046D0F8089005
:104350003F1BAAF2F456002407F2F457686806EBF4
:10436000040ADA4509EB04013844E7D83246FBF782
:10437000CBFF2D683444002DDCD10D480022016BA9
:1043800005E00B6843F000430B60C968521C836B67
:104390009342F6D800218163006800F5805042699D
:1043A000120602D58022426181600098ACE70000CD
:1043B000903400202DE9F05F27480D46C66A0020A2
:1043C00083460446D6F808A031E0306800280CDBAC
:1043D0006F894FF0000818E0A4F2F4525242FBF744
:1043E00093FFF6683068002802DA6FF0070025E0D6
:1043F000D6F808A0A8EB040000F2F458ABEB0400D8
:10440000A9F2F45700F2F45B002407EB040940F230
:10441000F451894569680AEB04004144DCD83A4606
:10442000FBF772FF0BEB07002D683C448346002D21
:10443000CBD101460848FCF7DDFB0020064909689E
:1044400001F580514A69920603D520224A61002273
:104450004A60BDE8F09F00009034002010B504468B
:104460004068804702F0D0FB094A216852688B18E7
:104470001A1AB2F1004F03D308442246054902E05C
:10448000044922461846BDE8104002F039BC00003D
:10449000400100205D44000800BA704740BA7047F0
:1044A00010B502F069FB00F003F900F0D3FB00F057
:1044B000CDFD07F09BFC03F043FBBDE8104002F08C
:1044C0009BBCFCF763FDFDF793FBFDF781FAFDF75D
:1044D00047FBFDF769FA00F000FFFEE70146002008
:1044E000842900D0C81C70472DE9F041002861D014
:1044F000810704D030A340F273223BA10DE0434D6D
:10450000A0F1080429688C4203D369680C30884202
:1045100007D929A340F27F223DA144A0FDF7A6FCC4
:104520002FE03A48083002F058FB207900282ED0BE
:104530002888201A86B2208802F032FA074660885E
:1045400002F02EFA21884FF4C863002299420DD858
:10455000618899420AD8B14202D00088B04205D1A0
:104560006868874218D07888B04215D012A340F20C
:10457000952238A12DA0FDF779FC2448083002F0DF
:1045800040FB02F0C5FABDE8F04102F0CDBA0AA343
:104590004FF423723CA1EDE72271E868844200D217
:1045A000EC60204601F0E2FEBDE8F041174808301B
:1045B00002F027BBBDE8F0812E2E2F4D6964646C9C
:1045C0006577617265732F54686972645F506172B8
:1045D00074792F4C7749502F7372632F636F726514
:1045E0002F6D656D2E6300006D656D5F667265658C
:1045F0003A2073616E69747920636865636B20612A
:104600006C69676E6D656E7400000000A800002084
:104610006D656D5F667265653A20696C6C65676192
:104620006C206D656D6F72790000000041737365D9
:104630007274696F6E2022257322206661696C6531
:1046400064206174206C696E6520256420696E2089
:1046500025730A006D656D5F667265653A20696C49
:104660006C6567616C206D656D6F72793A206E6F55
:104670006E2D6C696E6B65643A20646F75626C6553
:1046800020667265650000006D656D5F6672656528
:104690003A20696C6C6567616C206D656D6F72792D
:1046A0003A20646F75626C65206672656500000073
:1046B00070B51248124C20F003014FF4C865216018
:1046C0000D80002048800871284602F069F9012118
:1046D00060600171058045802068E06004F1080099
:1046E00002F080FA002808D0BDE8704005A340F22F
:1046F0001F2210A116A0FDF7B9BB70BD6F7200207C
:10470000A80000202E2E2F4D6964646C65776172BD
:1047100065732F54686972645F50617274792F4CAD
:104720007749502F7372632F636F72652F6D656DBC
:104730002E6300006661696C656420746F2063728B
:1047400065617465206D656D5F6D757465780000D9
:10475000417373657274696F6E202225732220661F
:1047600061696C6564206174206C696E65202564E4
:1047700020696E2025730A002DE9F04700280ED02D
:10478000C41C4FF6FC710C404FF4C8690C2C01D2CC
:104790000C2401E04C4501D8844202D20020BDE83F
:1047A000F087444802F019FA4248C4F5C86708384F
:1047B000824681890288891A8EB274E0304602F0FE
:1047C000EFF80546007900286AD12888801B083850
:1047D000A04265D3288804F11401801B08384FF0EB
:1047E000010888421DD33019083087B24F4506D1E1
:1047F00031A340F287323CA140A0FDF737FB384699
:1048000002F0CEF8002101712988018046802F80B6
:1048100085F804800088484505D002F0C1F847803B
:1048200001E085F80480DAF80C005646854203D092
:1048300014E0008802F0B4F8017911B1716888427F
:10484000F7D1F0607168884208D0007930B11AA3BE
:1048500040F2B53233A129A0FDF708FB154802F05C
:10486000D0F9281971680830884206D912A340F29D
:10487000B93233A121A0FDF7F9FAA8070DD00EA394
:1048800040F2BB323AA11DA0FDF7F0FA0AA340F2B4
:10489000BD3243A119A0FDF7E9FA05F108007EE752
:1048A000DAF80000865BB74288D8024802F0A9F91E
:1048B00074E70000B00000202E2E2F4D6964646C58
:1048C0006577617265732F54686972645F506172B5
:1048D00074792F4C7749502F7372632F636F726511
:1048E0002F6D656D2E630000696E76616C696420C2
:1048F0006E657874207074720000000041737365F7
:104900007274696F6E2022257322206661696C655E
:1049100064206174206C696E6520256420696E20B6
:1049200025730A006D656D5F6D616C6C6F633A2075
:10493000216C667265652D3E75736564000000002C
:104940006D656D5F6D616C6C6F633A20616C6C6F4F
:104950006361746564206D656D6F7279206E6F742C
:104960002061626F76652072616D5F656E642E00F6
:104970006D656D5F6D616C6C6F633A20616C6C6F1F
:104980006361746564206D656D6F72792070726FFC
:104990007065726C7920616C69676E65642E0000C9
:1049A0006D656D5F6D616C6C6F633A2073616E69EC
:1049B000747920636865636B20616C69676E6D65EF
:1049C0006E74000002490988401A80B270470000E6
:1049D000A80000202DE9F05F0646CC1C4FF6FC70C5
:1049E00004404FF4C86A0C2C01D20C2401E0544559
:1049F0002FD88C422DD3464F3868864202D3786830
:104A0000864206D343A340F2D1224EA153A0FDF724
:104A10002DFA3868864202D379688E4204D302F0B8
:104A200077F802F081F819E0A6F10805BB46281ACC
:104A300087B22888C01B08381FFA80F94C4506D970
:104A400034A34FF439724FA144A0FDF70FFA4C453F
:104A500003D94FF00000BDE8F09F01D13046FAE7DE
:104A60002B4800F1080002F0B8F8288801F098FF00
:104A70008046007900282AD004F11400484521D846
:104A80003819083084B22888504506D121A340F255
:104A9000163244A131A0FDF7E9F9204601F080FF6C
:104AA000DBF80C20904201D2CBF80C000021017100
:104AB0002988018047802C800088504502D001F071
:104AC0006FFF44801248083002F09BF8C6E7288840
:104AD000504506D10FA340F2F52232A11FA0FDF7E9
:104AE000C5F938190830DBF80C10B8F8009084B21A
:104AF000414504D1204601F053FFCBF80C0020467D
:104B000001F04EFF00210171A0F80090D2E70000F3
:104B1000A80000202E2E2F4D6964646C65776172A9
:104B200065732F54686972645F50617274792F4C99
:104B30007749502F7372632F636F72652F6D656DA8
:104B40002E6300006D656D5F7472696D3A206C654F
:104B500067616C206D656D6F7279000041737365DC
:104B60007274696F6E2022257322206661696C65FC
:104B700064206174206C696E6520256420696E2054
:104B800025730A006D656D5F7472696D2063616ED7
:104B9000206F6E6C7920736872696E6B206D656D25
:104BA0006F727900696E76616C6964206E657874E5
:104BB00020707472000000000D2806D307A34FF484
:104BC000D57212A118A0FDF751B9002904D0204ACE
:104BD00052F82000FDF756BA704700002E2E2F4DD8
:104BE0006964646C6577617265732F546869726477
:104BF0005F50617274792F4C7749502F7372632F15
:104C0000636F72652F6D656D702E63006D656D70DD
:104C10005F667265653A2074797065203C204D4569
:104C20004D505F4D41580000417373657274696F58
:104C30006E2022257322206661696C656420617490
:104C4000206C696E6520256420696E2025730A003A
:104C5000F8D2000830B5064D002400BF55F82400F6
:104C600000F008F8641CA4B20D2CF7D330BD00008E
:104C7000F8D200088268002111604168C91C21F047
:104C80000301002207E08368521C1B680B608368E5
:104C900019600388194443889342F4DC704700008C
:104CA00010B50D2808D308A340F2571212A11AA07C
:104CB000FDF7DCF8002010BD214951F82000BDE8C7
:104CC0001040FDF733BA00002E2E2F4D6964646C3E
:104CD0006577617265732F54686972645F506172A1
:104CE00074792F4C7749502F7372632F636F7265FD
:104CF0002F6D656D702E63006D656D705F6D616CFD
:104D00006C6F633A2074797065203C204D454D509E
:104D10005F4D415800000000417373657274696F04
:104D20006E2022257322206661696C65642061749F
:104D3000206C696E6520256420696E2025730A0049
:104D4000F8D200082DE9F0470400DDE90970089D5C
:104D500003D03FB100290DD00DE035A340F227125A
:104D600040A103E032A34FF4947245A14DA0FDF79A
:104D70007DF81CE0554902B9544A03B9534B00264B
:104D80006660A660DFF848C1C4F814C0E6602684F7
:104D900084F82960E5614F4D95F800C084F82CC077
:104DA0002061204600F0B8F92046B84710B1002035
:104DB000BDE8F087B24640F28B1840F28D1900BF73
:104DC00094F82C00FF2801D184F82CA000276E68ED
:104DD0001EE0A64205D116A342463FA131A0FDF731
:104DE00045F87F1CFF2F05DD11A34A463FA12DA0EA
:104DF000FDF73CF896F82C0094F82C10884206D168
:104E0000C8B2401C84F82C00002ED9D102E03668CC
:104E1000002EDED194F82C00FE2806D0401C28700D
:104E20006868206020466C60C2E785F800A0F7E75C
:104E30002E2E2F4D6964646C6577617265732F54F3
:104E4000686972645F50617274792F4C7749502F92
:104E50007372632F636F72652F6E657469662E635C
:104E6000000000006E657469665F6164643A2069E1
:104E70006E76616C6964206E65746966000000007E
:104E80006E657469665F6164643A204E6F20696E76
:104E900069742066756E6374696F6E2067697665E4
:104EA0006E000000417373657274696F6E20222575
:104EB0007322206661696C6564206174206C696E80
:104EC0006520256420696E2025730A0098D30008A8
:104ED00011510008EC0000206E6574696620616C59
:104EE000726561647920616464656400746F6F2029
:104EF0006D616E79206E65746966732C206D6178C2
:104F00002E20737570706F72746564206E756D629B
:104F100065722069732032353500000070B50C468B
:104F2000054603F073FB21462846BDE8704007F0B4
:104F3000E3B80A68C3689A4204D001B90022C2608B
:104F40000120704700207047F8B515460C00064652
:104F500006D113A340F2CB121EA122A0FCF786FFBC
:104F600035B90FA34FF4E6721AA11EA0FCF77EFF1D
:104F700021687068814210D00091286069462846F7
:104F8000FFF7CCFF3CB1206870600121304600F093
:104F90005FF80120F8BD0020F6E70020F8BD000012
:104FA0002E2E2F4D6964646C6577617265732F5482
:104FB000686972645F50617274792F4C7749502F21
:104FC0007372632F636F72652F6E657469662E63EB
:104FD00000000000696E76616C696420706F696E14
:104FE00074657200417373657274696F6E20222557
:104FF0007322206661696C6564206174206C696E3F
:105000006520256420696E2025730A000A6883687C
:105010009A4204D001B9002282600120704700202A
:105020007047000001000CD00748406807E000BF4F
:1050300090F82C20521CD2B28A4203D0006800287B
:10504000F6D1002070470000EC00002070470000FF
:1050500070B50D46040006D10DA340F26D3219A1C2
:1050600021A0FCF703FF94F8290041070ED5C107E2
:105070000CD0E9070AD06168002907D0000705D5E0
:10508000211D2046BDE87040FDF794BD70BD0000B5
:105090002E2E2F4D6964646C6577617265732F5491
:1050A000686972645F50617274792F4C7749502F30
:1050B0007372632F636F72652F6E657469662E63FA
:1050C000000000006E657469665F69737375655FE3
:1050D0007265706F7274733A20696E76616C696480
:1050E000206E657469660000417373657274696F40
:1050F0006E2022257322206661696C6564206174CC
:10510000206C696E6520256420696E2025730A0075
:105110006FF00B00704700002DE9F84F4FF00009C9
:105120001D4616460C008246C84600D1114C06B9F1
:10513000104E05B90F4DACB1206898B100274A4612
:1051400031465046FFF762FF424629465046FFF778
:10515000F0FE002F04D16A4621465046FFF7F4FEC8
:10516000BDE8F88F01276A4621465046FFF7ECFE5E
:10517000E5E7000098D30008014988607047000007
:10518000EC00002058B190F82910CA070ED001F0A9
:10519000FE0180F82910090708D5FDF723B804A3FC
:1051A00040F29B320FA117A0FCF760BE70470000D1
:1051B0002E2E2F4D6964646C6577617265732F5470
:1051C000686972645F50617274792F4C7749502F0F
:1051D0007372632F636F72652F6E657469662E63D9
:1051E000000000006E657469665F7365745F646FCC
:1051F000776E3A20696E76616C6964206E657469B9
:1052000066000000417373657274696F6E20222519
:105210007322206661696C6564206174206C696E1C
:105220006520256420696E2025730A0050B190F82E
:105230002910CA070DD141F0010180F8291003217E
:10524000FFF706BF03A34FF454720FA115A0FCF79C
:105250000DBE70472E2E2F4D6964646C65776172A8
:1052600065732F54686972645F50617274792F4C52
:105270007749502F7372632F636F72652F6E657459
:1052800069662E63000000006E657469665F736571
:10529000745F75703A20696E76616C6964206E6522
:1052A00074696600417373657274696F6E2022259C
:1052B0007322206661696C6564206174206C696E7C
:1052C0006520256420696E2025730A0010B500B999
:1052D000012007F01DF8002010BD10B507F0B4F84C
:1052E000002010BD10B5FDF7F3FF18B1BDE8104068
:1052F00007F0EABDBDE8104007F0E0BD38B5D0E9E1
:10530000011204683AB1C3682BB100200090204616
:1053100007F0B9F938BD2046BDE83840002207F053
:1053200091B900002DE9FF410D004FF00006CDE9D5
:10533000016507461ED000240396501C1FD002B101
:105340001446FDF7C5FF69464FF01008E8B103AAFF
:105350002846091D07F008FC012813D00096039881
:10536000E8B114494FF080500860BFF34F8FBFF38E
:105370006F8F14E0802031462A46009011E04FF0F4
:10538000FF34DEE7CDF80080E9E722462846091D14
:1053900007F04EFB012808D054B1402000909DE852
:1053A000070087E80700BDE8FF81CDF80080F6E739
:1053B0000020F3E704ED00E037B5054682B0002099
:1053C0000090140000D10124FDF782FF4FF000038C
:1053D00088B16A4603A9284607F07CFA012811D152
:1053E000009890B10A494FF080500860BFF34F8F8A
:1053F000BFF36F8F09E0224603A9284607F0BAF9E8
:10540000012802D0FF2005B030BD0020FBE70000DE
:1054100004ED00E041684FF0010009B107F005B963
:1054200007F0F8B838B5002405460094FDF750FFA2
:1054300090B16946284607F0ACFA012801D0FF2058
:1054400038BD009888B10A494FF080500860BFF31A
:105450004F8FBFF36F8F08E000231A461946284686
:1054600007F088F9012800D0FF24204638BD00004D
:1054700004ED00E038B505004FF0000000900FD0BB
:105480000024481C0ED001B10C46FDF721FFB8B135
:105490006A460021284607F067FB012816D104E080
:1054A000802038BD4FF0FF34EFE7009880B1094904
:1054B0004FF080500860BFF34F8FBFF36F8F07E04E
:1054C0002146284607F09EFB012801D0FF2038BD69
:1054D000002038BD04ED00E038B543684BB1012928
:1054E00009D10320002200901146012007F0CBF8DB
:1054F00038BD012901D0002038BD03220021012040
:1055000007F0A0F8040004D000231A46194607F05B
:1055100031F9204638BD000038B500240546009416
:10552000FDF7D6FE90B16946284607F032FA012809
:1055300001D0FF2038BD009888B10A494FF0805053
:105540000860BFF34F8FBFF36F8F08E000231A4648
:105550001946284607F00EF9012800D0FF242046FE
:1055600038BD000004ED00E038B505004FF0000044
:1055700000900FD00024481C0ED001B10C46FDF75E
:10558000A7FEB8B16A460021284607F0EDFA0128C7
:1055900016D104E0802038BD4FF0FF34EFE70098CB
:1055A00080B109494FF080500860BFF34F8FBFF3BF
:1055B0006F8F07E02146284607F024FB012801D021
:1055C000FF2038BD002038BD04ED00E07FB50D465A
:1055D00004464169B0F9080081B1A16971B1FEF7D3
:1055E0007DFFD4E905128DE80700D4E900102B46B1
:1055F000226907F02AFC039004B070BDFEF76EFF2D
:1056000003A9CDE90001208A2B4682B2D4E900101B
:1056100007F0EEFB012801D00020EDE70398EBE74F
:10562000002200F001B8000070B5A8B1B1F5803FCC
:1056300026D2002918D004898BB214FA81F5ADB2B4
:105640009D421DD3057B2D0610D54268511A00F1ED
:105650001002914214D30CE00AA340F2DF1215A10C
:1056600017A0FCF703FC0BE0002070BD42B14268BC
:10567000511A4160418919444181E1180181F3E7E0
:10568000012070BD2E2E2F4D6964646C65776172A8
:1056900065732F54686972645F50617274792F4C1E
:1056A0007749502F7372632F636F72652F70627525
:1056B000662E63007020213D204E554C4C000000AA
:1056C000417373657274696F6E20222573222066A0
:1056D00061696C6564206174206C696E6520256465
:1056E00020696E2025730A002DE9FE4F054690467D
:1056F0000F461046012A11D041280FD04FF0000A62
:10570000B0F5C17F10D0B2F5207F67D04AA340F238
:10571000271255A15BA0FCF7A9FB8BE002460020F5
:1057200000F010F9044682E00024A1460C20FFF7A7
:10573000B7FA060036D0E81C029020F00300C0F54E
:105740001470B84200D93846834670191330CDE939
:10575000008A20F003015B463A46304600F0A8FC80
:105760003079800706D034A34FF480724FA145A052
:10577000FCF77CFB02989421B1EB900F06D12EA38D
:105780004FF4817255A13FA0FCF770FB24B3C9F818
:105790000060A7EB0B000704B1463F0C4FF000057B
:1057A000C4D144E001F0B4F9594D2E78012129709B
:1057B00001F0BAF956B90021564806F0B9FA28B1F5
:1057C00001F0A6F985F800A001F0AEF9002C31D067
:1057D000204600F097FB2DE03446DAE7E81C20F085
:1057E0000302F81C20F00301501880B200F11002EF
:1057F00092B281421ED891421CD81046FEF7BCFFDF
:10580000040017D060191330CDE9008A20F003019D
:105810003B461A46204600F04BFC2079800706D014
:1058200005A34FF491723CA116A0FCF71FFB204684
:10583000BDE8FE8F0020FBE72E2E2F4D6964646CBF
:105840006577617265732F54686972645F50617225
:1058500074792F4C7749502F7372632F636F726581
:105860002F706275662E6300706275665F616C6C86
:105870006F633A206572726F6E656F75732074790D
:1058800070650000417373657274696F6E20222524
:105890007322206661696C6564206174206C696E96
:1058A0006520256420696E2025730A007062756684
:1058B0005F616C6C6F633A207062756620712D3E7B
:1058C0007061796C6F61642070726F7065726C7951
:1058D00020616C69676E65640000000050425546A7
:1058E0005F504F4F4C5F42554653495A45206D75A6
:1058F00073742062652062696767657220746861ED
:105900006E204D454D5F414C49474E4D454E54002C
:10591000F800002069600008706275665F616C6C59
:105920006F633A20706275662D3E7061796C6F61AD
:10593000642070726F7065726C7920616C69676E3B
:10594000656400002DE9FC4114460E460746412AD5
:1059500008D0012C06D00CA34FF4A57216A11BA0F1
:10596000FCF784FA0B20FFF79BF905004FF00000CD
:1059700008D0CDE9004033461A463946284600F0A3
:1059800097FB2846BDE8FC812E2E2F4D6964646C80
:105990006577617265732F54686972645F506172D4
:1059A00074792F4C7749502F7372632F636F726530
:1059B0002F706275662E6300696E76616C69642073
:1059C000706275665F74797065000000417373657D
:1059D0007274696F6E2022257322206661696C657E
:1059E00064206174206C696E6520256420696E20D6
:1059F00025730A007CB51C46DDE90635C01C20F085
:105A000003004618AE4201D900207CBD0BB11844FA
:105A100000E000200223CDE900230B4601461A4690
:105A2000204600F045FB20467CBD000070B50D46C9
:105A300008B1002D08D1BDE8704014A340F25932DE
:105A40001EA12CA0FCF712BA0446006820B12189DF
:105A50002A8911442181F7E72089618988420FD082
:105A60000AA340F262322DA122A0FCF7FFF92068C0
:105A700030B106A340F2633234A11EA0FCF7F6F960
:105A80002089298908442081256070BD2E2E2F4D44
:105A90006964646C6577617265732F5468697264B8
:105AA0005F50617274792F4C7749502F7372632F56
:105AB000636F72652F706275662E630028682021FF
:105AC0003D204E554C4C2920262620287420213D6F
:105AD000204E554C4C29202870726F6772616D6D95
